:020000040800F2
:100000007035002045010008D1230008E1210008D7
:10001000CF230008FD090008D74C000800000000AD
:10002000000000000000000000000000753A000819
:10003000630C00080000000035280008B1400008EB
:10004000FD4C0008412400088D410008A52D000842
:1000500003180008792B0008A5150008AD15000845
:10006000B1150008B5150008B91500086D0A00089B
:10007000710A0008750A0008790A00087D0A00085C
:10008000810A0008850A00088D070008D34C000883
:10009000D54C0008FF090008010A0008BD1500083A
:1000A0008F410008954100089341000891410008E4
:1000B000AD410008C1410008D9410008E72100080E
:1000C000E5210008EB210008E9210008E32D0008E4
:1000D000E52D00087D44000881440008854400089F
:1000E000A9150008972C0008D14C0008E34100082E
:1000F000E9410008E7410008E54100088F070008D2
:1001000035180008E12D0008DD410008E72D000842
:100110007544000879440008DF410008E141000807
:10012000890A00088D0A0008910A0008950A00084B
:10013000DFF80CD000F018FB004800476D590008AC
:1001400070350020004800473101000840EA0103F3
:100150009B0703D009E008C9121F08C0042AFAD27D
:1001600003E011F8013B00F8013B521EF9D2704741
:10017000D2B201E000F8012B491EFBD270470022E9
:10018000F6E710B513460A4604461946FFF7F0FF96
:10019000204610BD421C10F8011B0029FBD1801A1B
:1001A0007047CBB203E00178994203D0401C521E45
:1001B000F9D20020704730B504460020034600E025
:1001C0005B1C934203D2E05CCD5C401BF8D030BD99
:1001D0002DE9FE4F804681EA0300C00F0C460090D7
:1001E00021F0004123F00045B8EB0200A94105D2FF
:1001F0004046214690461C460B46024623F00040EE
:10020000104347D0270DC7F30A00C3F30A510290E9
:10021000401A019040286BDAC3F3130040F4801BAE
:100220000098924620B10023D2EB030A63EB0B0B3C
:1002300001985946C0F14002504600F0EEF90646DA
:100240000D4650465946019A00F006FA10EB080098
:100250006141002487EA115284EAE7731A4340D0CF
:10026000009A62B3019A012A4FEA075215DC001B7B
:1002700061EB02014FF0004202EA0752CDE9004271
:10028000001C41F5801132462B4600F006FA03B0FF
:10029000BDE8F08F40462146F9E7001B61EB020103
:1002A000001C41F5801300185B412018A2F50017CF
:1002B00047EB030140EAD570B6196D4111E06D08B6
:1002C0004FEA360645EAC0754FEA0752001B61EB5C
:1002D0000201001C41F5801149084FEA3000001965
:1002E000514132462B4603B0BDE8F04F00F0C6B98D
:1002F0000098012240000023D0EB020263EBE07380
:10030000009821464FEAE074B8EB000061EB04016D
:10031000E9E783F000435BE781F0004158E72DE90E
:10032000FE4F81EA030404F0004421F000410094F0
:100330004FF0000B23F0004350EA01045ED052EA74
:1003400003045BD0C3F30A54C1F30A552C44A4F24E
:10035000F3340194A0FB0254C1F3130141F4801162
:10036000C3F3130343F4801301FB024400FB034E69
:10037000840A970A44EA815447EA8357A4FB076832
:1003800002958D0A05FB07854FEA932C04FB0C545C
:100390002705029D4FEA065847EA1637B5EB0805D0
:1003A0006EEB070C870E920E47EA811742EA831222
:1003B000A7FB0201B6EB0B0164EB00042B0D43EA33
:1003C0000C335E1844EB1C50DA465146E7FB020141
:1003D000C5F313044FEA0B3343EA14534FEA0432D4
:1003E000019C43EA0603A4F10C040294009CCDE9AD
:1003F00000B400F052F903B0BDE8F08F00200146D0
:10040000F9E72DE9F04D81EA030404F0004B21F0F7
:10041000004514464FF0000A23F0004150EA05025F
:1004200020D054EA01021DD0C5F30A570246C5F395
:100430001303C1F31300C1F30A5640F4801543F4CB
:100440008013A7EB0608101BD64608F2FD3873EBA5
:10045000050002D308F1010801E092185B41B8F1F0
:10046000000F03DA00200146BDE8F08D00204FF4B4
:100470008011064684460EE0171B73EB050705D373
:10048000121B63EB050306434CEA010C49084FEAD3
:10049000300092185B4150EA0107EDD152EA0300A7
:1004A00012D082EA040083EA0501084305D0101B3C
:1004B000AB4106D20122002306E000224FF00043A8
:1004C00002E06FF0010253101AEB06004CEB0851EA
:1004D00010EB0A0041EB0B01BDE8F04D00F0CEB887
:1004E00070B521F0004303430CD0C1F30A5500243A
:1004F000D5EB040564EB0403D617AD1AB34102DB58
:100500000020014670BD201841EB025170BD0EB5B0
:1005100040F2334102910021CDE900110A460B4619
:1005200000F0BBF803B000BDC1F30A5210B5C1F32F
:10053000130140F2FF3341F480119A4201DA0020A6
:1005400010BD40F233439A42A2F2334203DC5242DE
:1005500000F072F810BD904010BD000030B5041ED0
:1005600071F1000404DB4FF00044404264EB0101F0
:10057000141E73F1000405DB1C464FF00043524289
:1005800063EB0403994208BF904230BD30B50B467F
:10059000014600202022012409E021FA02F59D42B3
:1005A00005D303FA02F5491B04FA02F52844151E87
:1005B000A2F10102F1DC30BD2DE9F05F054600201B
:1005C00092469B4688460646814640241BE02846C4
:1005D00041464746224600F02FF853465A46C01A75
:1005E000914110D311461846224600F016F82D1AF4
:1005F00067EB01084F4622460120002100F00DF86C
:1006000017EB00094E41201EA4F10104DFDC48462F
:1006100031462A464346BDE8F09F202A04DB203AB3
:1006200000FA02F1002070479140C2F1200320FA45
:1006300003F3194390407047202A04DB203A21FA43
:1006400002F00021704721FA02F3D040C2F12002EB
:100650009140084319467047202A06DBCB17203A01
:1006600041FA02F043EAE07306E041FA02F3D040B7
:10067000C2F12002914008431946704710B5141E7C
:1006800073F1000408DA401C41F1000192185B414B
:100690001A4301D120F0010010BD2DE9F04D924622
:1006A0009B4611B1B1FA81F202E0B0FA80F2203239
:1006B0009046FFF7B2FF04460F4640EA0A0041EABF
:1006C0000B0153465A46084313D0114653EA010022
:1006D00019D0C8F140025046FFF7AEFF05460E465E
:1006E000504659464246FFF798FF084305D001207F
:1006F00004E020463946BDE8F08D0020054346EA77
:10070000E0762C4337430A986305E40AA0EB08001F
:100710000022FD0A44EA47540A3002D5002001466F
:10072000E9E7010510196941DDE90845001969414A
:10073000BDE8F04DA2E7C1F30A52C1F3130140F244
:10074000FF3341F480119A4202DA002001467047DB
:1007500040F233439A42A2F2334202DC5242FFF7A4
:100760006BBFFFF75ABF0000064C074D06E0E0687C
:1007700040F0010394E8070098471034AC42F6D3E8
:10078000FFF7DAFC885B0008A85B00087047704739
:1007900003F017FB01F074FC00F00AFA01211C4879
:1007A00001F0C4F84FF4FA6001F020FD4FF6FF703D
:1007B00002F054FC40F2CF1002F050FC4FF47A707B
:1007C00003F078FC134C42F21430261842F2083041
:1007D00004EB000842F214402718002504F50054E9
:1007E0003146404602F045FA010002D0304602F0A0
:1007F00023F8B4F81425002AF2D03946404602F016
:1008000005FAB4F814158142EAD1A4F81455E7E7C3
:1008100000080140E800002070B501F02FFD134CE6
:100820000025A088411CA180642804D9A58001214D
:100830000F4801F0ADF900F05FF801F07DFD20896F
:10084000411C2181B0F57A7F0CD92581094803F03C
:1008500012F9C0B20849020900F00F0081F89D2585
:1008600081F89E05BDE8704001F0B4BD0000002095
:100870000008014000260020E8200020F8B50E46C0
:100880000988051EADF8001010D007290ED38AB2D2
:100890007E21FFF786FC040008D0BDF80010601B25
:1008A000081A80B2ADF80000072801D20020F8BD78
:1008B0006946204600F072F820B1BDF80000308093
:1008C0002046F8BDBDF80010601C491EADF80010B0
:1008D000DDE70000074906480A6842618A8802830A
:1008E00089798176A0F580600721A0F814157047FA
:1008F000E8240020D800002038B5234890F89D1542
:1009000019B190F89E05002833D1204A5089411C26
:100910005181B0F57A7F2CD900235381907840F231
:10092000FF74401CC1B2481CC0B29070052901D9A7
:1009300093700AE048B101281CD002281DD003287A
:100940001ED0042801D04FF6FF74204602F086FB2B
:100950000FA0009084F0FF0320226421052002F004
:10096000E1FC01200146009000220B4B800701F0C2
:1009700069FD38BD48F23044E7E74FF47844E4E7D6
:1009800048F21F44E1E70000E820002000000020BA
:10099000CEB4B2A6C2EB000000408F4070B50E4648
:1009A0000988002822D044780546022C1FD08C42AA
:1009B00022D8022C02D9621D8A421DD801198A78D8
:1009C00085F80621C97885F80711681C611C00F0BC
:1009D00018F895F80621C1B291420DD195F807118A
:1009E000B1EB102F08D1641D3480012070BD017956
:1009F00085F806114179E6E7002070BDFEE77047F3
:100A00007047FCB504464FF6FF7700200D46ADF861
:100A1000007048F205068DF804001EE014F8010B82
:100A20008DF8040001A9084601F05BFCBDF8000048
:100A30009DF8041080EA0120ADF800000020BDF808
:100A400000100A0402D586EA410101E007EA4101EB
:100A5000401CADF800100828F1DB6D1EDED269469F
:100A6000084601F027FCBDF80000FCBD00F060B8AE
:100A700000F05EB800F05CB800F05AB800F058B86A
:100A800000F056B800F054B800F052B800F050B87A
:100A900000F04EB800F04CB8C10002D50249086021
:100AA0007047024948607047040402400000024059
:100AB0000029016802D041F0010101E021F00101AB
:100AC0000160704702460020D10001D5034900E0D3
:100AD00003490968114200D0012070470004024018
:100AE00000000240002A026801D00A4300E08A4365
:100AF0000260704730B5026847F6F0739A430C6A9B
:100B00008B682343D1E904452C4323438C69234359
:100B1000CC6923434C6A23438C6A23431343036009
:100B2000CA6842600A6882604968C16030BD0000DE
:100B300010B504F0DCF81020FFF7C4FF01281BD02B
:100B40004FF480542046FFF7BDFF01281AD024033C
:100B50002046FFF7B7FF01281BD0124C2046FFF7B5
:100B6000B1FF01281CD12046FFF796FF0E48002157
:100B7000BDE81040FFF79CBF1020FFF78DFF00215C
:100B80000A48F5E72046FFF787FF0848002128308C
:100B9000EEE72046FFF780FF044800216430E7E7D6
:100BA00010BD000000000110580402401C0002406B
:100BB00030B52A484FF6FF730021C3860187102203
:100BC00080F83A204BF21C7420F8024B40F24A5451
:100BD00020F8024B182400F80C4B4FF6C83420F8CC
:100BE0000A3C20F8081C00F8062C20F8043C20F8E9
:100BF000021C0270448048F6811484802024847191
:100C000003814FF47B4545810273C3810182827465
:100C10008382C182027643838183827748F2504384
:100C20000384022380F824304FF49B738385F023E0
:100C3000C385018642868186C28609220287418752
:100C40004FF496718187D021C18720F8504F8021C1
:100C500041800248801E1E21017030BD8823002083
:100C6000704770470FB430A02DE9F04FD0E9001065
:100C7000C7B0CDE9451045A8FFF78CFA2C4CC6B299
:100C8000D4F8060000906089ADF80400DDE9525008
:100C9000814615F0FF0742D0324645A905A8FFF767
:100CA00055FAC5F3072050A9014405A830443A4637
:100CB0002C31FFF74BFAB81900F0FF0B34F8480F4E
:100CC000BDF80070BDF802A09DF804602081A08BE3
:100CD0004FEA1548401C608120894D464044A08160
:100CE0006089284483B2E38120896189A2890097C1
:100CF00002F0F6F9208920824044A0826089608257
:100D0000284483B2E382208A618AA28A05ADCDE9B4
:100D100003B58DE8C00402F075FDE089A08347B0FB
:100D2000BDE8F00F5DF814FBB1F0C3FB3A00000022
:100D3000882300200FB434A02DE9F04FD0E9001033
:100D4000C7B0CDE9451045A8FFF724FA304CC5B22D
:100D5000D4F81E000290608CADF80C00DDF85A014A
:100D600000909DF80060BDF85E01ADF80400002E13
:100D700045D02A4645A905A8FFF7E8F99DF80100E6
:100D800050A901440DF1140B0BEB050032462C3138
:100D9000FFF7DCF9701900F0FF0A34F8480FBDF8CE
:100DA0000850BDF80A909DF80C602081A08B401C73
:100DB00060812089BDF802100844A0816089BDF8D7
:100DC00004708846384483B2E38120896189A2890E
:100DD000009502F085F9208920824044A082608934
:100DE0006082384483B2E382208A618AA28A01AF9A
:100DF000009687E8200E02F005FDE089A08347B049
:100E0000BDE8F00F5DF814FBB1E0C2EB3A00000062
:100E10008823002038B5204C0025294634F83C0FA3
:100E2000401E82B2E0880095401E83B2284602F040
:100E300057F920886189401E82B260880095411A66
:100E4000401E491E83B289B2284602F049F9A089A2
:100E50002946401E82B260880095401E83B2284613
:100E600002F03EF961880920491E8BB240F23F1220
:100E70002946009502F034F9A0892288E188638828
:100E800064891B1B054C9B1E9BB2B4F8D642009490
:100E900002F026F938BD000088230020E820002059
:100EA0000FB42DE9F047394CC6B020680290A088F5
:100EB000ADF80C00DDF83A0100909DF80050BDF847
:100EC0003E01ADF80400002D5AD09DF801004EA956
:100ED00001442A4605A82C31FFF738F9BDF80880EF
:100EE000BDF80AA09DF80C60B4F84800A4F85000C2
:100EF000B4F86400401CA4F85200B4F85000BDF8E7
:100F000002703844A4F85400BDF80400B4F852103C
:100F10008146084483B2A4F85630B4F85000B4F8BF
:100F2000542089B2CDF8008002F0DAF8B1450DD135
:100F3000720802FB1570B4F8501080B201EB50003B
:100F400081B205FB0210A4F8581004E0B4F8500078
:100F5000A4F858003844A4F85C0034F8520F0DF19E
:100F6000140C2081484483B2A381E08821896289DE
:100F7000CDE9035C8DE8400502F044FCA088608266
:100F800046B0BDE8F0075DF814FB000088230020A0
:100F90000FB42DE9F0433D4CC5B0D4F812000290D7
:100FA000E08AADF80C00DDE95401CDE900019DF8BF
:100FB0000050002D65D09DF801004CAF39182A462D
:100FC00005A82C31FFF7C2F8DDF856010090BDF8F6
:100FD0005A01ADF804009DF801009DF80060391831
:100FE0000DF1140909EB050032462C31FFF7AEF87C
:100FF000701900F0FF08BDF83C01BDF84E11BDF8B6
:1010000048210844BDF842119DF80C501144084491
:10101000A842BDF80860BDF80A70B4F8640000D3B7
:10102000401BA4F85200BDF85201BDF85811084405
:10103000B4F84C10081A34F8481F08442081BDF851
:101040005211BDF8582111440844A0816089BDF8AF
:101050000410084483B2E38120896189A289009643
:1010600002F03EF820892082A089A08260896082F7
:10107000E389E382208A618AA28A8DE8E00302F094
:10108000C1FB45B0BDE8F0035DF814FB88230020E8
:101090000FB434A02DE9F04FD0E90010C7B0CDE96E
:1010A000451045A8FFF776F8304CC5B2E0680290CD
:1010B000208AADF80C00DDF84E0100909DF800602C
:1010C000BDF85201ADF80400002E45D02A4645A9CE
:1010D00005A8FFF73BF89DF8010050A901440DF168
:1010E000140B0BEB050032462C31FFF72FF870196B
:1010F00000F0FF0A34F8480FBDF80850BDF80A9018
:101100009DF80C602081A08B401C60812089BDF877
:1011100002100844A0816089BDF8047088463844F4
:1011200083B2E38120896189A289009501F0D8FF0B
:10113000208920824044A08260896082384483B242
:10114000E382208A618AA28A01AF009687E8200E96
:1011500002F058FBE089A08347B0BDE8F00F5DF8CE
:1011600014FB0000B9E6B8F13A0000008823002023
:101170002DE9F04F9A4EADF5137DA6F528740025A4
:1011800094F89E82974FFFF745FE94F89D02002841
:1011900075D094F89C124FF0010909B1814201D930
:1011A00084F89C92B6F86000A6F8640094F89C124B
:1011B00015E005EBC50000EB851017F8200088420C
:1011C0000BD105EBC50000EB851007EB80014FF458
:1011D000927249A8FEF7BAFF03E06D1CEDB24545D7
:1011E000E7D3454562D24FF48A754DA92A46684631
:1011F0009291FEF7ABFF0DF5927A9AE80F00FFF798
:101200004FFE2A4668469299FEF7A0FF9AE80F0023
:10121000FFF728FD2A4668469299FEF797FF9AE85D
:101220000F0000F057F92A4668469299FEF78EFFA4
:101230009AE80F00FFF72CFF2A4668469299FEF7BE
:1012400085FF9AE80F00FFF775FD2A4668469299D8
:10125000FEF77CFF9AE80F00FFF79AFE624981F8DB
:101260000090B6F86400B6F86210884208D90120F0
:1012700000F0BCF894F89C0294F89D12A1E0AAE05A
:1012800094F89C0294F89D1288420CD2401C84F879
:101290009C02B6F86200A6F86400834694F89C02AB
:1012A0000025824619E0012000F0A0F890E005EB4F
:1012B000C50101EB851117F8211081420BD105EB17
:1012C000C50000EB851007EB80014FF4927249A82E
:1012D000FEF73CFF03E06D1CEDB24545E7D3454505
:1012E00076D24FF4927249A96846FEF72FFFBDF8F7
:1012F0000600BDF80C10B6F860200844BDF81210C6
:101300000844BDF818100844BDF81E10084480B207
:10131000ABEB020181420FDAAAF1010084F89C02D2
:10132000012004F5277400F061F82078401C20703B
:101330000DF5137DBDE8F08F4FF48A752A46684697
:101340009299FEF703FF49AE96E80F00FFF7A8FD5C
:101350002A4668469299FEF7F9FE96E80F00FFF7D5
:1013600081FC2A4668469299FEF7F0FE96E80F0047
:1013700000F0B0F82A4668469299FEF7E7FE96E834
:101380000F00FFF785FE2A4668469299FEF7DEFEBB
:1013900096E80F00FFF7CEFC2A4668469299FEF7C2
:1013A000D5FE96E80F00FFF7F3FD022000F01EF8CF
:1013B0000D480221017094F89D120229B8D994F8C1
:1013C0009C02884204D2401C84F89C02B0E7FFE7EC
:1013D00084F89C92ACE7002000F008F8A8E7000031
:1013E000882300204C010020000000202DE9F04F50
:1013F000294D87B08146D5F81E000090688CADF865
:101400000400A5F52870BDF800B090F89D2590F86F
:101410009E1590F89C6290F89D72BDF802809DF830
:101420000440B5F84800B5F842A00FF2700CCDE9C1
:101430000221CDE9008C22465B46514601F09EFF19
:10144000B9F1010F17D0B9F1020F11D1A88F614284
:1014500000EBC10014A2711ECDE90082CDE9021794
:1014600080B222465B465146CDE9046701F086FF13
:1014700007B0BDE8F08FA88F614200EB810001A9A1
:1014800010A2CDF8008081E8C40080B222465B46FD
:10149000514601F073FFEBE788230020B2E33A25C1
:1014A0006420CEBB3A25640025302E32642F2530CF
:1014B0002E3264D2B32F25302E32642F25302E32B7
:1014C00064D2B30025302E32642F25302E3264D200
:1014D000B30000000FB430A02DE9F04FD0E90010A8
:1014E000C7B0CDE9451045A8FEF754FE2C4CC6B256
:1014F000606A0090208DADF80400DDE9555081460A
:1015000015F0FF0742D0324645A905A8FEF71EFE9A
:10151000C5F3072050A9014405A830443A462C31B0
:10152000FEF714FEB81900F0FF0B34F8480FBDF8B1
:101530000070BDF802A09DF804602081A08B4FEAE6
:101540001548401C608120894D464044A081608937
:10155000284483B2E38120896189A289009701F040
:10156000BFFD208920824044A08260896082284497
:1015700083B2E382208A618AA28A05ADCDE903B5F0
:101580008DE8C00402F03EF9E089A08347B0BDE8D1
:10159000F00F5DF814FB0000B3A7BCD23A000000C6
:1015A0008823002000F0B0B800F0AEB800F0ACB86E
:1015B00000F0AAB800F0A8B800F0A6B800F0A4B8EF
:1015C00001490860704700001404014010B5012073
:1015D00000F08AF8434C18B1208840F0010006E082
:1015E000022000F081F820B1208840F00200208025
:1015F00010BD042000F078F818B1208840F00400F5
:10160000F5E7082000F070F818B1208840F00800D5
:10161000EDE7102000F068F818B1208840F01000C5
:10162000E5E7202000F060F818B1208840F02000A5
:10163000DDE7402000F058F818B1208840F0400065
:10164000D5E7802000F050F818B1208840F08000E5
:10165000CDE74FF4807000F047F818B1208840F4CF
:101660008070C4E74FF4007000F03EF818B1208895
:1016700040F40070BBE74FF4806000F035F818B11B
:10168000208840F48060B2E74FF4006000F02CF84E
:1016900018B1208840F40060A9E74FF4805000F0B2
:1016A00023F818B1208840F48050A0E74FF4005090
:1016B00000F01AF818B1208840F4005097E74FF472
:1016C000804000F011F818B1208840F480408EE787
:1016D0004FF4004000F008F8002889D0208840F43A
:1016E000004084E718000020064A014600201268E6
:1016F000044B0A4014331B680B4202D0002A00D06E
:10170000012070470004014008B50020ADF800003A
:10171000FFF75CFF03F0EBFA1E48BDF800100180F4
:101720000120FFF74DFF0220FFF74AFF0420FFF7DB
:1017300047FF0820FFF744FF1020FFF741FF20205C
:10174000FFF73EFF4020FFF73BFF8020FFF738FF09
:101750004FF48070FFF734FF4FF40070FFF730FF55
:101760004FF48060FFF72CFF4FF40060FFF728FF75
:101770004FF48050FFF724FF4FF40050FFF720FF95
:101780004FF48040FFF71CFFBDE808404FF40040D5
:10179000FFF716BF180000202DE9F0410468054648
:1017A0004FF00000002C2AD0A26822B1401CC0B229
:1017B0001446FF28F8D3268866B111B1084603F015
:1017C00015FF304604F0D8F8002818D02288616848
:1017D000FEF7BCFCE068002748B18760E06828603D
:1017E000606803F003FF204603F000FF06E0606836
:1017F00003F0FCFE204603F0F9FE2F603046BDE802
:10180000F081704704490A6822F010020A600A68F1
:1018100002430A60704700000020024004490A6841
:1018200002F038020A600A6802430A60704700004A
:1018300000200240704710B50121084601F06EF803
:101840000021BDE81040012001F068B870B50C46D9
:10185000002852D0294A811A1315D614904243D039
:1018600014DC2749274D41184FF6FF701BD09942D1
:1018700027D0B14241D10121102001F043F860048A
:1018800001D4200439D50121112008E099422ED03D
:10189000B1422FD0B1F5406F2FD101210802BDE830
:1018A000704001F02FB8A10405D4610403D42104D1
:1018B00001D4844202D1012104200AE00121042044
:1018C000EDE7210703D4E10601D4844209D10121C7
:1018D000092001F017F82846BDE87040012100F00A
:1018E00029B901210820DAE701212020D7E70121C9
:1018F0004020D4E701218020D1E770BD00140140D1
:1019000000F8FEBF0002300038B50446ADF8001004
:1019100002228DF8022048208DF803002046FFF7B0
:1019200095FF6946204600F0B5F838BD38B5044645
:10193000ADF8001003228DF8022010208DF803006E
:101940002046FFF783FF6946204600F0A3F838BD24
:10195000254A10B5811A1315D41490422ED00DDCEF
:10196000224940181CD0984221D0A0423BD10121ED
:10197000102000F0D3FF002110200DE0994224D068
:10198000A14229D0B1F5406F2DD101210C02204692
:1019900000F0C4FF00212046BDE8104000F0BEBFAB
:1019A0000121042000F0BAFF00210420F4E7012106
:1019B000082000F0B3FF00210820EDE701212020DE
:1019C00000F0ACFF00212020E6E70121402000F0DC
:1019D000A5FF00214020DFE70121802000F09EFFCD
:1019E00000218020D8E710BD0014014000F8FEBFA0
:1019F0002DE9F84F684600F0C3F81F4C69462046B1
:101A000000F048F81D4D6946284600F043F81C4E8A
:101A10006946304600F03EF81A4F6946384600F0F5
:101A200039F8DFF864806946404600F033F8DFF8A3
:101A30005C906946484600F02DF8DFF854A06946EE
:101A4000504600F027F82046FFF782FF2846FFF7B0
:101A50007FFF3046FFF77CFF3846FFF779FF4046AF
:101A6000FFF776FF4846FFF773FF5046FFF770FF1A
:101A7000FFF7E1FEBDE8F88F00080140000C0140CF
:101A8000001001400014014000180140001C0140FA
:101A900000200140F0B50022002849D0CC7804F0A5
:101AA0000F03E40601D58C7823430C784FF00F0C1C
:101AB00014F0FF0F4FF0010E1AD005680E880EFAD1
:101AC00002F42640A6420FD196000CFA06F725EA4A
:101AD000070703FA06F5CE783D43282E00D144616E
:101AE000CE78482E00D10461521C082AE6D3056046
:101AF0000A88FF2A1CD94468002202F108060EFA5F
:101B000006F50E882E40AE420ED196000CFA06F76E
:101B1000BC4303FA06F7CE783C43282E00D145613A
:101B2000CE78482E00D10561521C082AE5D34460C6
:101B3000F0BD0000F0B5104D6B68440D260184B275
:101B4000C0F30157B440C0F30342032F05D0C002D5
:101B50000AD503209040834307E0686823F0706251
:101B600020F07060686002E0A34343F0706201B14E
:101B700022436A60F0BD00000000014041617047EF
:101B80004FF6FF710180022181700421C1707047FE
:101B9000C2680A4201D0416170470161704700008C
:101BA000F0B50C461F4601460020059B1546802CCB
:101BB0005BD9A4F1A1020C290ED0102925D0182937
:101BC0003DD0202907D13A462946204600F04AF95F
:101BD000614901EBC010F0BD0A2A0AD8A12D08D333
:101BE0003A462946204600F03DF900EB40005B49AB
:101BF00008E000231A462946204600F033F95849E8
:101C000000EB400001EBC000F0BD564E0A2A01D89F
:101C1000A12D03D2A4F1A800012807D83A462946ED
:101C2000204600F01FF906EB4010F0BD3A46294669
:101C3000204600F017F94C4901EB4010F0BD0A2A8C
:101C40000AD8A12D08D33A462946204600F00AF9C1
:101C500000EBC0004549D5E73A462946204600F04A
:101C600001F900EBC0004249CCE7A4F121025D2A52
:101C7000E4D804EB840202EBC40504EB840204EB19
:101C8000041302EB441604EB84173E2952D018DCEF
:101C900024295DD00BDC04EB44020C2938D0102938
:101CA0003CD018293ED02029C8D132483FE0342901
:101CB0003CD0362948D03829C0D12F4800EB43000A
:101CC000F0BDDFF8B8C0A1EB0C02614524D00CDCFC
:101CD000792935D0B1F5801F14D0294A891813D03D
:101CE000B1F5407FECD127480FE002F51952B2F56B
:101CF000004221D0B2F54C6F20D0B2F5225FDFD187
:101D0000214826E0214800E0214800EBC400F0BD56
:101D1000204800EB8200F0BD1F4800E01F4800EBA8
:101D20000410F0BD1E4800EB0210F0BD1D4800EB92
:101D30008410F0BD1C4804E01C48BFE71C4804E0C8
:101D40001C4800EB4500F0BD1B4800EB4600F0BD11
:101D50001A4800EB4700F0BD10AE47000E3D1100E1
:101D60000E4F1100DE4F1900DE671900DE43270019
:101D7000DE7927008025100010C61000800D1000AD
:101D800000FDEFFF00051000807F100000FF0F0036
:101D90000002100080071000800B1000801310005C
:101DA00080151000803D1000405A100000631000A4
:101DB000C06A100040BD100000CE100000E310000B
:101DC0000246002080290FD90C2A07D0102A07D0FC
:101DD000182A07D0202A00D1802070471820704789
:101DE00020207047482070470C2A07D0102A05D0C1
:101DF000182A05D0202AF6D14020704710207047BD
:101E0000302070472DE9F843804600270C4680209B
:101E10009146B0EB142F00970CD8260AE2B20023AB
:101E200031464046FFF7BCFE0546E2B2002331468C
:101E300000970AE00023E1B21A464046FFF7B0FEE1
:101E400000230546E1B21A4600974046FFF7B8FF67
:101E5000044601464A46284603F0C4FDA0B2BDE848
:101E6000F883000030B504460020354D7F290DD0A1
:101E7000A4F1A1050A2D0BD8A12909D3C5EB0510A2
:101E800000EB451001EB4000A1380FE0284630BDC3
:101E9000A4F1A805012D09D87F2901D9491EC9B28D
:101EA00005EB450001EB401000F20E30A4F1B00547
:101EB000472D0AD8A12908D3C5EB051000EB451022
:101EC00001EB400000F2AD2030BDA4F18105202DD2
:101ED0000ED240290CD37F2901D9491EC9B2C5EBC6
:101EE000451000EB851001EB400041F67E510EE0FD
:101EF000AA2C0ED3A1290CD27F2901D9491EC9B21F
:101F0000AA3C04EB440001EB401043F23E5108446C
:101F100030BD02EB8202812C0BD0822CF8D140F232
:101F2000EC40414301EB42001844A0F51A40BB3895
:101F300030BD3929FCD303EB420044F69941E6E772
:101F400010AE470010B5064C206000F086FF2068F8
:101F500000F04EFF2068BDE8104000F045BF0000D3
:101F6000500000202DE9F047824644480024CAB0C2
:101F7000894690F89E7225462646DFF8FC804FF48D
:101F800092716846FEF7FBF808E004EBC40000EB32
:101F9000841118F8210018B1641CE4B2BC42F4D3D7
:101FA0001E2C5DD29AF801400AF102070DF12C08AF
:101FB0009AF80010A01C5CE0082951D2DFE801F07B
:101FC00050040C141B2229319DF80200002847D12F
:101FD0000DF10301481E2BE09DF80E0000283FD1B3
:101FE0000DF10E00411C23E09DF82000002837D1A0
:101FF00008A8411C1CE09DF80800002830D102A868
:10200000411C15E09DF81400002829D105A8411CA9
:102010000EE09DF81A00002822D10DF11A00411C93
:1020200006E09DF8260000281AD10DF12600411C7B
:1020300004700E70224639464046FEF787F8301984
:10204000C6B22819801CC5B24D450CD39DF80200BC
:1020500018B99DF80800002802D0684601F0B4FEC7
:102060004AB0BDE8F0873819A0444478871C01784D
:102070002819F728A0D9F3E74C010020E820002018
:102080002DE9F04FBBB04D4823900420ADF89000EF
:10209000494D400321954A4C4FF0020BADF8980092
:1020A0000711ADF888B027944011ADF8B000ADF835
:1020B000A07044482D9029944FF6FF7025954FF459
:1020C0008058ADF8B800ADF8A880A0208DF8BC000D
:1020D0002B94402221A93C48FEF738F83A4801F0F9
:1020E00023F83A48CDE931051020ADF8CC003495FD
:1020F0008020ADF8E4000020ADF8E60032484FF053
:10210000200AADF8D4A04FF0400940303695ADF824
:10211000DC903895242231A93A90FEF717F83A98C6
:10212000FFF710FF2A492B4868F30F068A1580E84D
:1021300062004FF4964100F084FD39462846FFF7CF
:10214000F5FB39462846FFF719FD08208DF87E007B
:102150008021ADF804100494ADF824000094069496
:102160000420ADF814A0ADF82C00029410210A94BC
:102170000120ADF80C90ADF81C10ADF83C000894AF
:1021800015480C940E94ADF834B084226946044688
:10219000FDF7DCFF204601F0FAFE204601F06BFC63
:1021A0000E49C0F3031200F00F0081F89D2581F85D
:1021B0009E053BB0BDE8F08F0008014000140140CF
:1021C00000100140000C0140E800002000300140F8
:1021D00000380140F023002000260020E8200020E5
:1021E000FEE77047704770477047704770B500EB67
:1021F00080010325C90047F6F872B2EB910F03D9AD
:1022000000EB800080031AE04FF6F072B2EB910F02
:1022100004D9042500EB8000400310E0114AB2EB22
:10222000910F04D9052500EB8000000307E00E4A5A
:10223000B2EB910F05D9062500EB8000C002040C1B
:1022400000D1012445F2555000F02EF8284600F048
:102250001FF8204600F022F800F012F8BDE87040A8
:1022600000F004B8E0FF0100C0FF030002494CF693
:10227000CC4008607047000000300040AFF30080A1
:1022800002494AF6AA20086070470000003000406A
:1022900001494860704700000030004001498860F3
:1022A000704700000030004001490860704700009E
:1022B0000030004070B500220C8862F30F03012645
:1022C00006FA02F52C4207D0C2F10F0506FA05F115
:1022D00043EA010565F30F03521C102AF0DB03806B
:1022E00070BD70B500220C7862F30703012606FA70
:1022F00002F52C4207D0C2F1070506FA05F143EAC0
:10230000010565F30703521C082AF0DB037070BD5A
:1023100081070CD16421B0FBF1F201FB120141B93C
:102320004FF4C871B0FBF1F201FB120008B10020BC
:10233000704701207047000070B51F4900201D4AFA
:1023400091F89D450346002C32D091F89E45002C13
:102350002ED000EBC00404EB801412F824400CB122
:10236000012303E0401CC0B21E28F2D3134C91F8A5
:102370009D0200256278904203D0E58081F89C524E
:102380006070002B14D0E28852B9022806D891F868
:102390009C122278914201D1814201D0FEF7E8FEE1
:1023A000E088411CE18040F6B831884200D9E580E0
:1023B00070BD00004C010020E8200020000000203B
:1023C00010B5FFF75BFFBDE8104002F0AFBAFEE7C3
:1023D0007047000038B5174B0021154A98890C4604
:1023E000451C9D81642821D300209881124890F8D3
:1023F0009D35002B1AD090F89E05002816D00F4B63
:10240000180401EBC10505EB811512F8255025B91B
:10241000491CC9B21E29F4D30CB1012101E040F2DC
:10242000E73100910022012100F00CF838BD0000D6
:102430004C01002000000020E820002000408F40D8
:10244000704700002DE9FF5F90B093460025E94AF0
:1024500010988946FF24811ADFF89CA3D3142E46D6
:10246000A8462F464FF4806C90427CD00CDCB0F133
:10247000804F32D0E14940184AD0604564D098423C
:102480005BD1012108207FE0B1F5806F7FD0B1F5ED
:102490008E3F03D0B1F5923F4FD17BE00121C802BE
:1024A00000F030FA5FEA090007D0012809D00228BD
:1024B0000BD0B9F1030F71D10BE055464FF4807486
:1024C0003AE055464FF4007436E055464FF48064C8
:1024D00032E055464FF400642EE00121084600F03A
:1024E000F9F95FEA090007D0012808D0022809D0CD
:1024F000B9F1030F52D108E0554601241CE05546BE
:10250000022419E05546042416E05546082413E039
:102510000121022000F0DEF95FEA090007D001285E
:1025200008D002280AD0B9F1030F37D109E0554687
:10253000402401E05546802404262FE0B04D0124BC
:102540001EE0AF4D02241BE00121042000F0C2F97F
:102550005FEA090009D001280AD002280BD0B9F19E
:10256000030F1BD10AE00DE011E0A54D402407E068
:10257000A34D802404E0A24DAC1501E0A04D6C15E4
:1025800008260BE00121102000F0A4F906E001214B
:102590002020F9E70121480300F0B4F901210846A1
:1025A00000F0B0F90121304600F0ACF9ADF8304050
:1025B00003208DF8320018208DF833000CA928462E
:1025C000FFF768FA07A800F043FA8E4C10988E4D7A
:1025D00084434EF660265A4600202946139BFDF799
:1025E00010FF8A4BCDE90D01FCB109982C468246BB
:1025F00000221D460D98FDF7B1FF18D20022844B32
:1026000058461399FDF78BFE04460D465046FDF7DC
:102610007EFF22462B46FDF7F4FEB04600227D4B9E
:10262000FDF7EFFE00227C4B1FE00A98DEE7DDE9B4
:102630000D0123460022FDF791FF4FF0000217D253
:102640002B4658461399FDF76AFE04460D46504640
:10265000FDF75DFF22462B46FDF7D3FEB046002274
:102660006C4BFDF7CEFE00226C4BFDF758FE49E0A7
:102670002646234658461399FDF770FF45D8504625
:10268000FDF745FF5A46139BFDF7BBFE0122FDF700
:1026900027FF04460D460022614BFDF75FFF04D87B
:1026A0004FF4FA6800225F4B28E000225E4B204680
:1026B0002946FDF753FF04D84FF0C8080022564BB7
:1026C0001CE00022594B20462946FDF747FF04D85D
:1026D0004FF014080022514B10E00022544B2046CA
:1026E0002946FDF73BFF05D84FF0020800224FF0C6
:1026F000804303E04FF0010800223346204629467C
:10270000FDF77FFEFDF710FF87B2A8F10100ADF8DD
:102710001000781EADF814000024ADF81640ADF896
:10272000124004A9109801F087FE1E9847434FF409
:102730007A70874203D9B7FBF0F080B202E01E98AE
:1027400008B101201E906020ADF800001E98ADF881
:1027500006000120ADF80200ADF808405FEA09006C
:1027600007D001280AD002280DD0B9F1030F13D1E8
:102770000EE06946109801F05DFD0DE06946109885
:1027800001F08EFD08E06946109801F0D3FD03E0EA
:102790006946109801F012FE0121109801F03FFDEA
:1027A0005FEA090007D001280AD002280DD0B9F14C
:1027B000030F13D10EE00821109801F06BFD0DE01E
:1027C0000821109801F0ACFD08E00821109801F0F4
:1027D000EFFD03E00821109801F022FE012110987E
:1027E00001F004FD0121109801F00EFD14B0BDE8C8
:1027F000F09F0000001000400008014000FCFFBFF7
:10280000000C0140000001400000F03F00002440A7
:1028100000005940004CED40000069400000344089
:10282000D012634100409F4080842E41006AF840EE
:1028300040FFEF40704700007CB50028ADF8001065
:1028400038D0002936D01C4D6946FEF717F8040031
:1028500030D0A27802F03F00012823D095F89D35B2
:1028600021798B4201D0FF291CD195F89E356179E1
:102870008B4201D0FF2915D1110613D4092802D0AB
:102880000A2807D00EE06078001FC1B2A01DFFF734
:1028900069FB05E00020ADF80400E088ADF8040015
:1028A000FEF718F8BDF8001004F20910491EADF843
:1028B0000010C9E77CBD0000E8200020044A002980
:1028C000516901D0014300E081435161704700002C
:1028D00000100240044A0029D16901D0014300E000
:1028E0008143D1617047000000100240044A002972
:1028F000116901D0014300E081431161704700007C
:1029000000100240044A0029916901D0014300E00F
:10291000814391617047000000100240044A002981
:10292000D16801D0014300E08143D16070470000CD
:102930000010024070B5002400F06CF84FF48035B0
:10294000284600F0F9F8681E2146641C8142FBD33A
:1029500000F042F9012803D0BDE8704000F025B82E
:102960001020FEF74FFF0220FEF758FF002000F076
:10297000D9F8002000F00CF94FF4806000F0FEF868
:102980004FF4E011284600F013F9012000F00AF995
:10299000392000F0A7F80028FAD0022000F012F940
:1029A00000F0B8F80828FBD170BD10B500F032F87F
:1029B000012000F0DBF8202000F094F80028FAD085
:1029C000002000F0AFF8002000F0E2F84FF4806043
:1029D00000F0D4F80220FEF721FF1020FEF712FFCE
:1029E0004FF46011002000F0E3F8012000F0DAF865
:1029F00002E0022000F0E6F8392000F073F8002829
:102A0000F7D000F087F80828FBD1BDE81040FEF7AA
:102A1000EFBF00000B48016841F00101016041680F
:102A2000094A114041600168084A1140016001688B
:102A300021F480210160416821F4FE014160002100
:102A400081607047001002400000FFF8FFFFF6FEB3
:102A500030B5204A5168204B11F00C0103D00429F5
:102A600001D0082901D0036011E05168022301F46C
:102A7000701103EB9141536813F4803F02D0536807
:102A80009B0301D5154B00E0134B5943016051687E
:102A90000F2303EA1111124B5C5C0168E1404160B5
:102AA0005468072505EA14241C5D21FA04F48460A7
:102AB000546805EAD4241B5DD940C16052680323E1
:102AC00003EA9232064B1B1F9A5CB1FBF2F10161E3
:102AD00030BD00000010024000127A0000093D00E5
:102AE0006C5B0008034600205909094A01290AD0F5
:102AF00002290AD0516A03F01F02012393400B42BE
:102B000000D0012070471168F5E7116AF3E7000073
:102B1000001002400248406800F00C0070470000BE
:102B200000100240034A516821F0F0010143516056
:102B300070470000001002400B490A6822F48032FE
:102B40000A600A6822F480220A60B0F5803F07D04C
:102B5000B0F5802F03D1086840F4A02008607047CA
:102B6000086840F48030F9E700100240014908602D
:102B7000704700000000424270470000034A51685D
:102B800021F4E061014351607047000000100240F1
:102B9000034A516821F4605141EAC0005060704717
:102BA00000100240014908667047000000004242E0
:102BB000034B5A68084322F47C1210435860704754
:102BC00000100240034A516821F0030101435160A3
:102BD000704700000010024030B50B4C40F2FF156A
:102BE0003120FFF77FFF20706068401C6060207814
:102BF00010B96068A842F3D13120FFF773FF0028B5
:102C000000D0012030BD0000100000202DE9F0416F
:102C100006680446174688460025304602F06AFEDC
:102C200060B1304602F084FE40B1616820890861DD
:102C30003A464146304602F007FF05462846BDE8C1
:102C4000F08170B50E460446018915464068FEF7CE
:102C50006DFE6168208948612A463146206801F08E
:102C60002EFC21896068FEF761FE61682089486159
:102C700070BD70B504460D460026006802F03AFEAD
:102C800038B16168208948612946206801F06AFEF0
:102C90000646304670BD704702490A8882430A8062
:102CA00070470000042800402DE9F04700F060F86C
:102CB000DFF8AC800546B0FBF8F32A482A4E0188BD
:102CC00099422CD0038040F2B2744FF4B7774FF49E
:102CD000B6790CE02046FFF71BFB20B1BB4208D3BE
:102CE000A3F5B77301E0A3F26D13641CA4B24B45C6
:102CF000F0D8B48000241D4F0BE0B088FFF708FB2C
:102D000008B1012C28D0385D984204D81B1A641CE5
:102D1000A4B21C2BF1D2641CB4715B1CF371B5FB23
:102D2000F8F108FB11504FF46161B0FBF1F2327021
:102D3000B0FBF1F201FB12033C22B3FBF2F3737020
:102D4000B0FBF1F301FB1300B0FBF2F102FB110049
:102D5000B0700020BDE8F0871D2BDCD31D3BD6E70B
:102D6000805101001A0000208C2600207C5B0008A6
:102D7000034800880249091F098840EA014070475A
:102D80001C28004006490988C2B21140044A121F9B
:102D90001288024202D009B101207047002070471A
:102DA0000428004010B50120FFF7ECFF08B1FFF741
:102DB0007BFF0220FFF7E6FF10B10220FFF76CFF58
:102DC0000520FFF769FFBDE8104000F001B80000E2
:102DD000024801888906FCD570470000042800409D
:102DE00070477047704770470189406801617047BC
:102DF00001894068416170470029018802D041F093
:102E0000400101E021F040010180704702460020AE
:102E100012890A4200D00120704780897047818161
:102E2000704730B502884C8802F441530A88CD8837
:102E300022438C882C4322430C8922434C89224311
:102E40008C892243CC8922431A430280828B22F44C
:102E500000628283098A018230BD10B5044600F009
:102E600007F821896068BDE81040FEF75FBD0000EB
:102E70002DE9F043044600685849DFF8648187B0C3
:102E800040184FF018054FF0030617D0DFF85491A3
:102E9000B0F5806F2CD0B0F5784F23D10121080315
:102EA000FFF730FD01210520FFF72CFDF020ADF8E4
:102EB00000008DF803508DF8026033E00121880393
:102EC000FFF708FD01210920FFF71CFD4FF47040BA
:102ED000ADF800008DF802608DF803506946404659
:102EE000FEF7D8FD618C01B3012008291ED11FE037
:102EF0000121CF033846FFF7EDFC01210D20FFF73C
:102F000001FD3820ADF800008DF802608DF8035007
:102F100069464046FEF7BEFDADF800708DF80260D0
:102F20008DF8035069464846DAE70020012200E0A8
:102F300000221040102901D0012200E000221040A0
:102F4000182901D0012200E000221040202901D0E0
:102F5000012200E000221040282901D0012200E0D7
:102F600000221040302901D0012200E00022104050
:102F7000382901D0012100E0002108424FF0000172
:102F800000D06184ADF804104FF48270ADF80600F3
:102F9000ADF808100220ADF80A000120ADF80C00D1
:102FA0000720ADF81400ADF812104FF40070ADF822
:102FB0000E00608CADF8100001A92068FFF731FF0A
:102FC00020680188890502D4012100F03DF8012123
:102FD0002068FFF711FF07B0BDE8F08300C8FFBF0E
:102FE000000C0140000801402DE9F0410F46044665
:102FF000002541F2883603E06D1CADB2B5420FD812
:1030000002212068FFF702FF0028F5D0394620682A
:10301000FFF705FF002506E06D1CADB2B54202D9F1
:103020000020BDE8F08101212068FFF7EFFE0028B5
:10303000F2D080212068FFF7E9FE0128F9D020684E
:10304000FFF7EBFEC0B2ECE70029818802D041F027
:10305000040101E021F004018180704738B50D4979
:10306000002213460C684FF49B7594F8381029B170
:10307000602906D0A02904D0C02904D1F0222B4613
:1030800001E02A46F023608700210090084600F006
:1030900027F838BDD400002007480068826A818D77
:1030A00011618269818B1161826881891161818CD2
:1030B000006A016170470000D400002007480068E2
:1030C0008269818B1161826881891161026A818CB8
:1030D0001161818D806A416170470000D400002039
:1030E0002DE9F0431E4617460C468046DDF81C903D
:1030F000FFF7E4FF33463A462146404600F06CF9BC
:103100000025361BA7EB080708E0002403E048462B
:1031100000F0A2FC641CA642F9D26D1CAF42F4D2AE
:10312000BDE8F043FFF7B8BF38B5002825D01349F4
:103130000446086081898068FEF7F8FBA18A20694F
:10314000FEF7F4FBA18BA069FEF7F0FBA18C206ACF
:10315000FEF7ECFBA18DA06AFEF7E8FBA18E206BC9
:10316000FEF7E4FB00F00EF840F2E730012100909A
:103170000022034B8807FFF765F938BDD400002013
:1031800000408F4010B5FFF799FF654C2068818A99
:1031900000694161012000F0C3FF2068818A006955
:1031A0000161012000F0BCFF112000F041FC012072
:1031B00000F0B6FF362000F03BFC002000F04CFC95
:1031C0003A2000F035FC552000F046FCB22000F01B
:1031D0002FFC0C2000F040FC0C2000F03DFC0020F7
:1031E00000F03AFC332000F037FC332000F034FCD0
:1031F000B72000F01DFC352000F02EFCBB2000F0B5
:1032000017FC192000F028FCC02000F011FC2C2035
:1032100000F022FCC22000F00BFC012000F01CFC9E
:10322000C32000F005FC122000F016FCC42000F0C2
:10323000FFFB202000F010FCC62000F0F9FB0F205F
:1032400000F00AFCD02000F0F3FBA42000F004FC06
:10325000A12000F001FCE02000F0EAFBD02000F00B
:10326000FBFB042000F0F8FB0D2000F0F5FB112023
:1032700000F0F2FB132000F0EFFB2B2000F0ECFB42
:103280003F2000F0E9FB542000F0E6FB4C2000F06A
:10329000E3FB182000F0E0FB0D2000F0DDFB0B202D
:1032A00000F0DAFB1F2000F0D7FB232000F0D4FB56
:1032B000E12000F0BDFBD02000F0CEFB042000F0A8
:1032C000CBFB0C2000F0C8FB112000F0C5FB132045
:1032D00000F0C2FB2C2000F0BFFB3F2000F0BCFB45
:1032E000442000F0B9FB512000F0B6FB2F2000F085
:1032F000B3FB1F2000F0B0FB1F2000F0ADFB20202F
:1033000000F0AAFB232000F0A7FB292000F090FB8F
:103310002C2000F08DFBBDE81040FFF7BDBE000083
:10332000D40000202DE9F041C2B00F4680461E4671
:1033300014464FF4807102A8FCF721FF002149AB2D
:1033400002A8489A01F0DCFC85B2082C08D00C2CAD
:1033500006D0102C04D0182C02D0202C00D0202411
:1033600002A9E8B2CDE9000133462246394640467B
:1033700000F008F942B02846BDE8F0812DE9F0439D
:10338000C3B0884681461F4614464FF4807103A897
:103390004A9EFCF7F4FE00214CAB03A84B9A01F0C7
:1033A000AFFC85B2082C08D00C2C06D0102C04D011
:1033B000182C02D0202C00D0202403A9E8B20096BB
:1033C000CDE901013B4622464146484600F078F9E6
:1033D00043B02846BDE8F083F0B507461C461546C5
:1033E0000E462A2000F024FB380A00F035FBF8B224
:1033F00000F032FB280A00F02FFBE8B200F02CFBB3
:103400002B2000F015FB300A00F026FBF0B200F094
:1034100023FB200A00F020FBE0B200F01DFB362069
:1034200000F006FB0548006890F8380000F014FB37
:10343000BDE8F0402C2000F0FBBA0000D4000020D2
:103440002DE9F04F9046074600EB5800401E1FFA4A
:1034500080F9DDE909BA01EB08001E46401E002490
:103460000D4683B2FFF72AFE4A4629463846FFF743
:10347000B3FFDFF870902EE01AF8047000253806CC
:1034800001D5304602E0D9F80000408F00F0E4FAA0
:1034900078066D1C070EEDB2082DF0D3B8F1180FA9
:1034A00002D0B8F10C0F14D10AEB040000254778C4
:1034B000380601D5304602E0D9F80000408F00F010
:1034C000CBFA78066D1C070EEDB2042DF0D3641C08
:1034D000E4B2641CE4B25C45CED3BDE8F04FFFF724
:1034E000DBBD0000D40000202DE9F04F91460746D7
:1034F00000EB5900401E1FFA80FB01EB09001E463D
:10350000401E00240D4683B2DDF82CA0DDF8248097
:10351000FFF7D4FD5A4629463846FFF75DFF2AE0FB
:103520001AF804700025380601D5404600E0304600
:1035300000F092FA78066D1C070EEDB2082DF2D35A
:10354000B9F1180F02D0B9F10C0F12D10AEB040037
:1035500000254778380601D5404600E0304600F0A7
:103560007BFA78066D1C070EEDB2042DF2D3641CB5
:10357000E4B2641CE4B20A988442D1D3BDE8F04FAF
:10358000FFF78ABD2DE9FF4FC3B00C4605464FF447
:103590009B781746C1464FF0F00A00264FF4807121
:1035A00002A8DDF844B1FCF7EAFD4448006890F851
:1035B000380000287BD0602801D0A02877D14FF0B8
:1035C000F009C24673E01BF80680B8F1800F24D9D9
:1035D0000BEB0600407840EA0821AAEB0700A8425E
:1035E00002DA0025E01984B2A9EB0700A04201DA53
:1035F0000024254602AA3846FEF704FCC0B202A900
:10360000CDE900013A4621462846469B00F076F96E
:10361000E819761C85B2F6B246E0B8F10D0F20D05D
:10362000B8F10A0F1DD0AAEB5700A84202DA002514
:10363000E01984B2A9EB0700A04201DA0024254674
:10364000B8F1000030D0014602AA3846FEF7DAFB96
:10365000C0B20090B8F1090F17D0B8F1200F14D004
:1036600017E00BEB060040780A2801D00D2801D1A5
:10367000761CF6B2A9EB0700A04202DA0024254628
:1036800012E00025E01984B20EE002A80099FCF7D0
:1036900076FD02A801903A4621462846469BFFF750
:1036A000CFFE05EB570085B200BF761CF6B25098EE
:1036B000864288D347B0BDE8F08F0000D4000020D8
:1036C0002DE9FF4FC3B00C4605464FF49B781746D3
:1036D000C1464FF0F00A00264FF4807103A8DDF8D0
:1036E00048B1FCF74CFD4648006890F838000028C7
:1036F00006D0602801D0A0287CD14FF0F009C24646
:1037000078E01BF80680B8F1800F26D90BEB060095
:10371000407840EA0821AAEB0700A84202DA002517
:10372000E01984B2A9EB0700A04201DA0024254683
:1037300003AA3846FEF766FB509A0092C0B203A96E
:10374000CDE901013A4621462846469B00F026F97C
:10375000E819761C85B2F6B249E0B8F10D0F20D019
:10376000B8F10A0F1DD0AAEB5700A84202DA0025D3
:10377000E01984B2A9EB0700A04201DA0024254633
:10378000B8F1000033D0014603AA3846FEF73AFBF1
:10379000C0B20090B8F1090F17D0B8F1200F14D0C3
:1037A00017E00BEB060040780A2801D00D2801D164
:1037B000761CF6B2A9EB0700A04202DA00242546E7
:1037C00015E00025E01984B211E003A80099FCF788
:1037D000D6FC509803AA00998DE807003A46214686
:1037E0002846469BFFF780FE05EB570085B200BFD9
:1037F000761CF6B25198864283D347B0BDE8F08F6D
:10380000D40000202DE9FF4FC3B00F468246054685
:103810001E4600244FF4807103A8DDF85091DDF8B6
:103820004081FCF7ACFCA6EB080B61E019F80460E2
:10383000802E23D909EB040005EB0802407840EA0A
:1038400006214598824203D907EB0800554687B206
:10385000BB4550DB03AA4046FEF7D4FA529A0092C9
:10386000C0B203A9CDE90101424639462846519B21
:1038700000F094F805EB080085B222E00D2E19D077
:103880000A2E17D04598A0EB5800A84203DA07EBA0
:103890000800554687B2BB452DDB3EB303AA31462F
:1038A0004046FEF7AFFAC0B20090092E0CD0202E91
:1038B0000AD00DE009EB040040780A2801D00D2859
:1038C00014D1641CE4B211E0014603A8FCF757FCD4
:1038D000529803AA00998DE80700424639462846C7
:1038E000519BFFF701FE05EB580085B2641CE4B262
:1038F000539884429AD347B0BDE8F08F2DE9F04F3A
:10390000914607464844401E1FFA80F8DDE909BA8F
:1039100001EB09001E46401E00240D4683B2FFF74E
:10392000CDFB424629463846FFF756FDDFF8688052
:103930002BE01AF804700025380601D5304602E065
:10394000D8F80000408F00F087F878066D1C070E4D
:10395000EDB2082DF0D3B9F10C0F14D10AEB04002D
:1039600000254778380601D5304602E0D8F8000037
:10397000408F00F071F878066D1C070EEDB2042D33
:10398000F0D3641CE4B2641CE4B25C45D1D3BDE85E
:10399000F04FFFF781BB0000D40000202DE9F04F6D
:1039A000914607464844401E1FFA80FB01EB090080
:1039B0001E46401E00240D4683B2DDF82CA0DDF823
:1039C0002480FFF77BFB5A4629463846FFF704FD63
:1039D00027E01AF804700025380601D5404600E0BB
:1039E000304600F039F878066D1C070EEDB2082D50
:1039F000F2D3B9F10C0F12D10AEB0400002547787D
:103A0000380601D5404600E0304600F025F878063B
:103A10006D1C070EEDB2042DF2D3641CE4B2641CDD
:103A2000E4B20A988442D4D3BDE8F04FFFF734BB28
:103A3000084909688B698A8B5A610B6A8A8C5A61BA
:103A40000A6BD0600A6A888C1061888B896908616A
:103A500070470000D4000020054909680B6A8A8C71
:103A60005A610A6BD060888C096A0861704700004F
:103A7000D40000207047F0B590F87E204FF6FF7319
:103A80009340002100F182049DB2002A7DD0521E95
:103A9000D3B202689668828816424FF0010202D0C3
:103AA00002FA03F189B2002BF0D086685B1EDBB20C
:103AB000B66887893E4203D002FA03F60E43B1B2DC
:103AC000002BE3D006695B1EDBB2B668878A3E42F4
:103AD00003D002FA03F60E43B1B2002B55D086692B
:103AE0005B1EDBB2B668878B3E4203D002FA03F658
:103AF0000E43B1B2002B48D0066A5B1EDBB2B6683B
:103B0000878C3E4203D002FA03F60E43B1B2002B7B
:103B10003BD0866A5B1EDBB2B668878D3E4203D01F
:103B200002FA03F60E43B1B2002B2ED0066B5B1ED9
:103B3000DBB2B668878E3E4203D002FA03F60E432C
:103B4000B1B2002B75D0866B5B1EDBB2B668878F77
:103B50003E4203D002FA03F60E43B1B2ABB1066C9B
:103B60005B1EDBB2B668B0F844703E4203D002FA86
:103B700003F60E43B1B243B1866C5B1EDBB2B6688E
:103B8000B0F84C703E4205D000E041E002FA03F686
:103B90000E43B1B2E3B3066D5B1EDBB2B668B0F89C
:103BA00054703E4203D002FA03F60E43B1B27BB327
:103BB000866D5B1EDBB2B668B0F85C703E4203D027
:103BC00002FA03F60E43B1B213B3066E5B1EDBB20C
:103BD000B668B0F864703E4203D002FA03F60E43B2
:103BE000B1B2ABB1866E5B1EDBB2B668B0F86C707A
:103BF0003E4203D002FA03F60E43B1B243B1066F60
:103C00005B1EDBB2B668B0F874703E4205D000E0CF
:103C10000FE002FA03F60E43B1B253B1866F5B1E9A
:103C2000DBB2B668B0F87C703E4202D09A400A43DC
:103C300091B22943C94389B22160A0F88010084697
:103C4000F0BD70B590F87E204FF6FF7494400021CF
:103C500000F18203A4B2002A7DD00568521ED2B2C0
:103C6000AD688688354200D00121002A73D085686E
:103C7000521ED2B2AD688689354201D041F00201B0
:103C8000002A68D00569521ED2B2AD68868A3542D4
:103C900001D041F00401002A5DD08569521ED2B2E4
:103CA000AD68868B354201D041F00801002A52D020
:103CB000056A521ED2B2AD68868C354201D041F001
:103CC0001001002A75D0856A521ED2B2AD68868D69
:103CD000354201D041F02001002A6AD0056B521E06
:103CE000D2B2AD68868E354201D041F0400192B328
:103CF000856B521ED2B2AD68868F354201D041F03D
:103D0000800142B3056C521ED2B2AD68B0F8446077
:103D1000354201D041F48071EAB1856C521ED2B2B5
:103D2000AD68B0F84C60354201D041F4007192B1F9
:103D3000056D521ED2B2AD68B0F85460354201D064
:103D400041F480613AB1856D521ED2B2AD68B0F8CF
:103D50005C60354200E02CE001D041F4006142B3E8
:103D6000056E521ED2B2AD68B0F86460354201D023
:103D700041F48051EAB1856E521ED2B2AD68B0F8FE
:103D80006C60354201D041F4005192B1056F521E72
:103D9000D2B2AD68B0F87460354201D041F48041D0
:103DA0003AB1826F9268B0F87C502A4201D041F457
:103DB00000412143C94389B21960A0F88010084628
:103DC00070BDFEF7B7BD00002DE9F04FF1B0050062
:103DD0007DD0A87810B9287A002878D06A4CDFF80E
:103DE000A481682294F89E9204F5287156A8FCF7E5
:103DF000ADF94FF4927B5A4629460DA8FCF7A6F977
:103E00009DF86E019DF85A2043089DF854105A43BE
:103E10005943ADF85C208F18ADF85610ADF8580036
:103E2000ADF85E000DF1340A0123082B6BD2DFE8F8
:103E300003F06A04111F212F3D6EB4F8EC520422E6
:103E4000ADF838500AF104069DF836009DF85C1173
:103E5000B51C38E0B4F8EC520222ED1BADF844502A
:103E60000AF110069DF842009DF86811B51C2AE081
:103E70000423DAE7B4F8EC529DF83C00ED1B022273
:103E8000ADF83E500AF10A069DF86211B51C1AE021
:103E9000B4F8EC529DF84800ED1B0222ADF84A50F0
:103EA0000AF116069DF88011B51C0CE0B4F8EC522E
:103EB0000222ED1B9DF84E009DF87A11ADF850508E
:103EC0000AF11C06B51C002945D0368800E042E006
:103ED0004FEA510CB6FBFCF616F0FF063BD0B0FBE8
:103EE000F6FC06FB1C0CB0FBF6F0BCF1000F01D099
:103EF000401CC0B2904200D9104648435B1CDBB264
:103F00002880082B91D300254FF4917714E00823E3
:103F10008BE705EBC50000EB851608EB86003A46FB
:103F20000AF10201801CFCF746F918B918F82600BE
:103F3000002810D16D1CEDB24D45EAD3002508E0F4
:103F400005EBC50000EB851018F8200030B16D1CA2
:103F5000EDB24D45F4D371B0BDE8F08F05EBC5006F
:103F600000EB851608EB86005A460DA9FCF7EEF823
:103F700094F89D02401C84F89D026D1C08F82650A0
:103F8000E9E700004C010020E8200020704770B5F0
:103F900090F87E500446002D7CD0A1882068FDF763
:103FA000B3FC6D1E15F0FF057DD0A189A068FDF75B
:103FB000ABFC6D1E15F0FF0575D0A18A2069FDF7D9
:103FC000A3FC6D1E15F0FF056DD0A18BA069FDF758
:103FD0009BFC6D1E15F0FF0565D0A18C206AFDF7D6
:103FE00093FC6D1E15F0FF055DD0A18DA06AFDF755
:103FF0008BFC6D1E15F0FF0555D0A18E206BFDF7D3
:1040000083FC6D1E15F0FF054DD0A18FA06BFDF751
:104010007BFC6D1E15F0FF0545D0B4F84410206CF4
:10402000FDF772FC6D1E15F0FF053CD0B4F84C1086
:10403000A06CFDF769FC6D1E15F0FF0533D0B4F8D8
:104040005410206DFDF760FC6D1E15F0FF052AD0A1
:10405000B4F85C10A06DFDF757FC6D1E15F0FF0560
:1040600021D0B4F86410206EFDF74EFC6D1E15F0E3
:10407000FF0518D0B4F86C10A06EFDF745FC6D1E5E
:1040800015F0FF050FD0B4F87410206FFDF73CFC5D
:104090006D1E00E007E015F0FF0F04D0B4F87C10AF
:1040A000A06FFDF731FC2046BDE87040FFF7C9BDA9
:1040B00000F06AB810B504002BD01648FEF7C8FC13
:1040C0004FF0E021086920F002000861086920F043
:1040D00001000861086920F0040008610D480E4ADB
:1040E0000068B0FBF2F060434861086940F00200EC
:1040F0000861086940F001000861002088610869D2
:1041000040F0020008614A6904480260096989B206
:10411000416010BD9826002000127A001C0000208B
:1041200010B504002BD01648FEF792FC4FF0E020AB
:10413000016921F002010161016921F001010161C0
:10414000016921F0040101610D494FF4FA52096837
:10415000B1FBF2F14161016941F00101016100220D
:10416000826181690029FCD081690029FCD1641E2B
:10417000F7D104490B68436182614968016110BD50
:10418000982600201C00002000F0B1BD7047704749
:104190007047704710B500F04DF9BDE8104001219F
:1041A000014800F02EB80000002C014010B500F0CE
:1041B00041F90121BDE81040880700F022B8000055
:1041C00010B500F037F9BDE810400121014800F0BA
:1041D00018B800000004004000F02CB97047704788
:1041E000704770477047704700F024B90029018874
:1041F00002D041F0800102E040F27F3211400180A4
:104200007047C943018270470029018802D041F0FC
:10421000010102E040F2FE321140018070470029A6
:1042200030F8441F02D041F4004101E0C1F30E0117
:104230000180704730B5028C22F001020284028CAA
:104240008388048B22F0020224F070050C882C4332
:104250000D8915434A882A43CD8885860B4DA8428F
:1042600002D00B4DA8420DD122F008054A8923F453
:1042700003432A4322F004058A882A438D891D437B
:10428000CB892B4383800483028430BD002C014002
:1042900000340140028B22F008020A430283704777
:1042A00070B5028C22F010020284028C8388048B89
:1042B0000D8824F4E0464FF6FF7404EA05253543E3
:1042C0000E8922F0200204EA061616434A8804EA00
:1042D00002123243CE8806870F4EB04202D00F4EF4
:1042E000B04215D122F080064A8923F40C4304EA37
:1042F0000212324322F040068A8804EA0212324354
:104300008E89C98904EA86061E4304EA8103334381
:1043100083800583028470BD002C0140003401407D
:10432000028B4FF6FF7322F4006203EA012111436E
:104330000183704770B5028C22F480720284028C73
:104340008388848B0D8824F0700425430E894FF6F2
:10435000FF7422F4007204EA062616434A8804EA2F
:1043600002223243CE8886870F4EB04202D00F4ED3
:10437000B04215D122F400664A8923F4304304EA9E
:104380000222324322F480668A8804EA02223243FF
:104390008E89C98904EA06161E4304EA01133343D1
:1043A00083808583028470BD002C0140003401406D
:1043B000828B22F008020A438283704770B5028C18
:1043C00022F480520284058C8288838B0C8823F42B
:1043D000E0464FF6FF7303EA042434430E8925F4C4
:1043E000005503EA06362E434D8803EA053535436A
:1043F000CE88A0F84060084EB04202D0074EB042CE
:1044000005D18989C2F30D0603EA81123243828005
:104410008483058470BD0000002C014000340140FD
:10442000828B4FF6FF7322F4006203EA01211143ED
:104430008183704700F05BBC028802F08F0202802B
:10444000CA884B881A4303881A4302808A88828567
:104450000A88028501228282044A904202D0044ADC
:10446000904201D1097A018670470000002C01407A
:104470000034014000F03BBC00F039BC00F037BC18
:1044800000F035BC00F033BCC943018070470A0A14
:1044900001219140C943018070470029818902D0E0
:1044A00041F4005101E021F4005181817047002A5C
:1044B000828A01D00A4300E08A43828270477FB536
:1044C00016460C46054600F029F9284600F0F0F89B
:1044D0000021ADF80810ADF804100C20ADF806105E
:1044E000ADF80A00ADF80C1000946946284600F0BB
:1044F000D7F940F2244400222146284600F0B8F9BA
:1045000021462846FFF7C3FF01212846FFF7C5FFD4
:104510003146284600F002F87FBD00002DE9F04F3B
:104520004FF0000A584B8346C21A58488DB00C46CB
:10453000D146D046574655464FF4806C4FF48C76A2
:104540009B456CD014DC524A1BEB020127D061451D
:1045500038D1002C7ED08480DFF83C914D4DDFF8BF
:1045600038A109F114094FF010084FF4807725E0C5
:1045700062456ED0B2F56C4F24D174B10480DFF87F
:1045800018A1DFF81491454D0AF1280A09F13C09F8
:104590004FF480584FF4803710E00680EFE7ECB31B
:1045A0004480DFF8F4A0DFF8F0903D4D0AF1640A92
:1045B00009F150094FF080784FF480170121084627
:1045C000FEF77CF90BF104000090CDE9010503A989
:1045D0001020002681E851008020CDE906068001E8
:1045E0000896CDE9096001A950460B96FCF782FABE
:1045F000009801A9049481E861008020CDE905605C
:10460000079680010896CDE9096048460B96FCF7AD
:1046100071FA00215046FCF74BFA01E01EE021E060
:1046200001214846FCF744FA012240215846FFF791
:104630003EFF012280215846FFF739FF0022022168
:104640005046FCF74FFA4046FCF726FA3846FCF78E
:1046500023FA00E004E00DB0BDE8F08F4680A0E74B
:10466000868079E774B1C480DFF83C90DFF83C8045
:1046700001210C4DDFF830A0A9F128094FEA385785
:1046800002209DE7C680EFE7004C0040400000207C
:1046900000BCFFBFDC2800201C000240AC2600202C
:1046A000C4270020F4290020580402400000011013
:1046B000184A10B5811A131590421BD007DC164911
:1046C000401814D0984223D10121040217E09942E6
:1046D00013D0B1F56C4F1BD101218C032046FEF79E
:1046E0001DF92046BDE810400021FEF717B9012151
:1046F0004C0404E00121CC0401E001210C0520461A
:10470000FEF7F4F82046BDE810400021FEF7EEB8B1
:1047100010BD0000004C004000BCFFBF2DE9F84375
:104720000025394ADFF8E4C0811ADFF8E480131568
:104730002C462F462E464FF4006990424ED019DC8D
:10474000344940183FD0984226D1334F01213E468C
:104750001D464C460846FEF7D5F801212F48FDF7C7
:10476000E9F901210820FEF7CDF801218804FEF7C0
:10477000B1F811E099423CD0B1F56C4F0CD16746CD
:1047800066464FF400751C4601210520FEF7BAF875
:1047900001218803FEF7B6F8ADF8005018208DF817
:1047A000030003208DF8020069463846FDF772F9D0
:1047B000ADF8004048208DF8030069463046FDF70B
:1047C00069F9BDE8F8830425674666460824012197
:1047D0002846FEF797F801214804C8E747464646B1
:1047E0001D464C4601211120FEF78CF80121C8041A
:1047F000BDE747460A4E1D46042401213120FEF73D
:1048000081F801210805B2E7004C00400008014092
:104810000010014000BCFFBF000C0140000230004E
:10482000001401400246002012880A4200D00120F4
:10483000704770B501F01F0501260024C1F3421333
:1048400006FA05F2012B0FD0022B0FD0838A4FEA14
:1048500011210088134206FA01F600EA060001D091
:1048600000B10124204670BD8389F0E7038AEEE79A
:1048700010B5C1F3421301F01F040121A140012B27
:1048800007D0022B07D01430002A026805D00A4353
:1048900004E00C30F8E71030F6E78A43026010BD00
:1048A00030B50446008A85B00D464CF6FF710840CD
:1048B000E98801432182A0894EF6F3110840A988B6
:1048C0002A8911436A8902431143A181A08A4FF6C4
:1048D000FF410840A9890143A1826846FEF7B8F864
:1048E0001148844201D1039800E00298642200EB51
:1048F000C00101EB001029686FF018058900B0FBBA
:10490000F1F0B0FBF2F109010B096B4300EB8300FE
:10491000322303EB0010B0FBF2F000F00F0008436D
:10492000208105B030BD00000038014010B50848B6
:1049300000F00CF9074800F009F9074800F006F903
:10494000064800F003F9BDE81040054800F0FEB845
:10495000003801400044004000480040004C004046
:10496000005000402DE9F047DFF8B08189466C4ED9
:104970006C4C6D4FA0EB08014FF4806240F224456F
:1049800040456ED00CDC694940183DD0904269D159
:10499000674F29463846FFF74CFF002868D162E090
:1049A00091425FD0B1F56C4FF1D12F462946614D50
:1049B0002846FFF73EFF28B910212846FFF732FFAF
:1049C0000028EED039462846FFF761FD1021284621
:1049D000FFF75AFDB06D20F00100B0655548001D8D
:1049E0000088F06D2188081A85B22A465249484647
:1049F000FBF7ACFB504870662088F0654848012101
:104A00005830FCF755F853E0A8462946464D2D1F6F
:104A10002846FFF70EFF28B910212846FFF702FFAE
:104A2000002878D041462846FFF731FD102128465E
:104A3000FFF72AFDF06E20F00100F0663888306F35
:104A40006188081A85B22A463C494846FBF77EFB36
:104A50003A48B06760883067F06E40F00100F06659
:104A600026E028E042E010213846FFF7DBFEE8B3FD
:104A700029463846FFF70BFD10213846FFF704FDA5
:104A8000306B20F0010030632948001D0088706BF6
:104A9000A188081A85B22A4629494846FBF756FBE1
:104AA0002748F063A0887063306B40F001003063EA
:104AB0002846BDE8F08729464046FFF7BAFE20B9F0
:104AC00010214046FFF7AEFE80B129464046FFF771
:104AD000DEFC10214046FFF7D7FC1A4D286820F075
:104AE0000100286038882F1D386800E013E0E18855
:104AF000081A86B2324614494846FBF727FB11498B
:104B000011480C310860E0883860286840F00100E6
:104B100028603046CDE70020CBE70000004C004085
:104B200000000240400000200444004000BCFFBFE1
:104B30000048004000380140AC260020C427002077
:104B4000DC28002030040240F429002070B55649CA
:104B50000446401A0B15554A554D8C427AD027DC35
:104B6000544820184DD0984221D1A08980041ED5E8
:104B7000286A10B1E869C00719D15069002816D019
:104B80004D4800F033FD49484B491430FCF704FE12
:104B900000280CD0E96921F00101E9611021696068
:104BA00028624548A862E86940F00100E86170BDEC
:104BB000984276D0B0F56C4FF9D1A0898004F6D533
:104BC000A86C10B1686CC007F1D1D0680028EED095
:104BD0003A4800F00BFD354838490C30FCF7DCFD55
:104BE0000028E4D0696C21F0010169644FF4805120
:104BF0006960A86431482865686C40F00100686409
:104C000070BDA0898004FBD5D5F8840018B1D5F813
:104C10008000C007F4D110690028F1D0284800F0C6
:104C2000E5FC224826491030FCF7B6FD0028E7D005
:104C300055F8801F21F0010129604FF0807145F87F
:104C40007C1C68601E48E860286840F0010028600D
:104C500070BDFFE7A0898004FAD51A4E3068351F71
:104C600010B12868C0071CD19069D0B1164800F077
:104C7000BDFC0E4814491830FCF78EFD0028E7D023
:104C8000296821F0010129600E4A1049583A116043
:104C900030600C490C4808310860286840F0010079
:104CA0002860A089D4E70000004C004024000020C8
:104CB0000000024000BCFFBF3C2D00200C2B002058
:104CC000242C00205C040240542E0020000001101F
:104CD000704770477047FEE710B5FDF782FAFFF79F
:104CE00055F9FBF7BDFFBDE81040FBF751BD10B50E
:104CF000FDF766FBBDE81040FBF78EBD7047000076
:104D00007CB5491E1C461546CDE90001044B6A4698
:104D10002146284600F0C8F8009A002111707CBD99
:104D2000D755000802E008C8121F08C1002AFAD1AE
:104D300070477047002001E001C1121F002AFBD11B
:104D4000704700002DE9FF5FDDE90220010DDDF86D
:104D500038B0024318D044F61050A1F2FF3141435D
:104D60000D140F98012820D0A5EB0B00401C5FEA22
:104D7000000A4FF00004474EDFF81C91A046504651
:104D800016D5CAF1000728E00F98012443A2012894
:104D900008D0002100980F9BC0E90021C0E9024320
:104DA000BDE8FF9F6FEA0B01F4E7CBF10000DEE7FF
:104DB000074612E0F80707D02246334640464946E8
:104DC000FBF7ADFA8046894622463346104619461F
:104DD000FBF7A5FA04460E467F10002FEAD1DDE965
:104DE0000201BAF1000F42464B4602DAFBF797FA8E
:104DF00001E0FBF706FB04460E460022284BFBF7BA
:104E0000ADFB03D84FF0FF30014607E00022254BF1
:104E100020463146FBF7DCF9FBF78DFC102409E056
:104E2000002C0ADB0A220023FBF7C6FB019B303271
:104E30001A55641E50EA0102F2D1641C019AC4F1B1
:104E4000110314440F9A012A03D0012208430DD103
:104E50000AE0084304D000204FF0110B0F9080E7C8
:104E6000A3EB0B056D1E0DE05B4504DD4FF000026A
:104E700005F1010504E003DA4FF00002A5F1010598
:104E8000002AECD000980F99C0E90231C0E9004532
:104E900086E70000000024400000F03F30000000E2
:104EA0000000F0430000E03F2DE9FF4F95B09B4626
:104EB0008946064600250FE2252877D1002427469B
:104EC000F84A0121059400E0044316F8013F203B15
:104ED00001FA03F01042F7D130782A2811D06FF090
:104EE0002F033078A0F13002092A16D8059A44F031
:104EF000020402EB820203EB42021044761C05908E
:104F0000EFE759F8042B0592002A03DA504244F4E3
:104F10000054059044F00204761C30782E2816D1F7
:104F200016F8010F44F004042A280DD06FF02F0268
:104F30003078A0F13003092B09D807EB870302EB87
:104F40004303C718761CF3E759F8047B761C3078C6
:104F50006C280FD006DC4C2817D068280DD06A28A2
:104F600014D104E0742810D07A280FD10DE044F455
:104F700000140AE044F4801401E044F44014727810
:104F8000824202D104F58014761C761C30786628A3
:104F90000BD013DC582877D009DC002875D04528C1
:104FA000F6D04628F4D047281AD19DE118E06328AE
:104FB00035D0642879D0652812D195E1702873D056
:104FC00008DC6728F1D069286FD06E280DD06F28D3
:104FD00006D1B5E073282CD0752875D0782874D008
:104FE0005A46179990476D1C75E1C4F30250022888
:104FF00009D003280DD0D9F8001004280DD00D6079
:1050000009F1040967E1D9F80010EA17C1E9005273
:10501000F6E7D9F800100D80F2E70D70F0E719F807
:10502000041B8DF8001000208DF80100EA460120D5
:1050300003E059F804AB4FF0FF3061074FF0000177
:1050400002D40DE008F101018846B9420FDA80452B
:10505000F8DB1AF808100029F4D108E008F1010182
:1050600088468142FADB1AF808100029F6D1059823
:105070005B46A0EB080721463846179A00F094FAE1
:10508000284400EB080507E04DE029E10DE01AF89F
:10509000010B5A4617999047B8F10108F7D25B46C1
:1050A00021463846179A13E142E00A220092C4F3DF
:1050B00002524FF0000A022A08D059F804CB032A02
:1050C0004FEAEC710AD00DE029E02AE009F107016E
:1050D00021F00702F2E802C1914609E00FFA8CFCC8
:1050E0004FEAEC71042A03D14FFA8CFC4FEAEC71C1
:1050F000002907DA0A460021DCF1000C61EB02010D
:105100002D2202E0220504D52B228DF80420012255
:1051100003E0E20701D02022F7E7904659E00A2198
:1051200002E010220DE010214FF0000A00910BE088
:1051300010224FF0000A44F004040827009203E014
:1051400008224FF0000A0092C4F30252022A05D04E
:1051500059F804CB0021032A08D009E009F107011E
:1051600021F00702F2E802C1914605E01FFA8CFC2B
:10517000042A01D10CF0FF0C4FF00008220728D5BB
:10518000702806D0009B83F0100353EA0A0305D071
:105190000EE040228DF80420012208E05CEA0102C2
:1051A00006D030228DF804208DF8050002229046AA
:1051B000009B83F0080353EA0A030AD15CEA010268
:1051C00001D1620705D530228DF804204FF0010887
:1051D0007F1E582804D034A003900EA802900DE042
:1051E00036A0F9E753466046009AFBF7E5F9844696
:1051F0000398825C0298401E029002705CEA0100F3
:10520000F0D1029806A9081A00F1200A600702D519
:1052100024F4803400E00127574502DDA7EB0A00A3
:1052200000E0002000EB0A01009005984144401A7C
:105230000590E00306D45B462146179A059800F0D6
:10524000B3F90544002706E001A85A46C05D179946
:1052500090476D1C7F1C4745F6DBE0030CD55B4691
:105260002146179A059800F09FF9054404E0302084
:105270005A46179990476D1C0099481E00900029C6
:10528000F5DC08E0029802995A460078491C029120
:10529000179990476D1CBAF10001AAF1010AF1DCDF
:1052A00065E10000092801003031323334353637EA
:1052B0003839616263646566000000003031323362
:1052C0003435363738394142434445460000000002
:1052D00000F058F90544761C307800287FF4ECADD6
:1052E00019B02846BDE8F08F620700D4062709F1FF
:1052F000070222F0070CFCE80223E14603F0004815
:105300005FEA080C02D00FF2702C0DE05FEA045C3B
:1053100002D50FF2682C07E05FEAC47C02D00FF2DE
:10532000602C01E0AFF2700C4FF0FF3823F0004327
:10533000CDF850C065280CD006DC452809D0462899
:105340001DD047283DD13DE0662818D067287ED182
:1053500038E00021112F01DB112000E0781CCDE99D
:10536000000106A90EA8FFF7EDFCDDE90F010E9A7A
:1053700003910021009207F1010A04914DE04FF0E2
:1053800000400097CDE9011006A90EA8FFF7DAFC4E
:10539000DDE90F0203920E9B11990022DDF80CA0AB
:1053A0000093049211B9791C00EB010AB7EB0A00D3
:1053B00004D4C0F1FF3007F1010A0490AAEB070002
:1053C000019044E0012F00DA01270021112F01DDB7
:1053D000112000E03846CDE9000106A90EA8FFF72C
:1053E000B1FCDDE90F010E9A0391002104910092B6
:1053F000BA4621070CD40399514500DA8A46BAF11E
:10540000010F05DD009AAAF10101515C302908D095
:10541000B84202DA10F1040F06DA0121CDE90110D9
:1054200015E0AAF10101E9E7002805DC049901442F
:105430000491AAEB000102E0411C514500DD8A46BF
:105440000499401A401C01904FF000400290200740
:1054500004D40198504501DBCDF8048000208DF87C
:105460004F0002980DF14F07B0F1004F25D02B20CF
:105470000E9002984FF0020800280CDA4042029089
:105480002D200E9007E00A210298FBF77FF83031BB
:10549000029007F8011DB8F10001A8F10108F2DC43
:1054A00002980028EFD1791E0E980870307800F02D
:1054B000200040F0450007F8020D12A8C01B00F1C3
:1054C00007081498007800B1012000EB0A01019848
:1054D00001EBE07105984144401A401E0590E0033D
:1054E00006D45B462146179A059800F05DF80544FE
:1054F0001498007818B15A46179990476D1CE0032C
:1055000024D55B462146179A059800F04DF80544CE
:105510001CE00498002807DBDDE90301884203DD75
:105520000098405C179901E0179930205A4690473F
:10553000049805F10105401C04900198401E01905B
:1055400004D12E205A46179990476D1CBAF10001DC
:10555000AAF1010ADDDC05E017F8010B5A4617999C
:1055600090476D1CB8F10001A8F10108F4DC5B461E
:105570002146179A0598ABE62D0000002B0000008D
:10558000200000002DE9F041044600251E46174684
:10559000880404D405E039462020B0476D1C641E01
:1055A000F9D52846BDE8F0812DE9F04104460025F3
:1055B0001E469046C80301D5302700E02027880406
:1055C00004D505E041463846B0476D1C641EF9D548
:1055D0002846BDE8F0814A68002A06D00A68531CB4
:1055E0000B6010704868401E4860704710B5002876
:1055F00021D0114B0022001F196803E0814203D81B
:105600000A4649680029F9D152B11368841A9C42AC
:1056100004D1006818441060104602E0506000E0B9
:10562000186039B102680B1A934203D10B681A440F
:1056300002604968416010BDE000002010B54021C3
:105640001248FFF7EFF812490022D0B9114800685C
:1056500001F11C0380B2DB8883420DD901F12403E0
:10566000DC88844205D1C878431CCB70052808D259
:105670000AE0CA70D88007E0C878431CCB700528C0
:1056800002D9CA70012010BD002010BD004C00409E
:10569000240000203404024070B5114E40213046F1
:1056A000FFF7C0F80F4C0025A0B90F4800680104AF
:1056B000090C04D00C48001F0068C0070DD1402120
:1056C0003046FFF7AFF8012804D06089411C6181A2
:1056D000642802D96581012070BD002070BD0000E2
:1056E000004C0040240000205C040240134810B528
:1056F000C06D402184B21248FFF794F8114900228E
:10570000B8B901F11C000088A0420DD901F12400B4
:105710000388A34205D10878431C0B70052808D2E2
:105720000AE00A70048007E00878431C0B70052823
:1057300002D90A70012010BD002010BD00000240F7
:10574000003801402400002070B5104E4021304642
:10575000FFF768F80E4C002590B90E48816C0904DB
:10576000090C02D0406CC0070DD140213046FFF734
:1057700059F8012804D0A088411CA180322802D900
:10578000A580012070BD002070BD000000380140E0
:10579000240000200000024010B540211248FFF70D
:1057A00041F812490022D0B91148006F01F11C03E1
:1057B00080B25B8883420DD901F124035C88844266
:1057C00005D14878431C4B70052808D20AE04A707E
:1057D000588007E04878431C4B70052802D94A706E
:1057E000012010BD002010BD004400402400002016
:1057F0000000024070B5114E40213046FFF712F80C
:105800000F4C0025A0B90F48D0F884100904090CEA
:1058100003D0D0F88000C0070DD140213046FFF7FB
:1058200001F8012804D0E088411CE180642802D9F5
:10583000E580012070BD002070BD000000440040E4
:10584000240000200000024010B540211248FEF75D
:10585000E9FF12490022D0B91148406B01F11C0345
:1058600080B29B8883420DD901F124039C88844235
:1058700005D18878431C8B70052808D20AE08A700D
:10588000988007E08878431C8B70052802D98A70BD
:10589000012010BD002010BD004800402400002061
:1058A0000000024070B5104E40213046FEF7BAFFAE
:1058B0000E4C002590B90E48016A0904090C02D06B
:1058C000C069C0070DD140213046FEF7ABFF01286B
:1058D00004D02089411C2181642802D9258101201E
:1058E00070BD002070BD0000004800402400002072
:1058F000000002400A49884201D1FFF7F7BE09497A
:10590000884201D1FFF748BF0749884201D1FFF71C
:105910009BBF0649884201D1FFF790BE0020704727
:10592000003801400044004000480040004C004066
:105930000A49884201D1FFF707BF0949884201D1CE
:10594000FFF758BF0749884201D1FFF7ABBF0649AF
:10595000884201D1FFF7A0BE002070470038014007
:105960000044004000480040004C0040FFF7B4F9FC
:10597000FCF726FDFCE70000F0B50B30154D20F0DC
:1059800007010024144A0FE003688B420BD38B42BB
:1059900005D95E1A43184768C3E9006700E0436809
:1059A000136002C004E0021D10680028ECD12046FC
:1059B000002802D1286808B10020F0BD064A074837
:1059C0001060074A121A22F00702C0E900240120E1
:1059D0002860D7E7E4000020E0000020742F0020BA
:1059E000703100202DE9F047164E804691460F4653
:1059F00000243068FDF7FCF94546032040EA1561B4
:105A00003068FDF7F1FAC5F307413068FDF7ECFAAD
:105A1000C5F307213068FDF7E7FAE9B23068FDF712
:105A2000E3FA06E0FF213068FDF7DEFA09F804002A
:105A3000641CBC42F6D33068FDF7D6F9B8B2BDE8B5
:105A4000F08700005000002070B53C4E1546821BC8
:105A500033153B4CB04251D01ADC3A4A801833D04F
:105A6000984266D12A463848FAF770FB40213748F9
:105A7000FEF70AFDE06920F00100E061102060609F
:105A800025623148A062E06940F00100E06150E029
:105A90009A4250D0B2F56C4F4BD12A462C48FAF7B7
:105AA00055FB40212B48FEF7EFFC606C20F0010015
:105AB00060644FF480506060A56425482065606C88
:105AC00040F00100606434E02A462348FAF73EFBC8
:105AD0001C4840214042FEF7D7FC54F8800F20F0CC
