:020000040800F2
:10000000580A002045010008731D0008D518000893
:10001000711D0008A106000803260008000000006A
:10002000000000000000000000000000892400081B
:10003000B907000800000000771D00088F240008A1
:100040000D260008751D0008092500083F2000083E
:10005000D1090008A91F0008BB070008C307000852
:10006000C7070008CB070008CF070008A70600084D
:10007000AB060008AF060008B3060008B706000884
:10008000BB060008BF0600089D060008FF25000803
:1000900001260008A3060008A5060008D3070008EB
:1000A0000B250008112500080F2500080D25000864
:1000B000292500083D25000855250008D918000805
:1000C000D7180008DD180008DB18000843200008D6
:1000D00045200008F1250008F5250008F92500084D
:1000E000BF0700083D200008FD2500085F25000827
:1000F0006525000863250008612500089F060008A3
:10010000050A000841200008592500084920000878
:10011000E9250008ED2500085B2500085D2500089D
:10012000C3060008C7060008CB060008CF06000873
:10013000DFF80CD000F0A0FA00480047FD2E0008C0
:10014000580A00200048004731010008421C10F8FE
:10015000011B0029FBD1801A70472DE9FE4F804614
:1001600081EA0300C00F0C46009021F0004123F00B
:100170000045B8EB0200A94105D240462146904611
:100180001C460B46024623F00040104347D0270D83
:10019000C7F30A00C3F30A510290401A01904028A5
:1001A0006BDAC3F3130040F4801B0098924620B131
:1001B0000023D2EB030A63EB0B0B01985946C0F105
:1001C0004002504600F0B1F906460D4650465946E9
:1001D000019A00F0C9F910EB08006141002487EA98
:1001E000115284EAE7731A4340D0009A62B3019A2D
:1001F000012A4FEA075215DC001B61EB02014FF0A8
:10020000004202EA0752CDE90042001C41F580118C
:1002100032462B4600F0C9F903B0BDE8F08F4046E6
:100220002146F9E7001B61EB0201001C41F5801338
:1002300000185B412018A2F5001747EB030140EAC4
:10024000D570B6196D4111E06D084FEA360645EAE2
:10025000C0754FEA0752001B61EB0201001C41F51B
:10026000801149084FEA30000019514132462B46AF
:1002700003B0BDE8F04F00F089B9009801224000BA
:100280000023D0EB020263EBE073009821464FEAB3
:10029000E074B8EB000061EB0401E9E783F0004390
:1002A0005BE781F0004158E72DE9FE4F81EA030446
:1002B00004F0004421F0004100944FF0000B23F0C3
:1002C000004350EA01045ED052EA03045BD0C3F35A
:1002D0000A54C1F30A552C44A4F2F3340194A0FB50
:1002E0000254C1F3130141F48011C3F3130343F427
:1002F000801301FB024400FB034E840A970A44EA80
:10030000815447EA8357A4FB076802958D0A05FBD1
:1003100007854FEA932C04FB0C542705029D4FEAF6
:10032000065847EA1637B5EB08056EEB070C870E43
:10033000920E47EA811742EA8312A7FB0201B6EB4D
:100340000B0164EB00042B0D43EA0C335E1844EB05
:100350001C50DA465146E7FB0201C5F313044FEA8D
:100360000B3343EA14534FEA0432019C43EA060379
:10037000A4F10C040294009CCDE900B400F015F93E
:1003800003B0BDE8F08F00200146F9E72DE9F04DFC
:1003900081EA030404F0004B21F0004514464FF0BD
:1003A000000A23F0004150EA050220D054EA01027D
:1003B0001DD0C5F30A570246C5F31303C1F313005A
:1003C000C1F30A5640F4801543F48013A7EB0608E6
:1003D000101BD64608F2FD3873EB050002D308F176
:1003E000010801E092185B41B8F1000F03DA002028
:1003F0000146BDE8F08D00204FF48011064684468A
:100400000EE0171B73EB050705D3121B63EB050307
:1004100006434CEA010C49084FEA300092185B4150
:1004200050EA0107EDD152EA030012D082EA04003B
:1004300083EA0501084305D0101BAB4106D2012217
:10044000002306E000224FF0004302E06FF00102BB
:1004500053101AEB06004CEB085110EB0A0041EB6D
:100460000B01BDE8F04D00F091B8000030B5041E5E
:1004700071F1000404DB4FF00044404264EB0101E1
:10048000141E73F1000405DB1C464FF0004352427A
:1004900063EB0403994208BF904230BD30B50B4670
:1004A000014600202022012409E021FA02F59D42A4
:1004B00005D303FA02F5491B04FA02F52844151E78
:1004C000A2F10102F1DC30BD2DE9F05F054600200C
:1004D00092469B4688460646814640241BE02846B5
:1004E00041464746224600F02FF853465A46C01A66
:1004F000914110D311461846224600F016F82D1AE5
:1005000067EB01084F4622460120002100F00DF85C
:1005100017EB00094E41201EA4F10104DFDC484620
:1005200031462A464346BDE8F09F202A04DB203AA4
:1005300000FA02F1002070479140C2F1200320FA36
:1005400003F3194390407047202A04DB203A21FA34
:1005500002F00021704721FA02F3D040C2F12002DC
:100560009140084319467047202A06DBCB17203AF2
:1005700041FA02F043EAE07306E041FA02F3D040A8
:10058000C2F12002914008431946704710B5141E6D
:1005900073F1000408DA401C41F1000192185B413C
:1005A0001A4301D120F0010010BD2DE9F04D924613
:1005B0009B4611B1B1FA81F202E0B0FA80F220322A
:1005C0009046FFF7B2FF04460F4640EA0A0041EAB0
:1005D0000B0153465A46084313D0114653EA010013
:1005E00019D0C8F140025046FFF7AEFF05460E464F
:1005F000504659464246FFF798FF084305D0012070
:1006000004E020463946BDE8F08D0020054346EA67
:10061000E0762C4337430A986305E40AA0EB080010
:100620000022FD0A44EA47540A3002D50020014660
:10063000E9E7010510196941DDE90845001969413B
:10064000BDE8F04DA2E7C1F30A52C1F3130140F235
:10065000FF3341F480119A4202DA002001467047CC
:1006600040F233439A42A2F2334202DC5242FFF795
:100670006BBFFFF75ABF0000064C074D06E0E0686D
:1006800040F0010394E8070098471034AC42F6D3D9
:10069000FFF752FD302F0008502F000870477047B9
:1006A000FEE77047704700F03FB800F03DB800F03B
:1006B0003BB800F039B800F037B800F035B800F0BA
:1006C00033B800F031B800F02FB800F02DB800F0CA
:1006D0002BB80000C10002D50249086070470249EA
:1006E000486070470404024000000240002904D022
:1006F000016841F0010101607047016821F00101CA
:100700000160704702460020D10002D50449096803
:1007100001E004490968114200D00120704700003F
:10072000000402400000024010B501F06DFF1020EF
:10073000FFF7E8FF01281BD04FF480542046FFF755
:10074000E1FF01281DD024032046FFF7DBFF01282D
:1007500021D0164C2046FFF7D5FF012825D1204691
:10076000FFF7B8FFBDE8104000211148FFF7BEBFFA
:100770001020FFF7AFFFBDE8104000210D48FFF744
:10078000B5BF2046FFF7A6FF0A480021BDE810408C
:100790002830FFF7ABBF2046FFF79CFF054800213C
:1007A000BDE810406430FFF7A1BF10BD000001108C
:1007B000580402401C000240704700F0C1B800F02D
:1007C000BFB800F0BDB800F0BBB800F0B9B800F099
:1007D000B7B800F0B5B800000149086070470000E4
:1007E0001404014010B5012000F09AF84B4C20B1E0
:1007F000208840F00100208010BD022000F090F819
:1008000020B1208840F00200208010BD042000F0BC
:1008100087F820B1208840F00400208010BD082017
:1008200000F07EF820B1208840F00800208010BD44
:10083000102000F075F820B1208840F010002080D2
:1008400010BD202000F06CF820B1208840F020007E
:10085000208010BD402000F063F820B1208840F0D7
:100860004000208010BD802000F05AF820B1208880
:1008700040F08000208010BD4FF4807000F050F8F0
:1008800020B1208840F48070208010BD4FF40070AB
:1008900000F046F820B1208840F40070208010BDA0
:1008A0004FF4806000F03CF820B1208840F4806074
:1008B000208010BD4FF4006000F032F820B1208895
:1008C00040F40060208010BD4FF4805000F028F804
:1008D00020B1208840F48050208010BD4FF400509B
:1008E00000F01EF820B1208840F40050208010BD98
:1008F0004FF4804000F014F820B1208840F480408C
:10090000208010BD4FF4004000F00AF80028F8D015
:10091000208840F40040208010BD00001C00002012
:1009200001460020054A12680A40044B14331B6834
:100930000B4202D0002A00D0012070470004014081
:1009400008B500200090FFF74DFF01F05DFE1F4845
:10095000BDF8001001800120FFF73EFF0220FFF7E5
:100960003BFF0420FFF738FF0820FFF735FF10207A
:10097000FFF732FF2020FFF72FFF4020FFF72CFF6B
:100980008020FFF729FF4FF48070FFF725FF4FF419
:100990000070FFF721FF4FF48060FFF71DFF4FF459
:1009A0000060FFF719FF4FF48050FFF715FF4FF479
:1009B0000050FFF711FF4FF48040FFF70DFFBDE837
:1009C00008404FF40040FFF707BF00001C00002064
:1009D0007047000004490A6822F010020A600A68A1
:1009E00002430A60704700000020024004490A6880
:1009F00002F038020A600A6802430A607047000089
:100A000000200240704710B50121084601F0D0F9DE
:100A10000021BDE81040012001F0CAB970B50C46B4
:100A2000364A811A1315D614904253D017DC344934
:100A3000344D41184FF6FF721ED0994234D0B14266
:100A40005AD10121102001F0A5F9600401D420043D
:100A500052D5BDE870400121112001F09BB99942A7
:100A60003ED0B14242D0B1F5406F45D1BDE87040B3
:100A70000121080201F08EB9A00405D4600403D45A
:100A8000200401D4944209D10121052001F082F90A
:100A90002846BDE87040012100F04EB9BDE8704025
:100AA0000121042001F076B9200703D4E00601D427
:100AB000944209D10121092001F06CF92846BDE8D2
:100AC0007040012100F038B9BDE8704001210820D4
:100AD00001F060B9BDE870400121202001F05AB951
:100AE000BDE870400121402001F054B9BDE87040DC
:100AF0000121802001F04EB970BD000000140140BA
:100B000000F8FEBF0002300038B50446ADF8001012
:100B100003228DF8022010228DF803202046FFF7D3
:100B20007DFF6946204600F0B5F838BD10B52E4A65
:100B3000811A1315D414904237D010DC2B49401879
:100B40001FD0984227D0A0424DD10121102001F0A2
:100B50002FF90021BDE81040102001F029B9994279
:100B60002DD0A14235D0B1F5406F3CD101210C020E
:100B7000204601F01DF92046BDE81040002101F09B
:100B800017B90121042001F013F90021BDE810403C
:100B9000042001F00DB90121082001F009F900211C
:100BA000BDE81040082001F003B90121202001F028
:100BB000FFF80021BDE81040202001F0F9B8012124
:100BC000402001F0F5F80021BDE81040402001F080
:100BD000EFB80121802001F0EBF80021BDE81040C2
:100BE000802001F0E5B810BD0014014000F8FEBF00
:100BF0002DE9F84F684600F0C9F81F4C69462046B9
:100C000000F048F81D4D6946284600F043F81C4E98
:100C10006946304600F03EF81A4F6946384600F003
:100C200039F8DFF864806946404600F033F8DFF8B1
:100C30005C906946484600F02DF8DFF854A06946FC
:100C4000504600F027F82046FFF770FF2846FFF7D0
:100C50006DFF3046FFF76AFF3846FFF767FF4046F3
:100C6000FFF764FF4846FFF761FF5046FFF75EFF5E
:100C7000FFF7C9FEBDE8F88F00080140000C0140F5
:100C8000001001400014014000180140001C014008
:100C9000002001402DE9F0430022CC7804F00F033E
:100CA000E40601D58C7823430C784FF00F0714F03D
:100CB000FF0F4FF0010C1BD005680CFA02F40E88F0
:100CC0002640A64210D1960007FA06F825EA080544
:100CD00003FA06F848EA0505CE78282E00D14461CB
:100CE000CE78482E00D10461521C082AE5D3056055
:100CF0000A88FF2A1ED94568002202F108060CFA6C
:100D000006F40E882640A64210D1960007FA06F88F
:100D100025EA080903FA06F545EA0905CE78282EE2
:100D200000D14461CE78482E00D10461521C082ABB
:100D3000E3D34560BDE8F083F0B5114D6B68C0F3B7
:100D40000342440D260184B2C0F30157B440032F7F
:100D500007D0C0020CD503209040834343F070625B
:100D600009E023F07062686820F07060686002E05B
:100D7000A34343F0706201B122436A60F0BD0000FA
:100D80000000014041617047016170474FF6FF71FB
:100D90000180022181700421C1707047018940687F
:100DA000FFF7F2BF01894068FFF7ECBF2DE9F04F74
:100DB00087B00446FE49206818260325DFF8F4A30F
:100DC000DFF8F4834FF010094FF4804B4FF40047E5
:100DD00088427DD10121801400F0DCFF0121052033
:100DE00000F0D8FFF54A6068904202D121891029AD
:100DF00013D0F24988421CD12089B0F5005F03D09E
:100E0000584501D0B84259D10121052000F0C2FF58
:100E10000121EB48FFF790FF50E0F020ADF804000F
:100E20008DF807608DF8065001A91046FFF732FFD4
:100E30009EE1404512D12089082806D0102804D010
:100E40000121082000F0A6FF38E00121092000F070
:100E5000A1FF0121DA48FFF76FFF2FE050450ED1C7
:100E60002089584501D0B84204D10121112000F059
:100E700091FF23E00121102000F08CFF1EE0D149FA
:100E8000884204D10121202000F084FF16E0CE49E1
:100E9000884204D10121402000F07CFF0EE0CB49C4
:100EA000884204D10121802000F074FF06E0C84987
:100EB000884203D10121801500F06CFFE020ADF8DD
:100EC00004008DF807608DF8065001A9BB4800E0CA
:100ED0000DE0FFF7DFFE2089ADF804008DF80790E4
:100EE0008DF8065001A96068FFF7D4FE40E1B949CA
:100EF00088426ED10121584600F03EFF01210920B1
:100F000000F048FF6068404503D12189B1F5805F5A
:100F100013D0AA49884226D12089B0F5005F03D0BA
:100F2000584501D0B84219D10121052000F032FF07
:100F30000121A348FFF700FF5BE00121206801F0D9
:100F4000B7F84FF47040ADF804008DF806508DF8F6
:100F5000076001A94046FFF79DFE09E10121042039
:100F600000F018FF45E0404512D12089082806D03E
:100F7000102804D00121082000F00CFF39E00121E5
:100F8000092000F007FF01218D48FFF7D5FE30E072
:100F900050450ED12089584501D0B84204D10121D5
:100FA000112000F0F7FE24E00121102000F0F2FEF5
:100FB0001FE08449884204D10121202000F0EAFE8C
:100FC00017E08149884205D10121402000F0E2FE6E
:100FD0000FE026E07D49884204D10121802000F005
:100FE000D9FE06E07A49884203D10121801500F03C
:100FF000D1FE4FF46040ADF804008DF807608DF825
:10100000065001A96D48FFF745FE2089ADF80400A0
:101010008DF807908DF8065001A96068FFF73AFE39
:10102000A6E06D4988423CD10121C01300F0A4FE26
:1010300001210D2000F0AEFE604F6068B84203D180
:101040002189B1F5004F12D0644A00219170B84255
:1010500031D12089B0F5005F24D0584522D0B0F5B9
:10106000004F1FD00121042000F094FE69E05B498D
:10107000012088703820ADF804008DF806508DF8F6
:10108000076001A94046FFF705FE4FF40040ADF8A8
:1010900004008DF806508DF8076001A93846FFF767
:1010A000F9FD65E00121052000F074FE01214448AE
:1010B000FFF742FE45E0404512D12089082806D0BE
:1010C000102804D00121082000F064FE39E001213D
:1010D000092000F05FFE01213948FFF72DFE30E0C6
:1010E00050450FD12089584507D0B0F5004F04D0A6
:1010F0000121102000F04EFE23E00121112000F01C
:1011000049FE1EE02F49884204D10121202000F031
:1011100041FE16E02C49884204D10121402000F014
:1011200039FE0EE02949884204D10121802000F0D7
:1011300031FE06E02649884203D10121801500F0E6
:1011400029FE4FF46040ADF804008DF807608DF87B
:10115000065001A93846FFF79DFD2089ADF804002F
:101160008DF807908DF8065001A96068FFF792FD91
:101170000020ADF808004FF48271ADF80A10ADF808
:101180000C000221ADF80E100121ADF8101013492A
:101190000A78012A3DD04A78012A3AD08978012973
:1011A00037D04FF40071ADF81210202118E0000084
:1011B0000030014000100140000C014000080140D7
:1011C000000230000014014000180140001C0140E2
:1011D0000020014000380040003C00402800002072
:1011E000ADF81410ADF816000720ADF8180002A9EC
:1011F000206800F041FF0121206800F026FF2068F0
:101200000188890502D4012100F052FF07B0BDE832
:10121000F08FADF81200C8E72DE9F0031E460D4629
:10122000069B0446114600200022802D1FD90C2C5D
:101230000BD0102C0FD0182C13D0202C41D13246BB
:101240002846BDE8F00300F027BA32462846BDE83C
:10125000F00300F0CBB832462846BDE8F00300F0BA
:1012600025B932462846BDE8F00300F099B9A5F14A
:1012700021015D2925D8491CDFF80891002601EBE2
:10128000810CA4EB090306EBC10601EB01170CEB83
:10129000411C01EB81184C454BD01FDC0D4605EB82
:1012A000850202EBC502232C4CD00DDC0C2C50D057
:1012B000102C5ED0182C60D0202C02D1324800EBCC
:1012C0004800BDE8F0037047792C4ED0B4F5801F7C
:1012D0002DD02E49CC42F4D13046F2E7B3F57E5FF3
:1012E00034D016DCA5F1200101EB4104B3F5407FB9
:1012F00021D0203D002101EB0511B3F5F06F1DD089
:10130000B3F5786F1CD0B3F5AC5FDAD102EB041003
:10131000D7E7A3F5C243403B1FD0B3F54C6F20D0B5
:10132000B3F5225FCDD102EB4800801CC9E73046FF
:10133000C7E73046C5E702EB8400C2E70846C0E7CE
:101340000846BEE7124800EB8110BAE702EB8110B5
:10135000B7E7104800EB4200B3E702EB4700801C00
:10136000AFE702EB4C00801CABE70B4800EB420000
:10137000A7E70A4800EB4700A3E7094800EB4C0049
:101380009FE700000006100042F3100000FDEFFF91
:10139000802D1000825D100082C0100052CA100023
:1013A00042D710000246002080290FD90C2A07D00E
:1013B000102A07D0182A07D0202A00D18020704791
:1013C0001820704720207047482070470C2A07D00B
:1013D000102A07D0182A07D0202AF6D1802070477B
:1013E00018207047202070474820704710B5002211
:1013F0002D4C7F290DD0A0F1A103082B0BD8A129DA
:1014000009D3C3EB031202EB431201EB4202A13AF0
:1014100011E0204610BDA0F1A803012B0BD8A12993
:1014200009D27F2901D9491EC9B203EB430201EB5E
:10143000421202F24E22A0F1B003472B0AD8A12992
:1014400008D3C3EB031000EB431001EB400202F2A0
:101450006D3223E0A0F18103202B0FD240290DD360
:101460007F2901D9491EC9B2C3EB431000EB831099
:1014700001EB400041F67E5142180FE0AA280DD33F
:10148000A1290BD27F2901D9491EC9B2AA3800EB84
:10149000400001EB401043F23E51421802EB420083
:1014A00004EBC00010BD00000E3D110070B500241B
:1014B0003A4E7F290DD0A0F1A105082D0BD8A12906
:1014C00009D3C5EB051404EB451401EB4404A13C1E
:1014D00011E0304670BDA0F1A805012D0BD8A1295F
:1014E00009D27F2901D9491EC9B205EB450401EB98
:1014F000441404F20E34A0F1B005472D0AD8A129F6
:1015000008D3C5EB051000EB451001EB400404F2D5
:101510006D3440E0A0F18105202D0FD240290DD37C
:101520007F2901D9491EC9B2C5EB451000EB8510D2
:1015300001EB400041F63E6144182CE0AA280ED38E
:10154000A1290CD27F2901D9491EC9B2AA3800EBC2
:10155000400001EB401043F23E5144181BE081284B
:101560000AD1392908D3EE3A02EB820003EB40009E
:1015700045F2E55144180EE082280CD1303940F292
:10158000EC404143813A02EB820001EB40001844F9
:1015900045F28F61441806EB441070BDDE4F190010
:1015A00070B500243B4E7F290DD0A0F1A105082D78
:1015B0000BD8A12909D3C5EB051404EB451401EBA5
:1015C0004404A13C11E0304670BDA0F1A805012DF6
:1015D0000BD8A12909D27F2901D9491EC9B205EB2F
:1015E000450401EB441404F20E34A0F1B005472D7C
:1015F0000AD8A12908D3C5EB051000EB451001EB73
:10160000400404F26D3440E0A0F18105202D0FD29A
:1016100040290DD37F2901D9491EC9B2C5EB451018
:1016200000EB851001EB400041F63E6144182CE0D0
:10163000AA280ED3A1290CD27F2901D9491EC9B2EB
:10164000AA3800EB400001EB401043F2FE51441871
:101650001BE081280AD1392908D3EE3A02EB820037
:1016600003EB400045F2E55144180EE082280CD10E
:10167000303940F2EC404143813A02EB820001EB09
:101680004000184445F28F61441804EBC40006EB97
:10169000C00070BDDE43270070B500243A4E7F299C
:1016A0000DD0A0F1A105082D0BD8A12909D3C5EBB8
:1016B000051404EB451401EB4404A13C11E0304651
:1016C00070BDA0F1A805012D0BD8A12909D27F2951
:1016D00001D9491EC9B205EB450401EB441404F2DB
:1016E0004E24A0F1B005472D0AD8A12908D3C5EB97
:1016F000051000EB451001EB400404F2AD2440E07E
:10170000A0F18105202D0FD240290DD37F2901D9C9
:10171000491EC9B2C5EB451000EB851001EB400036
:1017200041F63E6144182CE0AA280ED3A1290CD220
:101730007F2901D9491EC9B2AA3800EB400001EB4C
:10174000401043F2FE5144181BE081280AD1392988
:1017500008D3EE3A02EB820003EB400045F2E5517C
:1017600044180EE082280CD1303940F2EC4041435D
:10177000813A02EB820001EB4000184445F28F6190
:10178000441806EBC41070BD10AE47002DE9F843B5
:1017900007468846144680204FF00009B0EB142F0E
:1017A00013D8260AE2B2002331464046CDF8009015
:1017B000FFF732FD0546E2B2002331464046CDF840
:1017C0000090FFF7EFFD064611E00023E1B21A4654
:1017D0004046CDF80090FFF71FFD05460023E1B21B
:1017E0001A464046CDF80090FFF7DCFD0646384625
:1017F000FFF7D8FA45F04075280E00F02BF8C5F336
:10180000074000F027F8C5F3072000F023F8E8B2FE
:1018100000F020F84FF03060A84302D1FF2000F024
:1018200019F84FF6FF70401E411CFCD1002406E061
:10183000FF2000F00FF8391981F82C00641CB44225
:10184000F6D33846FFF7AAFABD6287F8F460B0B263
:10185000BDE8F88370B506464FF6FF741C4D802135
:10186000284600F0FEFB0128F9D00221284600F0AE
:10187000F8FB0028F9D0641CA0B2B0F5FA6F01D9CA
:10188000002070BD3146284600F0F4FB8021284638
:1018900000F0E7FB0128F9D000244FF4FA5605E0E8
:1018A000641CA4B2B44201D9002070BD01212846B5
:1018B00000F0D7FB0028F3D08021284600F0D1FBB0
:1018C0000128F9D0284600F0D3FBC0B270BD00005B
:1018D00000300140FEE770477047704770470000D6
:1018E0002DE9F04180461E4804684034217D278858
:1018F000668820886388401E403C5B1E00290ED00D
:10190000012911D0022914D000259AB2002183B2F6
:10191000A46D2846A04700F00BFA002519E0002529
:1019200082B200219BB2F3E700259AB2002183B274
:10193000EEE7002582B200219BB2E9E7002404E033
:10194000404600F0DBF9641CA4B2B442F8D36D1C2D
:10195000ADB2BD42F2D3BDE8F04100F0DDB9000008
:10196000AC0000201548144901600122828081608A
:1019700002228281016104228282816108228283A3
:101980000162102282840163202282868162828524
:101990000B4981634FF6FF718187002180F8541055
:1019A000084981660849C1665102A0F87010A0F884
:1019B0008A2000F00BB8000000100140B0000020A9
:1019C0000018014000300140000C014070B5044691
:1019D0000A4D2C6000F07AFB204600F011F82868D0
:1019E000C06D804704F16800FFF7E0F9B4F87010AB
:1019F000E06EBDE87040FFF787B80000AC00002043
:101A000010B50446A1882068FFF77EF8A189A06878
:101A1000FFF77AF8A18A2069FFF776F8A18BA06911
:101A2000FFF772F8A18C206AFFF76EF8A18DA06A0B
:101A3000FFF76AF8A18E206BFFF766F8A18FA06B05
:101A4000BDE81040FFF760B80FB42DE9F04FC3B008
:101A500004460D46164600274F98FEF777FB50AB1D
:101A6000802103A84F9A00F0D3FD82461FFA8AF91D
:101A7000002002900DF10C0BDFF854819EE01BF862
:101A80000720802A5BD912020BEB07004078024343
:101A9000102E09D1D8F80000B0F842001038A0424A
:101AA00002DA00241035ADB2202E09D1D8F800009A
:101AB000B0F842002038A04202DA00242035ADB24E
:101AC000102E08D1D8F80000B0F842001038A84213
:101AD00001DA00242546202E08D1D8F80000B0F8FD
:101AE00042002038A84201DA00242546D8F8000038
:101AF00031466830FFF74AFED8F80000324600F160
:101B00009401009190F85C312946204600F064F879
:101B10000C2E06D0102E07D0182E08D0202E09D05B
:101B20000AE00C34A4B207E01034A4B204E0183484
:101B3000A4B201E02034A4B27F1CBFB23CE0D8F8CC
:101B40000030B3F8400001461038A04202DA002409
:101B50002035ADB2102E03D1A84201DA002425466B
:101B6000202E04D12039A94201DA0024254631462D
:101B700003F16800FFF70AFED8F80000324600F1D2
:101B80009401009190F85C312946204600F024F839
:101B90000C2E06D0102E07D0182E08D0202E09D0DB
:101BA0000AE0A41DA4B207E00834A4B204E00C3497
:101BB000A4B201E01034A4B27F1CBFB24F45FFF4C1
:101BC0005EAF43B05046BDE8F00F5DF814FB000077
:101BD000AC000020704700002DE9F0479446DDF886
:101BE00020801E46002500220023DFF80C91D9F842
:101BF0000040B4F85070BCF10C0F0FD1B4F8422083
:101C00000C3A824275DBB4F840200C3A8A4270DB11
:101C100000F10B0292B201F10B039BB200F10F0A2B
:101C2000BCF1100F0ED1B4F84220103A824260DBB2
:101C3000B4F84020103A8A425BDB1FFA8AF201F1C5
:101C40000F039BB2BCF1180F03D0BCF1200F11D0D1
:101C500021E0B4F84220183A82424ADBB4F840202E
:101C6000183A8A4245DB00F1170292B201F11703DC
:101C70009BB210E0B4F84220203A824239DBB4F83B
:101C80004020203A8A4234DB01F11F03802E05D028
:101C90001FFA8AF29BB2A46DA04728E000F11F0250
:101CA00092B29BB2F7E718F805A000245FEA0A6039
:101CB00004D5D9F80000B0F8503003E0D9F800009E
:101CC000B0F8523000F034F8184600F017F800F081
:101CD00023F84FEA4A604FEA106A641CE4B2082C09
:101CE000E4D3D9F80000A0F850706D1CEDB2B542F5
:101CF000D9D3BDE8F0870000AC0000200549096891
:101D00000B6A8A8C5A618A6BD060888C096A086178
:101D100070470000AC000020044800688269818B95
:101D20005161818D806A016170470000AC00002024
:101D300005480068826A818D51618269818B1161D9
:101D40008189806801617047AC00002010B5074CA4
:101D500021688B6A8A8D5A618A8B89694A61FFF78B
:101D6000CDFF2068818B8069016110BDAC0000202F
:101D7000FEE7704770477047054A002903D0D169D4
:101D80000143D1617047D1698143D161704700003F
:101D900000100240054A002903D091690143916176
:101DA00070479169814391617047000000100240C3
:101DB000054A002903D0D1680143D1607047D1683A
:101DC0008143D160704700000010024010B500F060
:101DD00031F84FF48034204600F0CAF800F014F9CE
:101DE000012822D11020FEF7F5FD0220FEF7FEFDAE
:101DF000002000F0B3F8002000F0E2F8A01100F09D
:101E0000D5F84FF4E011204600F0EAF8012000F088
:101E1000E1F8392000F082F80028FAD0022000F022
:101E2000E9F800F093F80828FBD1BDE81040FEF770
:101E3000DFBE00000B48016841F00101016041680C
:101E4000094A114041600168084A11400160016877
:101E500021F480210160416821F4FE0141600021EC
:101E600081607047001002400000FFF8FFFFF6FE9F
:101E700010B5264A516801F00C01254B002927D0E6
:101E8000042927D0082927D00360516801F0F00108
:101E90000909204B5C5C0168E1404160546804F42E
:101EA000E064240A1C5D21FA04F48460546804F49C
:101EB0006054E40A1B5DD940C160526802F440429C
:101EC000920B144B1B1F9A5CB1FBF2F1016110BD28
:101ED0000360DAE70360D8E7516801F47011022368
:101EE00003EB9141536803F4803333B153689B0390
:101EF00007D5094B59430160C7E7074B59430160B8
:101F0000C3E7034B59430160BFE7000000100240E4
:101F100000127A00202F000800093D00034600202F
:101F20005909094A01290AD002290AD0516A03F045
:101F30001F02012393400B4200D00120704711681B
:101F4000F5E7116AF3E7000000100240024840681C
:101F500000F00C007047000000100240034A516876
:101F600021F0F00101435160704700000010024071
:101F70000C490A6822F480320A600A6822F480223E
:101F80000A60B0F5803F07D0B0F5802F03D1086814
:101F900040F4A02008607047086840F48030086072
:101FA000704700000010024070470000034A51686B
:101FB00021F4E061014351607047000000100240CD
:101FC000034A516821F4605141EAC00050607047F3
:101FD00000100240014908667047000000004242BC
:101FE000034B5A6822F47C12084310435860704730
:101FF00000100240034A516821F00301014351607F
:10200000704700000010024030B50B4C40F2FF1545
:102010003120FFF783FF20706068401C60602078EB
:1020200010B96068A842F3D13120FFF777FF08B1FB
:10203000012030BD002030BD1400002070477047E3
:102040007047704700F040B87047002904D00188FD
:1020500041F0400101807047018821F0400101807A
:1020600070470246002012890A4200D001207047C2
:10207000808970478181704730B5028802F44153EE
:102080000A884C88CD8822438C882C4322430C89B3
:1020900022434C8922438C892243CC8922431A4310
:1020A0000280828B22F400628283098A018230BD21
:1020B000002904D0818841F0040181807047818823
:1020C00021F004018180704700F09EBA0948006841
:1020D00009494030C16141624FF4487101804FF4B9
:1020E000F071418047F6FF7141820021018203496E
:1020F00081617047AC0000200121000879220008AE
:1021000010B54CF250315B4C20680369828A5A61E9
:102110000369828A1A61491E89B2FCD2826A818D62
:102120001161826881891161026A818C5161818D9E
:10213000806A4161E220FFF709FE2320FFF7DEFD00
:102140000120FFF7DBFD0420FFF7D8FDE020FFF7BB
:10215000FDFD0120FFF7D2FDE020FFF7F7FD032092
:10216000FFF7CCFD0120FFF7F1FDE620FFF7EEFDC4
:102170000320FFF7C3FDFF20FFF7C0FDFF20FFF79F
:10218000BDFDB020FFF7E2FD0020FFF7B7FD002006
:10219000FFF7B4FD0320FFF7B1FD1F20FFF7AEFDF1
:1021A0000120FFF7ABFDDF20FFF7A8FD0020FFF7C0
:1021B000A5FDB420FFF7CAFD0320FFF79FFDA02077
:1021C000FFF79CFD0020FFF799FD2E20FFF796FDFD
:1021D0003020FFF793FD0020FFF790FD0F20FFF761
:1021E0008DFD0020FFF78AFDB620FFF7AFFD02202E
:1021F000FFF784FD0D20FFF781FD0020FFF77EFD36
:102200001020FFF77BFD1020FFF778FD0020FFF77F
:1022100075FD0820FFF772FDB820FFF797FD072036
:10222000FFF76CFD0120FFF769FDBA20FFF78EFD77
:102230000520FFF763FD3620FFF788FD0020FFF73C
:102240005DFDF020FFF782FD0320FFF757FD2920F9
:10225000FFF77CFDD020FFF779FD0D20FFF74EFD45
:102260002068B0F85200FFF73BFB206881880068C7
:10227000016110BDAC0000202DE9F0413D4E3468F5
:1022800094F85470B4F840C0B4F84250002F48D0CD
:10229000012F4FD0022F5AD024F8441F6380A08012
:1022A000E2802381608122242A20FFF74FFD3068DD
:1022B000B0F84400000AFFF721FD3068B0F8440090
:1022C000FFF71CFD3068B0F84600000AFFF716FD66
:1022D0003068B0F84600FFF711FD2B20FFF736FD00
:1022E0003068B0F84800000AFFF708FD3068B0F821
:1022F0004800FFF703FD3068B0F84A00000AFFF716
:10230000FDFC3068B0F84A00FFF7F8FC3620FFF714
:102310001DFD2046FFF7F2FCBDE8F0412C20FFF741
:1023200015BD24F8440F6280A180E3802081618183
:102330000024B9E724F8441F6380AA1A521EA28021
:10234000281A401EE08021816081A024ACE7ACEB1C
:102350000202521E24F8442FACEB0000401E6080A5
:10236000EA1A521EA280691A491EE1802081618109
:10237000802499E7AC00002038B500F086F8FEF71D
:1023800037FCFFF7EFFA00F005F914A32022E6214D
:10239000C820FFF759FB134C13A32022207800908C
:1023A000E6214FF49670FFF74FFB607800900EA384
:1023B0002022E6214FF4AE70FFF746FBA078009094
:1023C0000BA32022E6214FF4C670FFF73DFBBDE8CA
:1023D000384040F2DE3000F05DB80000CAB1D6D31C
:1023E0000000000004000020253032643A000000A4
:1023F000253032640000000038B5FFF7EBFB1D4CC0
:10240000E088401C80B2E080B0F57A7F31D30021B3
:10241000E180A078401CC0B2A0703B2820D9A170F8
:102420006078401CC0B260703B2810D96170207881
:10243000401CC0B22070172800D92170207800906D
:102440000DA32022E6214FF49670FFF7FDFA607885
:10245000009009A32022E6214FF4AE70FFF7F4FAB2
:10246000A078009006A32022E6214FF4C670FFF763
:10247000EBFA38BD04000020253032643A00000039
:1024800025303264000000007047FFF79FBC00F069
:1024900039B8000010B50446002C2BD01648FFF7C1
:1024A000E7FC4FF0E021086920F0020008610869AC
:1024B00020F001000861086920F0040008610E485E
:1024C0000E4A0068B0FBF2F060434861086940F0D2
:1024D00002000861086940F001000861002088617D
:1024E000086940F0020008614A690548026009690C
:1024F00089B2416010BD00004402002000127A0041
:102500002000002000F080B8704770477047704787
:1025100010B500F02CF8BDE810400121014800F092
:1025200023B80000002C014010B500F020F8012174
:10253000BDE81040880700F017B8000010B500F0A3
:1025400016F8BDE810400121014800F00DB8000068
:102550000004004000F00BB87047704770477047A8
:102560007047704700F003B8C9430182704700F01C
:102570004BB810B50446A1882068FEF7C5FAA189BA
:10258000A068FEF7C1FAA18A2069BDE81040FEF7F5
:10259000BBBA000010B51248104C8460A2158281AD
:1025A00004605100818004614B0083821830846094
:1025B0008281046081800461890081821838FFF77C
:1025C000D8FF07481830FFF7D4FFA1142046FEF7C4
:1025D0009BFA04490120086010BD00000010014072
:1025E00014020020B001224200F00EB800F00CB836
:1025F00000F00AB800F008B800F006B8704770475D
:102600007047FEE7FFF7B8BEFFF7F6BE7047000061
:102610007CB5491E1C461546CDE90001044B6A46AF
:102620002146284600F0C8F8009A002111707CBDB0
:10263000E72E000802E008C8121F08C1002AFAD1DC
:1026400070477047002001E001C1121F002AFBD132
:10265000704700002DE9FF5FDDE90220010DDDF884
:1026600038B0024318D044F61050A1F2FF31414374
:102670000D140F98012820D0A5EB0B00401C5FEA39
:10268000000A4FF00004474EDFF81C91A046504668
:1026900016D5CAF1000728E00F98012443A20128AB
:1026A00008D0002100980F9BC0E90021C0E9024337
:1026B000BDE8FF9F6FEA0B01F4E7CBF10000DEE716
:1026C000074612E0F80707D02246334640464946FF
:1026D000FDF7EAFD804689462246334610461946F4
:1026E000FDF7E2FD04460E467F10002FEAD1DDE93A
:1026F0000201BAF1000F42464B4602DAFDF7D4FD63
:1027000001E0FDF743FE04460E460022284BFDF78C
:10271000ADFE03D84FF0FF30014607E00022254B05
:1027200020463146FDF719FDFDF78DFF102409E025
:10273000002C0ADB0A220023FDF7C6FE019B303283
:102740001A55641E50EA0102F2D1641C019AC4F1C8
:10275000110314440F9A012A03D0012208430DD11A
:102760000AE0084304D000204FF0110B0F9080E7DF
:10277000A3EB0B056D1E0DE05B4504DD4FF0000281
:1027800005F1010504E003DA4FF00002A5F10105AF
:10279000002AECD000980F99C0E90231C0E9004549
:1027A00086E70000000024400000F03F30000000F9
:1027B0000000F0430000E03F2DE9FF4F95B09B463D
:1027C0008946064600250FE2252877D100242746B2
:1027D000F84A0121059400E0044316F8013F203B2C
:1027E00001FA03F01042F7D130782A2811D06FF0A7
:1027F0002F033078A0F13002092A16D8059A44F048
:10280000020402EB820203EB42021044761C0590A4
:10281000EFE759F8042B0592002A03DA504244F4FA
:102820000054059044F00204761C30782E2816D10E
:1028300016F8010F44F004042A280DD06FF02F027F
:102840003078A0F13003092B09D807EB870302EB9E
:102850004303C718761CF3E759F8047B761C3078DD
:102860006C280FD006DC4C2817D068280DD06A28B9
:1028700014D104E0742810D07A280FD10DE044F46C
:1028800000140AE044F4801401E044F44014727827
:10289000824202D104F58014761C761C30786628BA
:1028A0000BD013DC582877D009DC002875D04528D8
:1028B000F6D04628F4D047281AD19DE118E06328C5
:1028C00035D0642879D0652812D195E1702873D06D
:1028D00008DC6728F1D069286FD06E280DD06F28EA
:1028E00006D1B5E073282CD0752875D0782874D01F
:1028F0005A46179990476D1C75E1C4F3025002289F
:1029000009D003280DD0D9F8001004280DD00D608F
:1029100009F1040967E1D9F80010EA17C1E900528A
:10292000F6E7D9F800100D80F2E70D70F0E719F81E
:10293000041B8DF8001000208DF80100EA460120EC
:1029400003E059F804AB4FF0FF3061074FF000018E
:1029500002D40DE008F101018846B9420FDA804542
:10296000F8DB1AF808100029F4D108E008F1010199
:1029700088468142FADB1AF808100029F6D105983A
:102980005B46A0EB080721463846179A00F094FAF8
:10299000284400EB080507E04DE029E10DE01AF8B6
:1029A000010B5A4617999047B8F10108F7D25B46D8
:1029B00021463846179A13E142E00A220092C4F3F6
:1029C00002524FF0000A022A08D059F804CB032A19
:1029D0004FEAEC710AD00DE029E02AE009F1070185
:1029E00021F00702F2E802C1914609E00FFA8CFCDF
:1029F0004FEAEC71042A03D14FFA8CFC4FEAEC71D8
:102A0000002907DA0A460021DCF1000C61EB020123
:102A10002D2202E0220504D52B228DF8042001226C
:102A200003E0E20701D02022F7E7904659E00A21AF
:102A300002E010220DE010214FF0000A00910BE09F
:102A400010224FF0000A44F004040827009203E02B
:102A500008224FF0000A0092C4F30252022A05D065
:102A600059F804CB0021032A08D009E009F1070135
:102A700021F00702F2E802C1914605E01FFA8CFC42
:102A8000042A01D10CF0FF0C4FF00008220728D5D2
:102A9000702806D0009B83F0100353EA0A0305D088
:102AA0000EE040228DF80420012208E05CEA0102D9
:102AB00006D030228DF804208DF8050002229046C1
:102AC000009B83F0080353EA0A030AD15CEA01027F
:102AD00001D1620705D530228DF804204FF001089E
:102AE0007F1E582804D034A003900EA802900DE059
:102AF00036A0F9E753466046009AFDF7E5FC8446A8
:102B00000398825C0298401E029002705CEA010009
:102B1000F0D1029806A9081A00F1200A600702D530
:102B200024F4803400E00127574502DDA7EB0A00BA
:102B300000E0002000EB0A01009005984144401A93
:102B40000590E00306D45B462146179A059800F0ED
:102B5000B3F90544002706E001A85A46C05D17995D
:102B600090476D1C7F1C4745F6DBE0030CD55B46A8
:102B70002146179A059800F09FF9054404E030209B
:102B80005A46179990476D1C0099481E00900029DD
:102B9000F5DC08E0029802995A460078491C029137
:102BA000179990476D1CBAF10001AAF1010AF1DCF6
:102BB00065E1000009280100303132333435363701
:102BC0003839616263646566000000003031323379
:102BD0003435363738394142434445460000000019
:102BE00000F058F90544761C307800287FF4ECADED
:102BF00019B02846BDE8F08F620700D4062709F116
:102C0000070222F0070CFCE80223E14603F000482B
:102C10005FEA080C02D00FF2702C0DE05FEA045C52
:102C200002D50FF2682C07E05FEAC47C02D00FF2F5
:102C3000602C01E0AFF2700C4FF0FF3823F000433E
:102C4000CDF850C065280CD006DC452809D04628B0
:102C50001DD047283DD13DE0662818D067287ED199
:102C600038E00021112F01DB112000E0781CCDE9B4
:102C7000000106A90EA8FFF7EDFCDDE90F010E9A91
:102C800003910021009207F1010A04914DE04FF0F9
:102C900000400097CDE9011006A90EA8FFF7DAFC65
:102CA000DDE90F0203920E9B11990022DDF80CA0C2
:102CB0000093049211B9791C00EB010AB7EB0A00EA
:102CC00004D4C0F1FF3007F1010A0490AAEB070019
:102CD000019044E0012F00DA01270021112F01DDCE
:102CE000112000E03846CDE9000106A90EA8FFF743
:102CF000B1FCDDE90F010E9A0391002104910092CD
:102D0000BA4621070CD40399514500DA8A46BAF134
:102D1000010F05DD009AAAF10101515C302908D0AC
:102D2000B84202DA10F1040F06DA0121CDE90110F0
:102D300015E0AAF10101E9E7002805DC0499014446
:102D40000491AAEB000102E0411C514500DD8A46D6
:102D50000499401A401C01904FF000400290200757
:102D600004D40198504501DBCDF8048000208DF893
:102D70004F0002980DF14F07B0F1004F25D02B20E6
:102D80000E9002984FF0020800280CDA40420290A0
:102D90002D200E9007E00A210298FDF77FFB3031CD
:102DA000029007F8011DB8F10001A8F10108F2DC5A
:102DB00002980028EFD1791E0E980870307800F044
:102DC000200040F0450007F8020D12A8C01B00F1DA
:102DD00007081498007800B1012000EB0A0101985F
:102DE00001EBE07105984144401A401E0590E00354
:102DF00006D45B462146179A059800F05DF8054415
:102E00001498007818B15A46179990476D1CE00342
:102E100024D55B462146179A059800F04DF80544E5
:102E20001CE00498002807DBDDE90301884203DD8C
:102E30000098405C179901E0179930205A46904756
:102E4000049805F10105401C04900198401E019072
:102E500004D12E205A46179990476D1CBAF10001F3
:102E6000AAF1010ADDDC05E017F8010B5A461799B3
:102E700090476D1CB8F10001A8F10108F4DC5B4635
:102E80002146179A0598ABE62D0000002B000000A4
:102E9000200000002DE9F041044600251E4617469B
:102EA000880404D405E039462020B0476D1C641E18
:102EB000F9D52846BDE8F0812DE9F041044600250A
:102EC0001E469046C80301D5302700E0202788041D
:102ED00004D505E041463846B0476D1C641EF9D55F
:102EE0002846BDE8F0814A68002A06D00A68531CCB
:102EF0000B6010704868401E48607047FFF782FB07
:102F000005494FF0807300220868401C0860984211
:102F1000FAD30A60F8E70000000000200204060867
:102F2000000000000102030401020304060708096F
:102F3000502F000800000020B000000034260008D8
:102F400000300008B0000020A80900004426000856
:102F50000000000017001E0000000000000000003C
:102F60000000000000000000000000000000000061
:102F70000000000000000000000000FF0000000052
:102F80000000000000000000000000000000000041
:102F90000000000000000000000000000000000031
:102FA0000000000000000000000000000000000021
:102FB0000000000000000000000000FF0000000012
:102FC0000000000000000000000000000000000001
:102FD00000000000000000000000000000000000F1
:102FE00000000000000000000000000000000000E1
:102FF00000000000000000000000000000000000D1
:0400000508000131BD
:00000001FF
