:020000040800F2
:100000002015002045010008770B0008550B00085B
:10001000750B000821050008271F000800000000DC
:100020000000000000000000000000007513000840
:100030008906000800000000691000087B13000812
:10004000C51F0008790B0008F51300086B130008A2
:10005000A1080008D51200088B06000893060008C6
:10006000970600089B0600089F0600082705000861
:100070002B0500082F050008330500083705000888
:100080003B0500083F0500081D050008231F000868
:10009000251F00082305000825050008A306000801
:1000A000F7130008FD130008FB130008F9130008FC
:1000B000151400082914000841140008590B000801
:1000C000570B00085D0B00085B0B00086F1300085E
:1000D0007113000801170008051700080917000828
:1000E0008F06000869130008211F00084B14000840
:1000F000511400084F1400084D1400081F05000893
:10010000D50800086D130008451400087313000893
:10011000F9160008FD1600084714000849140008E5
:1001200043050008470500084B0500084F05000877
:10013000DFF80CD000F0E0F900480047E51F0008A8
:1001400020150020004800473101000840EA010363
:100150009B0703D009E008C9121F08C0042AFAD27D
:1001600003E011F8013B00F8013B521EF9D2704741
:10017000D2B201E000F8012B491EFBD270470022E9
:10018000F6E710B513460A4604461946FFF7F0FF96
:10019000204610BD2DE9FE4F81EA030404F000441F
:1001A00021F0004100944FF0000B23F0004350EA8F
:1001B00001045ED052EA03045BD0C3F30A54C1F3D6
:1001C0000A552C44A4F2F3340194A0FB0254C1F369
:1001D000130141F48011C3F3130343F4801301FBB3
:1001E000024400FB034E840A970A44EA815447EA1A
:1001F0008357A4FB076802958D0A05FB07854FEA24
:10020000932C04FB0C542705029D4FEA065847EA3D
:100210001637B5EB08056EEB070C870E920E47EA12
:10022000811742EA8312A7FB0201B6EB0B0164EBD4
:1002300000042B0D43EA0C335E1844EB1C50DA46E5
:100240005146E7FB0201C5F313044FEA0B3343EABF
:1002500014534FEA0432019C43EA0603A4F10C0450
:100260000294009CCDE900B400F0F8F803B0BDE8BA
:10027000F08F00200146F9E72DE9F04D81EA0304F3
:1002800004F0004B21F0004514464FF0000A23F023
:10029000004150EA050220D054EA01021DD0C5F306
:1002A0000A570246C5F31303C1F31300C1F30A56FC
:1002B00040F4801543F48013A7EB0608101BD646C4
:1002C00008F2FD3873EB050002D308F1010801E0E4
:1002D00092185B41B8F1000F03DA00200146BDE837
:1002E000F08D00204FF48011064684460EE0171B67
:1002F00073EB050705D3121B63EB050306434CEABA
:10030000010C49084FEA300092185B4150EA01079E
:10031000EDD152EA030012D082EA040083EA05011B
:10032000084305D0101BAB4106D20122002306E092
:1003300000224FF0004302E06FF0010253101AEB6D
:1003400006004CEB085110EB0A0041EB0B01BDE835
:10035000F04D00F074B870B521F0004303430CD0A9
:10036000C1F30A550024D5EB040564EB0403D6174A
:10037000AD1AB34102DB0020014670BD201841EBED
:10038000025170BD0EB540F2334102910021CDE91A
:1003900000110A460B4600F061F803B000BDC1F33E
:1003A0000A5210B5C1F3130140F2FF3341F480113A
:1003B0009A4201DA002010BD40F233439A42A2F281
:1003C000334203DC524200F02AF810BD904010BDC9
:1003D00030B5041E71F1000404DB4FF000444042CC
:1003E00064EB0101141E73F1000405DB1C464FF0A1
:1003F0000043524263EB0403994208BF904230BD70
:10040000202A04DB203A00FA02F1002070479140D4
:10041000C2F1200320FA03F3194390407047202AC9
:1004200004DB203A21FA02F00021704721FA02F39E
:10043000D040C2F12002914008431946704710B5E0
:10044000141E73F1000408DA401C41F100019218F7
:100450005B411A4301D120F0010010BD2DE9F04DA0
:1004600092469B4611B1B1FA81F202E0B0FA80F2F5
:1004700020329046FFF7C4FF04460F4640EA0A00C8
:1004800041EA0B0153465A46084313D0114653EA3A
:10049000010019D0C8F140025046FFF7C0FF0546E1
:1004A0000E46504659464246FFF7AAFF084305D07C
:1004B000012004E020463946BDE8F08D00200543C8
:1004C00046EAE0762C4337430A986305E40AA0EB3A
:1004D00008000022FD0A44EA47540A3002D50020F1
:1004E0000146E9E7010510196941DDE908450019F0
:1004F0006941BDE8F04DA2E7064C074D06E0E06813
:1005000040F0010394E8070098471034AC42F6D35A
:10051000FFF712FE182000083820000870477047C7
:10052000FEE77047704700F067B800F065B800F06C
:1005300063B800F061B800F05FB800F05DB800F09B
:100540005BB800F059B800F057B800F055B800F0AB
:1005500053B80000C10002D5024908607047024943
:10056000486070470404024000000240002904D0A3
:10057000016841F0010101607047016821F001014B
:100580000160704702460020D10002D50449096885
:1005900001E004490968114200D0012070470000C1
:1005A0000004024000000240002A03D002680A430F
:1005B0000260704702688A430260704730B5026883
:1005C00047F6F0739A430C6A8B682343D1E90445DC
:1005D0002C4323438C692343CC6923434C6A234334
:1005E0008C6A234313430360CA6842600A688260CE
:1005F0004968C16030BD000010B501F0E1FC102079
:10060000FFF7C0FF01281BD04FF480542046FFF7AE
:10061000B9FF01281DD024032046FFF7B3FF0128AE
:1006200021D0164C2046FFF7ADFF012825D12046EA
:10063000FFF790FFBDE8104000211148FFF796BF7B
:100640001020FFF787FFBDE8104000210D48FFF79D
:100650008DBF2046FFF77EFF0A480021BDE810400D
:100660002830FFF783BF2046FFF774FF05480021BD
:10067000BDE810406430FFF779BF10BD00000110E5
:10068000580402401C000240704700F0C1B800F05E
:10069000BFB800F0BDB800F0BBB800F0B9B800F0CA
:1006A000B7B800F0B5B80000014908607047000015
:1006B0001404014010B5012000F09AF84B4C20B111
:1006C000208840F00100208010BD022000F090F84A
:1006D00020B1208840F00200208010BD042000F0EE
:1006E00087F820B1208840F00400208010BD082049
:1006F00000F07EF820B1208840F00800208010BD76
:10070000102000F075F820B1208840F01000208003
:1007100010BD202000F06CF820B1208840F02000AF
:10072000208010BD402000F063F820B1208840F008
:100730004000208010BD802000F05AF820B12088B1
:1007400040F08000208010BD4FF4807000F050F821
:1007500020B1208840F48070208010BD4FF40070DC
:1007600000F046F820B1208840F40070208010BDD1
:100770004FF4806000F03CF820B1208840F48060A5
:10078000208010BD4FF4006000F032F820B12088C6
:1007900040F40060208010BD4FF4805000F028F835
:1007A00020B1208840F48050208010BD4FF40050CC
:1007B00000F01EF820B1208840F40050208010BDC9
:1007C0004FF4804000F014F820B1208840F48040BD
:1007D000208010BD4FF4004000F00AF80028F8D047
:1007E000208840F40040208010BD00008C000020D4
:1007F00001460020054A12680A40044B14331B6866
:100800000B4202D0002A00D00120704700040140B2
:1008100008B500200090FFF74DFF01F0D1FB1F4805
:10082000BDF8001001800120FFF73EFF0220FFF716
:100830003BFF0420FFF738FF0820FFF735FF1020AB
:10084000FFF732FF2020FFF72FFF4020FFF72CFF9C
:100850008020FFF729FF4FF48070FFF725FF4FF44A
:100860000070FFF721FF4FF48060FFF71DFF4FF48A
:100870000060FFF719FF4FF48050FFF715FF4FF4AA
:100880000050FFF711FF4FF48040FFF70DFFBDE868
:1008900008404FF40040FFF707BF00008C00002025
:1008A0007047000004490A6822F010020A600A68D2
:1008B00002430A60704700000020024004490A68B1
:1008C00002F038020A600A6802430A6070470000BA
:1008D00000200240704710B50121084600F0FEFBE1
:1008E0000021BDE81040012000F0F8BB10B52E4AF1
:1008F000811A1315D414904237D010DC2B494018BC
:100900001FD0984227D0A0424DD10121102000F0E5
:10091000E5FB0021BDE81040102000F0DFBB99424C
:100920002DD0A14235D0B1F5406F3CD101210C0250
:10093000204600F0D3FB2046BDE81040002100F027
:10094000CDBB0121042000F0C9FB0021BDE810400F
:10095000042000F0C3BB0121082000F0BFFB0021F0
:10096000BDE81040082000F0B9BB0121202000F0B4
:10097000B5FB0021BDE81040202000F0AFBB0121F5
:10098000402000F0ABFB0021BDE81040402000F00B
:10099000A5BB0121802000F0A1FB0021BDE8104093
:1009A000802000F09BBB10BD0014014000F8FEBF8A
:1009B0002DE9F84F684600F0C5F81F4C69462046FF
:1009C00000F048F81D4D6946284600F043F81C4EDB
:1009D0006946304600F03EF81A4F6946384600F046
:1009E00039F8DFF864806946404600F033F8DFF8F4
:1009F0005C906946484600F02DF8DFF854A069463F
:100A0000504600F027F82046FFF770FF2846FFF712
:100A10006DFF3046FFF76AFF3846FFF767FF404635
:100A2000FFF764FF4846FFF761FF5046FFF75EFFA0
:100A3000FFF751FFBDE8F88F00080140000C0140AE
:100A4000001001400014014000180140001C01404A
:100A5000002001402DE9F0430022CC7804F00F0380
:100A6000E40601D58C7823430C784FF00F0714F07F
:100A7000FF0F4FF0010C1BD005680CFA02F40E8832
:100A80002640A64210D1960007FA06F825EA080586
:100A900003FA06F848EA0505CE78282E00D144610D
:100AA000CE78482E00D10461521C082AE5D3056097
:100AB0000A88FF2A1ED94568002202F108060CFAAE
:100AC00006F40E882640A64210D1960007FA06F8D2
:100AD00025EA080903FA06F545EA0905CE78282E25
:100AE00000D14461CE78482E00D10461521C082AFE
:100AF000E3D34560BDE8F083F0B5114D6B68C0F3FA
:100B00000342440D260184B2C0F30157B440032FC1
:100B100007D0C0020CD503209040834343F070629D
:100B200009E023F07062686820F07060686002E09D
:100B3000A34343F0706201B122436A60F0BD00003C
:100B4000000001404FF6FF710180022181700421F5
:100B5000C1707047FEE7704770477047704700F0FC
:100B600001B8000002494AF6AA2008607047000058
:100B700000300040FEE77047704700002DE9FF5F3E
:100B800090B0884614461D464FF0000A4FF0FF090A
:100B90004FF0000B00270026FE4A1098D314811A4C
:100BA0004FF4806C904272D00EDCB0F1804F42D096
:100BB000F94940186ED060456BD0984203D10121AD
:100BC000082000F061FACEE0B1F5806F73D0B1F586
:100BD0008E3F03D0B1F5923F17D1C0E00121C8028A
:100BE00000F06EFAB8F1000F09D0B8F1010F0DD086
:100BF000B8F1020F11D0B8F1030F06D114E0DFF8FD
:100C00009CA34FF480794FF0040BACE0DFF88CA389
:100C10004FF400794FF0040BA5E0DFF880A34FF408
:100C200080694FF0040B9EE0DFF870A34FF4006979
:100C30004FF0040B97E00121084600F025FAB8F1C7
:100C4000000F09D0B8F1010F0DD0B8F1020F11D08B
:100C5000B8F1030F06D113E0DFF840A34FF001090C
:100C60004FF0040B7FE0DFF834A34FF002094FF0A0
:100C7000040B78E0DFF824A34FF00409CB4672E0C0
:100C8000DFF818A34FF008094FF0040B6BE05CE0AD
:100C900000E02DE00121022000F0F6F9B8F1000F8C
:100CA0000AD0B8F1010F0ED0B8F1020F12D0B8F18E
:100CB000030F58D115E04DE0DFF8E0A24FF04009F6
:100CC0004FF0040B4FE0DFF8D4A24FF080094FF053
:100CD000040B48E0DFF8C8A24FF001094FF0080B01
:100CE00041E0DFF8BCA24FF002094FF0080B3AE0F8
:100CF0000121042000F0C8F9B8F1000F09D0B8F1C3
:100D0000010F0DD0B8F1020F11D0B8F1030F2AD1A5
:100D100014E0DFF88CA24FF040094FF0080B22E0FE
:100D2000DFF87CA24FF080094FF0080B1BE0DFF8E2
:100D300070A24FF480794FF0080B14E0DFF860A246
:100D40004FF400794FF0080B0DE00121102000F066
:100D50009BF908E00121202000F096F903E0012131
:100D6000480300F0ADF90121084600F0A9F901217E
:100D7000584600F0A5F9ADF8349003208DF8360000
:100D800018208DF837000DA95046FFF763FE01A823
:100D900000F004FADFF80C921098DFF80CB229EAA0
:100DA00000094EF6602A22462B4600205946FFF7DE
:100DB00063FACDE90E10B9F1000F28D0DDF80C90E0
:100DC000DDE90E100022794BFFF702FB22D2002250
:100DD000774B20462946FFF7DDF904460D46484685
:100DE000FFF7D0FA22462B46FFF746FA04460D4697
:100DF000574600226F4B20462946FFF73DFA002256
:100E00006D4BFFF7C7F9FFF7CAFA86B293E0DDF83A
:100E10001090D5E7DDE90E105B460022FFF7D8FA07
:100E20001FD20022614B20462946FFF7B3F9044642
:100E30000D464846FFF7A6FA22462B46FFF71CFA56
:100E400004460D46574600225A4B20462946FFF7D6
:100E500013FA0022594BFFF79DF9FFF7A0FA86B26B
:100E600069E000225B4620462946FFF7B1FA62D8C6
:100E70004846FFF787FA22462B46FFF7FDF904465E
:100E80000D46012220462946FFF765FA04460D4625
:100E900000224B4B20462946FFF79AFA0BD84FF415
:100EA000FA670022474B20462946FFF7E5F9FFF78E
:100EB00076FA86B23FE00022434B20462946FFF7F0
:100EC00087FA0AD8C82700223B4B20462946FFF75D
:100ED000D3F9FFF764FA86B22DE000223B4B20469F
:100EE0002946FFF775FA0AD814270022334B20460B
:100EF0002946FFF7C1F9FFF752FA86B21BE000223C
:100F0000334B20462946FFF763FA0AD8022700220E
:100F10007B0720462946FFF7AFF9FFF740FA86B274
:100F200009E0012700225B4620462946FFF7A4F985
:100F3000FFF735FA86B27F1EADF82870701EADF847
:100F40002C000024ADF82E40ADF82A400AA91098D4
:100F500000F0B4FB1E9846434FF47A70864204D9E1
:100F6000B6FBF0F080B21E9003E01E9808B101209D
:100F70001E906020ADF818001E98ADF81E00ADF868
:100F800020400120ADF81A00B8F1000F2AD0B8F1C6
:100F9000010F1FE00010004000FCFFBF00080140EF
:100FA000000C0140000001400000F03F0000244020
:100FB00000005940004CED40000069400000344002
:100FC000D012634100409F4080842E41006AF84067
:100FD00040FFEF400BD0B8F1020F0DD0B8F1030F76
:100FE00013D10EE006A9109800F060FA0DE006A9F2
:100FF000109800F093FA08E006A9109800F0DAFAC9
:1010000003E006A9109800F01BFB0121109800F0E6
:101010003EFAB8F1000F09D0B8F1010F0BD0B8F1CA
:10102000020F0DD0B8F1030F13D10EE00821109874
:1010300000F06EFA0DE00821109800F0B1FA08E017
:101040000821109800F0F6FA03E00821109800F04B
:1010500029FB0121109800F0FDF90121109800F002
:1010600009FA14B0BDE8F09F70470000054A002956
:1010700003D0516901435161704751698143516106
:101080007047000000100240054A002903D0D169D2
:101090000143D1617047D1698143D161704700003C
:1010A00000100240054A002903D011690143116173
:1010B00070471169814311617047000000100240C0
:1010C000054A002903D091690143916170479169F4
:1010D000814391617047000000100240054A0029D9
:1010E00003D0D1680143D1607047D1688143D1609A
:1010F000704700000010024010B500F031F84FF4C6
:101100008034204600F0CAF800F014F9012822D1FA
:101110001020FFF7C7FB0220FFF7D0FB002000F0F4
:10112000B3F8002000F0E2F8A01100F0D5F84FF479
:10113000E011204600F0EAF8012000F0E1F8392043
:1011400000F082F80028FAD0022000F0E9F800F060
:1011500093F80828FBD1BDE81040FFF729BC000038
:101160000B48016841F0010101604168094A1140E2
:1011700041600168084A11400160016821F4802142
:101180000160416821F4FE014160002181607047E7
:10119000001002400000FFF8FFFFF6FE10B5264ADF
:1011A000516801F00C01254B002927D0042927D0D4
:1011B000082927D00360516801F0F0010909204B8C
:1011C0005C5C0168E1404160546804F4E064240A16
:1011D0001C5D21FA04F48460546804F46054E40A49
:1011E0001B5DD940C160526802F44042920B144B1F
:1011F0001B1F9A5CB1FBF2F1016110BD0360DAE7DD
:101200000360D8E7516801F47011022303EB9141A8
:10121000536803F4803333B153689B0307D5094BFC
:1012200059430160C7E7074B59430160C3E7034BCC
:1012300059430160BFE700000010024000127A002D
:101240000820000800093D00034600205909094A0A
:1012500001290AD002290AD0516A03F01F02012392
:1012600093400B4200D0012070471168F5E7116AE6
:10127000F3E70000001002400248406800F00C0054
:101280007047000000100240034A516821F0F0014D
:101290000143516070470000001002400C490A6889
:1012A00022F480320A600A6822F480220A60B0F5D3
:1012B000803F07D0B0F5802F03D1086840F4A0200C
:1012C00008607047086840F480300860704700008C
:1012D0000010024070470000034A516821F4E061A9
:1012E000014351607047000000100240034A5168FA
:1012F00021F4605141EAC000506070470010024084
:10130000014908667047000000004242034B5A68DA
:1013100022F47C12084310435860704700100240CA
:10132000034A516821F003010143516070470000F6
:101330000010024030B50B4C40F2FF153120FFF792
:1013400083FF20706068401C6060207810B960687E
:10135000A842F3D13120FFF777FF08B1012030BD5B
:10136000002030BD840000207047704770477047F0
:10137000704770477047FFF7BFBE00F039B80000F4
:1013800010B50446002C2BD01648FFF707FF4FF08E
:10139000E021086920F002000861086920F00100DE
:1013A0000861086920F0040008610E480E4A0068D0
:1013B000B0FBF2F060434861086940F00200086148
:1013C000086940F00100086100208861086940F068
:1013D000020008614A6905480260096989B24160F2
:1013E00010BD00008C04002000127A009000002044
:1013F00000F0E6BD704770477047704710B500F0C9
:101400005BF9BDE810400121014800F030B8000050
:10141000002C014010B500F04FF90121BDE810404B
:10142000880700F024B8000010B500F045F9BDE8C9
:1014300010400121014800F01AB8000000040040EB
:1014400000F03AB97047704770477047704770476F
:1014500000F032B9002904D0018841F080010180F8
:101460007047018840F27F32114001807047C943C4
:1014700001827047002904D0018841F001010180F8
:101480007047018840F2FE32114001807047002908
:1014900005D030F8441F41F400410180704730F816
:1014A000441FC1F30E0101807047000030B5028C6B
:1014B00022F001020284058C8388028B22F07002E4
:1014C0000C88144325F002020D8915434A882A43EB
:1014D000CD8885860C4DA84202D00C4DA8420FD174
:1014E00022F008054A892A4322F004058A882A4303
:1014F00023F4014323F402438D891D43CB892B43FD
:1015000083800483028430BD002C014000340140FC
:10151000028B22F008020A430283704770B5028CE6
:1015200022F010020284028C8388048B24F4E046AB
:101530000D884FF6FF7404EA0525354322F020029A
:101540000E8904EA061616434A8804EA0212324358
:10155000CE880687104EB04202D0104EB04217D14E
:1015600022F080024E8904EA0616164326F0400651
:101570008A8804EA0212324323F4044323F4084322
:101580008E8904EA86061E43C98904EA810333432F
:1015900083800583028470BD002C0140003401402B
:1015A000028B22F400624FF6FF7303EA012111431C
:1015B0000183704770B5028C22F480720284028C21
:1015C0008388848B24F070040D88254322F40072F4
:1015D0000E894FF6FF7404EA062616434A8804EA89
:1015E00002223243CE888687104EB04202D0104E7F
:1015F000B04217D122F400664A8904EA022232433B
:1016000022F480668A8804EA0222324323F41043DB
:1016100023F420438E8904EA06161E43C98904EA8E
:101620000113334383808583028470BD002C014005
:1016300000340140828B22F008020A438283704703
:1016400070B5028C22F480520284058C8288838BD0
:1016500023F4E0460C884FF6FF7303EA0424344376
:1016600025F400560D8903EA053535434E8803EA13
:1016700006362E43CD88A0F84050084DA84202D02F
:10168000074DA84205D1C2F30D05898903EA8112ED
:101690002A4382808483068470BD0000002C0140B0
:1016A00000340140828B22F400624FF6FF7303EA9C
:1016B000012111438183704700F082BC028802F04F
:1016C0008F020280CA884B881A4303881A4302801B
:1016D0008A8882850A88028501228282044A904291
:1016E00002D0044A904201D1097A01867047000075
:1016F000002C01400034014000F062BC00F060BCEE
:1017000000F05EBC00F05CBC00F05ABCC943018034
:1017100070470A0A01219140C9430180704700299E
:1017200004D0818941F4005181817047818921F47D
:10173000005181817047002A03D0828A0A43828245
:101740007047828A8A438282704700002DE9F04107
:101750000E461546494B4A4CC11A5A154FF4806C37
:101760004FF4E137984263D011DC464941182FD03D
:1017700061456BD18089800403D43946424800F02A
:101780008BF8206AF0B3E069C00743D05EE06145A2
:1017900071D0B1F56C4F59D18089800403D439469A
:1017A0003A4800F079F8A06C10B1606CC0074DD1D8
:1017B000606C20F0010060644FF480506060A564AC
:1017C0002665606C40F0010060642846BDE8F08149
:1017D0008089800404D42B483946404200F05CF8EC
:1017E000D4F8840018B1D4F88000C0072ED154F882
:1017F000800F20F0010020604FF0807044F87C0CD6
:10180000656000E006E0E660206840F001002060CE
:101810002846DBE7E06920F00100E061102060600D
:101820002562A662E06940F00100E0612846CDE74C
:101830008089800403D43946184600F02DF81449F5
:101840000A68081F22B10268D20701D00020BDE754
:10185000026822F0010202600D4B0E4A583B1A60EA
:101860000D600B4908310E60016841F00101016013
:101870002846ABE7FFE70020A8E70000004C004047
:101880000000024000BCFFBF00480040003801409B
:101890005C040240000001102DE9F74F94B014469B
:1018A0004FF00009CA460020019000900026002752
:1018B000002580468346149BDFF898C2A84AA3EB14
:1018C0000C011A44CDE91221A348DFF890E24FF44D
:1018D000007263454FD01FDC1299A1B34FF48063AF
:1018E000994259D184B384809E4DDFF87C82C346EF
:1018F0001E464FF4006701210846FFF7E1FB012176
:101900009A48FFF7F9F801210820FFF7D9FB0121D8
:101910008804FFF7B9FB3FE04FF4806399426AD037
:10192000B1F56C4F38D184B10480914DF046C34677
:1019300016461F4601210520FFF7C2FB012188033F
:10194000FFF7BEFB28E002E013E00280EDE774B190
:101950004480884DF046C346042608270121042010
:10196000FFF7AEFB01214804FFF78EFB14E0428035
:10197000EFE78280B8E7ECB3C4807F4DDFF8FC81ED
:10198000C3464FF48066770001211120FFF798FBD2
:101990000121C804FFF778FBADF8086018208DF826
:1019A0000B0003208DF80A0002A94046FFF752F809
:1019B000ADF8087048208DF80B0002A95846FFF7D3
:1019C00049F8149800F0E2F8159803900026ADF855
:1019D0001060ADF81260ADF814600C20ADF8160080
:1019E000ADF8186003A9149800F05CF9DDE9130163
:1019F000584A01E009E08BE0914241D007DC12989F
:101A0000D8B1B0F5806F4AD129E0C280B5E7B0F512
:101A1000806F7DD0B0F56C4F41D1DFF86491DFF875
:101A200060A10AF1140A4FF4805001900001009067
:101A300001210846FFF71AFB31E0DFF8449109F174
:101A40003C09DFF83CA10AF1280A4FF080700190B0
:101A50000011009001210846FFF708FB1FE0DFF8A6
:101A60002091A9F12809DFF818A1AAF1140A102081
:101A700001900001009001210846FFF7F7FA0EE0FF
:101A8000DFF80091DFF8FCA0AAF1280A3E48019097
:101A90004FEA3050009001210846FFF7E7FA149F03
:101AA0003F1D07970895102009900A940B964FF058
:101AB0008008CDF830800D960E960F964FF4005B9F
:101AC000CDF840B0119607A94846FEF777FD079775
:101AD000089509960A940B96CDF830800D960E96CF
:101AE0000F96CDF840B0119607A95046FEF766FD57
:101AF00000214846FEF73AFD01215046FEF736FD2B
:101B0000012240211498FFF716FE0122802100E0F7
:101B10001CE01498FFF70FFE002202214846FEF752
:101B200043FD0198FEF716FD0098FEF713FD40F205
:101B3000244400222146149800F09BF82146149872
:101B4000FFF7E7FD01211498FFF7E9FD17B0BDE8A5
:101B5000F08F0000004C0040980000200008014079
:101B600000BCFFBFA0080020000C014000023000B4
:101B7000A0040020A0060020A00A002000100140C0
:101B800044000240580402400000011010B5244AED
:101B9000811A131590422BD00FDC224940181CD01B
:101BA00098423BD1040201212046FFF77BFA2046F0
:101BB000BDE810400021FFF775BA994223D0B1F576
:101BC0006C4F2BD101218C032046FFF787FA20466A
:101BD000BDE810400021FFF781BA01214C042046E6
:101BE000FFF760FA2046BDE810400021FFF75ABA1F
:101BF0000121CC042046FFF755FA2046BDE81040ED
:101C00000021FFF74FBA01210C052046FFF74AFAE1
:101C10002046BDE810400021FFF744BA10BD000087
:101C2000004C004000BCFFBF0246002012880A4260
:101C300000D00120704770B50024C1F3421301F0B9
:101C40001F05012606FA05F2012B0CD0022B0DD040
:101C5000838A1340090A8E40008830400BB100B1DE
:101C60000124204670BD83891340F3E7038A1340A3
:101C7000F0E710B5C1F3421301F01F040121A140A8
:101C8000012B07D0022B07D014303AB102680A4367
:101C9000026010BD0C30F8E71030F6E702688A43A6
:101CA000026010BD30B585B004460D46208A4CF662
:101CB000FF710840E98801432182A1894EF6F310A3
:101CC0000140A8882A8910436A890A431043A081E9
:101CD000A08A4FF6FF410840A9890143A1826846C6
:101CE000FFF75CFA1148844201D1039800E00298A2
:101CF00000EBC00101EB001029688900B0FBF1F096
:101D00006423B0FBF3F109010A096FF018056A4377
:101D100000EB8200322202EB0010B0FBF3F000F087
:101D20000F000843208105B030BD0000003801409D
:101D30002DE9F0478A466E4D6E4C411B2A156E4EBA
:101D4000DFF8B881DFF8B89140F22447A84270D09C
:101D50000CDC6C4940183ED090426BD16A4D39463C
:101D60002846FFF768FF00286AD164E091427DD0E1
:101D7000B1F56C4FF1D1654D39462846FFF75BFF51
:101D800028B910212846FFF74FFF002852D03946C6
:101D90002846FFF7BEFC10212846FFF7B7FCA06DD0
:101DA00020F00100A0655948001D0088E06D3188D1
:101DB000081A85B22A4651495046FEF7C7F9C4F8B9
:101DC00064803088E0654B4801215830FEF7CEFB37
:101DD0002846BDE8F0874A4D39462D1F2846FFF7B3
:101DE0002AFF28B910212846FFF71EFF00287DD0C2
:101DF00039462846FFF78DFC10212846FFF786FC60
:101E0000E06E20F00100E066B9F80000206F7188F4
:101E1000081A85B22A463E495046FEF797F9C4F89B
:101E2000788070882067E06E40F00100E066284608
:101E3000CFE728E042E010212846FFF7F5FEE8B39F
:101E400039462846FFF765FC10212846FFF75EFC5F
:101E5000206B20F001002063B9F80000606BB188AE
:101E6000081A85B22A462B49504600E03CE0FEF7AE
:101E70006DF9C4F83C80B0886063206B40F00100CD
:101E800020632846A5E739462846FFF7D4FE20B947
:101E900010212846FFF7C8FE80B139462846FFF7D3
:101EA00038FC10212846FFF731FC1B4C206820F03D
:101EB00001002060B9F80000271D00E016E0386836
:101EC000F188081A85B22A4614495046FEF73EF9B1
:101ED00011480C30C0F80080F0883860206840F06D
:101EE00001002060284674E7002072E7002070E7B8
:101EF000004C00400000024098000020A004002098
:101F00000444004000BCFFBF0048004000380140CE
:101F1000A0060020A008002030040240A00A0020F3
:101F2000704770477047FEE708B5FFF724FAFEF7E1
:101F30003FFD42F21070FFF723FA4FF46170002268
:101F40000090074B11460007FEF718FEBDE8084059
:101F50004FF47A724FF4E1310248FFF79DBC000064
:101F60000000F03F0038014070B5FEF7F8FD114D5C
:101F70000F492846FFF7DCFE0F4C606020B1014698
:101F8000FF220B48FEF7F4F82088401C80B2208026
:101F9000642801D300202080074920780831087088
:101FA00048702846BDE870400A22FFF7CFBB00000A
:101FB000A40000200038014004000020FFF7B4BF57
:101FC000FFF7D2BF704702E008C8121F08C1002AFD
:101FD000FAD170477047002001E001C1121F002AAA
:101FE000FBD17047FFF7EAFF05494FF080730022ED
:101FF0000868401C08609842FAD30A60F8E70000BD
:102000000000002002040608000000000102030492
:102010000102030406070809382000080000002018
:10202000A4000000C61F0008DC200008A400002057
:102030007C140000D61F0008000000000000000013
:102040000000000055534152545F42415349435FE1
:10205000436F6E66696775726174696F6E28555358
:102060004152545F547970654465662A2055534146
:102070005254782C7533322055534152545F42618B
:102080007564526174652C7538204E564943507200
:1020900065656D7074696F6E5072696F726974797D
:1020A0002C7538204E5649435F5375625072696FE4
:1020B00072697479290A0000000000000000000025
:1020C0000000000000000000000000000000000010
:0C20D00000000000000000000000000004
:0400000508000131BD
:00000001FF
