:020000040800F2
:10000000B014002045010008931300087113000884
:1000100091130008150500087B2D00080000000062
:10002000000000000000000000000000AB1F0008FE
:10003000310D0008000000001D1C0008B11F000861
:10004000852D00082D17000899200008A11F000821
:10005000490F0008891E0008330D00083B0D0008F9
:100060003F0D0008430D0008470D0008D10B0008A4
:10007000D50B0008D90B0008DD0B0008E10B0008C8
:10008000E50B0008E90B0008F9040008772D0008CB
:10009000792D000859090008190A00084B0D0008BD
:1000A0009B200008A12000089F2000089D20000838
:1000B000B9200008CD200008E520000875130008CD
:1000C000731300087913000877130008A51F0008B0
:1000D000A71F0008A5230008A9230008AD230008D6
:1000E000370D00089F1F0008752D0008EF2000083D
:1000F000F5200008F3200008F1200008FB040008A8
:100100007D0F0008A31F0008E9200008A91F0008B0
:100110009D230008A1230008EB200008ED20000823
:10012000ED0B0008F10B0008F50B0008F90B0008B7
:10013000DFF80CD000F0CEF900480047A52D0008EC
:10014000B0140020004800473101000840EA0103D4
:100150009B0703D009E008C9121F08C0042AFAD27D
:1001600003E011F8013B00F8013B521EF9D2704741
:100170002DE9FE4F81EA030404F0004421F0004120
:1001800000944FF0000B23F0004350EA01045ED0CE
:1001900052EA03045BD0C3F30A54C1F30A552C445A
:1001A000A4F2F3340194A0FB0254C1F3130141F40F
:1001B0008011C3F3130343F4801301FB024400FBDB
:1001C000034E840A970A44EA815447EA8357A4FB02
:1001D000076802958D0A05FB07854FEA932C04FBFF
:1001E0000C542705029D4FEA065847EA1637B5EB2F
:1001F00008056EEB070C870E920E47EA811742EA5C
:100200008312A7FB0201B6EB0B0164EB00042B0D7C
:1002100043EA0C335E1844EB1C50DA465146E7FBC8
:100220000201C5F313044FEA0B3343EA14534FEAB8
:100230000432019C43EA0603A4F10C040294009CDE
:10024000CDE900B400F0F8F803B0BDE8F08F00206D
:100250000146F9E72DE9F04D81EA030404F0004B73
:1002600021F0004514464FF0000A23F0004150EA07
:10027000050220D054EA01021DD0C5F30A570246F8
:10028000C5F31303C1F31300C1F30A5640F48015FC
:1002900043F48013A7EB0608101BD64608F2FD387E
:1002A00073EB050002D308F1010801E092185B41ED
:1002B000B8F1000F03DA00200146BDE8F08D002000
:1002C0004FF48011064684460EE0171B73EB0507BA
:1002D00005D3121B63EB050306434CEA010C4908E6
:1002E0004FEA300092185B4150EA0107EDD152EA23
:1002F000030012D082EA040083EA0501084305D016
:10030000101BAB4106D20122002306E000224FF071
:10031000004302E06FF0010253101AEB06004CEBB1
:10032000085110EB0A0041EB0B01BDE8F04D00F065
:1003300074B870B521F0004303430CD0C1F30A55E3
:100340000024D5EB040564EB0403D617AD1AB341C2
:1003500002DB0020014670BD201841EB025170BD48
:100360000EB540F2334102910021CDE900110A4659
:100370000B4600F061F803B000BDC1F30A5210B59E
:10038000C1F3130140F2FF3341F480119A4201DAC4
:10039000002010BD40F233439A42A2F2334203DC04
:1003A000524200F02AF810BD904010BD30B5041E36
:1003B00071F1000404DB4FF00044404264EB0101A2
:1003C000141E73F1000405DB1C464FF0004352423B
:1003D00063EB0403994208BF904230BD202A04DB3E
:1003E000203A00FA02F1002070479140C2F1200348
:1003F00020FA03F3194390407047202A04DB203A87
:1004000021FA02F00021704721FA02F3D040C2F134
:100410002002914008431946704710B5141E73F12D
:10042000000408DA401C41F1000192185B411A43B4
:1004300001D120F0010010BD2DE9F04D92469B4600
:1004400011B1B1FA81F202E0B0FA80F220329046A6
:10045000FFF7C4FF04460F4640EA0A0041EA0B01D9
:1004600053465A46084313D0114653EA010019D0A7
:10047000C8F140025046FFF7C0FF05460E46504601
:1004800059464246FFF7AAFF084305D0012004E081
:1004900020463946BDE8F08D0020054346EAE07667
:1004A0002C4337430A986305E40AA0EB08000022B6
:1004B000FD0A44EA47540A3002D500200146E9E724
:1004C000010510196941DDE9084500196941BDE8D8
:1004D000F04DA2E7064C074D06E0E06840F001034E
:1004E00094E8070098471034AC42F6D3FFF724FE97
:1004F000D82D0008F82D00087047704710B500226D
:10050000002303E0845C6340521C92B28A42F9D318
:10051000D8B210BDFEE70000F0B54FF480773E0280
:1005200008221023234D402836D013DC2249072807
:1005300001F104042AD007DC042829D0052822D0A0
:10054000062800D10F60F0BD082823D02028FAD15A
:100550002A60F0BD17490831B0F5806F23D009DC5F
:10056000B8421BD0B0F5007FF3D1086820F002003C
:100570000860F0BD1049091FB04219D0B0F5003F26
:10058000F7D10B60F0BD01200860F0BD0E60F0BD3A
:100590002260F0BD2360F0BD2B60F0BD086820F044
:1005A00001000860F0BD086820F004000860F0BD9C
:1005B0000A60F0BD10640040086400407FB5054645
:1005C0000121052001F056FB0121480601F036FB10
:1005D0004FF40060ADF80C0003248DF80E40482065
:1005E0008DF80F00144E03A9304600F033FEB0140E
:1005F000ADF80C008DF80E4018208DF80F0003A9FF
:10060000304600F027FE002100918DF804108DF88F
:1006100005108DF806100948B0FBF5F08DF80710AD
:1006200004218DF8081002218DF80910ADF80A0098
:10063000684600F009F97FBD0008014000093D004F
:100640002021002802D00348016070470148001FA4
:100650000160704710640040F0B5027801219140BC
:1006600089B2304C226842F0010222602D4D1C35C7
:100670002A688A432A602B4A86780C322A4B002E3D
:1006800014D116688E431660C688478946EA074625
:10069000077803EBC707C7F840668688078946EAEC
:1006A0000746077803EBC707C7F844668678012E2C
:1006B00014D116680E431660C288868842EA064244
:1006C000067803EBC606C6F840264289068942EA48
:1006D0000642067803EBC603C3F84426114A437862
:1006E000121D3BB113680B4313600E4A8389143209
:1006F00023B106E013688B431360F6E713688B435E
:1007000013608389012B02D113680B431360807B34
:10071000012802D1286808432860206820F00100E1
:100720002060F0BD00660040006000401FB58DF8FD
:10073000000000208DF8010001238DF802304905EA
:10074000090CADF80410ADF806005105090CADF820
:1007500008104FF6FF71ADF80A10ADF80C008DF8D7
:100760000E306846FFF778FF1FBD0000F0B4024668
:1007700000204FF480763102314C402A49D019DCF8
:10078000304B072A03F1040535D00ADC042A36D0A1
:10079000052A2BD0062A50D118683146F0BC00F04B
:1007A00011BA082A30D0202A47D12068F0BC08218D
:1007B00000F008BA224B0833B2F5806F33D009DC61
:1007C000B2422BD0B2F5007F37D11868F0BC0221BD
:1007D00000F0F8B91B4B1B1F8A4229D0B2F5003F2D
:1007E0002BD11868F0BC102100F0ECB91868F0BCEF
:1007F000012100F0E7B91868F0BC00F0E3B92868FF
:10080000F0BC082100F0DEB92868F0BC102100F02F
:10081000D9B92068F0BC102100F0D4B91868F0BC38
:10082000012100F0CFB91868F0BC042100F0CAB96A
:100830001868F0BC082100F0C5B9F0BC7047000092
:10084000106400400864004010B5002237490123BD
:100850000B600B1D1C68E40748D00278012A47D0C2
:100860000A6822F080020A604278012A45D00A68AC
:1008700022F040020A608278012A43D00A6822F0FE
:1008800020020A60C278012A41D00A6822F01002D0
:100890000A600279012A3FD00A6822F008020A6041
:1008A0004279012A3DD00A6822F004020A60827966
:1008B000C479920742EA0462047A42EA0442447A22
:1008C000408942EA0452401E024318481C3002602C
:1008D0000122086820F0010008609002401E80B2EA
:1008E0000028FBD11868C00700D00022104610BDB8
:1008F0000A6842F080020A60B6E70A6842F04002E5
:100900000A60B8E70A6842F020020A60BAE70A689B
:1009100042F010020A60BCE70A6842F008020A606E
:10092000BEE70A6842F004020A60C0E700640040C3
:1009300001460020002906D0012903D1054800689E
:1009400000F0030070470348001F006800F0030038
:1009500070470000106400407047000010B5044666
:100960000420FFF703FF01280DD00820FFF7FEFE4B
:1009700001280DD00A48006878B12146002000F017
:1009800011F8012010BD0420FFF7C6FD002010BDA6
:100990000820FFF7C1FD002010BD002010BD0000A1
:1009A0000C6400401B4A02EB0012D2F8B03503F091
:1009B00004030B72002B28D0D2F8B035DB084B6053
:1009C00002F5B662136803F002034B72536803F03A
:1009D0000F038B7253681B0ACB749368CB729368B6
:1009E0001B0A0B7393681B0C4B7393681B0E8B7362
:1009F000D368CB73D3681B0A0B74D3681B0C4B747E
:100A0000D268120E8A74FFF71BBED2F8B0355B0DA8
:100A10000B60D5E700600040704730B585B00090AE
:100A200000208DF808008DF809008DF80A106B463B
:100A300003E01D18145CEC72401C8842F9D3684630
:100A400000F018F80546002400E0641C284600F079
:100A500075F8012801D0FF2CF7D9002400E0641CB0
:100A60000020FFF765FF002801D1FF2CF7D905B062
:100A700030BD000030B500222E490B685B010AD45E
:100A80000A68120101D5012205E00968C90001D5F3
:100A9000022200E00422042A3DD0274901EB021182
:100AA000D1F8803503F00103C1F88035047AA4B38E
:100AB0004368DB004360D1F880551D43437A1C43F3
:100AC0002543C1F88055837A03F00F03837201F543
:100AD000B0614B6823F00F034B604B68847A23436B
:100AE0004B60C37A847B057B43EA0463447B240424
:100AF00044EA052423438B60C37B847C43EA04637C
:100B0000447C007C240444EA00200343CB60086852
:100B100040F001000860104630BDFFE703885B0528
:100B20000360D1F880451C43437A1C43C1F88045DB
:100B3000C9E7000008640040006000400021204A2E
:100B4000002804D0012810D002282BD11CE0106806
:100B500000F0010041EA8001106800F00200084343
:100B60001168C1F3806101431CE0106800F48070DB
:100B700041EA9010116801F4007140EA11201168F7
:100B8000C1F3C06101430DE0106800F4803041EA18
:100B90009030116801F4003140EA11401168C1F34E
:100BA0000071014329B1052905D0072905D000208E
:100BB00070470220704700207047012070470000F6
:100BC00008640040024600200A4200D0012070471D
:100BD00000F066B800F064B800F062B800F060B8E9
:100BE00000F05EB800F05CB800F05AB800F058B8F9
:100BF00000F056B800F054B800F052B8C10002D569
:100C00000249086070470249486070470404024086
:100C100000000240002904D0016841F00101016098
:100C20007047016821F00101016070470246002011
:100C3000D10002D50449096801E00449096811425C
:100C400000D0012070470000000402400000024074
:100C5000002A03D002680A430260704702688A4390
:100C60000260704730B5026847F6F0739A430C6A29
:100C70008B682343D1E904452C4323438C692343E8
:100C8000CC6923434C6A23438C6A23431343036098
:100C9000CA6842600A6882604968C16030BD00006D
:100CA00010B502F06DF81020FFF7C0FF01281BD02F
:100CB0004FF480542046FFF7B9FF01281DD02403CC
:100CC0002046FFF7B3FF012821D0164C2046FFF73E
:100CD000ADFF012825D12046FFF790FFBDE8104069
:100CE00000211148FFF796BF1020FFF787FFBDE8EE
:100CF000104000210D48FFF78DBF2046FFF77EFF13
:100D00000A480021BDE810402830FFF783BF204685
:100D1000FFF774FF05480021BDE810406430FFF77D
:100D200079BF10BD00000110580402401C000240B1
:100D3000704700F0C1B800F0BFB800F0BDB800F0D7
:100D4000BBB800F0B9B800F0B7B800F0B5B8000013
:100D500001490860704700001404014010B50120EB
:100D600000F09AF84B4C20B1208840F00100208020
:100D700010BD022000F090F820B1208840F0020061
:100D8000208010BD042000F087F820B1208840F0BA
:100D90000400208010BD082000F07EF820B12088DB
:100DA00040F00800208010BD102000F075F820B140
:100DB000208840F01000208010BD202000F06CF84A
:100DC00020B1208840F02000208010BD402000F09D
:100DD00063F820B1208840F04000208010BD8020C2
:100DE00000F05AF820B1208840F08000208010BD2B
:100DF0004FF4807000F050F820B1208840F48070EB
:100E0000208010BD4FF4007000F046F820B120881B
:100E100040F40070208010BD4FF4806000F03CF87A
:100E200020B1208840F48060208010BD4FF4006025
:100E300000F032F820B1208840F40060208010BD1E
:100E40004FF4805000F028F820B1208840F4805002
:100E5000208010BD4FF4005000F01EF820B1208813
:100E600040F40050208010BD4FF4804000F014F892
:100E700020B1208840F48040208010BD4FF4004015
:100E800000F00AF80028F8D0208840F400402080C4
:100E900010BD00002400002001460020054A126811
:100EA0000A40044B14331B680B4202D0002A00D0C6
:100EB000012070470004014008B500200090FFF7B2
:100EC0004DFF01F05DFF1F48BDF8001001800120BB
:100ED000FFF73EFF0220FFF73BFF0420FFF738FF3C
:100EE0000820FFF735FF1020FFF732FF2020FFF723
:100EF0002FFF4020FFF72CFF8020FFF729FF4FF442
:100F00008070FFF725FF4FF40070FFF721FF4FF4CB
:100F10008060FFF71DFF4FF40060FFF719FF4FF4EB
:100F20008050FFF715FF4FF40050FFF711FF4FF40B
:100F30008040FFF70DFFBDE808404FF40040FFF789
:100F400007BF0000240000207047000004490A6821
:100F500022F010020A600A6802430A60704700002B
:100F60000020024004490A6802F038020A600A6858
:100F700002430A607047000000200240704710B52D
:100F80000121084600F084FE0021BDE81040012048
:100F900000F07EBE70B50C46364A811A1315D61481
:100FA000904253D017DC3449344D41184FF6FF724C
:100FB0001ED0994234D0B1425AD10121102000F004
:100FC00059FE600401D4200452D5BDE870400121CF
:100FD000112000F04FBE99423ED0B14242D0B1F54F
:100FE000406F45D1BDE870400121080200F042BECB
:100FF000A00405D4600403D4200401D4944209D190
:101000000121052000F036FE2846BDE87040012190
:1010100000F072B9BDE870400121042000F02ABE42
:10102000200703D4E00601D4944209D1012109200C
:1010300000F020FE2846BDE87040012100F05CB9B8
:10104000BDE870400121082000F014BEBDE87040EA
:101050000121202000F00EBEBDE87040012140209B
:1010600000F008BEBDE870400121802000F002BE03
:1010700070BD00000014014000F8FEBF0002300007
:1010800038B50446ADF8001002228DF80220042283
:101090008DF803202046FFF77DFF6946204600F0CB
:1010A000D9F838BD38B50446ADF8001002228DF8E5
:1010B000022048228DF803202046FFF76BFF694687
:1010C000204600F0C7F838BD38B50446ADF800102A
:1010D00003228DF8022010228DF803202046FFF70E
:1010E00059FF6946204600F0B5F838BD10B52E4AC4
:1010F000811A1315D414904237D010DC2B494018B4
:101100001FD0984227D0A0424DD10121102000F0DD
:10111000BFFD0021BDE81040102000F0B9BD99428C
:101120002DD0A14235D0B1F5406F3CD101210C0248
:10113000204600F0ADFD2046BDE81040002100F043
:10114000A7BD0121042000F0A3FD0021BDE810404F
:10115000042000F09DBD0121082000F099FD002130
:10116000BDE81040082000F093BD0121202000F0D0
:101170008FFD0021BDE81040202000F089BD012135
:10118000402000F085FD0021BDE81040402000F027
:101190007FBD0121802000F07BFD0021BDE81040D3
:1011A000802000F075BD10BD0014014000F8FEBFA6
:1011B0002DE9F84F684600F0CCF81F4C69462046F0
:1011C00000F048F81D4D6946284600F043F81C4ED3
:1011D0006946304600F03EF81A4F6946384600F03E
:1011E00039F8DFF864806946404600F033F8DFF8EC
:1011F0005C906946484600F02DF8DFF854A0694637
:10120000504600F027F82046FFF770FF2846FFF70A
:101210006DFF3046FFF76AFF3846FFF767FF40462D
:10122000FFF764FF4846FFF761FF5046FFF75EFF98
:10123000FFF7A5FEBDE8F88F00080140000C014053
:10124000001001400014014000180140001C014042
:10125000002001402DE9F0430022CC7804F00F0378
:10126000E40601D58C7823430C784FF00F0714F077
:10127000FF0F4FF0010C1BD005680CFA02F40E882A
:101280002640A64210D1960007FA06F825EA08057E
:1012900003FA06F848EA0505CE78282E00D1446105
:1012A000CE78482E00D10461521C082AE5D305608F
:1012B0000A88FF2A1ED94568002202F108060CFAA6
:1012C00006F40E882640A64210D1960007FA06F8CA
:1012D00025EA080903FA06F545EA0905CE78282E1D
:1012E00000D14461CE78482E00D10461521C082AF6
:1012F000E3D34560BDE8F083F0B5114D6B68C0F3F2
:101300000342440D260184B2C0F30157B440032FB9
:1013100007D0C0020CD503209040834343F0706295
:1013200009E023F07062686820F07060686002E095
:10133000A34343F0706201B122436A60F0BD000034
:10134000000001400246002092680A4200D00120BD
:1013500070474FF6FF710180022181700421C17036
:101360007047C2680A4201D041617047016170470D
:10137000FEE7704770477047704700F001B8000003
:1013800002494AF6AA200860704700000030004079
:10139000FEE7704738B500F009FEFFF709FF00F0DF
:1013A00085F84FF47A7000F005FE4FF4617000226A
:1013B0000090154B1146000700F0BAF900F08CF9C7
:1013C0001248FFF7FBF8012211461046FFF7AEF96D
:1013D0000F490120087200204872C8720873A1F5F5
:1013E00080742070052161700321A170E17020716B
:1013F0006071A071E071207260720A212046FFF7CF
:101400007DF8A07238BD00000000F03FA08601000A
:101410004C03002070B50024234D10212846FFF70F
:1014200091FF00B901246006040E20212846FFF731
:1014300089FF08B944F001046006040E40212846E3
:10144000FFF780FF08B944F001046006040E802114
:101450002846FFF777FF08B944F001046006040E40
:1014600001212846FFF76EFF08B944F00104600629
:10147000040E02212846FFF765FF08B944F0010475
:101480006006040E04212846FFF75CFF08B944F00B
:1014900001046006040E08212846FFF753FF08B92F
:1014A00044F00104204670BD0010014010B5022137
:1014B0001748FFF709FE174C01212046FFF704FEED
:1014C00002212046FFF7DCFD134C01212046FFF7E7
:1014D000E9FD02212046FFF7E5FD04212046FFF744
:1014E000E1FD08212046FFF7DDFD10212046FFF732
:1014F000D9FD20212046FFF7D5FD40212046FFF7EA
:10150000D1FD2046BDE810408021FFF7CBBD000093
:1015100000080140000C0140001001402DE9F04797
:10152000FFF72BFF6548C06D654C60812089401C2A
:101530002081FFF76FFF20700109A17000F00F02FA
:10154000E270637800255F4E83420BD06070357087
:10155000FF207070B170F2703146042201F5C8703E
:1015600000F0DCFC2089B0F5FA7F24D0564901F563
:10157000647000F0FEFC2089B0F57A7F0BD32581E2
:101580006089401C80B26081052800D965810121F5
:101590004E48FFF7E6FE4E4800684FF0020801276C
:1015A000E0B1A08940F6AE32A0F10A0191420BD21F
:1015B000607938B110E043490B2201F5C87000F0A2
:1015C000ADFCD8E7677107E040F6B831884203D335
:1015D000607908B984F80580A58106E0A08941F208
:1015E0008831884201D8401CA0816079DFF8D09012
:1015F000022809F10E090ED189F8007037703149BF
:10160000012201F5C87000F089FC4A46082101203A
:10161000FFF703FA6571607901281BD189F8008012
:10162000A07889F80100E17889F8021086F8008036
:101630007070B1702349032201F5C87000F06EFC90
:101640001F4A08210E320120FFF7E7F9A07958B1AF
:10165000A57165711F48FFF781F900282BD01D4C3B
:10166000E07A812803D013E0A7716571F2E730704A
:10167000207B7070607BB070A07BF070E07B30717D
:10168000207C70710F49062201F5C87000F046FCFD
:10169000206801280FD1E07A3070207B7070607B69
:1016A000B070A07BF070BDE8F0470649042201F558
:1016B000C87000F033BCBDE8F087000000000240B5
:1016C000040000204C0200204C000020000C0140CF
:1016D00004812142F403002010B50F480D49016038
:1016E0000E494160891401810C300D4901600D499A
:1016F0004160022101814FF4E134802221460C38FF
:1017000000F026FC2146BDE810408022064800F08B
:1017100039BF0000004C0040DC03002000100140F5
:1017200000440040000801400038014070470000BC
:101730002DE9FF5F90B0884614461D464FF0000A21
:101740004FF0FF094FF0000B00270026FE4A1098CB
:10175000D314811A4FF4806C904272D00EDCB0F139
:10176000804F42D0F94940186ED060456BD0984206
:1017700003D10121082000F061FACEE0B1F5806FBD
:1017800073D0B1F58E3F03D0B1F5923F17D1C0E0D1
:101790000121C80200F06EFAB8F1000F09D0B8F1CB
:1017A000010F0DD0B8F1020F11D0B8F1030F06D11F
:1017B00014E0DFF89CA34FF480794FF0040BACE009
:1017C000DFF88CA34FF400794FF0040BA5E0DFF8AD
:1017D00080A34FF480694FF0040B9EE0DFF870A304
:1017E0004FF400694FF0040B97E00121084600F028
:1017F00025FAB8F1000F09D0B8F1010F0DD0B8F1FA
:10180000020F11D0B8F1030F06D113E0DFF840A3A7
:101810004FF001094FF0040B7FE0DFF834A34FF0E5
:1018200002094FF0040B78E0DFF824A34FF004091D
:10183000CB4672E0DFF818A34FF008094FF0040B15
:101840006BE05CE000E02DE00121022000F0F6F901
:10185000B8F1000F0AD0B8F1010F0ED0B8F1020FA5
:1018600012D0B8F1030F58D115E04DE0DFF8E0A237
:101870004FF040094FF0040B4FE0DFF8D4A24FF0D7
:1018800080094FF0040B48E0DFF8C8A24FF00109CF
:101890004FF0080B41E0DFF8BCA24FF002094FF017
:1018A000080B3AE00121042000F0C8F9B8F1000F5C
:1018B00009D0B8F1010F0DD0B8F1020F11D0B8F175
:1018C000030F2AD114E0DFF88CA24FF040094FF04B
:1018D000080B22E0DFF87CA24FF080094FF0080BE4
:1018E0001BE0DFF870A24FF480794FF0080B14E092
:1018F000DFF860A24FF400794FF0080B0DE00121F2
:10190000102000F09BF908E00121202000F096F95A
:1019100003E00121480300F0ADF90121084600F081
:10192000A9F90121584600F0A5F9ADF8349003203B
:101930008DF8360018208DF837000DA95046FFF7B6
:1019400089FC01A800F004FADFF80C921098DFF887
:101950000CB229EA00094EF6602A22462B460020E6
:101960005946FEF777FCCDE90E10B9F1000F28D0EB
:10197000DDF80C90DDE90E100022794BFEF716FD24
:1019800022D20022774B20462946FEF7F1FB04467F
:101990000D464846FEF7E4FC22462B46FEF75AFC6D
:1019A00004460D46574600226F4B20462946FEF757
:1019B00051FC00226D4BFEF7DBFBFEF7DEFC86B22E
:1019C00093E0DDF81090D5E7DDE90E105B460022CC
:1019D000FEF7ECFC1FD20022614B20462946FEF7A1
:1019E000C7FB04460D464846FEF7BAFC22462B4686
:1019F000FEF730FC04460D46574600225A4B20465F
:101A00002946FEF727FC0022594BFEF7B1FBFEF7F3
:101A1000B4FC86B269E000225B4620462946FEF708
:101A2000C5FC62D84846FEF79BFC22462B46FEF7D3
:101A300011FC04460D46012220462946FEF779FC9A
:101A400004460D4600224B4B20462946FEF7AEFCCD
:101A50000BD84FF4FA670022474B20462946FEF781
:101A6000F9FBFEF78AFC86B23FE00022434B20469A
:101A70002946FEF79BFC0AD8C82700223B4B20468C
:101A80002946FEF7E7FBFEF778FC86B22DE0002240
:101A90003B4B20462946FEF789FC0AD81427002232
:101AA000334B20462946FEF7D5FBFEF766FC86B28F
:101AB0001BE00022334B20462946FEF777FC0AD86C
:101AC000022700227B0720462946FEF7C3FBFEF7CC
:101AD00054FC86B209E0012700225B4620462946D5
:101AE000FEF7B8FBFEF749FC86B27F1EADF8287002
:101AF000701EADF82C000024ADF82E40ADF82A4041
:101B00000AA9109800F02CFC1E9846434FF47A70F6
:101B1000864204D9B6FBF0F080B21E9003E01E9816
:101B200008B101201E906020ADF818001E98ADF895
:101B30001E00ADF820400120ADF81A00B8F1000FEA
:101B40002AD0B8F1010F1FE00010004000FCFFBFD9
:101B500000080140000C0140000001400000F03F7F
:101B60000000244000005940004CED400000694056
:101B700000003440D012634100409F4080842E41D9
:101B8000006AF84040FFEF400BD0B8F1020F0DD0D3
:101B9000B8F1030F13D10EE006A9109800F0D8FA9F
:101BA0000DE006A9109800F00BFB08E006A91098BC
:101BB00000F052FB03E006A9109800F093FB01210E
:101BC000109800F0B6FAB8F1000F09D0B8F1010F83
:101BD0000BD0B8F1020F0DD0B8F1030F13D10EE006
:101BE0000821109800F0E6FA0DE00821109800F0A6
:101BF00029FB08E00821109800F06EFB03E00821A3
:101C0000109800F0A1FB0121109800F075FA012155
:101C1000109800F081FA14B0BDE8F09F7047000002
:101C2000054A002903D05169014351617047516948
:101C3000814351617047000000100240054A0029AD
:101C400003D0D1690143D1617047D1698143D1612A
:101C50007047000000100240054A002903D01169B6
:101C600001431161704711698143116170470000A0
:101C700000100240054A002903D091690143916197
:101C800070479169814391617047000000100240E4
:101C9000054A002903D0D1680143D1607047D1685B
:101CA0008143D160704700000010024010B500F081
:101CB00031F84FF48034204600F0CAF800F014F9EF
:101CC000012822D11020FFF741F90220FFF74AF93D
:101CD000002000F0B3F8002000F0E2F8A01100F0BE
:101CE000D5F84FF4E011204600F0EAF8012000F0AA
:101CF000E1F8392000F082F80028FAD0022000F044
:101D0000E9F800F093F80828FBD1BDE81040FFF790
:101D10004FBA00000B48016841F0010101604168C1
:101D2000094A114041600168084A11400160016898
:101D300021F480210160416821F4FE01416000210D
:101D400081607047001002400000FFF8FFFFF6FEC0
:101D500010B5264A516801F00C01254B002927D007
:101D6000042927D0082927D00360516801F0F00129
:101D70000909204B5C5C0168E1404160546804F44F
:101D8000E064240A1C5D21FA04F48460546804F4BD
:101D90006054E40A1B5DD940C160526802F44042BD
:101DA000920B144B1B1F9A5CB1FBF2F1016110BD49
:101DB0000360DAE70360D8E7516801F47011022389
:101DC00003EB9141536803F4803333B153689B03B1
:101DD00007D5094B59430160C7E7074B59430160D9
:101DE000C3E7034B59430160BFE700000010024006
:101DF00000127A00C82D000800093D0003460020AB
:101E00005909094A01290AD002290AD0516A03F066
:101E10001F02012393400B4200D00120704711683C
:101E2000F5E7116AF3E7000000100240024840683D
:101E300000F00C007047000000100240034A516897
:101E400021F0F00101435160704700000010024092
:101E50000C490A6822F480320A600A6822F480225F
:101E60000A60B0F5803F07D0B0F5802F03D1086835
:101E700040F4A02008607047086840F48030086093
:101E8000704700000010024070470000034A51688C
:101E900021F4E061014351607047000000100240EE
:101EA000034A516821F4605141EAC0005060704714
:101EB00000100240014908667047000000004242DD
:101EC000034B5A6822F47C12084310435860704751
:101ED00000100240034A516821F0030101435160A0
:101EE000704700000010024030B50B4C40F2FF1567
:101EF0003120FFF783FF20706068401C606020780D
:101F000010B96068A842F3D13120FFF777FF08B11C
:101F1000012030BD002030BD1C0000202DE9F04123
:101F200005460E4617462C68204600F06DFE10B19F
:101F30000020BDE8F081012000F074F8284600F090
:101F40002AF83A463146204600F052FA0020F0E7DF
:101F500010B50446206800F015FB21896068FFF782
:101F6000B3F861682089486110BD0189406841610A
:101F7000704770B504460D460026206800F044FE08
:101F800038B92046FFF7F1FF2946206800F046FDEA
:101F90000646304670BD0189406801617047704750
:101FA000704770477047704770477047FFF77EBEB5
:101FB00000F070B810B50446002C2BD01648FFF77F
:101FC000C7FE4FF0E021086920F0020008610869AF
:101FD00020F001000861086920F0040008610E4843
:101FE0000E4A0068B0FBF2F060434861086940F0B7
:101FF00002000861086940F0010008610020886162
:10200000086940F0020008614A69054802600969F0
:1020100089B2416010BD00001C04002000127A004B
:102020002800002010B50446002C2DD01748FFF7DB
:102030008FFE4FF0E020016921F00201016101698A
:1020400021F001010161016921F0040101610F49E1
:102050004FF4FA520968B1FBF2F14161016941F0B4
:10206000010101610022826106E081690029FCD042
:1020700081690029FCD1641E002CF6D104490B684B
:10208000436182614968016110BD00001C040020A9
:102090002800002000F074BE7047704770477047FA
:1020A00010B500F05BF9BDE810400121014800F0D7
:1020B00030B80000002C014010B500F04FF90121AC
:1020C000BDE81040880700F024B8000010B500F00B
:1020D00045F9BDE810400121014800F01AB80000A0
:1020E0000004004000F03AB97047704770477047ED
:1020F0007047704700F032B9002904D0018841F0E0
:10210000800101807047018840F27F3211400180D8
:102110007047C94301827047002904D0018841F00B
:10212000010101807047018840F2FE3211400180B8
:102130007047002905D030F8441F41F40041018068
:10214000704730F8441FC1F30E0101807047000052
:1021500030B5028C22F001020284058C8388028B48
:1021600022F070020C88144325F002020D891543F9
:102170004A882A43CD8885860C4DA84202D00C4D52
:10218000A8420FD122F008054A892A4322F004050B
:102190008A882A4323F4014323F402438D891D4393
:1021A000CB892B4383800483028430BD002C014003
:1021B00000340140028B22F008020A430283704778
:1021C00070B5028C22F010020284028C8388048B8A
:1021D00024F4E0460D884FF6FF7404EA05253543E4
:1021E00022F020020E8904EA061616434A8804EA01
:1021F00002123243CE880687104EB04202D0104EF3
:10220000B04217D122F080024E8904EA0616164326
:1022100026F040068A8804EA0212324323F404437B
:1022200023F408438E8904EA86061E43C98904EA1A
:102230008103334383800583028470BD002C0140F9
:1022400000340140028B22F400624FF6FF7303EA70
:10225000012111430183704770B5028C22F4807212
:102260000284028C8388848B24F070040D882543BB
:1022700022F400720E894FF6FF7404EA0626164314
:102280004A8804EA02223243CE888687104EB04242
:1022900002D0104EB04217D122F400664A8904EAF7
:1022A0000222324322F480668A8804EA0222324300
:1022B00023F4104323F420438E8904EA06161E43B8
:1022C000C98904EA0113334383808583028470BD86
:1022D000002C014000340140828B22F008020A43A6
:1022E0008283704770B5028C22F480520284058C80
:1022F0008288838B23F4E0460C884FF6FF7303EA51
:102300000424344325F400560D8903EA053535438A
:102310004E8803EA06362E43CD88A0F84050084D7B
:10232000A84202D0074DA84205D1C2F30D05898904
:1023300003EA81122A4382808483068470BD0000F0
:10234000002C014000340140828B22F400624FF6E1
:10235000FF7303EA012111438183704700F010BD30
:10236000028802F08F020280CA884B881A430388D1
:102370001A4302808A8882850A8802850122828225
:10238000044A904202D0044A904201D1097A01865F
:1023900070470000002C01400034014000F0F0BC08
:1023A00000F0EEBC00F0ECBC00F0EABC00F0E8BCD1
:1023B000C943018070470A0A01219140C943018045
:1023C0007047002904D0818941F400518181704710
:1023D000818921F4005181817047002A03D0828ACB
:1023E0000A4382827047828A8A4382827047000051
:1023F0002DE9F0410E4614464FF48072944200D904
:102400001446554B554DC11A4FF4806C4FF4E137CB
:10241000984276D011DC5249411835D061457ED1C1
:102420008089800403D439464E4800F0ABF8286A0E
:10243000E8B3E869C0074FD071E0614571D0B1F5EC
:102440006C4F6CD18089800403D43946464800F033
:1024500099F8A86C10B1686CC00760D1224631466B
:102460004248FDF773FE686C20F0010068644FF489
:1024700080506860AC643D482865686C40F001009D
:1024800068642046BDE8F0818089800404D4344823
:102490003946404200F076F8D5F8840018B1D5F8F6
:1024A0008000C0073BD122463146314800E013E0AE
:1024B000FDF74CFE55F8800F20F0010028604FF02A
:1024C000807045F87C0C6C602948E860286840F012
:1024D000010028602046D5E7224631462548FDF711
:1024E00035FEE86920F00100E861102068602C6288
:1024F0002048A862E86940F00100E8612046C1E791
:10250000FFE78089800403D43946184600F03AF882
:10251000194F38683D1F28B12868C00702D0002035
:10252000B0E717E0224631461448FDF70FFE286851
:1025300020F00100286010491148583908603C60BB
:102540000D490E4808310860286840F001002860F5
:10255000204697E7002095E7004C0040000002402D
:1025600000BCFFBF00480040003801403008002098
:1025700030090020300A00205C040240300B0020AB
:10258000000001102DE9F74F94B014464FF0000BF6
:1025900000200190009082460027002600258046FA
:1025A0008146149AA64BDFF8A4C2D11A9444CDE90F
:1025B00012C1A448DFF890E29A4256D01FDC12996B
:1025C000A9B34FF48062914260D18CB38480A04D56
:1025D000DFF88082C14617464FF4006601210846A5
:1025E000FFF748FB01219C48FEF786FE01210820E9
:1025F000FFF740FB01218804FFF720FB46E04FF482
:102600008062914271D0B1F56C4F3FD18CB10480A2
:10261000924DF046C1464FF4007716460121052041
:10262000FFF728FB01218803FFF724FB2EE004E0DD
:1026300017E04FF480710180EAE774B14480884D5F
:10264000F046C1460427082601210420FFF712FBAB
:1026500001214804FFF7F2FA18E04FF4807141803D
:10266000EDE74FF480718180B1E7ECB3C4807D4D1C
:10267000DFF8F481C1464FF480677E00012111200C
:10268000FFF7F8FA0121C804FFF7D8FAADF808708F
:1026900018208DF80B0003208DF80A0002A940468F
:1026A000FEF7D8FDADF8086048208DF80B0002A9B0
:1026B0004846FEF7CFFD149800F0DEF81598039019
:1026C0000026ADF81060ADF81260ADF814600C2073
:1026D000ADF81600ADF8186003A9149800F058F989
:1026E000DDE91301564A01E009E08DE091423FD057
:1026F00009DC1298D8B1B0F5806F46D128E04FF4CC
:102700008071C180B3E7B0F5806F7DD0B0F56C4FBC
:102710003BD1DFF858B15548143001908014009037
:102720004FF4803A01210846FFF77AFA2DE0DFF8EE
:102730003CB10BF13C0B4D48283001904FF08070BC
:1027400000904FF4801A01210846FFF769FA1CE057
:10275000DFF818B1ABF1280B444814380190102071
:1027600000904FF4807A01210846FFF759FA0CE0F7
:10277000DFF8FCB03E48283801903E4800904FEA10
:10278000305A01210220FFF74BFA149F3F1D079793
:102790000895102009900A940B964FF08008CDF808
:1027A00030800D960E960F964FF40059CDF840905C
:1027B000119607A95846FEF755FA07970895099606
:1027C0000A940B96CDF830800D960E960F96CDF8A4
:1027D0004090119607A90198FEF744FA0021584647
:1027E000FEF718FA01210198FEF714FA01224021A0
:1027F0001498FFF7F2FD012280211498FFF7EDFDF8
:1028000000220221584600E016E0FEF721FA009867
:10281000FEF7F4F95046FEF7F1F940F224440022A5
:102820002146149800F09BF821461498FFF7C3FD49
:1028300001211498FFF7C5FD17B0BDE8F08F000027
:10284000004C0040300000200008014000BCFFBFE9
:1028500030060020000C014000023000300400204F
:1028600030050020300700200010014044000240E5
:10287000580402400000011010B5244A811A1315B3
:1028800090422BD00FDC224940181CD098423BD1FB
:10289000040201212046FFF7DFF92046BDE8104081
:1028A0000021FFF7D9B9994223D0B1F56C4F2BD154
:1028B00001218C032046FFF7EBF92046BDE81040CC
:1028C0000021FFF7E5B901214C042046FFF7C4F9C8
:1028D0002046BDE810400021FFF7BEB90121CC041D
:1028E0002046FFF7B9F92046BDE810400021FFF768
:1028F000B3B901210C052046FFF7AEF92046BDE82B
:1029000010400021FFF7A8B910BD0000004C0040A6
:1029100000BCFFBF0246002012880A4200D00120FE
:10292000704770B50024C1F3421301F01F05012662
:1029300006FA05F2012B0CD0022B0DD0838A13402E
:10294000090A8E40008830400BB100B101242046B6
:1029500070BD83891340F3E7038A1340F0E710B595
:10296000C1F3421301F01F040121A140012B07D044
:10297000022B07D014303AB102680A43026010BD3E
:102980000C30F8E71030F6E702688A43026010BDA9
:1029900030B585B004460D46208A4CF6FF710840DC
:1029A000E98801432182A1894EF6F3100140A888ED
:1029B0002A8910436A890A431043A081A08A4FF6EE
:1029C000FF410840A9890143A1826846FFF7C0F989
:1029D0001148844201D1039800E0029800EBC00145
:1029E00001EB001029688900B0FBF1F06423B0FB13
:1029F000F3F109010A096FF018056A4300EB820040
:102A0000322202EB0010B0FBF3F000F00F0008439D
:102A1000208105B030BD0000003801402DE9F047AD
:102A200089466D4D6D4C411B2A156D4EDFF8B48102
:102A300040F22447A84270D00CDC6B4940183ED0CD
:102A400090426BD1694D39462846FFF76AFF00284E
:102A50006AD164E091427DD0B1F56C4FF1D1644D03
:102A600039462846FFF75DFF28B910212846FFF7B1
:102A700051FF002852D039462846FFF79CFC102110
:102A80002846FFF795FCA06D20F00100A06558488E
:102A9000001D0088E06D3188081A85B22A46554924
:102AA0004846FDF753FB534860663088E0654B4865
:102AB00001215830FEF7AEF82846BDE8F087494DB1
:102AC00039462D1F2846FFF72CFF28B9102128462C
:102AD000FFF720FF00287DD039462846FFF76BFC22
:102AE00010212846FFF764FCE06E20F00100E0664C
:102AF000B8F80000206F7188081A85B22A463E494E
:102B00004846FDF723FB3C48A06770882067E06ECD
:102B100040F00100E0662846CFE728E042E01021BF
:102B20002846FFF7F7FEE8B339462846FFF743FC8F
:102B300010212846FFF73CFC206B20F001002063A9
:102B4000B8F80000606BB188081A85B22A462B4994
:102B5000484600E03CE0FDF7F9FA2848E063B08819
:102B60006063206B40F0010020632846A5E73946EA
:102B70002846FFF7D6FE20B910212846FFF7CAFEE7
:102B800080B139462846FFF716FC10212846FFF78A
:102B90000FFC1B4C206820F001002060B8F80000FA
:102BA000271D00E016E03868F188081A85B22A4629
:102BB00014494846FDF7CAFA114912480C31086019
:102BC000F0883860206840F001002060284674E7F3
:102BD000002072E7002070E7004C00400000024037
:102BE000300000200444004000BCFFBF004800400B
:102BF000003801403004002030050020300600205D
:102C0000300402403007002070B500245249534B75
:102C1000401853494FF000022BD0B0F5806F4ED0D2
:102C2000B0F5006F6ED0B0F5744F18D1D86D80B28A
:102C30000D88A8420CD24D89854207D1488A401C94
:102C40004882488A052803D34A8201E0488101244A
:102C5000986C28B1586CC00702D044F0020478E0A8
:102C600040214048FFF756FE012872D044F002048C
:102C70006FE0186F80B24D88A8420CD28D898542D2
:102C800007D1888A401C8882888A052803D38A82D3
:102C900001E088810124D3F8840030B1D3F88000AA
:102CA000C00702D044F0020453E02B4840214042C8
:102CB000FFF730FE01284CD044F0020449E0586B85
:102CC00080B28D88A8420CD2CD89854207D1C88AAE
:102CD000401CC882C88A052803D3CA8201E0C88183
:102CE0000124186A28B1D869C00702D044F0020450
:102CF0002FE040211C48FFF70DFE012829D044F0A9
:102D0000020426E01948006880B2CB8898420CD2B1
:102D10000B8A834207D1088B401C0883088B052847
:102D200003D30A8301E00882012410482830006898
:102D300038B10E4824300068C00702D044F00204C5
:102D400007E040210A48FFF7E5FD012801D044F0E3
:102D50000204204670BD000000BCFFBF000002401E
:102D60003000002000380140004800403404024098
:102D7000004C0040704770477047FEE7FEF70ABB03
:102D8000FEF7CCBB704702E008C8121F08C1002A3A
:102D9000FAD170477047002001E001C1121F002ADC
:102DA000FBD17047FFF7EAFF05494FF0807300221F
:102DB0000868401C08609842FAD30A60F8E70000EF
:102DC00000000020020406080000000001020304C5
:102DD0000102030406070809F82D0008000000207E
:102DE0004C000000862D0008442E00084C000020F6
:102DF00064140000962D00080000000000FF000091
:102E000000000000000000000000000000000000C2
:102E100000000000000000000000000000000000B2
:102E200000000000000000000000000000000000A2
:102E30000000000000000000000000000000000092
:042E4000000000008E
:0400000508000131BD
:00000001FF
