:020000040800F2
:1000000030080020450100087D0A0008710A000838
:100010007B0A0008D90400080B1600080000000045
:100020000000000000000000000000006D12000849
:10003000F105000800000000990F00087312000885
:1000400015160008AB0A0008ED120008631200083C
:1000500009080008CD110008F3050008FB05000899
:10006000FF0500080306000807060008DF04000873
:10007000E3040008E7040008EB040008EF040008AC
:10008000F3040008F7040008D50400080716000868
:1000900009160008DB040008DD0400080B06000850
:1000A000EF120008F5120008F3120008F112000820
:1000B0000D1300082113000839130008750A000801
:1000C000730A0008790A0008770A00086712000816
:1000D00069120008F9150008FD150008011600084E
:1000E000F705000861120008051600084313000810
:1000F000491300084713000845130008D7040008F7
:100100003D080008651200083D1300086B12000846
:10011000F1150008F51500083F1300084113000809
:10012000FB040008FF040008030500080705000899
:10013000DFF80CD000F0BCF9004800473516000885
:100140003008002000480047310100082DE9FE4F2B
:1001500081EA030404F0004421F0004100944FF0D0
:10016000000B23F0004350EA01045ED052EA03047E
:100170005BD0C3F30A54C1F30A552C44A4F2F33400
:100180000194A0FB0254C1F3130141F48011C3F3A5
:10019000130343F4801301FB024400FB034E840A63
:1001A000970A44EA815447EA8357A4FB07680295FB
:1001B0008D0A05FB07854FEA932C04FB0C54270599
:1001C000029D4FEA065847EA1637B5EB08056EEB75
:1001D000070C870E920E47EA811742EA8312A7FBAB
:1001E0000201B6EB0B0164EB00042B0D43EA0C3368
:1001F0005E1844EB1C50DA465146E7FB0201C5F39A
:1002000013044FEA0B3343EA14534FEA0432019CC0
:1002100043EA0603A4F10C040294009CCDE900B467
:1002200000F0F8F803B0BDE8F08F00200146F9E7D0
:100230002DE9F04D81EA030404F0004B21F0004564
:1002400014464FF0000A23F0004150EA050220D086
:1002500054EA01021DD0C5F30A570246C5F3130341
:10026000C1F31300C1F30A5640F4801543F4801320
:10027000A7EB0608101BD64608F2FD3873EB050005
:1002800002D308F1010801E092185B41B8F1000FB8
:1002900003DA00200146BDE8F08D00204FF4801104
:1002A000064684460EE0171B73EB050705D3121BA9
:1002B00063EB050306434CEA010C49084FEA3000A2
:1002C00092185B4150EA0107EDD152EA030012D0C7
:1002D00082EA040083EA0501084305D0101BAB4104
:1002E00006D20122002306E000224FF0004302E084
:1002F0006FF0010253101AEB06004CEB085110EBA3
:100300000A0041EB0B01BDE8F04D00F074B870B588
:1003100021F0004303430CD0C1F30A550024D5EB70
:10032000040564EB0403D617AD1AB34102DB0020C9
:10033000014670BD201841EB025170BD0EB540F270
:10034000334102910021CDE900110A460B4600F02D
:1003500061F803B000BDC1F30A5210B5C1F3130137
:1003600040F2FF3341F480119A4201DA002010BDBF
:1003700040F233439A42A2F2334203DC524200F08D
:100380002AF810BD904010BD30B5041E71F1000474
:1003900004DB4FF00044404264EB0101141E73F192
:1003A000000405DB1C464FF00043524263EB04039C
:1003B000994208BF904230BD202A04DB203A00FA5F
:1003C00002F1002070479140C2F1200320FA03F3AC
:1003D000194390407047202A04DB203A21FA02F0AA
:1003E0000021704721FA02F3D040C2F1200291406F
:1003F00008431946704710B5141E73F1000408DA5B
:10040000401C41F1000192185B411A4301D120F0D8
:10041000010010BD2DE9F04D92469B4611B1B1FA95
:1004200081F202E0B0FA80F220329046FFF7C4FF7A
:1004300004460F4640EA0A0041EA0B0153465A4679
:10044000084313D0114653EA010019D0C8F1400205
:100450005046FFF7C0FF05460E46504659464246F5
:10046000FFF7AAFF084305D0012004E020463946E3
:10047000BDE8F08D0020054346EAE0762C43374383
:100480000A986305E40AA0EB08000022FD0A44EA8A
:1004900047540A3002D500200146E9E7010510194A
:1004A0006941DDE9084500196941BDE8F04DA2E761
:1004B000064C074D06E0E06840F0010394E80700B1
:1004C00098471034AC42F6D3FFF736FE68160008A2
:1004D0008816000870477047FEE77047704700F0C5
:1004E0003FB800F03DB800F03BB800F039B800F07C
:1004F00037B800F035B800F033B800F031B800F08C
:100500002FB800F02DB800F02BB80000C10002D5C4
:10051000024908607047024948607047040402407D
:1005200000000240002904D0016841F0010101608F
:100530007047016821F00101016070470246002008
:10054000D10002D50449096801E004490968114253
:1005500000D001207047000000040240000002406B
:1005600010B501F055F81020FFF7E8FF01281BD067
:100570004FF480542046FFF7E1FF01281DD02403EB
:100580002046FFF7DBFF012821D0164C2046FFF75D
:10059000D5FF012825D12046FFF7B8FFBDE8104060
:1005A00000211148FFF7BEBF1020FFF7AFFFBDE8E5
:1005B000104000210D48FFF7B5BF2046FFF7A6FF0A
:1005C0000A480021BDE810402830FFF7ABBF2046A5
:1005D000FFF79CFF05480021BDE810406430FFF79D
:1005E000A1BF10BD00000110580402401C000240D1
:1005F000704700F0C1B800F0BFB800F0BDB800F01F
:10060000BBB800F0B9B800F0B7B800F0B5B800005A
:1006100001490860704700001404014010B5012032
:1006200000F09AF84B4C20B1208840F00100208067
:1006300010BD022000F090F820B1208840F00200A8
:10064000208010BD042000F087F820B1208840F001
:100650000400208010BD082000F07EF820B1208822
:1006600040F00800208010BD102000F075F820B187
:10067000208840F01000208010BD202000F06CF891
:1006800020B1208840F02000208010BD402000F0E4
:1006900063F820B1208840F04000208010BD802009
:1006A00000F05AF820B1208840F08000208010BD72
:1006B0004FF4807000F050F820B1208840F4807032
:1006C000208010BD4FF4007000F046F820B1208863
:1006D00040F40070208010BD4FF4806000F03CF8C2
:1006E00020B1208840F48060208010BD4FF400606D
:1006F00000F032F820B1208840F40060208010BD66
:100700004FF4805000F028F820B1208840F4805049
:10071000208010BD4FF4005000F01EF820B120885A
:1007200040F40050208010BD4FF4804000F014F8D9
:1007300020B1208840F48040208010BD4FF400405C
:1007400000F00AF80028F8D0208840F4004020800B
:1007500010BD00000C00002001460020054A126870
:100760000A40044B14331B680B4202D0002A00D00D
:10077000012070470004014008B500200090FFF7F9
:100780004DFF00F045FF1F48BDF80010018001201B
:10079000FFF73EFF0220FFF73BFF0420FFF738FF83
:1007A0000820FFF735FF1020FFF732FF2020FFF76A
:1007B0002FFF4020FFF72CFF8020FFF729FF4FF489
:1007C0008070FFF725FF4FF40070FFF721FF4FF413
:1007D0008060FFF71DFF4FF40060FFF719FF4FF433
:1007E0008050FFF715FF4FF40050FFF711FF4FF453
:1007F0008040FFF70DFFBDE808404FF40040FFF7D1
:1008000007BF00000C0000207047000004490A6880
:1008100022F010020A600A6802430A607047000072
:100820000020024004490A6802F038020A600A689F
:1008300002430A607047000000200240704710B574
:100840000121084600F0C6FB0021BDE81040012050
:1008500000F0C0BB10B52E4A811A1315D414904273
:1008600037D010DC2B4940181FD0984227D0A04227
:100870004DD10121102000F0ADFB0021BDE810405A
:10088000102000F0A7BB99422DD0A14235D0B1F580
:10089000406F3CD101210C02204600F09BFB20461A
:1008A000BDE81040002100F095BB0121042000F0BC
:1008B00091FB0021BDE81040042000F08BBB01211A
:1008C000082000F087FB0021BDE81040082000F060
:1008D00081BB0121202000F07DFB0021BDE81040FC
:1008E000202000F077BB0121402000F073FB0021A5
:1008F000BDE81040402000F06DBB0121802000F0D9
:1009000069FB0021BDE81040802000F063BB10BDF2
:100910000014014000F8FEBF2DE9F84F684600F0D2
:100920009FF81F4C6946204600F048F81D4D694667
:10093000284600F043F81C4E6946304600F03EF869
:100940001A4F6946384600F039F8DFF86480694686
:10095000404600F033F8DFF85C906946484600F006
:100960002DF8DFF854A06946504600F027F82046DD
:10097000FFF770FF2846FFF76DFF3046FFF76AFF6D
:100980003846FFF767FF4046FFF764FF4846FFF72A
:1009900061FF5046FFF75EFFFFF751FFBDE8F88F9C
:1009A00000080140000C014000100140001401400B
:1009B00000180140001C0140002001402DE9F043D7
:1009C0000022CC7804F00F03E40601D58C78234391
:1009D0000C784FF00F0714F0FF0F4FF0010C1BD0F5
:1009E00005680CFA02F40E882640A64210D1960043
:1009F00007FA06F825EA080503FA06F848EA0505A5
:100A0000CE78282E00D14461CE78482E00D10461E2
:100A1000521C082AE5D305600A88FF2A1ED94568BA
:100A2000002202F108060CFA06F40E882640A642BF
:100A300010D1960007FA06F825EA080903FA06F528
:100A400045EA0905CE78282E00D14461CE78482E9B
:100A500000D10461521C082AE3D34560BDE8F0834D
:100A60004FF6FF710180022181700421C17070472F
:100A7000FEE77047704770477047FEE77047000019
:100A800008B500F0F4FB4FF4617000220090054BB4
:100A90001146000700F00AF8BDE808404FF47A70EC
:100AA00000F0EABB0000F03F704770472DE9FF5FA0
:100AB00090B0884614461D464FF0000A4FF0FF09DB
:100AC0004FF0000B00270026FE4A1098D314811A1D
:100AD0004FF4806C904272D00EDCB0F1804F42D067
:100AE000F94940186ED060456BD0984203D101217E
:100AF000082000F053FACEE0B1F5806F73D0B1F565
:100B00008E3F03D0B1F5923F17D1C0E00121C8025A
:100B100000F052FAB8F1000F09D0B8F1010F0DD072
:100B2000B8F1020F11D0B8F1030F06D114E0DFF8CD
:100B30009CA34FF480794FF0040BACE0DFF88CA35A
:100B40004FF400794FF0040BA5E0DFF880A34FF4D9
:100B500080694FF0040B9EE0DFF870A34FF400694A
:100B60004FF0040B97E00121084600F017FAB8F1A6
:100B7000000F09D0B8F1010F0DD0B8F1020F11D05C
:100B8000B8F1030F06D113E0DFF840A34FF00109DD
:100B90004FF0040B7FE0DFF834A34FF002094FF071
:100BA000040B78E0DFF824A34FF00409CB4672E091
:100BB000DFF818A34FF008094FF0040B6BE05CE07E
:100BC00000E02DE00121022000F0E8F9B8F1000F6B
:100BD0000AD0B8F1010F0ED0B8F1020F12D0B8F15F
:100BE000030F58D115E04DE0DFF8E0A24FF04009C7
:100BF0004FF0040B4FE0DFF8D4A24FF080094FF024
:100C0000040B48E0DFF8C8A24FF001094FF0080BD1
:100C100041E0DFF8BCA24FF002094FF0080B3AE0C8
:100C20000121042000F0BAF9B8F1000F09D0B8F1A1
:100C3000010F0DD0B8F1020F11D0B8F1030F2AD176
:100C400014E0DFF88CA24FF040094FF0080B22E0CF
:100C5000DFF87CA24FF080094FF0080B1BE0DFF8B3
:100C600070A24FF480794FF0080B14E0DFF860A217
:100C70004FF400794FF0080B0DE00121102000F037
:100C80008DF908E00121202000F088F903E001211E
:100C9000480300F091F90121084600F08DF9012187
:100CA000584600F089F9ADF8349003208DF83600ED
:100CB00018208DF837000DA95046FFF77FFE01A8D8
:100CC00000F0E8F9DFF80C921098DFF80CB229EA8E
:100CD00000094EF6602A22462B4600205946FFF7AF
:100CE000A7FACDE90E10B9F1000F28D0DDF80C906D
:100CF000DDE90E100022794BFFF746FB22D20022DD
:100D0000774B20462946FFF721FA04460D46484610
:100D1000FFF714FB22462B46FFF78AFA04460D46DE
:100D2000574600226F4B20462946FFF781FA0022E2
:100D30006D4BFFF70BFAFFF70EFB86B293E0DDF881
:100D40001090D5E7DDE90E105B460022FFF71CFB93
:100D50001FD20022614B20462946FFF7F7F90446CF
:100D60000D464846FFF7EAFA22462B46FFF760FA9F
:100D700004460D46574600225A4B20462946FFF7A7
:100D800057FA0022594BFFF7E1F9FFF7E4FA86B270
:100D900069E000225B4620462946FFF7F5FA62D853
:100DA0004846FFF7CBFA22462B46FFF741FA0446A6
:100DB0000D46012220462946FFF7A9FA04460D46B2
:100DC00000224B4B20462946FFF7DEFA0BD84FF4A2
:100DD000FA670022474B20462946FFF729FAFFF71A
:100DE000BAFA86B23FE00022434B20462946FFF77D
:100DF000CBFA0AD8C82700223B4B20462946FFF7EA
:100E000017FAFFF7A8FA86B22DE000223B4B2046E6
:100E10002946FFF7B9FA0AD814270022334B204697
:100E20002946FFF705FAFFF796FA86B21BE0002283
:100E3000334B20462946FFF7A7FA0AD8022700229B
:100E40007B0720462946FFF7F3F9FFF784FA86B2BD
:100E500009E0012700225B4620462946FFF7E8F912
:100E6000FFF779FA86B27F1EADF82870701EADF8D4
:100E70002C000024ADF82E40ADF82A400AA91098A5
:100E800000F098FB1E9846434FF47A70864204D9CE
:100E9000B6FBF0F080B21E9003E01E9808B101206E
:100EA0001E906020ADF818001E98ADF81E00ADF839
:100EB00020400120ADF81A00B8F1000F2AD0B8F197
:100EC000010F1FE00010004000FCFFBF00080140C0
:100ED000000C0140000001400000F03F00002440F1
:100EE00000005940004CED400000694000003440D3
:100EF000D012634100409F4080842E41006AF84038
:100F000040FFEF400BD0B8F1020F0DD0B8F1030F46
:100F100013D10EE006A9109800F044FA0DE006A9DE
:100F2000109800F077FA08E006A9109800F0BEFAD1
:100F300003E006A9109800F0FFFA0121109800F0D4
:100F400022FAB8F1000F09D0B8F1010F0BD0B8F1B7
:100F5000020F0DD0B8F1030F13D10EE00821109845
:100F600000F052FA0DE00821109800F095FA08E020
:100F70000821109800F0DAFA03E00821109800F038
:100F80000DFB0121109800F0E1F90121109800F00B
:100F9000EDF914B0BDE8F09F70470000054A002944
:100FA00003D0D1690143D1617047D1698143D161D7
:100FB0007047000000100240054A002903D09169E3
:100FC00001439161704791698143916170470000CD
:100FD00000100240054A002903D0D1680143D160C6
:100FE0007047D1688143D160704700000010024013
:100FF00010B500F031F84FF48034204600F0CAF804
:1010000000F014F9012822D11020FFF7FFFB022085
:10101000FFF708FC002000F0B3F8002000F0E2F831
:10102000A01100F0D5F84FF4E011204600F0EAF8E6
:10103000012000F0E1F8392000F082F80028FAD011
:10104000022000F0E9F800F093F80828FBD1BDE891
:101050001040FFF761BC00000B48016841F001013E
:1010600001604168094A114041600168084A114025
:101070000160016821F480210160416821F4FE01D2
:101080004160002181607047001002400000FFF8BD
:10109000FFFFF6FE10B5264A516801F00C01254B02
:1010A000002927D0042927D0082927D003605168B8
:1010B00001F0F0010909204B5C5C0168E1404160EE
:1010C000546804F4E064240A1C5D21FA04F484608A
:1010D000546804F46054E40A1B5DD940C16052684E
:1010E00002F44042920B144B1B1F9A5CB1FBF2F1CD
:1010F000016110BD0360DAE70360D8E7516801F4CD
:101100007011022303EB9141536803F4803333B130
:1011100053689B0307D5094B59430160C7E7074B49
:1011200059430160C3E7034B59430160BFE7000027
:101130000010024000127A005816000800093D0015
:10114000034600205909094A01290AD002290AD078
:10115000516A03F01F02012393400B4200D001208B
:1011600070471168F5E7116AF3E7000000100240CC
:101170000248406800F00C00704700000010024078
:10118000034A516821F0F0010143516070470000AB
:10119000001002400C490A6822F480320A600A6892
:1011A00022F480220A60B0F5803F07D0B0F5802F8E
:1011B00003D1086840F4A02008607047086840F434
:1011C0008030086070470000001002407047000047
:1011D000034A516821F4E061014351607047000007
:1011E00000100240034A516821F4605141EAC000F6
:1011F00050607047001002400149086670470000C7
:1012000000004242034B5A6822F47C120843104308
:101210005860704700100240034A516821F00301F2
:1012200001435160704700000010024030B50B4C84
:1012300040F2FF153120FFF783FF20706068401CEB
:101240006060207810B96068A842F3D13120FFF7C0
:1012500077FF08B1012030BD002030BD0400002020
:101260007047704770477047704770477047FFF787
:10127000BFBE00F039B8000010B50446002C2BD0DA
:101280001648FFF707FF4FF0E021086920F0020041
:101290000861086920F001000861086920F0040075
:1012A00008610E480E4A0068B0FBF2F060434861E6
:1012B000086940F002000861086940F00100086117
:1012C00000208861086940F0020008614A69054809
:1012D0000260096989B2416010BD00001800002059
:1012E00000127A001000002000F092B97047704799
:1012F0007047704710B500F05BF9BDE81040012160
:10130000014800F030B80000002C014010B500F09A
:101310004FF90121BDE81040880700F024B8000013
:1013200010B500F045F9BDE810400121014800F07A
:101330001AB800000004004000F03AB97047704746
:10134000704770477047704700F032B9002904D0E9
:10135000018841F0800101807047018840F27F32AE
:10136000114001807047C94301827047002904D0B1
:10137000018841F0010101807047018840F2FE328E
:10138000114001807047002905D030F8441F41F416
:1013900000410180704730F8441FC1F30E01018005
:1013A0007047000030B5028C22F001020284058CE7
:1013B0008388028B22F070020C88144325F002020D
:1013C0000D8915434A882A43CD8885860C4DA8424D
:1013D00002D00C4DA8420FD122F008054A892A43B9
:1013E00022F004058A882A4323F4014323F40243AC
:1013F0008D891D43CB892B4383800483028430BDB8
:10140000002C014000340140028B22F008020A4304
:101410000283704770B5028C22F010020284028CA5
:101420008388048B24F4E0460D884FF6FF7404EAA9
:101430000525354322F020020E8904EA06161643DC
:101440004A8804EA02123243CE880687104EB04220
:1014500002D0104EB04217D122F080024E8904EA29
:101460000616164326F040068A8804EA0212324322
:1014700023F4044323F408438E8904EA86061E43BA
:10148000C98904EA8103334383800583028470BDE4
:10149000002C014000340140028B22F400624FF620
:1014A000FF7303EA012111430183704770B5028C79
:1014B00022F480720284028C8388848B24F070046E
:1014C0000D88254322F400720E894FF6FF7404EA5A
:1014D000062616434A8804EA02223243CE888687CB
:1014E000104EB04202D0104EB04217D122F4006626
:1014F0004A8904EA0222324322F480668A8804EA96
:101500000222324323F4104323F420438E8904EA59
:1015100006161E43C98904EA011333438380858379
:10152000028470BD002C014000340140828B22F007
:1015300008020A438283704770B5028C22F48052FD
:101540000284058C8288838B23F4E0460C884FF656
:10155000FF7303EA0424344325F400560D8903EA9B
:10156000053535434E8803EA06362E43CD88A0F86C
:101570004050084DA84202D0074DA84205D1C2F301
:101580000D05898903EA81122A43828084830684B7
:1015900070BD0000002C014000340140828B22F419
:1015A00000624FF6FF7303EA012111438183704704
:1015B00000F02EB8028802F08F020280CA884B88A1
:1015C0001A4303881A4302808A8882850A88028522
:1015D00001228282044A904202D0044A904201D100
:1015E000097A018670470000002C01400034014058
:1015F00000F00EB800F00CB800F00AB800F008B81F
:1016000000F006B8704770477047FEE7FFF738BA3A
:10161000FFF74ABA704702E008C8121F08C1002A43
:10162000FAD170477047002001E001C1121F002A63
:10163000FBD17047FFF7EAFF05494FF080730022A6
:101640000868401C08609842FAD30A60F8E7000076
:10165000000000200204060800000000010203044C
:10166000010203040607080988160008000000208C
:101670001800000016160008A01600081800002028
:1016800018080000261600080000000000000000F6
:10169000000000000000000000000000000000004A
:0400000508000131BD
:00000001FF
