:020000040800F2
:1000000020120020450100085F0F00089F0C000827
:100010005D0F000821050008EF290008000000001E
:10002000000000000000000000000000511900085E
:100030008906000800000000C1140008231C000805
:10004000F9290008D10F00080D1D00084719000804
:10005000A10800082D1700088B0600089306000869
:10006000970600089B0600089F0600082705000861
:100070002B0500082F050008330500083705000888
:100080003B0500083F0500081D050008EB29000896
:10009000ED2900082305000825050008A30600082F
:1000A0000F1D0008151D0008131D0008111D000874
:1000B0002D1D0008411D0008591D0008A30C000853
:1000C000A10C0008A70C0008A50C00084B1900089B
:1000D0004D190008192000081D20000821200008E3
:1000E0008F06000845190008E9290008631D00086B
:1000F000691D0008671D0008651D00081F05000830
:10010000D5080008491900085D1D00084F190008AE
:1001100011200008152000085F1D0008611D00085F
:1001200043050008470500084B0500084F05000877
:10013000DFF80CD000F0E0F900480047192A000869
:1001400020120020004800473101000840EA010366
:100150009B0703D009E008C9121F08C0042AFAD27D
:1001600003E011F8013B00F8013B521EF9D2704741
:10017000D2B201E000F8012B491EFBD270470022E9
:10018000F6E710B513460A4604461946FFF7F0FF96
:10019000204610BD2DE9FE4F81EA030404F000441F
:1001A00021F0004100944FF0000B23F0004350EA8F
:1001B00001045ED052EA03045BD0C3F30A54C1F3D6
:1001C0000A552C44A4F2F3340194A0FB0254C1F369
:1001D000130141F48011C3F3130343F4801301FBB3
:1001E000024400FB034E840A970A44EA815447EA1A
:1001F0008357A4FB076802958D0A05FB07854FEA24
:10020000932C04FB0C542705029D4FEA065847EA3D
:100210001637B5EB08056EEB070C870E920E47EA12
:10022000811742EA8312A7FB0201B6EB0B0164EBD4
:1002300000042B0D43EA0C335E1844EB1C50DA46E5
:100240005146E7FB0201C5F313044FEA0B3343EABF
:1002500014534FEA0432019C43EA0603A4F10C0450
:100260000294009CCDE900B400F0F8F803B0BDE8BA
:10027000F08F00200146F9E72DE9F04D81EA0304F3
:1002800004F0004B21F0004514464FF0000A23F023
:10029000004150EA050220D054EA01021DD0C5F306
:1002A0000A570246C5F31303C1F31300C1F30A56FC
:1002B00040F4801543F48013A7EB0608101BD646C4
:1002C00008F2FD3873EB050002D308F1010801E0E4
:1002D00092185B41B8F1000F03DA00200146BDE837
:1002E000F08D00204FF48011064684460EE0171B67
:1002F00073EB050705D3121B63EB050306434CEABA
:10030000010C49084FEA300092185B4150EA01079E
:10031000EDD152EA030012D082EA040083EA05011B
:10032000084305D0101BAB4106D20122002306E092
:1003300000224FF0004302E06FF0010253101AEB6D
:1003400006004CEB085110EB0A0041EB0B01BDE835
:10035000F04D00F074B870B521F0004303430CD0A9
:10036000C1F30A550024D5EB040564EB0403D6174A
:10037000AD1AB34102DB0020014670BD201841EBED
:10038000025170BD0EB540F2334102910021CDE91A
:1003900000110A460B4600F061F803B000BDC1F33E
:1003A0000A5210B5C1F3130140F2FF3341F480113A
:1003B0009A4201DA002010BD40F233439A42A2F281
:1003C000334203DC524200F02AF810BD904010BDC9
:1003D00030B5041E71F1000404DB4FF000444042CC
:1003E00064EB0101141E73F1000405DB1C464FF0A1
:1003F0000043524263EB0403994208BF904230BD70
:10040000202A04DB203A00FA02F1002070479140D4
:10041000C2F1200320FA03F3194390407047202AC9
:1004200004DB203A21FA02F00021704721FA02F39E
:10043000D040C2F12002914008431946704710B5E0
:10044000141E73F1000408DA401C41F100019218F7
:100450005B411A4301D120F0010010BD2DE9F04DA0
:1004600092469B4611B1B1FA81F202E0B0FA80F2F5
:1004700020329046FFF7C4FF04460F4640EA0A00C8
:1004800041EA0B0153465A46084313D0114653EA3A
:10049000010019D0C8F140025046FFF7C0FF0546E1
:1004A0000E46504659464246FFF7AAFF084305D07C
:1004B000012004E020463946BDE8F08D00200543C8
:1004C00046EAE0762C4337430A986305E40AA0EB3A
:1004D00008000022FD0A44EA47540A3002D50020F1
:1004E0000146E9E7010510196941DDE908450019F0
:1004F0006941BDE8F04DA2E7064C074D06E0E06813
:1005000040F0010394E8070098471034AC42F6D35A
:10051000FFF712FE4C2A00086C2A0008704770474B
:10052000FEE77047704700F067B800F065B800F06C
:1005300063B800F061B800F05FB800F05DB800F09B
:100540005BB800F059B800F057B800F055B800F0AB
:1005500053B80000C10002D5024908607047024943
:10056000486070470404024000000240002904D0A3
:10057000016841F0010101607047016821F001014B
:100580000160704702460020D10002D50449096885
:1005900001E004490968114200D0012070470000C1
:1005A0000004024000000240002A03D002680A430F
:1005B0000260704702688A430260704730B5026883
:1005C00047F6F0739A430C6A8B682343D1E90445DC
:1005D0002C4323438C692343CC6923434C6A234334
:1005E0008C6A234313430360CA6842600A688260CE
:1005F0004968C16030BD000010B502F0FBF9102061
:10060000FFF7C0FF01281BD04FF480542046FFF7AE
:10061000B9FF01281DD024032046FFF7B3FF0128AE
:1006200021D0164C2046FFF7ADFF012825D12046EA
:10063000FFF790FFBDE8104000211148FFF796BF7B
:100640001020FFF787FFBDE8104000210D48FFF79D
:100650008DBF2046FFF77EFF0A480021BDE810400D
:100660002830FFF783BF2046FFF774FF05480021BD
:10067000BDE810406430FFF779BF10BD00000110E5
:10068000580402401C000240704700F0C1B800F05E
:10069000BFB800F0BDB800F0BBB800F0B9B800F0CA
:1006A000B7B800F0B5B80000014908607047000015
:1006B0001404014010B5012000F09AF84B4C20B111
:1006C000208840F00100208010BD022000F090F84A
:1006D00020B1208840F00200208010BD042000F0EE
:1006E00087F820B1208840F00400208010BD082049
:1006F00000F07EF820B1208840F00800208010BD76
:10070000102000F075F820B1208840F01000208003
:1007100010BD202000F06CF820B1208840F02000AF
:10072000208010BD402000F063F820B1208840F008
:100730004000208010BD802000F05AF820B12088B1
:1007400040F08000208010BD4FF4807000F050F821
:1007500020B1208840F48070208010BD4FF40070DC
:1007600000F046F820B1208840F40070208010BDD1
:100770004FF4806000F03CF820B1208840F48060A5
:10078000208010BD4FF4006000F032F820B12088C6
:1007900040F40060208010BD4FF4805000F028F835
:1007A00020B1208840F48050208010BD4FF40050CC
:1007B00000F01EF820B1208840F40050208010BDC9
:1007C0004FF4804000F014F820B1208840F48040BD
:1007D000208010BD4FF4004000F00AF80028F8D047
:1007E000208840F40040208010BD0000240000203C
:1007F00001460020054A12680A40044B14331B6866
:100800000B4202D0002A00D00120704700040140B2
:1008100008B500200090FFF74DFF02F0EBF81F48ED
:10082000BDF8001001800120FFF73EFF0220FFF716
:100830003BFF0420FFF738FF0820FFF735FF1020AB
:10084000FFF732FF2020FFF72FFF4020FFF72CFF9C
:100850008020FFF729FF4FF48070FFF725FF4FF44A
:100860000070FFF721FF4FF48060FFF71DFF4FF48A
:100870000060FFF719FF4FF48050FFF715FF4FF4AA
:100880000050FFF711FF4FF48040FFF70DFFBDE868
:1008900008404FF40040FFF707BF0000240000208D
:1008A0007047000004490A6822F010020A600A68D2
:1008B00002430A60704700000020024004490A68B1
:1008C00002F038020A600A6802430A6070470000BA
:1008D00000200240704710B50121084600F02AFEB2
:1008E0000021BDE81040012000F024BE70B50C4688
:1008F000364A811A1315D614904253D017DC344966
:10090000344D41184FF6FF721ED0994234D0B14297
:100910005AD10121102000F0FFFD600401D4200411
:1009200052D5BDE870400121112000F0F5BD99427B
:100930003ED0B14242D0B1F5406F45D1BDE87040E4
:100940000121080200F0E8BDA00405D4600403D42E
:10095000200401D4944209D10121052000F0DCFDDE
:100960002846BDE87040012100F060B9BDE8704044
:100970000121042000F0D0BD200703D4E00601D4FB
:10098000944209D10121092000F0C6FD2846BDE8A6
:100990007040012100F04AB9BDE8704001210820F3
:1009A00000F0BABDBDE870400121202000F0B4BDC8
:1009B000BDE870400121402000F0AEBDBDE87040B0
:1009C0000121802000F0A8BD70BD0000001401408E
:1009D00000F8FEBF0002300038B50446ADF8001044
:1009E00002228DF8022048228DF803202046FFF7CE
:1009F0007DFF6946204600F0C7F838BD38B504468B
:100A0000ADF8001003228DF8022010228DF803208B
:100A10002046FFF76BFF6946204600F0B5F838BD69
:100A200010B52E4A811A1315D414904237D010DC19
:100A30002B4940181FD0984227D0A0424DD1012108
:100A4000102000F077FD0021BDE81040102000F0DC
:100A500071BD99422DD0A14235D0B1F5406F3CD146
:100A600001210C02204600F065FD2046BDE8104043
:100A7000002100F05FBD0121042000F05BFD00219A
:100A8000BDE81040042000F055BD0121082000F011
:100A900051FD0021BDE81040082000F04BBD0121B0
:100AA000202000F047FD0021BDE81040202000F08C
:100AB00041BD0121402000F03DFD0021BDE8104076
:100AC000402000F037BD0121802000F033FD0021DF
:100AD000BDE81040802000F02DBD10BD0014014085
:100AE00000F8FEBF2DE9F84F684600F0D0F81F4C23
:100AF0006946204600F048F81D4D6946284600F03A
:100B000043F81C4E6946304600F03EF81A4F6946DD
:100B1000384600F039F8DFF864806946404600F056
:100B200033F8DFF85C906946484600F02DF8DFF8AE
:100B300054A06946504600F027F82046FFF770FFA2
:100B40002846FFF76DFF3046FFF76AFF3846FFF78C
:100B500067FF4046FFF764FF4846FFF761FF5046D6
:100B6000FFF75EFFFFF7B7FEBDE8F88F0008014012
:100B7000000C014000100140001401400018014029
:100B8000001C0140002001402DE9F0430022CC78F8
:100B900004F00F03E40601D58C7823430C784FF062
:100BA0000F0714F0FF0F4FF0010C1BD005680CFA73
:100BB00002F40E882640A64210D1960007FA06F8E5
:100BC00025EA080503FA06F848EA0505CE78282E36
:100BD00000D14461CE78482E00D10461521C082A0D
:100BE000E5D305600A88FF2A1ED94568002202F174
:100BF00008060CFA06F40E882640A64210D196008C
:100C000007FA06F825EA080903FA06F545EA090590
:100C1000CE78282E00D14461CE78482E00D10461D0
:100C2000521C082AE3D34560BDE8F083F0B5114DAE
:100C30006B68C0F30342440D260184B2C0F3015730
:100C4000B440032F07D0C0020CD50320904083434B
:100C500043F0706209E023F07062686820F0706011
:100C6000686002E0A34343F0706201B122436A600E
:100C7000F0BD0000000001400246002092680A42D8
:100C800000D00120704741617047016170474FF605
:100C9000FF710180022181700421C1707047FEE75D
:100CA000704770477047704770B50325002400EB0C
:100CB0008001C90047F6F872B2EB910F04D900EB3E
:100CC0008000C0F38F041DE04FF6F072B2EB910F7D
:100CD00005D9042500EB8000C0F3CF0412E0124ACE
:100CE000B2EB910F05D9052500EB8000C0F30F147E
:100CF00008E00E4AB2EB910F04D9062500EB800004
:100D0000C0F34F1404B9012445F2555000F02EF8F9
:100D1000284600F01FF8204600F022F800F012F8F4
:100D2000BDE8704000F004B8E0FF0100C0FF030020
:100D300002494CF6CC40086070470000003000408B
:100D4000AFF3008002494AF6AA200860704700000D
:100D5000003000400149486070470000003000400A
:100D60000149886070470000003000400149086078
:100D7000704700000030004010B50446A189A0680B
:100D8000FFF73CFEA18A2069FFF726FE207820F0BD
:100D9000010020F0020020F0040020F0080020F004
:100DA000100020703220606010BD70B50446D4E998
:100DB0000120A189002A38D0521E6260FFF763FF2C
:100DC000A18A2069FFF758FF0025A8B160680128B3
:100DD00010D8207840F0010020F0020020F004003C
:100DE00040F0080040F0100020706560A189A06804
:100DF000FFF74BFF657070BD6078411C617005287E
:100E0000F9D36570207840F0010020F0020040F036
:100E1000040020F0080020F0100020706560A18917
:100E2000A068BDE87040FFF730BFFFF72EFF2078C5
:100E3000C007E0D1A18A2069FFF71EFF70B12078BA
:100E40000107D8D440F0010040F0020020F0040077
:100E500040F0080020F01000207070BD20780107DD
:100E6000FBD540F0010020F0020040F0040020F02B
:100E7000080020F01000207070BD002901D04160F2
:100E8000704732214160704710B517498868421C8D
:100E90008A60B0F57A7F16D9002088604FF4167406
:100EA00021461248FFF7E9FF104821461830FFF7A6
:100EB000E4FF0E4821463030FFF7DFFF0B482146A4
:100EC0004830FFF7DAFF0948FFF76FFF074818308F
:100ED000FFF76BFF05483030FFF767FF0348BDE8B9
:100EE00010404830FFF761BF0400002014010020CB
:100EF00070B51748154C846040218181154D0561FE
:100F0000C9018182FFF738FF114818308460202121
:100F10008181056149028182FFF72EFF0C48303044
:100F20008460102181810561C9028182FFF724FF5D
:100F3000074848308460802181810749016101218F
:100F40008182BDE87040FFF717BF00000008014034
:100F50001401002000100140000C0140FEE7704722
:100F600038B500F0AEFDFFF7BDFD4FF47A742046B2
:100F700000F05AFE2046FFF797FEFFF7B9FF00F09A
:100F8000A3FD00F01DFC601000220090024B1146F2
:100F9000000700F01FF838BD0000F03F10B5FFF764
:100FA000CFFE094C6069411C6161B0F57A7F05D9BB
:100FB00000206061054800F0CCFC2070FFF764FF62
:100FC000BDE8104000F060BC040000208C00002050
:100FD000704700002DE9FF5F90B0884614461D461B
:100FE0004FF0000A4FF0FF094FF0000B00270026DA
:100FF000FE4A1098D314811A4FF4806C904272D03C
:101000000EDCB0F1804F42D0F94940186ED06045F7
:101010006BD0984203D10121082000F061FACEE0A4
:10102000B1F5806F73D0B1F58E3F03D0B1F5923F2B
:1010300017D1C0E00121C80200F06EFAB8F1000F2C
:1010400009D0B8F1010F0DD0B8F1020F11D0B8F1ED
:10105000030F06D114E0DFF89CA34FF480794FF022
:10106000040BACE0DFF88CA34FF400794FF0040BD5
:10107000A5E0DFF880A34FF480694FF0040B9EE0F9
:10108000DFF870A34FF400694FF0040B97E00121E3
:10109000084600F025FAB8F1000F09D0B8F1010FA9
:1010A0000DD0B8F1020F11D0B8F1030F06D113E043
:1010B000DFF840A34FF001094FF0040B7FE0DFF8A9
:1010C00034A34FF002094FF0040B78E0DFF824A3BB
:1010D0004FF00409CB4672E0DFF818A34FF008097F
:1010E0004FF0040B6BE05CE000E02DE001210220FA
:1010F00000F0F6F9B8F1000F0AD0B8F1010F0ED0E8
:10110000B8F1020F12D0B8F1030F58D115E04DE03D
:10111000DFF8E0A24FF040094FF0040B4FE0DFF89A
:10112000D4A24FF080094FF0040B48E0DFF8C8A2CA
:101130004FF001094FF0080B41E0DFF8BCA24FF07F
:1011400002094FF0080B3AE00121042000F0C8F931
:10115000B8F1000F09D0B8F1010F0DD0B8F1020FAE
:1011600011D0B8F1030F2AD114E0DFF88CA24FF0B0
:1011700040094FF0080B22E0DFF87CA24FF0800915
:101180004FF0080B1BE0DFF870A24FF480794FF0AE
:10119000080B14E0DFF860A24FF400794FF0080B61
:1011A0000DE00121102000F09BF908E00121202032
:1011B00000F096F903E00121480300F0ADF90121A8
:1011C000084600F0A9F90121584600F0A5F9ADF84C
:1011D000349003208DF8360018208DF837000DA9C3
:1011E0005046FFF7D1FC01A800F004FADFF80C929A
:1011F0001098DFF80CB229EA00094EF6602A224660
:101200002B4600205946FFF737F8CDE90E10B9F10B
:10121000000F28D0DDF80C90DDE90E100022794B8C
:10122000FFF7D6F822D20022774B20462946FEF758
:10123000B1FF04460D464846FFF7A4F822462B4668
:10124000FFF71AF804460D46574600226F4B20461A
:101250002946FFF711F800226D4BFEF79BFFFFF7C1
:101260009EF886B293E0DDF81090D5E7DDE90E1028
:101270005B460022FFF7ACF81FD20022614B2046EC
:101280002946FEF787FF04460D464846FFF77AF8E1
:1012900022462B46FEF7F0FF04460D465746002235
:1012A0005A4B20462946FEF7E7FF0022594BFEF72E
:1012B00071FFFFF774F886B269E000225B462046B2
:1012C0002946FFF785F862D84846FFF75BF82246C3
:1012D0002B46FEF7D1FF04460D4601222046294643
:1012E000FFF739F804460D4600224B4B20462946AD
:1012F000FFF76EF80BD84FF4FA670022474B2046F1
:101300002946FEF7B9FFFFF74AF886B23FE0002210
:10131000434B20462946FFF75BF80AD8C82700222E
:101320003B4B20462946FEF7A7FFFFF738F886B269
:101330002DE000223B4B20462946FFF749F80AD80A
:1013400014270022334B20462946FEF795FFFFF76E
:1013500026F886B21BE00022334B20462946FFF7D1
:1013600037F80AD8022700227B0720462946FEF7D5
:1013700083FFFFF714F886B209E0012700225B46DD
:1013800020462946FEF778FFFFF709F886B27F1E50
:10139000ADF82870701EADF82C000024ADF82E407A
:1013A000ADF82A400AA9109800F014FE1E98464392
:1013B0004FF47A70864204D9B6FBF0F080B21E90EA
:1013C00003E01E9808B101201E906020ADF81800BF
:1013D0001E98ADF81E00ADF820400120ADF81A00AF
:1013E000B8F1000F2AD0B8F1010F1FE00010004043
:1013F00000FCFFBF00080140000C0140000001405C
:101400000000F03F0000244000005940004CED4037
:101410000000694000003440D012634100409F400A
:1014200080842E41006AF84040FFEF400BD0B8F1B5
:10143000020F0DD0B8F1030F13D10EE006A91098DA
:1014400000F0C0FC0DE006A9109800F0F3FC08E0E5
:1014500006A9109800F03AFD03E006A9109800F0E4
:101460007BFD0121109800F09EFCB8F1000F09D01F
:10147000B8F1010F0BD0B8F1020F0DD0B8F1030F86
:1014800013D10EE00821109800F0CEFC0DE00821E9
:10149000109800F011FD08E00821109800F056FDAA
:1014A00003E00821109800F089FD0121109800F058
:1014B0005DFC0121109800F069FC14B0BDE8F09FBC
:1014C00070470000054A002903D05169014351616A
:1014D000704751698143516170470000001002401C
:1014E000054A002903D0D1690143D1617047D16910
:1014F0008143D1617047000000100240054A002975
:1015000003D0116901431161704711698143116171
:101510007047000000100240054A002903D091697D
:101520000143916170479169814391617047000067
:1015300000100240054A002903D0D1680143D16060
:101540007047D1688143D1607047000000100240AD
:1015500010B500F031F84FF48034204600F0CAF89E
:1015600000F014F9012822D11020FFF79BF9022086
:10157000FFF7A4F9002000F0B3F8002000F0E2F833
:10158000A01100F0D5F84FF4E011204600F0EAF881
:10159000012000F0E1F8392000F082F80028FAD0AC
:1015A000022000F0E9F800F093F80828FBD1BDE82C
:1015B0001040FFF797BA00000B48016841F00101A5
:1015C00001604168094A114041600168084A1140C0
:1015D0000160016821F480210160416821F4FE016D
:1015E0004160002181607047001002400000FFF858
:1015F000FFFFF6FE10B5264A516801F00C01254B9D
:10160000002927D0042927D0082927D00360516852
:1016100001F0F0010909204B5C5C0168E140416088
:10162000546804F4E064240A1C5D21FA04F4846024
:10163000546804F46054E40A1B5DD940C1605268E8
:1016400002F44042920B144B1B1F9A5CB1FBF2F167
:10165000016110BD0360DAE70360D8E7516801F467
:101660007011022303EB9141536803F4803333B1CB
:1016700053689B0307D5094B59430160C7E7074BE4
:1016800059430160C3E7034B59430160BFE70000C2
:101690000010024000127A003C2A000800093D00B8
:1016A000034600205909094A01290AD002290AD013
:1016B000516A03F01F02012393400B4200D0012026
:1016C00070471168F5E7116AF3E700000010024067
:1016D0000248406800F00C00704700000010024013
:1016E000034A516821F0F001014351607047000046
:1016F000001002400C490A6822F480320A600A682D
:1017000022F480220A60B0F5803F07D0B0F5802F28
:1017100003D1086840F4A02008607047086840F4CE
:1017200080300860704700000010024070470000E1
:10173000034A516821F4E0610143516070470000A1
:1017400000100240034A516821F4605141EAC00090
:101750005060704700100240014908667047000061
:1017600000004242034B5A6822F47C1208431043A3
:101770005860704700100240034A516821F003018D
:1017800001435160704700000010024030B50B4C1F
:1017900040F2FF153120FFF783FF20706068401C86
:1017A0006060207810B96068A842F3D13120FFF75B
:1017B00077FF08B1012030BD002030BD1C000020A3
:1017C00010B50E480C4901600D4941608914018132
:1017D0004FF496440922214600F032F80748094A9E
:1017E0000C300260084A4260022202812146BDE8B4
:1017F0001040092200F024B8004800407401002085
:10180000000C014000440040000801402DE9F04177
:1018100005460E4617462C68204601F02FF810B1F9
:101820000020BDE8F081012000F036FA284600F0E3
:1018300085F83A463146204600F014FC0020F0E7D7
:1018400010B50446206800F0D7FC21896068FFF7D6
:10185000D5F861682089486110BD018940684161FF
:10186000704770B504460D460026206801F006F862
:1018700038B92046FFF7F1FF2946206800F008FF3D
:101880000646304670BD000070B52A4901F58A70E1
:10189000FFF7E7FFC0B20126274C002528B1E6700C
:1018A00024484078401C20712561E078A8B1206967
:1018B000411C2161322810D9E57025611D4822792B
:1018C00009211030FEF754FC1A49207810310870B5
:1018D000092201F58270FFF799FF1649203901F5B9
:1018E0009470FFF7BEFFC0B230B166701148203867
:1018F0004078401CA070E5606078002818D0E0684F
:10190000411CE160B0F5FA7F12D96570E5600948C5
:10191000A27809211038FEF72BFC064920781039EF
:101920000870BDE87040092201F58C70FFF76EBFAA
:1019300070BD00006C000020040000200189406898
:101940000161704770477047704770477047704734
:10195000704770B5002200F1820301784FF6FF74E2
:101960008C40A4B2002907D0491EC9B24568AD68B1
:101970000689354200D0012241B1491EC9B2C5686D
:10198000AD68068A354201D042F0020241B1491EDB
:10199000C9B24569AD68068B354201D042F00402F8
:1019A00041B1491EC9B2C569AD68068C354201D046
:1019B00042F0080241B1491EC9B2456AAD68068DC0
:1019C000354201D042F0100241B1491EC9B2C56A88
:1019D000AD68068E354201D042F0200241B1491E69
:1019E000C9B2456BAD68068F354201D042F0400266
:1019F00049B1491EC9B2C56BAD68B0F84060354207
:101A000001D042F0800249B1491EC9B2456CAD68AF
:101A1000B0F84860354201D042F4807249B1491EA5
:101A2000C9B2C56CAD68B0F85060354201D042F41F
:101A3000007249B1491EC9B2456DAD68B0F8586031
:101A4000354201D042F4806249B1491EC9B2C56D28
:101A5000AD68B0F86060354201D042F4006249B12F
:101A6000491EC9B2456EAD68B0F86860354201D014
:101A700042F4805249B1491EC9B2C56EAD68B0F892
:101A80007060354201D042F4005249B1491EC9B2DA
:101A9000456FAD68B0F87860354201D042F48042BD
:101AA00039B1C16F8968B0F88050294201D042F441
:101AB00000422243D14389B21960A0F8841008463D
:101AC00070BDFFF745BD000010B512480822027036
:101AD000114941604B150381C1608B15038241613F
:101AE00080230383C1614023038441622023038553
:101AF000C16210230386416302870849C163110351
:101B0000A0F8401000F00EF80248FFF722FF044949
:101B1000087010BD8C000020000C0140000801403E
:101B20000400002070B505462C78002C05D02989CA
:101B30006868FEF751FF641EE4B22CB1298AE86898
:101B4000FEF74AFF641EE4B22CB1298B6869FEF7E8
:101B500043FF641EE4B22CB1298CE869FEF73CFF18
:101B6000641EE4B22CB1298D686AFEF735FF641E4D
:101B7000E4B22CB1298EE86AFEF72EFF641EE4B2AF
:101B80002CB1298F686BFEF727FF641EE4B234B1D5
:101B9000B5F84010E86BFEF71FFF641EE4B234B1E5
:101BA000B5F84810686CFEF717FF641EE4B234B154
:101BB000B5F85010E86CFEF70FFF641EE4B234B1C4
:101BC000B5F85810686DFEF707FF641EE4B234B133
:101BD000B5F86010E86DFEF7FFFE641EE4B234B1A4
:101BE000B5F86810686EFEF7F7FE641EE4B234B113
:101BF000B5F87010E86EFEF7EFFE641EE4B234B183
:101C0000B5F87810686FFEF7E7FE641EE4B2002CAA
:101C100006D0B5F88010E86FBDE87040FEF7DCBE76
:101C200070BD00F071B8000010B50446002C2BD038
:101C30001648FFF7DFFC4FF0E021086920F00200B2
:101C40000861086920F001000861086920F00400BB
:101C500008610E480E4A0068B0FBF2F0604348612C
:101C6000086940F002000861086940F0010008615D
:101C700000208861086940F0020008614A6905484F
:101C80000260096989B2416010BD00008C0100202A
:101C900000127A002800002010B50446002C2DD038
:101CA0001748FFF7A7FC4FF0E020016921F002017F
:101CB0000161016921F001010161016921F0040163
:101CC00001610F494FF4FA520968B1FBF2F1416129
:101CD000016941F0010101610022826106E0816930
:101CE0000029FCD081690029FCD1641E002CF6D1AA
:101CF00004490B68436182614968016110BD0000BD
:101D00008C0100202800002000F074BE704770474E
:101D10007047704710B500F05BF9BDE81040012135
:101D2000014800F030B80000002C014010B500F070
:101D30004FF90121BDE81040880700F024B80000E9
:101D400010B500F045F9BDE810400121014800F050
:101D50001AB800000004004000F03AB9704770471C
:101D6000704770477047704700F032B9002904D0BF
:101D7000018841F0800101807047018840F27F3284
:101D8000114001807047C94301827047002904D087
:101D9000018841F0010101807047018840F2FE3264
:101DA000114001807047002905D030F8441F41F4EC
:101DB00000410180704730F8441FC1F30E010180DB
:101DC0007047000030B5028C22F001020284058CBD
:101DD0008388028B22F070020C88144325F00202E3
:101DE0000D8915434A882A43CD8885860C4DA84223
:101DF00002D00C4DA8420FD122F008054A892A438F
:101E000022F004058A882A4323F4014323F4024381
:101E10008D891D43CB892B4383800483028430BD8D
:101E2000002C014000340140028B22F008020A43DA
:101E30000283704770B5028C22F010020284028C7B
:101E40008388048B24F4E0460D884FF6FF7404EA7F
:101E50000525354322F020020E8904EA06161643B2
:101E60004A8804EA02123243CE880687104EB042F6
:101E700002D0104EB04217D122F080024E8904EAFF
:101E80000616164326F040068A8804EA02123243F8
:101E900023F4044323F408438E8904EA86061E4390
:101EA000C98904EA8103334383800583028470BDBA
:101EB000002C014000340140028B22F400624FF6F6
:101EC000FF7303EA012111430183704770B5028C4F
:101ED00022F480720284028C8388848B24F0700444
:101EE0000D88254322F400720E894FF6FF7404EA30
:101EF000062616434A8804EA02223243CE888687A1
:101F0000104EB04202D0104EB04217D122F40066FB
:101F10004A8904EA0222324322F480668A8804EA6B
:101F20000222324323F4104323F420438E8904EA2F
:101F300006161E43C98904EA01133343838085834F
:101F4000028470BD002C014000340140828B22F0DD
:101F500008020A438283704770B5028C22F48052D3
:101F60000284058C8288838B23F4E0460C884FF62C
:101F7000FF7303EA0424344325F400560D8903EA71
:101F8000053535434E8803EA06362E43CD88A0F842
:101F90004050084DA84202D0074DA84205D1C2F3D7
:101FA0000D05898903EA81122A438280848306848D
:101FB00070BD0000002C014000340140828B22F4EF
:101FC00000624FF6FF7303EA0121114381837047DA
:101FD00000F010BD028802F08F020280CA884B8890
:101FE0001A4303881A4302808A8882850A880285F8
:101FF00001228282044A904202D0044A904201D1D6
:10200000097A018670470000002C0140003401402D
:1020100000F0F0BC00F0EEBC00F0ECBC00F0EABC5C
:1020200000F0E8BCC943018070470A0A01219140D1
:10203000C94301807047002904D0818941F40051CF
:1020400081817047818921F4005181817047002A84
:1020500003D0828A0A4382827047828A8A438282BC
:10206000704700002DE9F0410E4614464FF480728F
:10207000944200D91446554B554DC11A4FF4806C0B
:102080004FF4E137984276D011DC5249411835D0EF
:1020900061457ED18089800403D439464E4800F0E2
:1020A000ABF8286AE8B3E869C0074FD071E0614532
:1020B00071D0B1F56C4F6CD18089800403D439465E
:1020C000464800F099F8A86C10B1686CC00760D160
:1020D000224631464248FEF739F8686C20F001008C
:1020E00068644FF480506860AC643D482865686C53
:1020F00040F0010068642046BDE8F08180898004DA
:1021000004D434483946404200F076F8D5F88400CB
:1021100018B1D5F88000C0073BD12246314631487E
:1021200000E013E0FEF712F855F8800F20F00100F0
:1021300028604FF0807045F87C0C6C602948E8609E
:10214000286840F0010028602046D5E72246314645
:102150002548FDF7FBFFE86920F00100E861102049
:1021600068602C622048A862E86940F00100E861DC
:102170002046C1E7FFE78089800403D4394618462A
:1021800000F03AF8194F38683D1F28B12868C00799
:1021900002D00020B0E717E0224631461448FDF790
:1021A000D5FF286820F001002860104911485839EF
:1021B00008603C600D490E4808310860286840F00E
:1021C00001002860204697E7002095E7004C00407A
:1021D0000000024000BCFFBF004800400038014042
:1021E000A0050020A0060020A00700205C040240FB
:1021F000A0080020000001102DE9F74F94B014460C
:102200004FF0000B0020019000908246002700262E
:10221000002580468146149AA64BDFF8A4C2D11A45
:102220009444CDE912C1A448DFF890E29A4256D016
:102230001FDC1299A9B34FF48062914260D18CB334
:102240008480A04DDFF88082C14617464FF40066B7
:1022500001210846FFF760F901219C48FEF7E6FCE2
:1022600001210820FFF758F901218804FFF738F908
:1022700046E04FF48062914271D0B1F56C4F3FD18E
:102280008CB10480924DF046C1464FF4007716465B
:1022900001210520FFF740F901218803FFF73CF9F0
:1022A0002EE004E017E04FF480710180EAE774B19A
:1022B0004480884DF046C1460427082601210420A9
:1022C000FFF72AF901214804FFF70AF918E04FF453
:1022D00080714180EDE74FF480718180B1E7ECB30C
:1022E000C4807D4DDFF8F481C1464FF480677E00E5
:1022F00001211120FFF710F90121C804FFF7F0F8C0
:10230000ADF8087018208DF80B0003208DF80A0036
:1023100002A94046FEF738FCADF8086048208DF869
:102320000B0002A94846FEF72FFC149800F0DEF8D7
:10233000159803900026ADF81060ADF81260ADF866
:1023400014600C20ADF81600ADF8186003A91498BD
:1023500000F058F9DDE91301564A01E009E08DE08B
:1023600091423FD009DC1298D8B1B0F5806F46D1C8
:1023700028E04FF48071C180B3E7B0F5806F7DD065
:10238000B0F56C4F3BD1DFF858B15548143001908F
:10239000801400904FF4803A01210846FFF792F82C
:1023A0002DE0DFF83CB10BF13C0B4D48283001909B
:1023B0004FF0807000904FF4801A01210846FFF71B
:1023C00081F81CE0DFF818B1ABF1280B4448143851
:1023D0000190102000904FF4807A01210846FFF709
:1023E00071F80CE0DFF8FCB03E48283801903E4818
:1023F00000904FEA305A01210220FFF763F8149F42
:102400003F1D07970895102009900A940B964FF0EE
:102410008008CDF830800D960E960F964FF4005937
:10242000CDF84090119607A95846FEF7C7F80797D0
:10243000089509960A940B96CDF830800D960E9665
:102440000F96CDF84090119607A90198FEF7B6F8BF
:1024500000215846FEF78AF801210198FEF786F818
:10246000012240211498FFF7F2FD012280211498E7
:10247000FFF7EDFD00220221584600E016E0FEF7CE
:1024800093F80098FEF766F85046FEF763F840F2BE
:10249000244400222146149800F09BF82146149809
:1024A000FFF7C3FD01211498FFF7C5FD17B0BDE884
:1024B000F08F0000004C0040300000200008014078
:1024C00000BCFFBFA0030020000C01400002300050
:1024D000A0010020A0020020A00400200010014064
:1024E00044000240580402400000011010B5244A84
:1024F000811A131590422BD00FDC224940181CD0B2
:1025000098423BD1040201212046FEF7F7FF204606
:10251000BDE810400021FEF7F1BF994223D0B1F58C
:102520006C4F2BD101218C032046FFF703F8204686
:10253000BDE810400021FEF7FDBF01214C042046FC
:10254000FEF7DCFF2046BDE810400021FEF7D6BFB5
:102550000121CC042046FEF7D1FF2046BDE8104003
:102560000021FEF7CBBF01210C052046FEF7C6FF78
:102570002046BDE810400021FEF7C0BF10BD00009E
:10258000004C004000BCFFBF0246002012880A42F7
:1025900000D00120704770B50024C1F3421301F050
:1025A0001F05012606FA05F2012B0CD0022B0DD0D7
:1025B000838A1340090A8E40008830400BB100B175
:1025C0000124204670BD83891340F3E7038A13403A
:1025D000F0E710B5C1F3421301F01F040121A1403F
:1025E000012B07D0022B07D014303AB102680A43FE
:1025F000026010BD0C30F8E71030F6E702688A433D
:10260000026010BD30B585B004460D46208A4CF6F8
:10261000FF710840E98801432182A1894EF6F31039
:102620000140A8882A8910436A890A431043A0817F
:10263000A08A4FF6FF410840A9890143A18268465C
:10264000FEF7D8FF1148844201D1039800E00298B8
:1026500000EBC00101EB001029688900B0FBF1F02C
:102660006423B0FBF3F109010A096FF018056A430E
:1026700000EB8200322202EB0010B0FBF3F000F01E
:102680000F000843208105B030BD00000038014034
:102690002DE9F04789466D4D6D4C411B2A156D4E55
:1026A000DFF8B48140F22447A84270D00CDC6B49BB
:1026B00040183ED090426BD1694D39462846FFF70D
:1026C0006AFF00286AD164E091427DD0B1F56C4F79
:1026D000F1D1644D39462846FFF75DFF28B9102136
:1026E0002846FFF751FF002852D039462846FFF709
:1026F0009CFC10212846FFF795FCA06D20F00100FE
:10270000A0655848001D0088E06D3188081A85B220
:102710002A4655494846FDF719FD534860663088FA
:10272000E0654B4801215830FDF720FF2846BDE801
:10273000F087494D39462D1F2846FFF72CFF28B951
:1027400010212846FFF720FF00287DD03946284673
:10275000FFF76BFC10212846FFF764FCE06E20F0C9
:102760000100E066B8F80000206F7188081A85B291
:102770002A463E494846FDF7E9FC3C48A067708878
:102780002067E06E40F00100E0662846CFE728E0D1
:1027900042E010212846FFF7F7FEE8B33946284605
:1027A000FFF743FC10212846FFF73CFC206B20F08C
:1027B00001002063B8F80000606BB188081A85B288
:1027C0002A462B49484600E03CE0FDF7BFFC28487C
:1027D000E063B0886063206B40F00100206328460E
:1027E000A5E739462846FFF7D6FE20B9102128462E
:1027F000FFF7CAFE80B139462846FFF716FC1021C4
:102800002846FFF70FFC1B4C206820F001002060D9
:10281000B8F80000271D00E016E03868F188081AB3
:1028200085B22A4614494846FDF790FC11491248E2
:102830000C310860F0883860206840F001002060AA
:10284000284674E7002072E7002070E7004C004043
:1028500000000240300000200444004000BCFFBFE4
:102860000048004000380140A0010020A0020020E4
:10287000A003002030040240A004002070B5002412
:102880005249534B401853494FF000022BD0B0F53A
:10289000806F4ED0B0F5006F6ED0B0F5744F18D188
:1028A000D86D80B20D88A8420CD24D89854207D1DF
:1028B000488A401C4882488A052803D34A8201E09E
:1028C00048810124986C28B1586CC00702D044F0AC
:1028D000020478E040214048FFF756FE012872D0FC
:1028E00044F002046FE0186F80B24D88A8420CD209
:1028F0008D89854207D1888A401C8882888A05286C
:1029000003D38A8201E088810124D3F8840030B1A6
:10291000D3F88000C00702D044F0020453E02B48F3
:1029200040214042FFF730FE01284CD044F0020421
:1029300049E0586B80B28D88A8420CD2CD8985427F
:1029400007D1C88A401CC882C88A052803D3CA8216
:1029500001E0C8810124186A28B1D869C00702D0F3
:1029600044F002042FE040211C48FFF70DFE01282F
:1029700029D044F0020426E01948006880B2CB88D0
:1029800098420CD20B8A834207D1088B401C0883E3
:10299000088B052803D30A8301E00882012410482C
:1029A0002830006838B10E4824300068C00702D0D3
:1029B00044F0020407E040210A48FFF7E5FD012842
:1029C00001D044F00204204670BD000000BCFFBFEF
:1029D0000000024030000020003801400048004064
:1029E00034040240004C0040704770477047FEE7D7
:1029F000FEF7B6BAFEF7D2BA704702E008C8121F57
:102A000008C1002AFAD170477047002001E001C1D7
:102A1000121F002AFBD17047FFF7EAFF05494FF06C
:102A2000807300220868401C08609842FAD30A604C
:102A3000F8E7000000000020020406080000000083
:102A40000102030401020304060708096C2A0008B6
:102A5000000000204C000000FA290008B82A0008F5
:102A60004C000020D41100000A2A000800000000D9
:102A70000000000000000000000000000000000056
:102A80000000000000000000000000000000000046
:102A90000000000000000000000000000000000036
:102AA0000000000000000000000000000000000026
:082AB00000000000000000001E
:0400000508000131BD
:00000001FF
