:020000040800F2
:10000000B0110020450100086F0D0008910C000898
:100010006D0D000821050008F32A0008000000000B
:10002000000000000000000000000000951700081C
:10003000890600080000000039130008611A000852
:10004000FD2A0008490E0008491B00088B1700080C
:10005000A1080008A51500088B06000893060008F3
:10006000970600089B0600089F0600082705000861
:100070002B0500082F050008330500083705000888
:100080003B0500083F0500081D050008EF2A000891
:10009000F12A00082305000825050008A30600082A
:1000A0004B1B0008511B00084F1B00084D1B00088C
:1000B000691B00087D1B0008951B0008950C0008B3
:1000C000930C0008990C0008970C00088F17000883
:1000D000911700081D1F0008211F0008251F000898
:1000E0008F06000889170008ED2A00089F1B0008EA
:1000F000A51B0008A31B0008A11B00081F05000882
:10010000D50800088D170008991B000893170008F0
:100110004D1E00089D1E00089B1B00089D1B00082B
:1001200043050008470500084B0500084F05000877
:10013000DFF80CD000F0E0F9004800471D2B000864
:10014000B0110020004800473101000840EA0103D7
:100150009B0703D009E008C9121F08C0042AFAD27D
:1001600003E011F8013B00F8013B521EF9D2704741
:10017000D2B201E000F8012B491EFBD270470022E9
:10018000F6E710B513460A4604461946FFF7F0FF96
:10019000204610BD2DE9FE4F81EA030404F000441F
:1001A00021F0004100944FF0000B23F0004350EA8F
:1001B00001045ED052EA03045BD0C3F30A54C1F3D6
:1001C0000A552C44A4F2F3340194A0FB0254C1F369
:1001D000130141F48011C3F3130343F4801301FBB3
:1001E000024400FB034E840A970A44EA815447EA1A
:1001F0008357A4FB076802958D0A05FB07854FEA24
:10020000932C04FB0C542705029D4FEA065847EA3D
:100210001637B5EB08056EEB070C870E920E47EA12
:10022000811742EA8312A7FB0201B6EB0B0164EBD4
:1002300000042B0D43EA0C335E1844EB1C50DA46E5
:100240005146E7FB0201C5F313044FEA0B3343EABF
:1002500014534FEA0432019C43EA0603A4F10C0450
:100260000294009CCDE900B400F0F8F803B0BDE8BA
:10027000F08F00200146F9E72DE9F04D81EA0304F3
:1002800004F0004B21F0004514464FF0000A23F023
:10029000004150EA050220D054EA01021DD0C5F306
:1002A0000A570246C5F31303C1F31300C1F30A56FC
:1002B00040F4801543F48013A7EB0608101BD646C4
:1002C00008F2FD3873EB050002D308F1010801E0E4
:1002D00092185B41B8F1000F03DA00200146BDE837
:1002E000F08D00204FF48011064684460EE0171B67
:1002F00073EB050705D3121B63EB050306434CEABA
:10030000010C49084FEA300092185B4150EA01079E
:10031000EDD152EA030012D082EA040083EA05011B
:10032000084305D0101BAB4106D20122002306E092
:1003300000224FF0004302E06FF0010253101AEB6D
:1003400006004CEB085110EB0A0041EB0B01BDE835
:10035000F04D00F074B870B521F0004303430CD0A9
:10036000C1F30A550024D5EB040564EB0403D6174A
:10037000AD1AB34102DB0020014670BD201841EBED
:10038000025170BD0EB540F2334102910021CDE91A
:1003900000110A460B4600F061F803B000BDC1F33E
:1003A0000A5210B5C1F3130140F2FF3341F480113A
:1003B0009A4201DA002010BD40F233439A42A2F281
:1003C000334203DC524200F02AF810BD904010BDC9
:1003D00030B5041E71F1000404DB4FF000444042CC
:1003E00064EB0101141E73F1000405DB1C464FF0A1
:1003F0000043524263EB0403994208BF904230BD70
:10040000202A04DB203A00FA02F1002070479140D4
:10041000C2F1200320FA03F3194390407047202AC9
:1004200004DB203A21FA02F00021704721FA02F39E
:10043000D040C2F12002914008431946704710B5E0
:10044000141E73F1000408DA401C41F100019218F7
:100450005B411A4301D120F0010010BD2DE9F04DA0
:1004600092469B4611B1B1FA81F202E0B0FA80F2F5
:1004700020329046FFF7C4FF04460F4640EA0A00C8
:1004800041EA0B0153465A46084313D0114653EA3A
:10049000010019D0C8F140025046FFF7C0FF0546E1
:1004A0000E46504659464246FFF7AAFF084305D07C
:1004B000012004E020463946BDE8F08D00200543C8
:1004C00046EAE0762C4337430A986305E40AA0EB3A
:1004D00008000022FD0A44EA47540A3002D50020F1
:1004E0000146E9E7010510196941DDE908450019F0
:1004F0006941BDE8F04DA2E7064C074D06E0E06813
:1005000040F0010394E8070098471034AC42F6D35A
:10051000FFF712FE502B0008702B00087047704741
:10052000FEE77047704700F067B800F065B800F06C
:1005300063B800F061B800F05FB800F05DB800F09B
:100540005BB800F059B800F057B800F055B800F0AB
:1005500053B80000C10002D5024908607047024943
:10056000486070470404024000000240002904D0A3
:10057000016841F0010101607047016821F001014B
:100580000160704702460020D10002D50449096885
:1005900001E004490968114200D0012070470000C1
:1005A0000004024000000240002A03D002680A430F
:1005B0000260704702688A430260704730B5026883
:1005C00047F6F0739A430C6A8B682343D1E90445DC
:1005D0002C4323438C692343CC6923434C6A234334
:1005E0008C6A234313430360CA6842600A688260CE
:1005F0004968C16030BD000010B502F07DFA1020DE
:10060000FFF7C0FF01281BD04FF480542046FFF7AE
:10061000B9FF01281DD024032046FFF7B3FF0128AE
:1006200021D0164C2046FFF7ADFF012825D12046EA
:10063000FFF790FFBDE8104000211148FFF796BF7B
:100640001020FFF787FFBDE8104000210D48FFF79D
:100650008DBF2046FFF77EFF0A480021BDE810400D
:100660002830FFF783BF2046FFF774FF05480021BD
:10067000BDE810406430FFF779BF10BD00000110E5
:10068000580402401C000240704700F0C1B800F05E
:10069000BFB800F0BDB800F0BBB800F0B9B800F0CA
:1006A000B7B800F0B5B80000014908607047000015
:1006B0001404014010B5012000F09AF84B4C20B111
:1006C000208840F00100208010BD022000F090F84A
:1006D00020B1208840F00200208010BD042000F0EE
:1006E00087F820B1208840F00400208010BD082049
:1006F00000F07EF820B1208840F00800208010BD76
:10070000102000F075F820B1208840F01000208003
:1007100010BD202000F06CF820B1208840F02000AF
:10072000208010BD402000F063F820B1208840F008
:100730004000208010BD802000F05AF820B12088B1
:1007400040F08000208010BD4FF4807000F050F821
:1007500020B1208840F48070208010BD4FF40070DC
:1007600000F046F820B1208840F40070208010BDD1
:100770004FF4806000F03CF820B1208840F48060A5
:10078000208010BD4FF4006000F032F820B12088C6
:1007900040F40060208010BD4FF4805000F028F835
:1007A00020B1208840F48050208010BD4FF40050CC
:1007B00000F01EF820B1208840F40050208010BDC9
:1007C0004FF4804000F014F820B1208840F48040BD
:1007D000208010BD4FF4004000F00AF80028F8D047
:1007E000208840F40040208010BD00001800002048
:1007F00001460020054A12680A40044B14331B6866
:100800000B4202D0002A00D00120704700040140B2
:1008100008B500200090FFF74DFF02F06DF91F486A
:10082000BDF8001001800120FFF73EFF0220FFF716
:100830003BFF0420FFF738FF0820FFF735FF1020AB
:10084000FFF732FF2020FFF72FFF4020FFF72CFF9C
:100850008020FFF729FF4FF48070FFF725FF4FF44A
:100860000070FFF721FF4FF48060FFF71DFF4FF48A
:100870000060FFF719FF4FF48050FFF715FF4FF4AA
:100880000050FFF711FF4FF48040FFF70DFFBDE868
:1008900008404FF40040FFF707BF00001800002099
:1008A0007047000004490A6822F010020A600A68D2
:1008B00002430A60704700000020024004490A68B1
:1008C00002F038020A600A6802430A6070470000BA
:1008D00000200240704710B50121084600F066FD77
:1008E0000021BDE81040012000F060BD70B50C464D
:1008F000364A811A1315D614904253D017DC344966
:10090000344D41184FF6FF721ED0994234D0B14297
:100910005AD10121102000F03BFD600401D42004D5
:1009200052D5BDE870400121112000F031BD99423F
:100930003ED0B14242D0B1F5406F45D1BDE87040E4
:100940000121080200F024BDA00405D4600403D4F2
:10095000200401D4944209D10121052000F018FDA2
:100960002846BDE87040012100F060B9BDE8704044
:100970000121042000F00CBD200703D4E00601D4BF
:10098000944209D10121092000F002FD2846BDE86A
:100990007040012100F04AB9BDE8704001210820F3
:1009A00000F0F6BCBDE870400121202000F0F0BC52
:1009B000BDE870400121402000F0EABCBDE8704075
:1009C0000121802000F0E4BC70BD00000014014053
:1009D00000F8FEBF0002300038B50446ADF8001044
:1009E00002228DF8022048228DF803202046FFF7CE
:1009F0007DFF6946204600F0C7F838BD38B504468B
:100A0000ADF8001003228DF8022010228DF803208B
:100A10002046FFF76BFF6946204600F0B5F838BD69
:100A200010B52E4A811A1315D414904237D010DC19
:100A30002B4940181FD0984227D0A0424DD1012108
:100A4000102000F0B3FC0021BDE81040102000F0A1
:100A5000ADBC99422DD0A14235D0B1F5406F3CD10B
:100A600001210C02204600F0A1FC2046BDE8104008
:100A7000002100F09BBC0121042000F097FC002124
:100A8000BDE81040042000F091BC0121082000F0D6
:100A90008DFC0021BDE81040082000F087BC01213A
:100AA000202000F083FC0021BDE81040202000F051
:100AB0007DBC0121402000F079FC0021BDE8104000
:100AC000402000F073BC0121802000F06FFC002169
:100AD000BDE81040802000F069BC10BD001401404A
:100AE00000F8FEBF2DE9F84F684600F0C9F81F4C2A
:100AF0006946204600F048F81D4D6946284600F03A
:100B000043F81C4E6946304600F03EF81A4F6946DD
:100B1000384600F039F8DFF864806946404600F056
:100B200033F8DFF85C906946484600F02DF8DFF8AE
:100B300054A06946504600F027F82046FFF770FFA2
:100B40002846FFF76DFF3046FFF76AFF3846FFF78C
:100B500067FF4046FFF764FF4846FFF761FF5046D6
:100B6000FFF75EFFFFF7B7FEBDE8F88F0008014012
:100B7000000C014000100140001401400018014029
:100B8000001C0140002001402DE9F0430022CC78F8
:100B900004F00F03E40601D58C7823430C784FF062
:100BA0000F0714F0FF0F4FF0010C1BD005680CFA73
:100BB00002F40E882640A64210D1960007FA06F8E5
:100BC00025EA080503FA06F848EA0505CE78282E36
:100BD00000D14461CE78482E00D10461521C082A0D
:100BE000E5D305600A88FF2A1ED94568002202F174
:100BF00008060CFA06F40E882640A64210D196008C
:100C000007FA06F825EA080903FA06F545EA090590
:100C1000CE78282E00D14461CE78482E00D10461D0
:100C2000521C082AE3D34560BDE8F083F0B5114DAE
:100C30006B68C0F30342440D260184B2C0F3015730
:100C4000B440032F07D0C0020CD50320904083434B
:100C500043F0706209E023F07062686820F0706011
:100C6000686002E0A34343F0706201B122436A600E
:100C7000F0BD000000000140416170470161704714
:100C80004FF6FF710180022181700421C17070470D
:100C9000FEE77047704770477047000070B5032546
:100CA000002400EB8001C90047F6F872B2EB910F07
:100CB00004D900EB8000C0F38F041DE04FF6F07202
:100CC000B2EB910F05D9042500EB8000C0F3CF04EF
:100CD00012E0124AB2EB910F05D9052500EB800016
:100CE000C0F30F1408E00E4AB2EB910F04D90625A9
:100CF00000EB8000C0F34F1404B9012445F25550B5
:100D000000F02EF8284600F01FF8204600F022F8E8
:100D100000F012F8BDE8704000F004B8E0FF0100F8
:100D2000C0FF030002494CF6CC4008607047000049
:100D300000300040AFF3008002494AF6AA20086064
:100D400070470000003000400149486070470000D3
:100D500000300040014988607047000000300040CA
:100D6000014908607047000000300040FEE770470E
:100D700070B50F24C27801260178002A2AD01A4AB9
:100D8000126802F4E062C2F5E062120AC2F10403E2
:100D9000D44045789D40827822402A4314018A0736
:100DA000D30E9C4021F0030202F1E022D2F800545D
:100DB000FF2199408D430C402543C2F80054007830
:100DC00000F01F018E404009800000F1E020C0F8D3
:100DD000006170BD01F01F0086404809800000F1ED
:100DE000E020C0F8806170BD0CED00E038B500F087
:100DF0008AFD00F009FE00F01FFC4FF4FA7000229B
:100E00000090074B1146000700F020F84FF47A7469
:100E1000204600F027FE2046BDE83840FFF73EBFE1
:100E20000000F03F10B5FFF785FF054800F0B3FC68
:100E30000449087000F090FCBDE8104001F030B8A3
:100E40006000002004000020704700002DE9FF5FD3
:100E500090B0884614461D464FF0000A4FF0FF0937
:100E60004FF0000B00270026FE4A1098D314811A79
:100E70004FF4806C904272D00EDCB0F1804F42D0C3
:100E8000F94940186ED060456BD0984203D10121DA
:100E9000082000F061FACEE0B1F5806F73D0B1F5B3
:100EA0008E3F03D0B1F5923F17D1C0E00121C802B7
:100EB00000F06EFAB8F1000F09D0B8F1010F0DD0B3
:100EC000B8F1020F11D0B8F1030F06D114E0DFF82A
:100ED0009CA34FF480794FF0040BACE0DFF88CA3B7
:100EE0004FF400794FF0040BA5E0DFF880A34FF436
:100EF00080694FF0040B9EE0DFF870A34FF40069A7
:100F00004FF0040B97E00121084600F025FAB8F1F4
:100F1000000F09D0B8F1010F0DD0B8F1020F11D0B8
:100F2000B8F1030F06D113E0DFF840A34FF0010939
:100F30004FF0040B7FE0DFF834A34FF002094FF0CD
:100F4000040B78E0DFF824A34FF00409CB4672E0ED
:100F5000DFF818A34FF008094FF0040B6BE05CE0DA
:100F600000E02DE00121022000F0F6F9B8F1000FB9
:100F70000AD0B8F1010F0ED0B8F1020F12D0B8F1BB
:100F8000030F58D115E04DE0DFF8E0A24FF0400923
:100F90004FF0040B4FE0DFF8D4A24FF080094FF080
:100FA000040B48E0DFF8C8A24FF001094FF0080B2E
:100FB00041E0DFF8BCA24FF002094FF0080B3AE025
:100FC0000121042000F0C8F9B8F1000F09D0B8F1F0
:100FD000010F0DD0B8F1020F11D0B8F1030F2AD1D3
:100FE00014E0DFF88CA24FF040094FF0080B22E02C
:100FF000DFF87CA24FF080094FF0080B1BE0DFF810
:1010000070A24FF480794FF0080B14E0DFF860A273
:101010004FF400794FF0080B0DE00121102000F093
:101020009BF908E00121202000F096F903E001215E
:10103000480300F0ADF90121084600F0A9F90121AB
:10104000584600F0A5F9ADF8349003208DF836002D
:1010500018208DF837000DA95046FFF795FD01A81F
:1010600000F004FADFF80C921098DFF80CB229EACD
:1010700000094EF6602A22462B4600205946FFF70B
:10108000FBF8CDE90E10B9F1000F28D0DDF80C9077
:10109000DDE90E100022794BFFF79AF922D20022E7
:1010A000774B20462946FFF775F804460D4648461B
:1010B000FFF768F922462B46FFF7DEF804460D4697
:1010C000574600226F4B20462946FFF7D5F80022ED
:1010D0006D4BFFF75FF8FFF762F986B293E0DDF83A
:1010E0001090D5E7DDE90E105B460022FFF770F99E
:1010F0001FD20022614B20462946FFF74BF80446D9
:101100000D464846FFF73EF922462B46FFF7B4F856
:1011100004460D46574600225A4B20462946FFF703
:10112000ABF80022594BFFF735F8FFF738F986B2D4
:1011300069E000225B4620462946FFF749F962D85C
:101140004846FFF71FF922462B46FFF795F804465D
:101150000D46012220462946FFF7FDF804460D46BC
:1011600000224B4B20462946FFF732F90BD84FF4AB
:10117000FA670022474B20462946FFF77DF8FFF724
:101180000EF986B23FE00022434B20462946FFF786
:101190001FF90AD8C82700223B4B20462946FFF7F3
:1011A0006BF8FFF7FCF886B22DE000223B4B20469F
:1011B0002946FFF70DF90AD814270022334B2046A1
:1011C0002946FFF759F8FFF7EAF886B21BE000223C
:1011D000334B20462946FFF7FBF80AD802270022A6
:1011E0007B0720462946FFF747F8FFF7D8F886B275
:1011F00009E0012700225B4620462946FFF73CF81C
:10120000FFF7CDF886B27F1EADF82870701EADF8DE
:101210002C000024ADF82E40ADF82A400AA9109801
:1012200000F0F6FD1E9846434FF47A70864204D9CA
:10123000B6FBF0F080B21E9003E01E9808B10120CA
:101240001E906020ADF818001E98ADF81E00ADF895
:1012500020400120ADF81A00B8F1000F2AD0B8F1F3
:10126000010F1FE00010004000FCFFBF000801401C
:10127000000C0140000001400000F03F000024404D
:1012800000005940004CED4000006940000034402F
:10129000D012634100409F4080842E41006AF84094
:1012A00040FFEF400BD0B8F1020F0DD0B8F1030FA3
:1012B00013D10EE006A9109800F0A2FC0DE006A9DB
:1012C000109800F0D5FC08E006A9109800F01CFD6D
:1012D00003E006A9109800F05DFD0121109800F0D0
:1012E00080FCB8F1000F09D0B8F1010F0BD0B8F1B4
:1012F000020F0DD0B8F1030F13D10EE008211098A2
:1013000000F0B0FC0DE00821109800F0F3FC08E0BC
:101310000821109800F038FD03E00821109800F033
:101320006BFD0121109800F03FFC0121109800F0A6
:101330004BFC14B0BDE8F09F70470000054A00293F
:1013400003D0516901435161704751698143516133
:101350007047000000100240054A002903D0D169FF
:101360000143D1617047D1698143D1617047000069
:1013700000100240054A002903D0116901431161A0
:1013800070471169814311617047000000100240ED
:10139000054A002903D09169014391617047916921
:1013A000814391617047000000100240054A002906
:1013B00003D0D1680143D1607047D1688143D160C7
:1013C000704700000010024010B500F031F84FF4F3
:1013D0008034204600F0CAF800F014F9012822D128
:1013E0001020FFF75FFA0220FFF768FA002000F0F4
:1013F000B3F8002000F0E2F8A01100F0D5F84FF4A7
:10140000E011204600F0EAF8012000F0E1F8392070
:1014100000F082F80028FAD0022000F0E9F800F08D
:1014200093F80828FBD1BDE81040FFF75BBB000034
:101430000B48016841F0010101604168094A11400F
:1014400041600168084A11400160016821F480216F
:101450000160416821F4FE01416000218160704714
:10146000001002400000FFF8FFFFF6FE10B5264A0C
:10147000516801F00C01254B002927D0042927D001
:10148000082927D00360516801F0F0010909204BB9
:101490005C5C0168E1404160546804F4E064240A43
:1014A0001C5D21FA04F48460546804F46054E40A76
:1014B0001B5DD940C160526802F44042920B144B4C
:1014C0001B1F9A5CB1FBF2F1016110BD0360DAE70A
:1014D0000360D8E7516801F47011022303EB9141D6
:1014E000536803F4803333B153689B0307D5094B2A
:1014F00059430160C7E7074B59430160C3E7034BFA
:1015000059430160BFE700000010024000127A005A
:10151000402B000800093D00034600205909094AF4
:1015200001290AD002290AD0516A03F01F020123BF
:1015300093400B4200D0012070471168F5E7116A13
:10154000F3E70000001002400248406800F00C0081
:101550007047000000100240034A516821F0F0017A
:101560000143516070470000001002400C490A68B6
:1015700022F480320A600A6822F480220A60B0F500
:10158000803F07D0B0F5802F03D1086840F4A02039
:1015900008607047086840F48030086070470000B9
:1015A0000010024070470000034A516821F4E061D6
:1015B000014351607047000000100240034A516827
:1015C00021F4605141EAC0005060704700100240B1
:1015D000014908667047000000004242034B5A6808
:1015E00022F47C12084310435860704700100240F8
:1015F000034A516821F00301014351607047000024
:101600000010024030B50B4C40F2FF153120FFF7BF
:1016100083FF20706068401C6060207810B96068AB
:10162000A842F3D13120FFF777FF08B1012030BD88
:10163000002030BD1000002070B5204D0821284644
:10164000FFF7DCF908212846FFF716FB01234FF4CA
:1016500096461A4631461A4800F07CFC1A4A194848
:1016600010601A4C5460C01310810822314616488D
:1016700000F04EF8144A16480C32106055600225EE
:1016800015811148082231460C3000F041F80E480F
:10169000104918300160446005810822314600F08D
:1016A00037F809480C49243001604460C9140181AD
:1016B0003146BDE87040082200F02AB8000C014015
:1016C00000500040004C0040E800002000080140AD
:1016D0000048004000440040003801402DE9F0413E
:1016E00005460E4617462C68204601F049F910B110
:1016F0000020BDE8F081012000F0ECF9284600F060
:101700003FF83A463146204600F00EFD0020F0E753
:1017100010B50446206800F0D1FD21896068FFF70C
:101720006DF961682089486110BD01894068416197
:10173000704770B504460D460026206801F020F978
:1017400038B92046FFF7F1FF2946206801F002F87A
:101750000646304670BD000010B507490748FFF740
:10176000E8FFC2B2002A06D00448BDE81040024992
:101770000C30FFF7B3BF10BD0800002000010020AF
:101780000189406801617047704770477047704732
:1017900070477047704770B5002200F182030178EE
:1017A0004FF6FF748C40A4B2002907D0491EC9B27D
:1017B0004568AD680689354200D0012241B1491E15
:1017C000C9B2C568AD68068A354201D042F002024E
:1017D00041B1491EC9B24569AD68068B354201D099
:1017E00042F0040241B1491EC9B2C569AD68068C18
:1017F000354201D042F0080241B1491EC9B2456AE2
:10180000AD68068D354201D042F0100241B1491E4B
:10181000C9B2C56AAD68068E354201D042F02002D9
:1018200041B1491EC9B2456BAD68068F354201D042
:1018300042F0400249B1491EC9B2C56BAD68B0F86B
:101840004060354201D042F0800249B1491EC9B220
:10185000456CAD68B0F84860354201D042F4807202
:1018600049B1491EC9B2C56CAD68B0F85060354287
:1018700001D042F4007249B1491EC9B2456DAD684C
:10188000B0F85860354201D042F4806249B1491E37
:10189000C9B2C56DAD68B0F86060354201D042F4A0
:1018A000006249B1491EC9B2456EAD68B0F86860C2
:1018B000354201D042F4805249B1491EC9B2C56EC9
:1018C000AD68B0F87060354201D042F4005249B1C1
:1018D000491EC9B2456FAD68B0F87860354201D095
:1018E00042F4804239B1C16F8968B0F88050294212
:1018F00001D042F400422243D14389B21960A0F8DA
:101900008410084670BDFFF75FBD70B505462C78A2
:10191000002C05D029896868FFF75EF8641EE4B2E0
:101920002CB1298AE868FFF757F8641EE4B22CB19D
:10193000298B6869FFF750F8641EE4B22CB1298C3A
:10194000E869FFF749F8641EE4B22CB1298D686A92
:10195000FFF742F8641EE4B22CB1298EE86AFFF763
:101960003BF8641EE4B22CB1298F686BFFF734F8A2
:10197000641EE4B234B1B5F84010E86BFFF72CF800
:10198000641EE4B234B1B5F84810686CFFF724F86F
:10199000641EE4B234B1B5F85010E86CFFF71CF8DF
:1019A000641EE4B234B1B5F85810686DFFF714F84E
:1019B000641EE4B234B1B5F86010E86DFFF70CF8BE
:1019C000641EE4B234B1B5F86810686EFFF704F82D
:1019D000641EE4B234B1B5F87010E86EFEF7FCFF97
:1019E000641EE4B234B1B5F87810686FFEF7F4FF06
:1019F000641EE4B2002C06D0B5F88010E86FBDE894
:101A00007040FEF7E9BF70BD10B5104806210170A7
:101A10000F4941604FF4004101810E49C1604022ED
:101A20000282416180220283C1618A15028441627F
:101A3000491501850849C1620286FFF766FF034820
:101A4000FFF7A9FE0549087010BD000060000020E6
:101A5000000C01400010014000080140040000207B
:101A600000F070B810B50446002C2BD01648FFF7D4
:101A7000FDFC4FF0E021086920F0020008610869D0
:101A800020F001000861086920F0040008610E4898
:101A90000E4A0068B0FBF2F060434861086940F00C
:101AA00002000861086940F00100086100208861B7
:101AB000086940F0020008614A6905480260096946
:101AC00089B2416010BD00001801002000127A00A8
:101AD0001C00002010B50446002C2DD01748FFF73D
:101AE000C5FC4FF0E020016921F0020101610169AC
:101AF00021F001010161016921F0040101610F4937
:101B00004FF4FA520968B1FBF2F14161016941F009
:101B1000010101610022826106E081690029FCD097
:101B200081690029FCD1641E002CF6D104490B68A0
:101B3000436182614968016110BD00001801002005
:101B40001C00002000F0D8BF7047704770477047F6
:101B500010B500F05BF9BDE810400121014800F02C
:101B600030B80000002C014010B500F04FF9012101
:101B7000BDE81040880700F024B8000010B500F060
:101B800045F9BDE810400121014800F01AB80000F5
:101B90000004004000F03AB9704770477047704742
:101BA0007047704700F032B9002904D0018841F035
:101BB000800101807047018840F27F32114001802E
:101BC0007047C94301827047002904D0018841F061
:101BD000010101807047018840F2FE32114001800E
:101BE0007047002905D030F8441F41F400410180BE
:101BF000704730F8441FC1F30E01018070470000A8
:101C000030B5028C22F001020284058C8388028B9D
:101C100022F070020C88144325F002020D8915434E
:101C20004A882A43CD8885860C4DA84202D00C4DA7
:101C3000A8420FD122F008054A892A4322F0040560
:101C40008A882A4323F4014323F402438D891D43E8
:101C5000CB892B4383800483028430BD002C014058
:101C600000340140028B22F008020A4302837047CD
:101C700070B5028C22F010020284028C8388048BDF
:101C800024F4E0460D884FF6FF7404EA0525354339
:101C900022F020020E8904EA061616434A8804EA56
:101CA00002123243CE880687104EB04202D0104E48
:101CB000B04217D122F080024E8904EA061616437C
:101CC00026F040068A8804EA0212324323F40443D1
:101CD00023F408438E8904EA86061E43C98904EA70
:101CE0008103334383800583028470BD002C01404F
:101CF00000340140028B22F400624FF6FF7303EAC6
:101D0000012111430183704770B5028C22F4807267
:101D10000284028C8388848B24F070040D88254310
:101D200022F400720E894FF6FF7404EA0626164369
:101D30004A8804EA02223243CE888687104EB04297
:101D400002D0104EB04217D122F400664A8904EA4C
:101D50000222324322F480668A8804EA0222324355
:101D600023F4104323F420438E8904EA06161E430D
:101D7000C98904EA0113334383808583028470BDDB
:101D8000002C014000340140828B22F008020A43FB
:101D90008283704770B5028C22F480520284058CD5
:101DA0008288838B23F4E0460C884FF6FF7303EAA6
:101DB0000424344325F400560D8903EA05353543E0
:101DC0004E8803EA06362E43CD88A0F84050084DD1
:101DD000A84202D0074DA84205D1C2F30D0589895A
:101DE00003EA81122A4382808483068470BD000046
:101DF000002C014000340140828B22F400624FF637
:101E0000FF7303EA012111438183704700F074BE20
:101E1000028802F08F020280CA884B881A43038826
:101E20001A4302808A8882850A880285012282827A
:101E3000044A904202D0044A904201D1097A0186B4
:101E400070470000002C01400034014000F054BEF7
:101E500070B50446104D40F225563146284600F034
:101E6000FCFB48B1284600F06BFD20703146284647
:101E700000F05DF8022070BD40F22664214628463D
:101E800000F0EBFB28B12146284600F050F8012075
:101E900070BD002070BD00000050004000F02CBE5E
:101EA00070B51A4C6078401C6070E01CFFF7D0FFE2
:101EB0000025022806D1164AA078E1781154401C6A
:101EC000A0706570607802281ED3A178114EA9B168
:101ED00008213046FEF7D2FE0D49A27801F110002C
:101EE000FEF734F90A49A27810310B4800F02CFDB6
:101EF0000748FF22A1781030FEF73AF90821304652
:101F0000FEF7BAFE6570A57070BD000004000020E9
:101F100040000020000C01400050004000F0ECBDEB
:101F200000F0EABD00F0E8BDC943018070470A0A2D
:101F300001219140C94301807047002904D0818963
:101F400041F4005181817047818921F400518181E0
:101F5000704700002DE9FF4F87B08046002700261C
:101F60000025002400206149DFF884A14FF4806936
:101F7000884512D101210846FFF70AFA0121042001
:101F8000FFF706FA01218803FFF702FA4FF4007702
:101F90004E4655462C46252063E05649884511D1CA
:101FA00001210846FFF7F4F901210420FFF7F0F9B9
:101FB00001214804FFF7D0F90427082655462C468E
:101FC00026204EE04C494FF4006B884515D1012185
:101FD0000846FFF7DDF901210820FFF7D9F90121B3
:101FE0008804FFF7B9F901214448FEF71FFE4F4668
:101FF0005E46434D2C46272033E04249DFF808A1D6
:10200000884511D101210846FFF7C2F901211020AE
:10201000FFF7BEF90121C804FFF79EF94F465E465F
:1020200055462C4634201CE03849884519D10121F9
:102030000846FFF7ADF901211020FFF7A9F90121AA
:102040002020FFF7A5F901210846FFF7A1F901219A
:102050000805FFF781F94FF48057042655462C4CAC
:1020600035208DF8180009988DF819000A988DF818
:102070001A0001208DF81B0006A8FEF779FEADF8C6
:10208000047018208DF8070003208DF8060001A9C0
:102090002846FEF779FDADF8046004208DF80700AE
:1020A00001A92046FEF770FD404600F081FA08982D
:1020B00002900020ADF80C00ADF80E00ADF8100055
:1020C0000C21ADF81210ADF8140002A9404600F042
:1020D000FBFA012240F22551404600F0DCFA0121D2
:1020E0004046FFF72AFF0BB0BDE8F08F00380140F3
:1020F0000008014000440040004800400002300059
:10210000000C0140004C0040001001400050004015
:1021100000140140002A03D0828A0A438282704759
:10212000828A8A43828270472DE9F0410E46144626
:102130004FF48072944200D91446554B554DC11A44
:102140004FF4806C4FF4E137984276D011DC52495D
:10215000411835D061457ED18089800403D4394649
:102160004E4800F0ABF8286AE8B3E869C0074FD0E2
:1021700071E0614571D0B1F56C4F6CD180898004FC
:1021800003D43946464800F099F8A86C10B1686C41
:10219000C00760D1224631464248FDF7D7FF686C40
:1021A00020F0010068644FF480506860AC643D48E2
:1021B0002865686C40F0010068642046BDE8F08145
:1021C0008089800404D434483946404200F076F8CF
:1021D000D5F8840018B1D5F88000C0073BD122465D
:1021E0003146314800E013E0FDF7B0FF55F8800FAD
:1021F00020F0010028604FF0807045F87C0C6C6086
:102200002948E860286840F0010028602046D5E7AA
:10221000224631462548FDF799FFE86920F0010084
:10222000E861102068602C622048A862E86940F0EC
:102230000100E8612046C1E7FFE78089800403D4FC
:102240003946184600F03AF8194F38683D1F28B152
:102250002868C00702D00020B0E717E022463146C8
:102260001448FDF773FF286820F00100286010492A
:102270001148583908603C600D490E480831086023
:10228000286840F001002860204697E7002095E785
:10229000004C00400000024000BCFFBF004800406E
:1022A000003801402C0500202C0600202C070020BF
:1022B0005C0402402C080020000001102DE9F74FBB
:1022C00094B014464FF0000B00200190009082461D
:1022D00000270026002580468146149AA64BDFF889
:1022E000A4C2D11A9444CDE912C1A448DFF890E207
:1022F0009A4256D01FDC1299A9B34FF480629142E2
:1023000060D18CB38480A04DDFF88082C14617462F
:102310004FF4006601210846FFF73AF801219C4876
:10232000FEF784FC01210820FFF732F80121880420
:10233000FFF712F846E04FF48062914271D0B1F598
:102340006C4F3FD18CB10480924DF046C1464FF4A2
:102350000077164601210520FFF71AF801218803AE
:10236000FFF716F82EE004E017E04FF480710180CB
:10237000EAE774B14480884DF046C1460427082638
:1023800001210420FFF704F801214804FEF7E4FFCF
:1023900018E04FF480714180EDE74FF48071818047
:1023A000B1E7ECB3C4807D4DDFF8F481C1464FF452
:1023B00080677E0001211120FEF7EAFF0121C80499
:1023C000FEF7CAFFADF8087018208DF80B00032047
:1023D0008DF80A0002A94046FEF7D6FBADF808606A
:1023E00048208DF80B0002A94846FEF7CDFB149853
:1023F00000F0DEF8159803900026ADF81060ADF8F7
:102400001260ADF814600C20ADF81600ADF818603D
:1024100003A9149800F058F9DDE91301564A01E0C8
:1024200009E08DE091423FD009DC1298D8B1B0F5B7
:10243000806F46D128E04FF48071C180B3E7B0F5DA
:10244000806F7DD0B0F56C4F3BD1DFF858B1554867
:1024500014300190801400904FF4803A0121084616
:10246000FEF76CFF2DE0DFF83CB10BF13C0B4D4863
:10247000283001904FF0807000904FF4801A0121B5
:102480000846FEF75BFF1CE0DFF818B1ABF1280B44
:10249000444814380190102000904FF4807A0121B4
:1024A0000846FEF74BFF0CE0DFF8FCB03E4828384A
:1024B00001903E4800904FEA305A01210220FEF779
:1024C0003DFF149F3F1D07970895102009900A941F
:1024D0000B964FF08008CDF830800D960E960F9633
:1024E0004FF40059CDF84090119607A95846FEF7D1
:1024F00065F80797089509960A940B96CDF83080F1
:102500000D960E960F96CDF84090119607A901985A
:10251000FEF754F800215846FEF728F801210198EB
:10252000FEF724F8012240211498FFF7F3FD012261
:1025300080211498FFF7EEFD00220221584600E0AA
:1025400016E0FEF731F80098FEF704F85046FEF763
:1025500001F840F2244400222146149800F09BF830
:1025600021461498FFF7E3FC01211498FFF7E5FCDE
:1025700017B0BDE8F08F0000004C004024000020A0
:102580000008014000BCFFBF2C030020000C0140EC
:10259000000230002C0100202C0200202C0400201E
:1025A00000100140440002405804024000000110A5
:1025B00010B5244A811A131590422BD00FDC224902
:1025C00040181CD098423BD1040201212046FEF75E
:1025D000D1FE2046BDE810400021FEF7CBBE994257
:1025E00023D0B1F56C4F2BD101218C032046FEF78F
:1025F000DDFE2046BDE810400021FEF7D7BE0121D8
:102600004C042046FEF7B6FE2046BDE810400021EF
:10261000FEF7B0BE0121CC042046FEF7ABFE2046FB
:10262000BDE810400021FEF7A5BE01210C052046A3
:10263000FEF7A0FE2046BDE810400021FEF79ABE3E
:1026400010BD0000004C004000BCFFBF024600204F
:1026500012880A4200D00120704770B50024C1F3EF
:10266000421301F01F05012606FA05F2012B0CD0DA
:10267000022B0DD0838A1340090A8E400088304017
:102680000BB100B10124204670BD83891340F3E7EC
:10269000038A1340F0E710B5C1F3421301F01F04A1
:1026A0000121A140012B07D0022B07D014303AB1F1
:1026B00002680A43026010BD0C30F8E71030F6E7FC
:1026C00002688A43026010BD30B585B004460D46ED
:1026D000208A4CF6FF710840E98801432182A189D4
:1026E0004EF6F3100140A8882A8910436A890A43EC
:1026F0001043A081A08A4FF6FF410840A9890143F9
:10270000A1826846FEF7B2FE1148844201D10398C7
:1027100000E0029800EBC00101EB0010296889007D
:10272000B0FBF1F06423B0FBF3F109010A096FF08B
:1027300018056A4300EB8200322202EB0010B0FB66
:10274000F3F000F00F000843208105B030BD000019
:10275000003801402DE9F04789466D4D6D4C411B15
:102760002A156D4EDFF8B48140F22447A84270D09C
:102770000CDC6B4940183ED090426BD1694D394614
:102780002846FFF76AFF00286AD164E091427DD0B5
:10279000B1F56C4FF1D1644D39462846FFF75DFF26
:1027A00028B910212846FFF751FF002852D039469A
:1027B0002846FFF7BCFB10212846FFF7B5FBA06DAC
:1027C00020F00100A0655848001D0088E06D3188A8
:1027D000081A85B22A4655494846FDF7B7FC5348C2
:1027E00060663088E0654B4801215830FDF7BEFE39
:1027F0002846BDE8F087494D39462D1F2846FFF78A
:102800002CFF28B910212846FFF720FF00287DD093
:1028100039462846FFF78BFB10212846FFF784FB3B
:10282000E06E20F00100E066B8F80000206F7188CB
:10283000081A85B22A463E494846FDF787FC3C48BF
:10284000A06770882067E06E40F00100E0662846CF
:10285000CFE728E042E010212846FFF7F7FEE8B373
:1028600039462846FFF763FB10212846FFF75CFB3B
:10287000206B20F001002063B8F80000606BB18885
:10288000081A85B22A462B49484600E03CE0FDF78D
:102890005DFC2848E063B0886063206B40F0010075
:1028A00020632846A5E739462846FFF7D6FE20B91B
:1028B00010212846FFF7CAFE80B139462846FFF7A7
:1028C00036FB10212846FFF72FFB1B4C206820F019
:1028D00001002060B8F80000271D00E016E038680D
:1028E000F188081A85B22A4614494846FDF72EFC9D
:1028F000114912480C310860F0883860206840F0B7
:1029000001002060284674E7002072E7002070E78D
:10291000004C00400000024024000020044400401D
:1029200000BCFFBF00480040003801402C010020DF
:102930002C0200202C030020300402402C04002034
:102940008088C0F3080070472DE9F04107460D4626
:10295000164600240CE080213846FFF777FE012858
:10296000F9D12978384600F007F86D1C641CA4B230
:10297000B442F0D3BDE8F081C1F308018180704713
:1029800070B500245249534B401853494FF0000290
:102990002BD0B0F5806F4ED0B0F5006F6ED0B0F593
:1029A000744F18D1D86D80B20D88A8420CD24D89D1
:1029B000854207D1488A401C4882488A052803D3AB
:1029C0004A8201E048810124986C28B1586CC00704
:1029D00002D044F0020478E040214048FFF736FE80
:1029E000012872D044F002046FE0186F80B24D8865
:1029F000A8420CD28D89854207D1888A401C8882E2
:102A0000888A052803D38A8201E088810124D3F8CB
:102A1000840030B1D3F88000C00702D044F0020433
:102A200053E02B4840214042FFF710FE01284CD0D4
:102A300044F0020449E0586B80B28D88A8420CD261
:102A4000CD89854207D1C88A401CC882C88A05281A
:102A500003D3CA8201E0C8810124186A28B1D86969
:102A6000C00702D044F002042FE040211C48FFF7C9
:102A7000EDFD012829D044F0020426E01948006841
:102A800080B2CB8898420CD20B8A834207D1088B44
:102A9000401C0883088B052803D30A8301E00882C1
:102AA000012410482830006838B10E4824300068EE
:102AB000C00702D044F0020407E040210A48FFF7B3
:102AC000C5FD012801D044F00204204670BD00007D
:102AD00000BCFFBF0000024024000020003801407D
:102AE0000048004034040240004C004070477047EA
:102AF0007047FEE7FEF77AB9FEF794B9704702E037
:102B000008C8121F08C1002AFAD170477047002078
:102B100001E001C1121F002AFBD17047FFF7EAFF55
:102B200005494FF0807300220868401C08609842F5
:102B3000FAD30A60F8E7000000000020020406084B
:102B40000000000001020304010203040607080953
:102B5000702B00080000002040000000FE2A000842
:102B6000B02B000840000020701100000E2B000860
:102B70000000000000000000000000000000000055
:102B80000000000000000000000000000000000045
:102B90000000000000000000000000000000000035
:102BA0000000000000000000000000000000000025
:0400000508000131BD
:00000001FF
