:020000040800F2
:10000000F80A0020450100083B130008F11200081F
:1000100039130008550500086B3000080000000087
:100020000000000000000000000000006122000845
:10003000A90B000800000000411B0008672500080C
:100040007530000851160008BD2600085722000828
:10005000C10D0008AD1D0008AB0B0008B30B000874
:10006000B70B0008BB0B0008BF0B0008410A0008D3
:10007000450A0008490A00084D0A0008510A00080C
:10008000550A0008590A00081D05000867300008D5
:10009000693000085705000859050008C30B00081F
:1000A000BF260008C5260008C3260008C126000890
:1000B000DD260008F126000809270008F5120008CF
:1000C000F3120008F9120008F71200085B2200087A
:1000D0005D220008C9290008CD290008D12900089F
:1000E000AF0B0008552200086530000813270008F0
:1000F0001927000817270008152700081F05000802
:10010000F50D0008592200080D2700085F2200089D
:10011000C1290008C52900080F2700081127000879
:100120005D0A0008610A0008650A0008690A0008FB
:10013000DFF80CD000F0E0F90048004795300008E7
:10014000F80A0020004800473101000840EA010396
:100150009B0703D009E008C9121F08C0042AFAD27D
:1001600003E011F8013B00F8013B521EF9D2704741
:10017000D2B201E000F8012B491EFBD270470022E9
:10018000F6E710B513460A4604461946FFF7F0FF96
:10019000204610BD2DE9FE4F81EA030404F000441F
:1001A00021F0004100944FF0000B23F0004350EA8F
:1001B00001045ED052EA03045BD0C3F30A54C1F3D6
:1001C0000A552C44A4F2F3340194A0FB0254C1F369
:1001D000130141F48011C3F3130343F4801301FBB3
:1001E000024400FB034E840A970A44EA815447EA1A
:1001F0008357A4FB076802958D0A05FB07854FEA24
:10020000932C04FB0C542705029D4FEA065847EA3D
:100210001637B5EB08056EEB070C870E920E47EA12
:10022000811742EA8312A7FB0201B6EB0B0164EBD4
:1002300000042B0D43EA0C335E1844EB1C50DA46E5
:100240005146E7FB0201C5F313044FEA0B3343EABF
:1002500014534FEA0432019C43EA0603A4F10C0450
:100260000294009CCDE900B400F0F8F803B0BDE8BA
:10027000F08F00200146F9E72DE9F04D81EA0304F3
:1002800004F0004B21F0004514464FF0000A23F023
:10029000004150EA050220D054EA01021DD0C5F306
:1002A0000A570246C5F31303C1F31300C1F30A56FC
:1002B00040F4801543F48013A7EB0608101BD646C4
:1002C00008F2FD3873EB050002D308F1010801E0E4
:1002D00092185B41B8F1000F03DA00200146BDE837
:1002E000F08D00204FF48011064684460EE0171B67
:1002F00073EB050705D3121B63EB050306434CEABA
:10030000010C49084FEA300092185B4150EA01079E
:10031000EDD152EA030012D082EA040083EA05011B
:10032000084305D0101BAB4106D20122002306E092
:1003300000224FF0004302E06FF0010253101AEB6D
:1003400006004CEB085110EB0A0041EB0B01BDE835
:10035000F04D00F074B870B521F0004303430CD0A9
:10036000C1F30A550024D5EB040564EB0403D6174A
:10037000AD1AB34102DB0020014670BD201841EBED
:10038000025170BD0EB540F2334102910021CDE91A
:1003900000110A460B4600F061F803B000BDC1F33E
:1003A0000A5210B5C1F3130140F2FF3341F480113A
:1003B0009A4201DA002010BD40F233439A42A2F281
:1003C000334203DC524200F02AF810BD904010BDC9
:1003D00030B5041E71F1000404DB4FF000444042CC
:1003E00064EB0101141E73F1000405DB1C464FF0A1
:1003F0000043524263EB0403994208BF904230BD70
:10040000202A04DB203A00FA02F1002070479140D4
:10041000C2F1200320FA03F3194390407047202AC9
:1004200004DB203A21FA02F00021704721FA02F39E
:10043000D040C2F12002914008431946704710B5E0
:10044000141E73F1000408DA401C41F100019218F7
:100450005B411A4301D120F0010010BD2DE9F04DA0
:1004600092469B4611B1B1FA81F202E0B0FA80F2F5
:1004700020329046FFF7C4FF04460F4640EA0A00C8
:1004800041EA0B0153465A46084313D0114653EA3A
:10049000010019D0C8F140025046FFF7C0FF0546E1
:1004A0000E46504659464246FFF7AAFF084305D07C
:1004B000012004E020463946BDE8F08D00200543C8
:1004C00046EAE0762C4337430A986305E40AA0EB3A
:1004D00008000022FD0A44EA47540A3002D50020F1
:1004E0000146E9E7010510196941DDE908450019F0
:1004F0006941BDE8F04DA2E7064C074D06E0E06813
:1005000040F0010394E8070098471034AC42F6D35A
:10051000FFF712FEC8300008E83000087047704747
:1005200005480449016080228280816040218181E8
:1005300000F0E3BE000C0140D002002010B5002204
:10054000002303E0845C6340521C92B28A42F9D3D8
:10055000D8B210BDFEE7704770478188006800F090
:1005600036BE8188006800F030BE000070B51248C9
:10057000104901608A1482808160D3008381016107
:100580009200828281614C14848368300B4D056037
:100590008D15858081608381016182828161848380
:1005A000683800F0E6F8BDE870400348683000F0B5
:1005B000E0B80000000C0140D80100200008014014
:1005C000401E411CFCD1704770B5054600BF00BFFE
:1005D00000BF00BF00BF00BF284600F0DFF930B108
:1005E0004FF0FF3000BF00BF00BF00BF70BD284606
:1005F00000F0D0F9284600F082F9284600F07FF993
:100600000406284600F07BF904EB0044284600F07D
:1006100076F904EB0024284600F071F92044E1E764
:1006200010B5B0F86440210712D5016B4A1C0FD0F9
:10063000826A6AB1438C5BB1914209D924F0080403
:10064000A0F86440891AB1FBF3F14163084610BD7C
:100650004FF0FF3010BDB0F8642051070AD5016B90
:100660004B1C07D031B122F00402A0F86420816253
:10067000084670474FF0FF30704770B5B0F86440DF
:10068000E1061CD5036B591C19D0826ABAB1458C9E
:10069000416BA5B10525B1FBF5F61E4496420ED37C
:1006A00069B124F01004A0F86440B1FBF5F49A1A83
:1006B0002244B2FBF1F189B24184084670BD4FF08B
:1006C000FF3070BD2DE9F04704464FF0FF39206E32
:1006D000411C2166052833D3A58C04F1300604F1B2
:1006E00038074FF00008C4F86080204600F0F0F8AA
:1006F000E062411C20D047F825008DB1691E57F8F3
:100700002110884201D9401A00E0081AB0F5C87FCC
:1007100006D9C6F80090A4F824800020BDE8F08730
:10072000A08C401CA084092D0AD3204600F00AF8B2
:100730003060A4F82480F1E74846C6F80090EDE761
:100740004846EBE770B500F13804858C2046294611
:1007500000F047FD06462946204600F050FDB0FB5C
:10076000F5F0B0F5C86F01D2304670BD4FF0FF30E4
:1007700070BD70B5044604F16405A188206800F0DE
:10078000DFFBA189A06800F0DBFBA18BA06900F072
:10079000D7FBA18A206900F0AFFB204600F004F8E7
:1007A0000020286070BD000070B5064600250024BA
:1007B0003046FFF7D6FEC82001F010FFFF2130467B
:1007C00000F0FEF8052001F009FF6D1CEDB20F2DC1
:1007D000F4D3322001F002FFFE21304600F0F0F8A1
:1007E000322001F0FBFE4FF000520321304600F0B2
:1007F0000DF9322001F0F2FE0021304600F0E0F861
:10080000322001F0EBFE00220321304600F0FEF81A
:10081000322001F0E3FE254D0B21304600F092F826
:100820002860322001F0DAFE2868C00004D5214695
:10083000641CA4B26429EFD9642C35D24FF08872BD
:100840002A600221304600F0E1F80B21304600F02A
:1008500079F828600921304600F074F828600A21F0
:10086000304600F06FF84FF400522A600321304602
:1008700000F0CCF88521304600F0A0F88621304603
:1008800000F09CF80A21304600F05CF82860C02196
:10089000304600F093F84FF4FA70FFF791FE3046BF
:1008A000BDE87040FFF759BE70BD00003400002065
:1008B00010B504462046FFF705FF2046FFF7CBFEA4
:1008C0002046FFF7ADFE2046BDE81040FFF7D5BE3D
:1008D00070B505464FF0FF342846FFF742FE284624
:1008E00000F05CF830B92846FFF76EFE040A642079
:1008F00001F074FE2846FFF730FE204670BD70B54B
:1009000006460024304600F045F8002500BF00BF31
:10091000304600F033F800BF00BF00BF00BF6006E4
:10092000040E304600F03AF808B1641CE4B23046D8
:1009300000F028F800BF00BF6D1CEDB2082DE5D314
:10094000204670BD38B5054600200090284600F0CE
:1009500037F82846FFF7D3FF04062846FFF7CFFFF6
:1009600004EB00442846FFF7CAFF04EB00242846A6
:10097000FFF7C5FF20440090009838BD818B806947
:1009800000F025BC818B806900F01FBC81898068E4
:1009900000F01DBC8189806800F017BC818A006965
:1009A00000F00CBC10B50448FFF782FF0248BDE818
:1009B00010406830FFF77CBFD8010020AFF3008003
:1009C0002DE9F04107460D4601260024280603D5EF
:1009D0003846FFF7DBFF02E03846FFF7DBFF304623
:1009E00001F034FE3846FFF7C9FF304601F02EFE15
:1009F0003846FFF7C7FF304601F028FE6806050EAF
:100A0000641CE4B2082CE1D3BDE8F08170B5054662
:100A100014462846FFF7D4FF210E2846FFF7D0FFE3
:100A2000C4F307412846FFF7CBFFC4F3072128464C
:100A3000FFF7C6FFE1B22846BDE87040FFF7C0BF30
:100A400000F06AB800F068B800F066B800F064B86A
:100A500000F062B800F060B800F05EB800F05CB87A
:100A600000F05AB800F058B800F056B8C10002D5EE
:100A70000249086070470249486070470404024018
:100A800000000240002904D0016841F0010101602A
:100A90007047016821F0010101607047406880B231
:100AA0007047000002460020D10002D504490968C1
:100AB00001E004490968114200D00120704700009C
:100AC0000004024000000240002A03D002680A43EA
:100AD0000260704702688A430260704730B502685E
:100AE00047F6F0739A430C6A8B682343D1E90445B7
:100AF0002C4323438C692343CC6923434C6A23430F
:100B00008C6A234313430360CA6842600A688260A8
:100B10004968C16030BD000010B502F0A9FA10208C
:100B2000FFF7C0FF01281BD04FF480542046FFF789
:100B3000B9FF01281DD024032046FFF7B3FF012889
:100B400021D0164C2046FFF7ADFF012825D12046C5
:100B5000FFF78CFFBDE8104000211148FFF792BF5E
:100B60001020FFF783FFBDE8104000210D48FFF77C
:100B700089BF2046FFF77AFF0A480021BDE81040F0
:100B80002830FFF77FBF2046FFF770FF05480021A0
:100B9000BDE810406430FFF775BF10BD00000110C4
:100BA000580402401C000240704700F0C1B800F039
:100BB000BFB800F0BDB800F0BBB800F0B9B800F0A5
:100BC000B7B800F0B5B800000149086070470000F0
:100BD0001404014010B5012000F09AF84B4C20B1EC
:100BE000208840F00100208010BD022000F090F825
:100BF00020B1208840F00200208010BD042000F0C9
:100C000087F820B1208840F00400208010BD082023
:100C100000F07EF820B1208840F00800208010BD50
:100C2000102000F075F820B1208840F010002080DE
:100C300010BD202000F06CF820B1208840F020008A
:100C4000208010BD402000F063F820B1208840F0E3
:100C50004000208010BD802000F05AF820B120888C
:100C600040F08000208010BD4FF4807000F050F8FC
:100C700020B1208840F48070208010BD4FF40070B7
:100C800000F046F820B1208840F40070208010BDAC
:100C90004FF4806000F03CF820B1208840F4806080
:100CA000208010BD4FF4006000F032F820B12088A1
:100CB00040F40060208010BD4FF4805000F028F810
:100CC00020B1208840F48050208010BD4FF40050A7
:100CD00000F01EF820B1208840F40050208010BDA4
:100CE0004FF4804000F014F820B1208840F4804098
:100CF000208010BD4FF4004000F00AF80028F8D022
:100D0000208840F40040208010BD00001400002026
:100D100001460020054A12680A40044B14331B6840
:100D20000B4202D0002A00D001207047000401408D
:100D300008B500200090FFF74DFF02F099F91F4819
:100D4000BDF8001001800120FFF73EFF0220FFF7F1
:100D50003BFF0420FFF738FF0820FFF735FF102086
:100D6000FFF732FF2020FFF72FFF4020FFF72CFF77
:100D70008020FFF729FF4FF48070FFF725FF4FF425
:100D80000070FFF721FF4FF48060FFF71DFF4FF465
:100D90000060FFF719FF4FF48050FFF715FF4FF485
:100DA0000050FFF711FF4FF48040FFF70DFFBDE843
:100DB00008404FF40040FFF707BF00001400002078
:100DC0007047000004490A6822F010020A600A68AD
:100DD00002430A60704700000020024004490A688C
:100DE00002F038020A600A6802430A607047000095
:100DF00000200240704710B50121084600F0DAFEDD
:100E00000021BDE81040012000F0D4BE70B50C46B2
:100E1000364A811A1315D614904253D017DC344940
:100E2000344D41184FF6FF721ED0994234D0B14272
:100E30005AD10121102000F0AFFE600401D420043B
:100E400052D5BDE870400121112000F0A5BE9942A5
:100E50003ED0B14242D0B1F5406F45D1BDE87040BF
:100E60000121080200F098BEA00405D4600403D458
:100E7000200401D4944209D10121052000F08CFE08
:100E80002846BDE87040012100F072B9BDE870400D
:100E90000121042000F080BE200703D4E00601D425
:100EA000944209D10121092000F076FE2846BDE8D0
:100EB0007040012100F05CB9BDE8704001210820BC
:100EC00000F06ABEBDE870400121202000F064BE41
:100ED000BDE870400121402000F05EBEBDE87040DA
:100EE0000121802000F058BE70BD000000140140B8
:100EF00000F8FEBF0002300038B50446ADF800101F
:100F000002228DF8022048228DF803202046FFF7A8
:100F10007DFF6946204600F0D9F838BD38B5044653
:100F2000ADF8001002228DF8022010228DF8032067
:100F30002046FFF76BFF6946204600F0C7F838BD32
:100F400038B50446ADF8001003228DF802201022B7
:100F50008DF803202046FFF759FF6946204600F030
:100F6000B5F838BD10B52E4A811A1315D414904225
:100F700037D010DC2B4940181FD0984227D0A04210
:100F80004DD10121102000F015FE0021BDE81040D8
:100F9000102000F00FBE99422DD0A14235D0B1F5FE
:100FA000406F3CD101210C02204600F003FE204698
:100FB000BDE81040002100F0FDBD0121042000F03B
:100FC000F9FD0021BDE81040042000F0F3BD01212F
:100FD000082000F0EFFD0021BDE81040082000F0DF
:100FE000E9BD0121202000F0E5FD0021BDE8104011
:100FF000202000F0DFBD0121402000F0DBFD0021BA
:10100000BDE81040402000F0D5BD0121802000F057
:10101000D1FD0021BDE81040802000F0CBBD10BD07
:101020000014014000F8FEBF2DE9F84F684600F0BB
:10103000D0F81F4C6946204600F048F81D4D69461F
:10104000284600F043F81C4E6946304600F03EF852
:101050001A4F6946384600F039F8DFF8648069466F
:10106000404600F033F8DFF85C906946484600F0EF
:101070002DF8DFF854A06946504600F027F82046C6
:10108000FFF770FF2846FFF76DFF3046FFF76AFF56
:101090003846FFF767FF4046FFF764FF4846FFF713
:1010A00061FF5046FFF75EFFFFF7A5FEBDE8F88F32
:1010B00000080140000C01400010014000140140F4
:1010C00000180140001C0140002001402DE9F043C0
:1010D0000022CC7804F00F03E40601D58C7823437A
:1010E0000C784FF00F0714F0FF0F4FF0010C1BD0DE
:1010F00005680CFA02F40E882640A64210D196002C
:1011000007FA06F825EA080503FA06F848EA05058D
:10111000CE78282E00D14461CE78482E00D10461CB
:10112000521C082AE5D305600A88FF2A1ED94568A3
:10113000002202F108060CFA06F40E882640A642A8
:1011400010D1960007FA06F825EA080903FA06F511
:1011500045EA0905CE78282E00D14461CE78482E84
:1011600000D10461521C082AE3D34560BDE8F08336
:10117000F0B5114D6B68C0F30342440D260184B2F3
:10118000C0F30157B440032F07D0C0020CD5032091
:101190009040834343F0706209E023F07062686816
:1011A00020F07060686002E0A34343F0706201B118
:1011B00022436A60F0BD00000000014002460020AA
:1011C00092680A4200D00120704741617047016176
:1011D00070474FF6FF710180022181700421C170B8
:1011E000704710B503461868012205E053F8224005
:1011F00020444008521C92B28A42F7D310BDF0B589
:1012000006460F460025002439463046FFF7E9FF21
:101210000DE056F82520824203D3121A02FB024445
:1012200003E0111A821A01FB02446D1CADB2BD42EB
:10123000EFD3002C00DA64422046F0BD401E411C72
:10124000FCD1704710B50446A1882068FFF778FEEE
:10125000A189A068FFF774FEA18A2069BDE810404B
:10126000FFF76EBE818A0069FFF7B1BF818A00690E
:10127000FFF7ABBF81898068FFF7A9BF81898068CC
:10128000FFF7A3BF81880068FFF7A1BF81880068CE
:10129000FFF79BBF2DE9F04107460D46002441F2C0
:1012A00088363846FFF7E6FF3046FFF7C7FF2806C7
:1012B00003D53846FFF7EAFF02E03846FFF7E2FFC2
:1012C0006806050E3046FFF7B9FF3846FFF7D6FF30
:1012D0003046FFF7B3FF641CE4B2082CE1D3BDE84D
:1012E000F0810000014A515CFFF7D4BF2A000020C2
:1012F000FEE7704770477047704710B50446A188F5
:101300002068FFF71DFEA189A068FFF719FEA189DB
:10131000A068FFF75CFFA1882068BDE81040FFF7D8
:1013200056BF00F001B8000002494AF6AA20086042
:101330007047000000300040FEE770472DE9F041A3
:101340003A4E727AB47906F1A1050027781EAB6A8D
:10135000296B232C24D0252C0FD0262C17D0272CFA
:1013600061D14A1C5FD0CA1AF1796984C832B2FBD4
:10137000F1F169637772286338E0012A36D0022AD6
:1013800051D14A1C4FD0A962777228632EE0012AFE
:101390002CD0022A47D1491C45D07772286325E01A
:1013A000224CA134012A646B0ED0022A3BD1491C85
:1013B00039D07772E96A99420ED9C91A01F5FA71E2
:1013C000B1FBF4F169840DE04A1C2CD06A8C02FB5D
:1013D0001411A962286309E0591A01F5FA71B1FBE9
:1013E000F4F1698495F82210F1712863142001F05A
:1013F000F5F80921B01CFFF7A1F8F0720B4801685D
:1014000040F8751C416840F8711C816840F86D1CFB
:10141000A0F175010C22953000F012FDBDE8F041FD
:10142000142001F0DBB8BDE8F08100003701002096
:1014300038B500F0CEFFFFF7F7FD02211548FFF7A2
:101440006DFD154C10212046FFF756FD202120464A
:10145000FFF752FD40212046FFF74EFD8021204638
:10146000FFF74AFD00F0E0FF00F0B6FF4FF47A709E
:1014700001F07CF8FFF77AF800F0C8F8FFF750F8B1
:101480004FF4617000220090044B1146000700F0F9
:10149000E1F838BD00100140000801400000F03FB5
:1014A00010B50446022001F099F80A20E0700921E5
:1014B000A01CFFF743F8E0720748216801606168EB
:1014C0004160A16881600146BDE810400C2200F532
:1014D000857000F0B5BC0000C20000203EB5214A76
:1014E00002F1450101F24F1000F094FEC4B23CB38A
:1014F0001C49224645316846FEF728FE9DF8050046
:1015000000F00F0118480078814202D0401C81424F
:1015100016D109210DF10200FFF710F89DF80B100C
:1015200081420DD19DF803000B2815D00D492246AC
:10153000453101F1BA00FEF709FE6846FFF7B0FF3A
:10154000FFF7FCFE03B0074ABDE8304002F1450159
:1015500001F24F1000F05EBE02490020FF31887199
:101560003EBD0000380000200400002070B5FFF7E9
:10157000D8FEFFF717FA234EF088401C84B2F4809F
:10158000642C12D1204801210170022141700321F5
:1015900081700421C170052101710621417107216B
:1015A00081710821C171092101720025C82C05D162
:1015B000F57055220A211448FEF7DAFD0A2C17D3DC
:1015C0007078401CC0B27070B178491CC9B2B1705B
:1015D000092800D97570092900D9B570F58000F087
:1015E0000DFF3079401CC0B23071FF2800D3357137
:1015F00005481D3000F035FE3070BDE87040FFF743
:101600006DBF0000040000202701002010B50D4828
:101610000B4901600C494160022101814023A0F582
:10162000CA724FF4964100F02FFD064A4023BDE8F0
:101630001040C53A4FF4E131044801F0EBB9000025
:1016400000440040CC010020000801400038014067
:10165000704700002DE9FF5F90B0884614461D4694
:101660004FF0000A4FF0FF094FF0000B0027002653
:10167000FE4A1098D314811A4FF4806C904272D0B5
:101680000EDCB0F1804F42D0F94940186ED0604571
:101690006BD0984203D10121082000F061FACEE01E
:1016A000B1F5806F73D0B1F58E3F03D0B1F5923FA5
:1016B00017D1C0E00121C80200F06EFAB8F1000FA6
:1016C00009D0B8F1010F0DD0B8F1020F11D0B8F167
:1016D000030F06D114E0DFF89CA34FF480794FF09C
:1016E000040BACE0DFF88CA34FF400794FF0040B4F
:1016F000A5E0DFF880A34FF480694FF0040B9EE073
:10170000DFF870A34FF400694FF0040B97E001215C
:10171000084600F025FAB8F1000F09D0B8F1010F22
:101720000DD0B8F1020F11D0B8F1030F06D113E0BC
:10173000DFF840A34FF001094FF0040B7FE0DFF822
:1017400034A34FF002094FF0040B78E0DFF824A334
:101750004FF00409CB4672E0DFF818A34FF00809F8
:101760004FF0040B6BE05CE000E02DE00121022073
:1017700000F0F6F9B8F1000F0AD0B8F1010F0ED061
:10178000B8F1020F12D0B8F1030F58D115E04DE0B7
:10179000DFF8E0A24FF040094FF0040B4FE0DFF814
:1017A000D4A24FF080094FF0040B48E0DFF8C8A244
:1017B0004FF001094FF0080B41E0DFF8BCA24FF0F9
:1017C00002094FF0080B3AE00121042000F0C8F9AB
:1017D000B8F1000F09D0B8F1010F0DD0B8F1020F28
:1017E00011D0B8F1030F2AD114E0DFF88CA24FF02A
:1017F00040094FF0080B22E0DFF87CA24FF080098F
:101800004FF0080B1BE0DFF870A24FF480794FF027
:10181000080B14E0DFF860A24FF400794FF0080BDA
:101820000DE00121102000F09BF908E001212020AB
:1018300000F096F903E00121480300F0ADF9012121
:10184000084600F0A9F90121584600F0A5F9ADF8C5
:10185000349003208DF8360018208DF837000DA93C
:101860005046FFF733FC01A800F004FADFF80C92B1
:101870001098DFF80CB229EA00094EF6602A2246D9
:101880002B4600205946FEF7F7FCCDE90E10B9F1C2
:10189000000F28D0DDF80C90DDE90E100022794B06
:1018A000FEF796FD22D20022774B20462946FEF70E
:1018B00071FC04460D464846FEF764FD22462B4661
:1018C000FEF7DAFC04460D46574600226F4B2046D1
:1018D0002946FEF7D1FC00226D4BFEF75BFCFEF7BC
:1018E0005EFD86B293E0DDF81090D5E7DDE90E10DD
:1018F0005B460022FEF76CFD1FD20022614B2046A2
:101900002946FEF747FC04460D464846FEF73AFDD9
:1019100022462B46FEF7B0FC04460D4657460022F1
:101920005A4B20462946FEF7A7FC0022594BFEF7EA
:1019300031FCFEF734FD86B269E000225B462046AA
:101940002946FEF745FD62D84846FEF71BFD2246B4
:101950002B46FEF791FC04460D46012220462946FF
:10196000FEF7F9FC04460D4600224B4B2046294663
:10197000FEF72EFD0BD84FF4FA670022474B2046A6
:101980002946FEF779FCFEF70AFD86B23FE0002209
:10199000434B20462946FEF71BFD0AD8C8270022E4
:1019A0003B4B20462946FEF767FCFEF7F8FC86B263
:1019B0002DE000223B4B20462946FEF709FD0AD8C0
:1019C00014270022334B20462946FEF755FCFEF72C
:1019D000E6FC86B21BE00022334B20462946FEF788
:1019E000F7FC0AD8022700227B0720462946FEF78B
:1019F00043FCFEF7D4FC86B209E0012700225B46D7
:101A000020462946FEF738FCFEF7C9FC86B27F1E49
:101A1000ADF82870701EADF82C000024ADF82E40F3
:101A2000ADF82A400AA9109800F0ACFF1E98464372
:101A30004FF47A70864204D9B6FBF0F080B21E9063
:101A400003E01E9808B101201E906020ADF8180038
:101A50001E98ADF81E00ADF820400120ADF81A0028
:101A6000B8F1000F2AD0B8F1010F1FE000100040BC
:101A700000FCFFBF00080140000C014000000140D5
:101A80000000F03F0000244000005940004CED40B1
:101A90000000694000003440D012634100409F4084
:101AA00080842E41006AF84040FFEF400BD0B8F12F
:101AB000020F0DD0B8F1030F13D10EE006A9109854
:101AC00000F058FE0DE006A9109800F08BFE08E02B
:101AD00006A9109800F0D2FE03E006A9109800F0C5
:101AE00013FF0121109800F036FEB8F1000F09D065
:101AF000B8F1010F0BD0B8F1020F0DD0B8F1030F00
:101B000013D10EE00821109800F066FE0DE00821C8
:101B1000109800F0A9FE08E00821109800F0EEFEF1
:101B200003E00821109800F021FF0121109800F037
:101B3000F5FD0121109800F001FE14B0BDE8F09F02
:101B400070470000054A002903D0516901435161E3
:101B50007047516981435161704700000010024095
:101B6000054A002903D0D1690143D1617047D16989
:101B70008143D1617047000000100240054A0029EE
:101B800003D01169014311617047116981431161EB
:101B90007047000000100240054A002903D09169F7
:101BA00001439161704791698143916170470000E1
:101BB00000100240054A002903D0D1680143D160DA
:101BC0007047D1688143D160704700000010024027
:101BD00010B500F031F84FF48034204600F0CAF818
:101BE00000F014F9012822D11020FFF7EBF80220B1
:101BF000FFF7F4F8002000F0B3F8002000F0E2F85E
:101C0000A01100F0D5F84FF4E011204600F0EAF8FA
:101C1000012000F0E1F8392000F082F80028FAD025
:101C2000022000F0E9F800F093F80828FBD1BDE8A5
:101C30001040FFF7F9B900000B48016841F00101BD
:101C400001604168094A114041600168084A114039
:101C50000160016821F480210160416821F4FE01E6
:101C60004160002181607047001002400000FFF8D1
:101C7000FFFFF6FE10B5264A516801F00C01254B16
:101C8000002927D0042927D0082927D003605168CC
:101C900001F0F0010909204B5C5C0168E140416002
:101CA000546804F4E064240A1C5D21FA04F484609E
:101CB000546804F46054E40A1B5DD940C160526862
:101CC00002F44042920B144B1B1F9A5CB1FBF2F1E1
:101CD000016110BD0360DAE70360D8E7516801F4E1
:101CE0007011022303EB9141536803F4803333B145
:101CF00053689B0307D5094B59430160C7E7074B5E
:101D000059430160C3E7034B59430160BFE700003B
:101D10000010024000127A00B830000800093D00AF
:101D2000034600205909094A01290AD002290AD08C
:101D3000516A03F01F02012393400B4200D001209F
:101D400070471168F5E7116AF3E7000000100240E0
:101D50000248406800F00C0070470000001002408C
:101D6000034A516821F0F0010143516070470000BF
:101D7000001002400C490A6822F480320A600A68A6
:101D800022F480220A60B0F5803F07D0B0F5802FA2
:101D900003D1086840F4A02008607047086840F448
:101DA000803008607047000000100240704700005B
:101DB000034A516821F4E06101435160704700001B
:101DC00000100240034A516821F4605141EAC0000A
:101DD00050607047001002400149086670470000DB
:101DE00000004242034B5A6822F47C12084310431D
:101DF0005860704700100240034A516821F0030107
:101E000001435160704700000010024030B50B4C98
:101E100040F2FF153120FFF783FF20706068401CFF
:101E20006060207810B96068A842F3D13120FFF7D4
:101E300077FF08B1012030BD002030BD0C0000202C
:101E40002DE9F04707460D4614463868DFF80C8246
:101E5000834E40453AD1706CDFF80892C00725D018
:101E60004846FEF71BFE002872D18021404600F054
:101E70007DFF012802D00020BDE8F087384600F041
:101E8000E5F900BF00BF00BF00BF00BF4FF4005026
:101E9000FEF7ECFD00214846FEF7F4FDB46435651D
:101EA00001214846FEF7EEFD2046E5E7384600F002
:101EB000CDF900BF00BF00BF00BF00BFB4643565EF
:101EC00001214846FEF7DEFD2046D5E7DFF8988180
:101ED00040453ED1D6F88000DFF89091C00726D06B
:101EE0004846FEF7DBFD08B10020C5E780214046EB
:101EF00000F03CFF012801D00020BDE7384600F08B
:101F0000A5F900BF00BF00BF00BF00BF4FF00070C9
:101F1000FEF7ACFD00214846FEF7B4FD46F8844FBD
:101F2000B56001214846FEF7ADFD2046A4E73846DE
:101F300000F08CF900BF00BF00BF00BF00BF46F833
:101F4000844FB56001214846FEF79CFD204693E78B
:101F500081E0DFF81C81404539D1F069DFF8149148
:101F6000C00724D04846FEF799FD08B1002083E75A
:101F70008021404600F0FAFE012801D000207BE7D6
:101F8000384600F063F900BF00BF00BF00BF00BFCC
:101F90002020FEF76BFD00214846FEF773FD3462FA
:101FA000B56201214846FEF76DFD204664E73846DC
:101FB00000F04CF900BF00BF00BF00BF00BF34629B
:101FC000B56201214846FEF75DFD204654E7DFF883
:101FD000A88040453FD1294A1068DFF8A490C00787
:101FE00002F1040626D092465046FEF757FD08B18E
:101FF000002041E78021404600F0B8FE012801D0D2
:10200000002039E7384600F021F900BF00BF00BFCB
:1020100000BF00BF1B48FEF729FD00215046FEF718
:1020200031FD3460C9F8005001215046FEF72AFD09
:10203000204621E7384600F009F900BF00BF00BF85
:1020400000BF00BF3460C9F8005001211046FEF700
:1020500019FD204610E700200EE70000003801407F
:102060000000024044000240004400408000024062
:10207000004800401C000240004C00405804024050
:10208000640402400000021010B50446206800F00D
:10209000C1FC21896068FEF753FF616820894861AF
:1020A00010BD000070B504462068544D5449A84244
:1020B00025D1486CC00718D051484430FEF7EEFCDB
:1020C00008B1002070BD8021284600F04FFE012895
:1020D00001D0002070BD00BF00BF00BF00BF00BF27
:1020E000208961684861012070BD00BF00BF00BF4A
:1020F00000BF00BF208961684861012070BD414D6B
:10210000A84226D1D1F88000C00718D03C488030C2
:10211000FEF7C4FC08B1002070BD8021284600F005
:1021200025FE012801D0002070BD00BF00BF00BF08
:1021300000BF00BF208961684861012070BD00BFF9
:1021400000BF00BF00BF00BF208961684861012057
:1021500070BD2D4DA84225D1C869C00718D02848A8
:102160001C30FEF79BFC08B1002070BD8021284682
:1021700000F0FCFD012801D0002070BD00BF00BFB1
:1021800000BF00BF00BF208961684861012070BDA9
:1021900000BF00BF00BF00BF00BF20896168486169
:1021A000012070BD194DA84225D119490868C00702
:1021B00017D00846FEF772FC08B1002070BD8021E0
:1021C000284600F0D3FD012801D0002070BD00BFDB
:1021D00000BF00BF00BF00BF2089616848610120C7
:1021E00070BD00BF00BF00BF00BF00BF2089616895
:1021F0004861012070BD002070BD00000038014022
:10220000000002400044004000480040004C0040F4
:10221000580402402DE9F04104460D4616460027B9
:102220004021206800F0A2FD68B18021206800F004
:102230009DFD40B12046FFF735FF32462946206814
:1022400000F018FE07463846BDE8F0810189406875
:10225000016170477047704770477047704770471B
:10226000704770B5002200F1820301784FF6FF74C9
:102270008C40A4B2002907D0491EC9B24568AD6898
:102280000689354200D0012241B1491EC9B2C56854
:10229000AD68068A354201D042F0020241B1491EC2
:1022A000C9B24569AD68068B354201D042F00402DF
:1022B00041B1491EC9B2C569AD68068C354201D02D
:1022C00042F0080241B1491EC9B2456AAD68068DA7
:1022D000354201D042F0100241B1491EC9B2C56A6F
:1022E000AD68068E354201D042F0200241B1491E50
:1022F000C9B2456BAD68068F354201D042F040024D
:1023000049B1491EC9B2C56BAD68B0F840603542ED
:1023100001D042F0800249B1491EC9B2456CAD6896
:10232000B0F84860354201D042F4807249B1491E8C
:10233000C9B2C56CAD68B0F85060354201D042F406
:10234000007249B1491EC9B2456DAD68B0F8586018
:10235000354201D042F4806249B1491EC9B2C56D0F
:10236000AD68B0F86060354201D042F4006249B116
:10237000491EC9B2456EAD68B0F86860354201D0FB
:1023800042F4805249B1491EC9B2C56EAD68B0F879
:102390007060354201D042F4005249B1491EC9B2C1
:1023A000456FAD68B0F87860354201D042F48042A4
:1023B00039B1C16F8968B0F88050294201D042F428
:1023C00000422243D14389B21960A0F88410084624
:1023D00070BDFFF7FDBB00000748064901602022E1
:1023E0008280816010228281016108218182FEF752
:1023F00029BF0000000C0140A802002010B50848C9
:10240000FEF730FF074C06486178FEF76BFFA178B6
:102410000348FEF767FFBDE810400148FEF726BFFE
:10242000A80200200400002010B50C48042101700F
:102430000B49416010220281C16020220282416169
:1024400040220283C1618021018400F00DF803481D
:10245000FFF707FF0349087010BD0000440100208A
:10246000000801400400002070B505462C78002CBF
:1024700005D029896868FEF73FFD641EE4B22CB1DF
:10248000298AE868FEF738FD641EE4B22CB1298B76
:102490006869FEF731FD641EE4B22CB1298CE8694D
:1024A000FEF72AFD641EE4B22CB1298D686AFEF79E
:1024B00023FD641EE4B22CB1298EE86AFEF71CFDF0
:1024C000641EE4B22CB1298F686BFEF715FD641E03
:1024D000E4B234B1B5F84010E86BFEF70DFD641EB0
:1024E000E4B234B1B5F84810686CFEF705FD641E1F
:1024F000E4B234B1B5F85010E86CFEF7FDFC641E90
:10250000E4B234B1B5F85810686DFEF7F5FC641EFE
:10251000E4B234B1B5F86010E86DFEF7EDFC641E6E
:10252000E4B234B1B5F86810686EFEF7E5FC641EDD
:10253000E4B234B1B5F87010E86EFEF7DDFC641E4D
:10254000E4B234B1B5F87810686FFEF7D5FC641EBC
:10255000E4B2002C06D0B5F88010E86FBDE87040FA
:10256000FEF7CABC70BD00F0A7B8000010B5044665
:10257000002C2BD01648FFF77DFB4FF0E0210869B7
:1025800020F002000861086920F001000861086974
:1025900020F0040008610E480E4A0068B0FBF2F01B
:1025A00060434861086940F002000861086940F032
:1025B0000100086100208861086940F0020008619C
:1025C0004A6905480260096989B2416010BD00008E
:1025D000E002002000127A001800002010B5044626
:1025E000002C2DD01748FFF745FB4FF0E020016984
:1025F00021F002010161016921F00101016101691C
:1026000021F0040101610F494FF4FA520968B1FB4E
:10261000F2F14161016941F0010101610022826131
:1026200006E081690029FCD081690029FCD1641E83
:10263000002CF6D104490B6843618261496801614D
:1026400010BD0000E00200201800002038B505464B
:1026500000240094002D28D01448FFF70BFB4FF006
:10266000E021086920F002000861086920F00100FB
:102670000861086920F0040008610C480C4A0068F1
:10268000B0FBF2F068434861086940F0010008615E
:102690008C6188690028FCD088690028FCD1054835
:1026A00002684A618C614068086138BDE002002020
:1026B00000127A001800002000F0DABC7047704762
:1026C0007047704710B500F05BF9BDE8104001217C
:1026D000014800F030B80000002C014010B500F0B7
:1026E0004FF90121BDE81040880700F024B8000030
:1026F00010B500F045F9BDE810400121014800F097
:102700001AB800000004004000F03AB97047704762
:10271000704770477047704700F032B9002904D005
:10272000018841F0800101807047018840F27F32CA
:10273000114001807047C94301827047002904D0CD
:10274000018841F0010101807047018840F2FE32AA
:10275000114001807047002905D030F8441F41F432
:1027600000410180704730F8441FC1F30E01018021
:102770007047000030B5028C22F001020284058C03
:102780008388028B22F070020C88144325F0020229
:102790000D8915434A882A43CD8885860C4DA84269
:1027A00002D00C4DA8420FD122F008054A892A43D5
:1027B00022F004058A882A4323F4014323F40243C8
:1027C0008D891D43CB892B4383800483028430BDD4
:1027D000002C014000340140028B22F008020A4321
:1027E0000283704770B5028C22F010020284028CC2
:1027F0008388048B24F4E0460D884FF6FF7404EAC6
:102800000525354322F020020E8904EA06161643F8
:102810004A8804EA02123243CE880687104EB0423C
:1028200002D0104EB04217D122F080024E8904EA45
:102830000616164326F040068A8804EA021232433E
:1028400023F4044323F408438E8904EA86061E43D6
:10285000C98904EA8103334383800583028470BD00
:10286000002C014000340140028B22F400624FF63C
:10287000FF7303EA012111430183704770B5028C95
:1028800022F480720284028C8388848B24F070048A
:102890000D88254322F400720E894FF6FF7404EA76
:1028A000062616434A8804EA02223243CE888687E7
:1028B000104EB04202D0104EB04217D122F4006642
:1028C0004A8904EA0222324322F480668A8804EAB2
:1028D0000222324323F4104323F420438E8904EA76
:1028E00006161E43C98904EA011333438380858396
:1028F000028470BD002C014000340140828B22F024
:1029000008020A438283704770B5028C22F4805219
:102910000284058C8288838B23F4E0460C884FF672
:10292000FF7303EA0424344325F400560D8903EAB7
:10293000053535434E8803EA06362E43CD88A0F888
:102940004050084DA84202D0074DA84205D1C2F31D
:102950000D05898903EA81122A43828084830684D3
:1029600070BD0000002C014000340140828B22F435
:1029700000624FF6FF7303EA012111438183704720
:1029800000F076BB028802F08F020280CA884B8872
:102990001A4303881A4302808A8882850A8802853E
:1029A00001228282044A904202D0044A904201D11C
:1029B000097A018670470000002C01400034014074
:1029C00000F056BB00F054BB00F052BB00F050BB0F
:1029D00000F04EBBC943018070470A0A01219140B3
:1029E000C94301807047002904D0818941F4005116
:1029F00081817047818921F4005181817047002ACB
:102A000003D0828A0A4382827047828A8A43828202
:102A1000704700002DE9FF4F91B004464FF0000BC6
:102A2000002000908146824600250026804600272F
:102A3000994A149899499A4B80B294420DD10880D2
:102A4000551516159846474601210520FFF7A4F8AD
:102A500001218803FFF7A0F854E0924A94420DD177
:102A60004880042508269846474601210420FFF7A0
:102A700093F801214804FFF773F843E08A4A94422F
:102A800016D1888001210846FFF786F80121874882
:102A9000FEF76EFB2515E614DFF814824746012188
:102AA0000820FFF779F801218804FFF759F829E099
:102AB000804B814A9C420DD1C8801515D614904692
:102AC000474601211120FFF767F80121C804FFF7ED
:102AD00047F817E0794B9C4214D108819D140426D5
:102AE0009046774F01211020FFF756F80121202052
:102AF000FFF752F801210846FFF74EF801210805BB
:102B0000FFF72EF8ADF8045018208DF807000320C9
:102B10008DF8060001A94046FEF7D8FAADF804602A
:102B200048208DF8070001A93846FEF7CFFA204665
:102B300000F0CEF8129802900025ADF80C50ADF8D8
:102B40000E50ADF810500C20ADF81200ADF8145036
:102B500002A9204600F048F94F4884420DD1DFF821
:102B600064B15848143000904FF480594FF4803AC3
:102B700001210846FEF7E6FF35E04A4884420FD1BE
:102B8000DFF840B10BF13C0B4E48283000904FF07D
:102B900080794FF4801A01210846FEF7D3FF22E026
:102BA000414884420FD1DFF81CB1ABF1280B4548F6
:102BB000143800904FF010094FF4807A0121084634
:102BC000FEF7C0FF0FE03B4884420CD1DFF8F8B0BD
:102BD0003D4828380090DFF8F4904FEA395A012137
:102BE0000220FEF7AFFF201D0646069013980790BF
:102BF00010200890149809900A9580270B970C953F
:102C00000D950E954FF40058CDF83C80109506A90F
:102C10005846FDF763FF0696139807900895149899
:102C200009900A950B970C950D950E95CDF83C8063
:102C3000109506A90098FDF751FF00215846FDF7B1
:102C400021FF01210098FDF71DFF012240212046B0
:102C5000FFF7D5FE012280212046FFF7D0FE00229B
:102C600002215846FDF730FF4846FDF7FFFE50466B
:102C7000FDF7FCFE40F2244500222946204600F0E4
:102C80009AF829462046FFF7A8FE01212046FFF7C3
:102C9000AAFE15B0BDE8F08F0038014020000020EA
:102CA000000801400044004000480040000230009D
:102CB000000C0140004C004000100140005000405A
:102CC000001401404400024058040240000001107A
:102CD00010B5244A811A131590422BD00FDC2249DB
:102CE00040181CD098423BD1040201212046FEF737
:102CF00045FF2046BDE810400021FEF73FBF994246
:102D000023D0B1F56C4F2BD101218C032046FEF767
:102D100051FF2046BDE810400021FEF74BBF0121C6
:102D20004C042046FEF72AFF2046BDE81040002153
:102D3000FEF724BF0121CC042046FEF71FFF2046EA
:102D4000BDE810400021FEF719BF01210C05204607
:102D5000FEF714FF2046BDE810400021FEF70EBF2D
:102D600010BD0000004C004000BCFFBF0246002028
:102D700012880A4200D00120704770B50024C1F3C8
:102D8000421301F01F05012606FA05F2012B0CD0B3
:102D9000022B0DD0838A1340090A8E4000883040F0
:102DA0000BB100B10124204670BD83891340F3E7C5
:102DB000038A1340F0E710B5C1F3421301F01F047A
:102DC0000121A140012B07D0022B07D014303AB1CA
:102DD00002680A43026010BD0C30F8E71030F6E7D5
:102DE00002688A43026010BD30B585B004460D46C6
:102DF000208A4CF6FF710840E98801432182A189AD
:102E00004EF6F3100140A8882A8910436A890A43C4
:102E10001043A081A08A4FF6FF410840A9890143D1
:102E2000A1826846FEF726FF1148844201D103982B
:102E300000E0029800EBC00101EB00102968890056
:102E4000B0FBF1F06423B0FBF3F109010A096FF064
:102E500018056A4300EB8200322202EB0010B0FB3F
:102E6000F3F000F00F000843208105B030BD0000F2
:102E7000003801402DE9F04788461446DFF8C49138
:102E8000714D724F40F22446484532D13146484692
:102E9000FFF773FF28B910214846FFF767FF0028A6
:102EA0007ED031464846FFF798FD10214846FFF78F
:102EB00091FDDFF89891002109F158094846FDF786
:102EC000E1FD6048001D00884846FDF7E7FD2988C0
:102ED000081A86B2324621464046FDF737F97C662D
:102EE0002888F86501214846FDF7CCFD3046BDE84D
:102EF000F087DFF85C91484531D131464846FFF70D
:102F00003CFF28B910214846FFF730FF002847D082
:102F100031464846FFF761FD10214846FFF75AFD4C
:102F2000DFF82891002109F16C094846FDF7AAFD58
:102F30004748001D00884846FDF7B0FD6988081A1B
:102F400086B2324621464046FDF700F9BC676888E4
:102F5000386701214846FDF795FD3046C7E7DFF8A1
:102F6000F490484533D131464846FFF706FF28B96B
:102F700010214846FFF7FAFE002861D03146484646
:102F8000FFF72BFD10214846FFF724FDDFF8BC902A
:102F9000002109F130094846FDF774FD2D4800E095
:102FA0004EE0001D00884846FDF778FDA988081A04
:102FB00086B2324621464046FDF7C8F8FC63A88831
:102FC000786301214846FDF75DFD30468FE7224FCB
:102FD000B84230D131463846FFF7CFFE20B9102134
:102FE0003846FFF7C3FE58B331463846FFF7F5FCC5
:102FF00010213846FFF7EEFC184F00213846FDF748
:1030000041FD1548001D00883846FDF747FDE98859
:10301000081A86B2324621464046FDF797F80F4817
:103020000C300460E888391D086001213846FDF73E
:1030300029FD30465BE70A49884201D1002056E766
:10304000002054E70038014020000020000002402A
:103050000044004000480040004C00403004024062
:1030600000500040704770477047FEE7FEF7E0B938
:10307000FEF77CBA704702E008C8121F08C1002A98
:10308000FAD170477047002001E001C1121F002AE9
:10309000FBD17047FFF7EAFF05494FF0807300222C
:1030A0000868401C08609842FAD30A60F8E70000FC
:1030B00000000020020406080000000001020304D2
:1030C0000102030406070809E83000080000002098
:1030D0003800000076300008203100083800002059
:1030E000C00A000086300008000000000001020055
:1030F00000000000000000000000000000000000D0
:1031000000000000000000000000000000000000BF
:103110000000C0F9A4B0999282F8809000000000ED
:0400000508000131BD
:00000001FF
