:020000040800F2
:100000005813002045010008871400083D1400081B
:10001000851400084D070008F72B000800000000B9
:100020000000000000000000000000000B1E00089F
:10003000890D000800000000E51A0008E320000810
:10004000012C0008F515000839220008011E0008DF
:10005000A10F0008511D00088B0D0008930D00082A
:10006000970D00089B0D00089F0D0008290C000843
:100070002D0C0008310C0008350C0008390C000864
:100080003D0C0008410C00082D070008F32B000868
:10009000F52B00084F07000851070008A30D0008C2
:1000A0003B220008412200083F2200083D220008B0
:1000B000592200086D22000885220008411400081A
:1000C0003F1400084514000843140008051E0008EA
:1000D000071E000845250008492500084D25000891
:1000E0008F0D0008FF1D0008F12B00088F2200086B
:1000F0009522000893220008912200082F0700088B
:10010000D50F0008031E000889220008091E0008F8
:100110003D250008412500088B2200088D2200089B
:10012000450C0008490C00084D0C0008510C000853
:10013000DFF80CD000F0E8FA00480047E53400088A
:1001400058130020004800473101000840EA01032D
:100150009B0703D009E008C9121F08C0042AFAD27D
:1001600003E011F8013B00F8013B521EF9D2704741
:100170002DE9FE4F804681EA0300C00F0C46009037
:1001800021F0004123F00045B8EB0200A94105D25F
:100190004046214690461C460B46024623F000404E
:1001A000104347D0270DC7F30A00C3F30A5102904A
:1001B000401A019040286BDAC3F3130040F4801B0F
:1001C0000098924620B10023D2EB030A63EB0B0B9D
:1001D00001985946C0F14002504600F0EEF906463B
:1001E0000D4650465946019A00F006FA10EB0800F9
:1001F0006141002487EA115284EAE7731A4340D030
:10020000009A62B3019A012A4FEA075215DC001BDB
:1002100061EB02014FF0004202EA0752CDE90042D1
:10022000001C41F5801132462B4600F006FA03B05F
:10023000BDE8F08F40462146F9E7001B61EB020163
:10024000001C41F5801300185B412018A2F500172F
:1002500047EB030140EAD570B6196D4111E06D0816
:100260004FEA360645EAC0754FEA0752001B61EBBC
:100270000201001C41F5801149084FEA30000019C5
:10028000514132462B4603B0BDE8F04F00F0C6B9ED
:100290000098012240000023D0EB020263EBE073E0
:1002A000009821464FEAE074B8EB000061EB0401CE
:1002B000E9E783F000435BE781F0004158E72DE96F
:1002C000FE4F81EA030404F0004421F00041009451
:1002D0004FF0000B23F0004350EA01045ED052EAD5
:1002E00003045BD0C3F30A54C1F30A552C44A4F2AF
:1002F000F3340194A0FB0254C1F3130141F48011C3
:10030000C3F3130343F4801301FB024400FB034EC9
:10031000840A970A44EA815447EA8357A4FB076892
:1003200002958D0A05FB07854FEA932C04FB0C54BC
:100330002705029D4FEA065847EA1637B5EB080530
:100340006EEB070C870E920E47EA811742EA831282
:10035000A7FB0201B6EB0B0164EB00042B0D43EA93
:100360000C335E1844EB1C50DA465146E7FB0201A1
:10037000C5F313044FEA0B3343EA14534FEA043234
:10038000019C43EA0603A4F10C040294009CCDE90D
:1003900000B400F052F903B0BDE8F08F0020014630
:1003A000F9E72DE9F04D81EA030404F0004B21F058
:1003B000004514464FF0000A23F0004150EA0502C0
:1003C00020D054EA01021DD0C5F30A570246C5F3F6
:1003D0001303C1F31300C1F30A5640F4801543F42C
:1003E0008013A7EB0608101BD64608F2FD3873EB06
:1003F000050002D308F1010801E092185B41B8F151
:10040000000F03DA00200146BDE8F08D00204FF414
:100410008011064684460EE0171B73EB050705D3D3
:10042000121B63EB050306434CEA010C49084FEA33
:10043000300092185B4150EA0107EDD152EA030007
:1004400012D082EA040083EA0501084305D0101B9C
:10045000AB4106D20122002306E000224FF0004308
:1004600002E06FF0010253101AEB06004CEB08514A
:1004700010EB0A0041EB0B01BDE8F04D00F0CEB8E7
:1004800070B521F0004303430CD0C1F30A5500249A
:10049000D5EB040564EB0403D617AD1AB34102DBB8
:1004A0000020014670BD201841EB025170BD0EB511
:1004B00040F2334102910021CDE900110A460B467A
:1004C00000F0BBF803B000BDC1F30A5210B5C1F390
:1004D000130140F2FF3341F480119A4201DA002007
:1004E00010BD40F233439A42A2F2334203DC52423F
:1004F00000F072F810BD904010BD000030B5041E31
:1005000071F1000404DB4FF00044404264EB010150
:10051000141E73F1000405DB1C464FF000435242E9
:1005200063EB0403994208BF904230BD30B50B46DF
:10053000014600202022012409E021FA02F59D4213
:1005400005D303FA02F5491B04FA02F52844151EE7
:10055000A2F10102F1DC30BD2DE9F05F054600207B
:1005600092469B4688460646814640241BE0284624
:1005700041464746224600F02FF853465A46C01AD5
:10058000914110D311461846224600F016F82D1A54
:1005900067EB01084F4622460120002100F00DF8CC
:1005A00017EB00094E41201EA4F10104DFDC484690
:1005B00031462A464346BDE8F09F202A04DB203A14
:1005C00000FA02F1002070479140C2F1200320FAA6
:1005D00003F3194390407047202A04DB203A21FAA4
:1005E00002F00021704721FA02F3D040C2F120024C
:1005F0009140084319467047202A06DBCB17203A62
:1006000041FA02F043EAE07306E041FA02F3D04017
:10061000C2F12002914008431946704710B5141EDC
:1006200073F1000408DA401C41F1000192185B41AB
:100630001A4301D120F0010010BD2DE9F04D924682
:100640009B4611B1B1FA81F202E0B0FA80F2203299
:100650009046FFF7B2FF04460F4640EA0A0041EA1F
:100660000B0153465A46084313D0114653EA010082
:1006700019D0C8F140025046FFF7AEFF05460E46BE
:10068000504659464246FFF798FF084305D00120DF
:1006900004E020463946BDE8F08D0020054346EAD7
:1006A000E0762C4337430A986305E40AA0EB080080
:1006B0000022FD0A44EA47540A3002D500200146D0
:1006C000E9E7010510196941DDE9084500196941AB
:1006D000BDE8F04DA2E7C1F30A52C1F3130140F2A5
:1006E000FF3341F480119A4202DA0020014670473C
:1006F00040F233439A42A2F2334202DC5242FFF705
:100700006BBFFFF75ABF0000064C074D06E0E068DC
:1007100040F0010394E8070098471034AC42F6D348
:10072000FFF70AFD18350008383500087047704794
:1007300004480549016080228280816040218181D6
:1007400000F081BEF8010020000C0140FEE7704778
:1007500070478188006800F02ABE8188006800F038
:1007600024BE00002DE9F0410F48104C0460A11494
:1007700081808460CD00858104618E0086828461E1
:100780004F00878300F0ECF80748A8300849016063
:100790008915818084608581046186828461878374
:1007A000BDE8F04100F0DCB8A4000020000C0140DE
:1007B00000080140401E411CFCD1704770B5054641
:1007C00000BF00BF00BF00BF00BF00BF284600F051
:1007D000D8F930B14FF0FF3000BF00BF00BF00BFFD
:1007E00070BD284600F0C9F9284600F07BF928467C
:1007F00000F078F90406284600F074F904EB004490
:10080000284600F06FF904EB0024284600F06AF94E
:100810002044E1E710B5B0F86440210712D5016B20
:100820004A1C0FD0826A6AB1438C5BB1914209D9EC
:1008300024F00804A0F86440891AB1FBF3F1416385
:10084000084610BD4FF0FF3010BDB0F864205107CE
:100850000AD5016B4B1C07D031B122F00402A0F87D
:1008600064208162084670474FF0FF30704770B5D2
:10087000B0F86440E1061CD5036B591C19D0826A9C
:10088000BAB1458C416BA5B10525B1FBF5F61E4407
:1008900096420ED369B124F01004A0F86440B1FB75
:1008A000F5F49A1A2244B2FBF1F189B24184084668
:1008B00070BD4FF0FF3070BD2DE9F04704464FF09A
:1008C000FF39206E411C2166052830D3A58C04F128
:1008D000300604F138074FF00008C4F86080204665
:1008E00000F0ECF8E062411C1FD047F8250085B10C
:1008F000691E57F82110884201D9401A00E0081AF1
:10090000642806D9C6F80090A4F824800020BDE829
:10091000F087A08C401CA084092D08D3204600F04D
:1009200008F83060A4F82480F1E74846EFE748462D
:10093000EDE770B500F13804858C2046294600F0BB
:1009400040FD06462946204600F049FDB0FBF5F083
:10095000B0F5FA7F01D2304670BD4FF0FF3070BD68
:1009600070B5044604F16405A188206800F0D8FB46
:10097000A189A06800F0D4FBA18BA06900F0D0FB96
:10098000A18A206900F0A8FB204600F003F80020AF
:10099000286070BD70B50646002500243046FFF77C
:1009A000DCFEC82001F0D8FBFF21304600F0FCF847
:1009B000052001F0D1FB6D1CEDB20F2DF4D33220D8
:1009C00001F0CAFBFE21304600F0EEF8322001F0C3
:1009D000C3FB4FF000520321304600F00BF93220E8
:1009E00001F0BAFB0021304600F0DEF8322001F0C1
:1009F000B3FB00220321304600F0FCF8322001F066
:100A0000ABFB254D0B21304600F08FF828603220DB
:100A100001F0A2FB2868C00004D52146641CA4B2E2
:100A20006429EFD9642C35D24FF080722A600221FC
:100A3000304600F0DFF80B21304600F076F82860F1
:100A40000921304600F071F828600A21304600F094
:100A50006CF84FF400522A600321304600F0CAF8C7
:100A60008521304600F09EF88621304600F09AF845
:100A70000A21304600F059F82860C021304600F0C5
:100A800091F84FF4FA70FFF795FE3046BDE87040DC
:100A9000FFF75FBE70BD00004C00002010B504469B
:100AA0002046FFF709FF2046FFF7CFFE2046FFF75D
:100AB000B1FE2046BDE81040FFF7D9BE70B505462F
:100AC0004FF0FF342846FFF748FE284600F059F85B
:100AD00018B92846FFF772FE040A2846FFF739FEC8
:100AE000204670BD70B506460024304600F045F83B
:100AF000002500BF00BF304600F033F800BF00BF44
:100B000000BF00BF6006040E304600F03AF808B19E
:100B1000641CE4B2304600F028F800BF00BF6D1C32
:100B2000EDB2082DE5D3204670BD38B5054600204E
:100B30000090284600F038F82846FFF7D3FF040657
:100B40002846FFF7CFFF04EB00442846FFF7CAFF13
:100B500004EB00242846FFF7C5FF204400900098CE
:100B600038BD818B806900F022BC818B806900F0E8
:100B70001CBC8189806800F01ABC8189806800F003
:100B800014BC818A006900F009BC000010B504485B
:100B9000FFF784FF0248BDE81040A830FFF77EBF92
:100BA000A4000020AFF300802DE9F04107460D4678
:100BB00001260024280603D53846FFF7DAFF02E0B5
:100BC0003846FFF7DAFF304601F0FEFA3846FFF705
:100BD000C8FF304601F0F8FA3846FFF7C6FF304646
:100BE00001F0F2FA6806050E641CE4B2082CE1D3A9
:100BF000BDE8F08170B5054614462846FFF7D4FFDE
:100C0000210E2846FFF7D0FFC4F307412846FFF71F
:100C1000CBFFC4F307212846FFF7C6FFE1B2284601
:100C2000BDE87040FFF7C0BF00F066B800F064B8E0
:100C300000F062B800F060B800F05EB800F05CB898
:100C400000F05AB800F058B800F056B800F054B8A8
:100C500000F052B8C10002D502490860704702494D
:100C6000486070470404024000000240002904D09C
:100C7000016841F0010101607047016821F0010144
:100C80000160704702460020D10002D5044909687E
:100C900001E004490968114200D0012070470000BA
:100CA0000004024000000240002A03D002680A4308
:100CB0000260704702688A430260704730B502687C
:100CC00047F6F0739A430C6A8B682343D1E90445D5
:100CD0002C4323438C692343CC6923434C6A23432D
:100CE0008C6A234313430360CA6842600A688260C7
:100CF0004968C16030BD000010B501F07FFF1020D1
:100D0000FFF7C0FF01281BD04FF480542046FFF7A7
:100D1000B9FF01281DD024032046FFF7B3FF0128A7
:100D200021D0164C2046FFF7ADFF012825D12046E3
:100D3000FFF790FFBDE8104000211148FFF796BF74
:100D40001020FFF787FFBDE8104000210D48FFF796
:100D50008DBF2046FFF77EFF0A480021BDE8104006
:100D60002830FFF783BF2046FFF774FF05480021B6
:100D7000BDE810406430FFF779BF10BD00000110DE
:100D8000580402401C000240704700F0C1B800F057
:100D9000BFB800F0BDB800F0BBB800F0B9B800F0C3
:100DA000B7B800F0B5B8000001490860704700000E
:100DB0001404014010B5012000F09AF84B4C20B10A
:100DC000208840F00100208010BD022000F090F843
:100DD00020B1208840F00200208010BD042000F0E7
:100DE00087F820B1208840F00400208010BD082042
:100DF00000F07EF820B1208840F00800208010BD6F
:100E0000102000F075F820B1208840F010002080FC
:100E100010BD202000F06CF820B1208840F02000A8
:100E2000208010BD402000F063F820B1208840F001
:100E30004000208010BD802000F05AF820B12088AA
:100E400040F08000208010BD4FF4807000F050F81A
:100E500020B1208840F48070208010BD4FF40070D5
:100E600000F046F820B1208840F40070208010BDCA
:100E70004FF4806000F03CF820B1208840F480609E
:100E8000208010BD4FF4006000F032F820B12088BF
:100E900040F40060208010BD4FF4805000F028F82E
:100EA00020B1208840F48050208010BD4FF40050C5
:100EB00000F01EF820B1208840F40050208010BDC2
:100EC0004FF4804000F014F820B1208840F48040B6
:100ED000208010BD4FF4004000F00AF80028F8D040
:100EE000208840F40040208010BD00002400002035
:100EF00001460020054A12680A40044B14331B685F
:100F00000B4202D0002A00D00120704700040140AB
:100F100008B500200090FFF74DFF01F06FFE1F485D
:100F2000BDF8001001800120FFF73EFF0220FFF70F
:100F30003BFF0420FFF738FF0820FFF735FF1020A4
:100F4000FFF732FF2020FFF72FFF4020FFF72CFF95
:100F50008020FFF729FF4FF48070FFF725FF4FF443
:100F60000070FFF721FF4FF48060FFF71DFF4FF483
:100F70000060FFF719FF4FF48050FFF715FF4FF4A3
:100F80000050FFF711FF4FF48040FFF70DFFBDE861
:100F900008404FF40040FFF707BF00002400002086
:100FA0007047000004490A6822F010020A600A68CB
:100FB00002430A60704700000020024004490A68AA
:100FC00002F038020A600A6802430A6070470000B3
:100FD00000200240704710B50121084600F0BCFD1A
:100FE0000021BDE81040012000F0B6BD70B50C46F0
:100FF000364A811A1315D614904253D017DC34495F
:10100000344D41184FF6FF721ED0994234D0B14290
:101010005AD10121102000F091FD600401D4200478
:1010200052D5BDE870400121112000F087BD9942E2
:101030003ED0B14242D0B1F5406F45D1BDE87040DD
:101040000121080200F07ABDA00405D4600403D495
:10105000200401D4944209D10121042000F06EFD46
:101060002846BDE87040012100F072B9BDE870402B
:101070000121042000F062BD200703D4E00601D462
:10108000944209D10121092000F058FD2846BDE80D
:101090007040012100F05CB9BDE8704001210820DA
:1010A00000F04CBDBDE870400121202000F046BD9D
:1010B000BDE870400121402000F040BDBDE8704017
:1010C0000121802000F03ABD70BD000000140140F5
:1010D00000F8FEBF0002300038B50446ADF800103D
:1010E00002228DF8022048228DF803202046FFF7C7
:1010F0007DFF6946204600F0D9F838BD38B5044672
:10110000ADF8001002228DF8022010228DF8032085
:101110002046FFF76BFF6946204600F0C7F838BD50
:1011200038B50446ADF8001003228DF802201022D5
:101130008DF803202046FFF759FF6946204600F04E
:10114000B5F838BD10B52E4A811A1315D414904243
:1011500037D010DC2B4940181FD0984227D0A0422E
:101160004DD10121102000F0F7FC0021BDE8104016
:10117000102000F0F1BC99422DD0A14235D0B1F53C
:10118000406F3CD101210C02204600F0E5FC2046D6
:10119000BDE81040002100F0DFBC0121042000F078
:1011A000DBFC0021BDE81040042000F0D5BC01218B
:1011B000082000F0D1FC0021BDE81040082000F01C
:1011C000CBBC0121202000F0C7FC0021BDE810406D
:1011D000202000F0C1BC0121402000F0BDFC002116
:1011E000BDE81040402000F0B7BC0121802000F095
:1011F000B3FC0021BDE81040802000F0ADBC10BD64
:101200000014014000F8FEBF2DE9F84F684600F0D9
:10121000D0F81F4C6946204600F048F81D4D69463D
:10122000284600F043F81C4E6946304600F03EF870
:101230001A4F6946384600F039F8DFF8648069468D
:10124000404600F033F8DFF85C906946484600F00D
:101250002DF8DFF854A06946504600F027F82046E4
:10126000FFF770FF2846FFF76DFF3046FFF76AFF74
:101270003846FFF767FF4046FFF764FF4846FFF731
:1012800061FF5046FFF75EFFFFF7A5FEBDE8F88F50
:1012900000080140000C0140001001400014014012
:1012A00000180140001C0140002001402DE9F043DE
:1012B0000022CC7804F00F03E40601D58C78234398
:1012C0000C784FF00F0714F0FF0F4FF0010C1BD0FC
:1012D00005680CFA02F40E882640A64210D196004A
:1012E00007FA06F825EA080503FA06F848EA0505AC
:1012F000CE78282E00D14461CE78482E00D10461EA
:10130000521C082AE5D305600A88FF2A1ED94568C1
:10131000002202F108060CFA06F40E882640A642C6
:1013200010D1960007FA06F825EA080903FA06F52F
:1013300045EA0905CE78282E00D14461CE78482EA2
:1013400000D10461521C082AE3D34560BDE8F08354
:10135000F0B5114D6B68C0F30342440D260184B211
:10136000C0F30157B440032F07D0C0020CD50320AF
:101370009040834343F0706209E023F07062686834
:1013800020F07060686002E0A34343F0706201B136
:1013900022436A60F0BD00000000014002460020C8
:1013A00092680A4200D00120704741617047016194
:1013B00070474FF6FF710180022181700421C170D6
:1013C000704710B503461868012205E053F8224023
:1013D00020444008521C92B28A42F7D310BDF0B5A7
:1013E00006460F460025002439463046FFF7E9FF40
:1013F0000DE056F82520824203D3121A02FB024464
:1014000003E0111A821A01FB02446D1CADB2BD4209
:10141000EFD3002C00DA64422046F0BD10B504463C
:10142000A1882068FFF77CFEA189A068FFF778FEFD
:10143000A18A2069BDE81040FFF772BEFEE7704741
:1014400070477047704710B50446A1882068FFF7C1
:1014500067FEA189A068FFF763FEA189A068FFF776
:10146000A6FFA1882068BDE81040FFF7A0BF00F0EC
:1014700001B8000002494AF6AA200860704700003F
:1014800000300040FEE7704738B500F077FDFFF709
:10149000BBFE02211348FFF731FE00F083FD00F090
:1014A0006FFD4FF47A7000F01FFE4FF42F700E4C5A
:1014B00000224FF08045009023461146284600F058
:1014C0009BF8FFF74FF900F023F8FFF731F94FF4DD
:1014D00061710022009123461146284600F08CF8E5
:1014E00038BD0000001001400000F03F10B5FFF7CC
:1014F000BEFFFFF74BFB00F029F8034800F086FC25
:101500000249087010BD00001402002004000020F1
:1015100010B50A480A4901600A4941600221018167
:1015200040224FF4964100F05DFCBDE8104040229F
:101530004FF4E131044801F033B900000802002003
:1015400000440040000801400038014070B5204CC4
:1015500042F210712069884202D2401C206170BDA5
:1015600060690025421C6261884203D9E5702571DB
:10157000256165611748016CD0F8E82016484E1CBB
:101580004FF0010304D0A6688E4201D0E6783EB148
:10159000511C13D0E168914210D0217941B10DE086
:1015A000A160E370BDE870408A080CA100F0ECBFB8
:1015B000E260237192080CA100F0E6FFE0780128B8
:1015C000CDD120790128CAD1E5702571256170BD82
:1015D0000400002090000020003801404348313AC8
:1015E00025302E38580D0A004348323A25302E381F
:1015F000580D0A00704700002DE9FF5F90B0884643
:1016000014461D464FF0000A4FF0FF094FF0000B43
:1016100000270026FE4A1098D314811A4FF4806CDC
:10162000904272D00EDCB0F1804F42D0F9494018A0
:101630006ED060456BD0984203D10121082000F0A4
:1016400061FACEE0B1F5806F73D0B1F58E3F03D073
:10165000B1F5923F17D1C0E00121C80200F06EFA47
:10166000B8F1000F09D0B8F1010F0DD0B8F1020F99
:1016700011D0B8F1030F06D114E0DFF89CA34FF4AA
:1016800080794FF0040BACE0DFF88CA34FF40079C5
:101690004FF0040BA5E0DFF880A34FF480694FF012
:1016A000040B9EE0DFF870A34FF400694FF0040BC9
:1016B00097E00121084600F025FAB8F1000F09D0A3
:1016C000B8F1010F0DD0B8F1020F11D0B8F1030F2E
:1016D00006D113E0DFF840A34FF001094FF0040BEF
:1016E0007FE0DFF834A34FF002094FF0040B78E0FD
:1016F000DFF824A34FF00409CB4672E0DFF818A30B
:101700004FF008094FF0040B6BE05CE000E02DE0C7
:101710000121022000F0F6F9B8F1000F0AD0B8F16B
:10172000010F0ED0B8F1020F12D0B8F1030F58D14B
:1017300015E04DE0DFF8E0A24FF040094FF0040B58
:101740004FE0DFF8D4A24FF080094FF0040B48E0DF
:10175000DFF8C8A24FF001094FF0080B41E0DFF8B5
:10176000BCA24FF002094FF0080B3AE0012104201F
:1017700000F0C8F9B8F1000F09D0B8F1010F0DD091
:10178000B8F1020F11D0B8F1030F2AD114E0DFF83D
:101790008CA24FF040094FF0080B22E0DFF87CA24A
:1017A0004FF080094FF0080B1BE0DFF870A24FF4F8
:1017B00080794FF0080B14E0DFF860A24FF4007955
:1017C0004FF0080B0DE00121102000F09BF908E01C
:1017D0000121202000F096F903E00121480300F0E8
:1017E000ADF90121084600F0A9F90121584600F0A1
:1017F000A5F9ADF8349003208DF8360018208DF847
:1018000037000DA95046FFF751FD01A800F004FA7A
:10181000DFF80C921098DFF80CB229EA00094EF6B6
:10182000602A22462B4600205946FEF7BAFDCDE934
:101830000E10B9F1000F28D0DDF80C90DDE90E1084
:101840000022794BFEF75AFE22D20022774B204627
:101850002946FEF734FD04460D464846FEF727FEAE
:1018600022462B46FEF79DFD04460D4657460022B4
:101870006F4B20462946FEF794FD00226D4BFEF784
:101880001EFDFEF721FE86B293E0DDF81090D5E74D
:10189000DDE90E105B460022FEF730FE1FD200226B
:1018A000614B20462946FEF70AFD04460D46484690
:1018B000FEF7FDFD22462B46FEF773FD04460D465E
:1018C000574600225A4B20462946FEF76AFD002261
:1018D000594BFEF7F4FCFEF7F7FD86B269E00022F3
:1018E0005B4620462946FEF709FE62D84846FEF7C9
:1018F000DEFD22462B46FEF754FD04460D4601222E
:1019000020462946FEF7BCFD04460D4600224B4BFF
:1019100020462946FEF7F2FD0BD84FF4FA67002265
:10192000474B20462946FEF73CFDFEF7CDFD86B22B
:101930003FE00022434B20462946FEF7DFFD0AD850
:10194000C82700223B4B20462946FEF72AFDFEF71A
:10195000BBFD86B22DE000223B4B20462946FEF718
:10196000CDFD0AD814270022334B20462946FEF726
:1019700018FDFEF7A9FD86B21BE00022334B20467E
:101980002946FEF7BBFD0AD8022700227B07204626
:101990002946FEF706FDFEF797FD86B209E001270E
:1019A00000225B4620462946FEF7FBFCFEF78CFD35
:1019B00086B27F1EADF82870701EADF82C00002492
:1019C000ADF82E40ADF82A400AA9109800F098FD15
:1019D0001E9846434FF47A70864204D9B6FBF0F065
:1019E00080B21E9003E01E9808B101201E90602076
:1019F000ADF818001E98ADF81E00ADF8204001208B
:101A0000ADF81A00B8F1000F2AD0B8F1010F1FE0AD
:101A10000010004000FCFFBF00080140000C014026
:101A2000000001400000F03F000024400000594049
:101A3000004CED400000694000003440D01263418A
:101A400000409F4080842E41006AF84040FFEF40F4
:101A50000BD0B8F1020F0DD0B8F1030F13D10EE087
:101A600006A9109800F044FC0DE006A9109800F0BB
:101A700077FC08E006A9109800F0BEFC03E006A978
:101A8000109800F0FFFC0121109800F022FCB8F142
:101A9000000F09D0B8F1010F0BD0B8F1020F0DD033
:101AA000B8F1030F13D10EE00821109800F052FC9A
:101AB0000DE00821109800F095FC08E0082110982E
:101AC00000F0DAFC03E00821109800F00DFD012180
:101AD000109800F0E1FB0121109800F0EDFB14B02C
:101AE000BDE8F09F70470000054A002903D0516906
:101AF0000143516170475169814351617047000052
:101B000000100240054A002903D0D1690143D16188
:101B10007047D1698143D1617047000000100240D5
:101B2000054A002903D01169014311617047116909
:101B3000814311617047000000100240054A0029EE
:101B400003D091690143916170479169814391612B
:101B50007047000000100240054A002903D0D168F8
:101B60000143D1607047D1688143D1607047000064
:101B70000010024010B500F031F84FF480342046D8
:101B800000F0CAF800F014F9012822D11020FFF764
:101B900009FA0220FFF712FA002000F0B3F8002043
:101BA00000F0E2F8A01100F0D5F84FF4E011204663
:101BB00000F0EAF8012000F0E1F8392000F082F8A6
:101BC0000028FAD0022000F0E9F800F093F8082885
:101BD000FBD1BDE81040FFF717BB00000B480168C0
:101BE00041F0010101604168094A1140416001680A
:101BF000084A11400160016821F4802101604168B8
:101C000021F4FE0141600021816070470010024014
:101C10000000FFF8FFFFF6FE10B5264A516801F0FC
:101C20000C01254B002927D0042927D0082927D0CB
:101C30000360516801F0F0010909204B5C5C016808
:101C4000E1404160546804F4E064240A1C5D21FA18
:101C500004F48460546804F46054E40A1B5DD940C1
:101C6000C160526802F44042920B144B1B1F9A5CF5
:101C7000B1FBF2F1016110BD0360DAE70360D8E760
:101C8000516801F47011022303EB9141536803F48E
:101C9000803333B153689B0307D5094B5943016027
:101CA000C7E7074B59430160C3E7034B5943016042
:101CB000BFE700000010024000127A00083500085B
:101CC00000093D00034600205909094A01290AD0AC
:101CD00002290AD0516A03F01F02012393400B42EC
:101CE00000D0012070471168F5E7116AF3E70000A2
:101CF000001002400248406800F00C0070470000ED
:101D000000100240034A516821F0F0010143516084
:101D100070470000001002400C490A6822F480322B
:101D20000A600A6822F480220A60B0F5803F07D07A
:101D3000B0F5802F03D1086840F4A02008607047F8
:101D4000086840F4803008607047000000100240CE
:101D500070470000034A516821F4E061014351607B
:101D60007047000000100240034A516821F460519E
:101D700041EAC00050607047001002400149086607
:101D80007047000000004242034B5A6822F47C1264
:101D9000084310435860704700100240034A5168DE
:101DA00021F0030101435160704700000010024020
:101DB00030B50B4C40F2FF153120FFF783FF207048
:101DC0006068401C6060207810B96068A842F3D158
:101DD0003120FFF777FF08B1012030BD002030BD72
:101DE0001C00002010B50446206800F0D9FC2189B1
:101DF0006068FFF795F961682089486110BD7047F8
:101E000070477047704770477047704770B5002241
:101E100000F1820301784FF6FF748C40A4B20029D0
:101E200007D0491EC9B24568AD680689354200D061
:101E3000012241B1491EC9B2C568AD68068A354262
:101E400001D042F0020241B1491EC9B24569AD68F4
:101E5000068B354201D042F0040241B1491EC9B29D
:101E6000C569AD68068C354201D042F0080241B127
:101E7000491EC9B2456AAD68068D354201D042F0AF
:101E8000100241B1491EC9B2C56AAD68068E35421D
:101E900001D042F0200241B1491EC9B2456BAD6884
:101EA000068F354201D042F0400249B1491EC9B205
:101EB000C56BAD68B0F84060354201D042F0800299
:101EC00049B1491EC9B2456CAD68B0F848603542A9
:101ED00001D042F4807249B1491EC9B2C56CAD68E7
:101EE000B0F85060354201D042F4007249B1491E49
:101EF000C9B2456DAD68B0F85860354201D042F4C2
:101F0000806249B1491EC9B2C56DAD68B0F8606064
:101F1000354201D042F4006249B1491EC9B2456E52
:101F2000AD68B0F86860354201D042F4805249B1E2
:101F3000491EC9B2C56EAD68B0F87060354201D0B7
:101F400042F4005249B1491EC9B2456FAD68B0F8BC
:101F50007860354201D042F4804239B1C16F89685E
:101F6000B0F88050294201D042F400422243D143CC
:101F700089B21960A0F88410084670BDFFF7FABD59
:101F800007480649016020228280816010228281F8
:101F9000016108218182FFF741BA0000000C014075
:101FA0009C02002010B50C4C042020700B4860608F
:101FB00010212181E0602021218260614021218364
:101FC000E06180202084204600F00CF82046FFF7D6
:101FD0001DFF0349087010BD1402002000080140D5
:101FE0000400002070B505462C78002C05D0298906
:101FF0006868FFF771F8641EE4B22CB1298AE868BA
:10200000FFF76AF8641EE4B22CB1298B6869FFF708
:1020100063F8641EE4B22CB1298CE869FFF75CF820
:10202000641EE4B22CB1298D686AFFF755F8641E6E
:10203000E4B22CB1298EE86AFFF74EF8641EE4B2D0
:102040002CB1298F686BFFF747F8641EE4B234B1F6
:10205000B5F84010E86BFFF73FF8641EE4B234B106
:10206000B5F84810686CFFF737F8641EE4B234B175
:10207000B5F85010E86CFFF72FF8641EE4B234B1E5
:10208000B5F85810686DFFF727F8641EE4B234B154
:10209000B5F86010E86DFFF71FF8641EE4B234B1C4
:1020A000B5F86810686EFFF717F8641EE4B234B133
:1020B000B5F87010E86EFFF70FF8641EE4B234B1A3
:1020C000B5F87810686FFFF707F8641EE4B2002CCB
:1020D00006D0B5F88010E86FBDE87040FEF7FCBF91
:1020E00070BD00F0A7B8000010B50446002C2BD03E
:1020F0001648FFF791FD4FF0E021086920F002003B
:102100000861086920F001000861086920F00400F6
:1021100008610E480E4A0068B0FBF2F06043486167
:10212000086940F002000861086940F00100086198
:1021300000208861086940F0020008614A6905488A
:102140000260096989B2416010BD0000C40200202C
:1021500000127A002800002010B50446002C2DD073
:102160001748FFF759FD4FF0E020016921F0020107
:102170000161016921F001010161016921F004019E
:1021800001610F494FF4FA520968B1FBF2F1416164
:10219000016941F0010101610022826106E081696B
:1021A0000029FCD081690029FCD1641E002CF6D1E5
:1021B00004490B68436182614968016110BD0000F8
:1021C000C40200202800002038B5054600240094F1
:1021D000002D28D01448FFF71FFD4FF0E0210869BB
:1021E00020F002000861086920F001000861086918
:1021F00020F0040008610C480C4A0068B0FBF2F0C3
:1022000068434861086940F0010008618C61886991
:102210000028FCD088690028FCD1054802684A6182
:102220008C614068086138BDC402002000127A0049
:102230002800002000F0E2BC7047704770477047EC
:1022400010B500F05BF9BDE810400121014800F035
:1022500030B80000002C014010B500F04FF901210A
:10226000BDE81040880700F024B8000010B500F069
:1022700045F9BDE810400121014800F01AB80000FE
:102280000004004000F03AB970477047704770474B
:102290007047704700F032B9002904D0018841F03E
:1022A000800101807047018840F27F321140018037
:1022B0007047C94301827047002904D0018841F06A
:1022C000010101807047018840F2FE321140018017
:1022D0007047002905D030F8441F41F400410180C7
:1022E000704730F8441FC1F30E01018070470000B1
:1022F00030B5028C22F001020284058C8388028BA7
:1023000022F070020C88144325F002020D89154357
:102310004A882A43CD8885860C4DA84202D00C4DB0
:10232000A8420FD122F008054A892A4322F0040569
:102330008A882A4323F4014323F402438D891D43F1
:10234000CB892B4383800483028430BD002C014061
:1023500000340140028B22F008020A4302837047D6
:1023600070B5028C22F010020284028C8388048BE8
:1023700024F4E0460D884FF6FF7404EA0525354342
:1023800022F020020E8904EA061616434A8804EA5F
:1023900002123243CE880687104EB04202D0104E51
:1023A000B04217D122F080024E8904EA0616164385
:1023B00026F040068A8804EA0212324323F40443DA
:1023C00023F408438E8904EA86061E43C98904EA79
:1023D0008103334383800583028470BD002C014058
:1023E00000340140028B22F400624FF6FF7303EACF
:1023F000012111430183704770B5028C22F4807271
:102400000284028C8388848B24F070040D88254319
:1024100022F400720E894FF6FF7404EA0626164372
:102420004A8804EA02223243CE888687104EB042A0
:1024300002D0104EB04217D122F400664A8904EA55
:102440000222324322F480668A8804EA022232435E
:1024500023F4104323F420438E8904EA06161E4316
:10246000C98904EA0113334383808583028470BDE4
:10247000002C014000340140828B22F008020A4304
:102480008283704770B5028C22F480520284058CDE
:102490008288838B23F4E0460C884FF6FF7303EAAF
:1024A0000424344325F400560D8903EA05353543E9
:1024B0004E8803EA06362E43CD88A0F84050084DDA
:1024C000A84202D0074DA84205D1C2F30D05898963
:1024D00003EA81122A4382808483068470BD00004F
:1024E000002C014000340140828B22F400624FF640
:1024F000FF7303EA012111438183704700F07EBB23
:10250000028802F08F020280CA884B881A4303882F
:102510001A4302808A8882850A8802850122828283
:10252000044A904202D0044A904201D1097A0186BD
:1025300070470000002C01400034014000F05EBBF9
:1025400000F05CBB00F05ABB00F058BB00F056BB7B
:102550000A0A01219140C94301807047002904D033
:10256000818941F4005181817047818921F40051B2
:1025700081817047002A03D0828A0A438282704791
:10258000828A8A43828270470FB438B5044606AA0D
:102590001848059900F036FB00210091164B9C422B
:1025A00005D182B21349184600F030F81EE0134BF3
:1025B0009C4205D182B20F49184600F027F815E079
:1025C0000F4B9C4205D182B20A49184600F01EF812
:1025D0000CE00C4B9C4205D182B20649184600F033
:1025E00015F803E008498C4200D1002038BC80B2C5
:1025F0005DF814FBD80A0020003801400044004078
:1026000000480040004C0040005000402DE9F041DF
:102610000E4614464FF48072944200D91446554B2E
:10262000554DC11A4FF4806C4FF4E137984276D083
:1026300011DC5249411835D061457ED18089800432
:1026400003D439464E4800F0ABF8286AE8B3E8698D
:10265000C0074FD071E0614571D0B1F56C4F6CD1BE
:102660008089800403D43946464800F099F8A86C64
:1026700010B1686CC00760D1224631464248FDF770
:1026800065FD686C20F0010068644FF4805068605C
:10269000AC643D482865686C40F0010068642046E1
:1026A000BDE8F0818089800404D434483946404232
:1026B00000F076F8D5F8840018B1D5F88000C0078E
:1026C0003BD122463146314800E013E0FDF73EFDA4
:1026D00055F8800F20F0010028604FF0807045F819
:1026E0007C0C6C602948E860286840F00100286094
:1026F0002046D5E7224631462548FDF727FDE86903
:1027000020F00100E861102068602C622048A86277
:10271000E86940F00100E8612046C1E7FFE78089F1
:10272000800403D43946184600F03AF8194F386847
:102730003D1F28B12868C00702D00020B0E717E08D
:10274000224631461448FDF701FD286820F00100BB
:10275000286010491148583908603C600D490E48FE
:1027600008310860286840F001002860204697E79B
:10277000002095E7004C00400000024000BCFFBF75
:102780000048004000380140D8060020D80700204B
:10279000D80800205C040240D80900200000011085
:1027A0002DE9F74F94B014464FF0000B0020019034
:1027B0000090824600270026002580468146149A14
:1027C000A64BDFF8A4C2D11A9444CDE912C1A448A3
:1027D000DFF890E29A4256D01FDC1299A9B34FF469
:1027E0008062914260D18CB38480A04DDFF88082FA
:1027F000C14617464FF4006601210846FFF79EF9CF
:1028000001219C48FEF7A4FD01210820FFF796F95D
:1028100001218804FFF776F946E04FF48062914287
:1028200071D0B1F56C4F3FD18CB10480924DF04620
:10283000C1464FF40077164601210520FFF77EF9C7
:1028400001218803FFF77AF92EE004E017E04FF446
:1028500080710180EAE774B14480884DF046C1463A
:102860000427082601210420FFF768F90121480404
:10287000FFF748F918E04FF480714180EDE74FF41D
:1028800080718180B1E7ECB3C4807D4DDFF8F481C5
:10289000C1464FF480677E0001211120FFF74EF9F9
:1028A0000121C804FFF72EF9ADF8087018208DF843
:1028B0000B0003208DF80A0002A94046FEF7F6FC43
:1028C000ADF8086048208DF80B0002A94846FEF7D5
:1028D000EDFC149800F0DEF8159803900026ADF892
:1028E0001060ADF81260ADF814600C20ADF8160061
:1028F000ADF8186003A9149800F034F9DDE913016C
:10290000564A01E009E08DE091423FD009DC12987F
:10291000D8B1B0F5806F46D128E04FF48071C18006
:10292000B3E7B0F5806F7DD0B0F56C4F3BD1DFF8E9
:1029300058B1554814300190801400904FF4803AFB
:1029400001210846FFF7D0F82DE0DFF83CB10BF18C
:102950003C0B4D48283001904FF0807000904FF4B0
:10296000801A01210846FFF7BFF81CE0DFF818B114
:10297000ABF1280B444814380190102000904FF41C
:10298000807A01210846FFF7AFF80CE0DFF8FCB0D1
:102990003E48283801903E4800904FEA305A0121C5
:1029A0000220FFF7A1F8149F3F1D079708951020FC
:1029B00009900A940B964FF08008CDF830800D9660
:1029C0000E960F964FF40059CDF84090119607A936
:1029D0005846FEF773F90797089509960A940B96DF
:1029E000CDF830800D960E960F96CDF8409011964A
:1029F00007A90198FEF762F900215846FEF736F95B
:102A000001210198FEF732F9012240211498FFF7C5
:102A1000B1FD012280211498FFF7ACFD00220221B4
:102A2000584600E016E0FEF73FF90098FEF712F96D
:102A30005046FEF70FF940F2244400222146149834
:102A400000F076F821461498FFF782FD01211498D2
:102A5000FFF784FD17B0BDE8F08F0000004C004088
:102A6000300000200008014000BCFFBFD804002057
:102A7000000C014000023000D8020020D8030020E2
:102A8000D8050020001001404400024058040240D4
:102A90000000011010B5244A811A131590422BD062
:102AA0000FDC224940181CD098423BD1040201217E
:102AB0002046FFF735F82046BDE810400021FFF71B
:102AC0002FB8994223D0B1F56C4F2BD101218C0343
:102AD0002046FFF741F82046BDE810400021FFF7EF
:102AE0003BB801214C042046FFF71AF82046BDE808
:102AF00010400021FFF714B80121CC042046FFF755
:102B00000FF82046BDE810400021FFF709B8012169
:102B10000C052046FFF704F82046BDE810400021D0
:102B2000FEF7FEBF10BD0000004C004000BCFFBF20
:102B300010B5C1F3421301F01F040121A140012B84
:102B400007D0022B07D014303AB102680A43026062
:102B500010BD0C30F8E71030F6E702688A430260D7
:102B600010BD000030B585B004460D46208A4CF6F5
:102B7000FF710840E98801432182A1894EF6F310D4
:102B80000140A8882A8910436A890A431043A0811A
:102B9000A08A4FF6FF410840A9890143A1826846F7
:102BA000FFF73AF81148844201D1039800E00298F7
:102BB00000EBC00101EB001029688900B0FBF1F0C7
:102BC0006423B0FBF3F109010A096FF018056A43A9
:102BD00000EB8200322202EB0010B0FBF3F000F0B9
:102BE0000F000843208105B030BD000000380140CF
:102BF000704770477047FEE7FEF746BCFEF776BCAD
:102C00007047000037B514460846064B6A46214611
:102C100000F0CCF804466946002000F05EFC204637
:102C20003EBD0000DB34000802E008C8121F08C1E6
:102C3000002AFAD170477047002001E001C1121F3D
:102C4000002AFBD1704700002DE9FF5FDDE902207B
:102C5000010DDDF838B0024318D044F61050A1F24F
:102C6000FF3141430D140F98012820D0A5EB0B0034
:102C7000401C5FEA000A4FF00004474EDFF81C9149
:102C8000A046504616D5CAF1000728E00F98012447
:102C900043A2012808D0002100980F9BC0E9002121
:102CA000C0E90243BDE8FF9F6FEA0B01F4E7CBF1F7
:102CB0000000DEE7074612E0F80707D02246334659
:102CC00040464946FDF7FBFA804689462246334690
:102CD00010461946FDF7F3FA04460E467F10002F02
:102CE000EAD1DDE90201BAF1000F42464B4602DAB1
:102CF000FDF7E5FA01E0FDF754FB04460E4600221D
:102D0000284BFDF7FBFB03D84FF0FF30014607E0EF
:102D10000022254B20463146FDF72AFAFDF7DBFC61
:102D2000102409E0002C0ADB0A220023FDF714FC22
:102D3000019B30321A55641E50EA0102F2D1641C24
:102D4000019AC4F1110314440F9A012A03D00122FD
:102D500008430DD10AE0084304D000204FF0110BC6
:102D60000F9080E7A3EB0B056D1E0DE05B4504DDC6
:102D70004FF0000205F1010504E003DA4FF0000214
:102D8000A5F10105002AECD000980F99C0E90231A5
:102D9000C0E9004586E70000000024400000F03F45
:102DA000300000000000F0430000E03F2DE9FF4F3D
:102DB00095B09B468946064600250FE2252877D127
:102DC00000242746F84A0121059400E0044316F840
:102DD000013F203B01FA03F01042F7D130782A2856
:102DE00011D06FF02F033078A0F13002092A16D8E5
:102DF000059A44F0020402EB820203EB4202104403
:102E0000761C0590EFE759F8042B0592002A03DAA7
:102E1000504244F40054059044F00204761C30788B
:102E20002E2816D116F8010F44F004042A280DD0DC
:102E30006FF02F023078A0F13003092B09D807EB8F
:102E4000870302EB4303C718761CF3E759F8047BAA
:102E5000761C30786C280FD006DC4C2817D06828F8
:102E60000DD06A2814D104E0742810D07A280FD12C
:102E70000DE044F400140AE044F4801401E044F44A
:102E800040147278824202D104F58014761C761CBC
:102E9000307866280BD013DC582877D009DC00285E
:102EA00075D04528F6D04628F4D047281AD19DE1A0
:102EB00018E0632835D0642879D0652812D195E1CF
:102EC000702873D008DC6728F1D069286FD06E288D
:102ED0000DD06F2806D1B5E073282CD0752875D099
:102EE000782874D05A46179990476D1C75E1C4F341
:102EF0000250022809D003280DD0D9F80010042868
:102F00000DD00D6009F1040967E1D9F80010EA1746
:102F1000C1E90052F6E7D9F800100D80F2E70D7014
:102F2000F0E719F8041B8DF8001000208DF801005F
:102F3000EA46012003E059F804AB4FF0FF30610787
:102F40004FF0000102D40DE008F101018846B942BA
:102F50000FDA8045F8DB1AF808100029F4D108E0F0
:102F600008F1010188468142FADB1AF808100029AD
:102F7000F6D105985B46A0EB080721463846179A1C
:102F800000F094FA284400EB080507E04DE029E141
:102F90000DE01AF8010B5A4617999047B8F101084D
:102FA000F7D25B4621463846179A13E142E00A22DF
:102FB0000092C4F302524FF0000A022A08D059F8D6
:102FC00004CB032A4FEAEC710AD00DE029E02AE095
:102FD00009F1070121F00702F2E802C1914609E078
:102FE0000FFA8CFC4FEAEC71042A03D14FFA8CFCE7
:102FF0004FEAEC71002907DA0A460021DCF1000CE7
:1030000061EB02012D2202E0220504D52B228DF86E
:103010000420012203E0E20701D02022F7E79046D6
:1030200059E00A2102E010220DE010214FF0000AC1
:1030300000910BE010224FF0000A44F0040408272E
:10304000009203E008224FF0000A0092C4F30252FB
:10305000022A05D059F804CB0021032A08D009E040
:1030600009F1070121F00702F2E802C1914605E0EB
:103070001FFA8CFC042A01D10CF0FF0C4FF0000861
:10308000220728D5702806D0009B83F0100353EA4E
:103090000A0305D00EE040228DF80420012208E04A
:1030A0005CEA010206D030228DF804208DF805007C
:1030B00002229046009B83F0080353EA0A030AD1D8
:1030C0005CEA010201D1620705D530228DF80420A7
:1030D0004FF001087F1E582804D034A003900EA89A
:1030E00002900DE036A0F9E753466046009AFDF7DE
:1030F00033FA84460398825C0298401E0290027064
:103100005CEA0100F0D1029806A9081A00F1200A31
:10311000600702D524F4803400E00127574502DD22
:10312000A7EB0A0000E0002000EB0A0100900598E0
:103130004144401A0590E00306D45B462146179AA5
:10314000059800F0B3F90544002706E001A85A46A7
:10315000C05D179990476D1C7F1C4745F6DBE00367
:103160000CD55B462146179A059800F09FF9054457
:1031700004E030205A46179990476D1C0099481E6C
:1031800000900029F5DC08E0029802995A46007880
:10319000491C0291179990476D1CBAF10001AAF1E0
:1031A000010AF1DC65E10000092801003031323309
:1031B0003435363738396162636465660000000073
:1031C000303132333435363738394142434445465D
:1031D0000000000000F058F90544761C3078002803
:1031E0007FF4ECAD19B02846BDE8F08F620700D43B
:1031F000062709F1070222F0070CFCE80223E1464A
:1032000003F000485FEA080C02D00FF2702C0DE0CA
:103210005FEA045C02D50FF2682C07E05FEAC47C29
:1032200002D00FF2602C01E0AFF2700C4FF0FF38CB
:1032300023F00043CDF850C065280CD006DC4528AB
:1032400009D046281DD047283DD13DE0662818D03A
:1032500067287ED138E00021112F01DB112000E02A
:10326000781CCDE9000106A90EA8FFF7EDFCDDE909
:103270000F010E9A03910021009207F1010A0491B7
:103280004DE04FF000400097CDE9011006A90EA8CF
:10329000FFF7DAFCDDE90F0203920E9B1199002281
:1032A000DDF80CA00093049211B9791C00EB010A1F
:1032B000B7EB0A0004D4C0F1FF3007F1010A049013
:1032C000AAEB0700019044E0012F00DA012700215A
:1032D000112F01DD112000E03846CDE9000106A9DB
:1032E0000EA8FFF7B1FCDDE90F010E9A0391002152
:1032F00004910092BA4621070CD40399514500DA93
:103300008A46BAF1010F05DD009AAAF10101515C6C
:10331000302908D0B84202DA10F1040F06DA012190
:10332000CDE9011015E0AAF10101E9E7002805DC6B
:10333000049901440491AAEB000102E0411C5145AB
:1033400000DD8A460499401A401C01904FF000406D
:103350000290200704D40198504501DBCDF8048089
:1033600000208DF84F0002980DF14F07B0F1004F8B
:1033700025D02B200E9002984FF0020800280CDA7E
:10338000404202902D200E9007E00A210298FDF79E
:10339000CDF83031029007F8011DB8F10001A8F115
:1033A0000108F2DC02980028EFD1791E0E9808700F
:1033B000307800F0200040F0450007F8020D12A818
:1033C000C01B00F107081498007800B1012000EB41
:1033D0000A01019801EBE07105984144401A401E32
:1033E0000590E00306D45B462146179A059800F045
:1033F0005DF805441498007818B15A46179990471B
:103400006D1CE00324D55B462146179A059800F011
:103410004DF805441CE00498002807DBDDE90301B2
:10342000884203DD0098405C179901E0179930202D
:103430005A469047049805F10105401C04900198F4
:10344000401E019004D12E205A46179990476D1CBA
:10345000BAF10001AAF1010ADDDC05E017F8010B61
:103460005A46179990476D1CB8F10001A8F1010860
:10347000F4DC5B462146179A0598ABE62D00000068
:103480002B000000200000002DE9F041044600253B
:103490001E461746880404D405E039462020B0476C
:1034A0006D1C641EF9D52846BDE8F0812DE9F04178
:1034B000044600251E469046C80301D5302700E08B
:1034C0002027880404D505E041463846B0476D1CE6
:1034D000641EF9D52846BDE8F0810A68531C0B60CC
:1034E00010707047FFF788FB05494FF0807300228A
:1034F0000868401C08609842FAD30A60F8E70000A8
:10350000000000200204060800000000010203047D
:1035100001020304060708093835000800000020EE
:1035200050000000282C00088835000850000020BA
:1035300008130000382C0008000000000001020001
:10354000000000000000000000000000000000007B
:10355000000000000000000000000000000000006B
:10356000000000000000000000000000000000005B
:10357000000000000000000000000000000000004B
:08358000000000000000000043
:0400000508000131BD
:00000001FF
