:020000040800F2
:10000000880A002045010008D71300088D13000856
:10001000D51300087D070008F33000080000000039
:100020000000000000000000000000008721000820
:10003000A10C000800000000611A00088B240008D1
:10004000FD3000087115000805250008772100081B
:10005000B90E0008CD1C0008A30C0008AB0C00086A
:10006000AF0C0008B30C0008B70C0008390B0008EF
:100070003D0B0008410B0008450B0008490B000828
:100080004D0B0008510B00085D070008EF30000819
:10009000F13000087F07000881070008BB0C00084A
:1000A000072500080D2500080B2500080925000874
:1000B000252500083925000851250008911300085E
:1000C0008F13000895130008931300087B21000884
:1000D0007D210008112800081528000819280008AB
:1000E000A70C000875210008ED3000085B2500080A
:1000F000612500085F2500085D2500085F070008EE
:10010000ED0E00087921000855250008812100081E
:10011000092800080D28000857250008592500085F
:10012000550B0008590B00085D0B0008610B000817
:10013000DFF80CD000F000FB00480047E139000870
:10014000880A0020004800473101000840EA010306
:100150009B0703D009E008C9121F08C0042AFAD27D
:1001600003E011F8013B00F8013B521EF9D2704741
:10017000D2B201E000F8012B491EFBD270470022E9
:10018000F6E710B513460A4604461946FFF7F0FF96
:10019000204610BD421C10F8011B0029FBD1801A1B
:1001A00070472DE9FE4F804681EA0300C00F0C46E0
:1001B000009021F0004123F00045B8EB0200A94176
:1001C00005D24046214690461C460B46024623F087
:1001D0000040104347D0270DC7F30A00C3F30A516C
:1001E0000290401A019040286BDAC3F3130040F4E8
:1001F000801B0098924620B10023D2EB030A63EBE8
:100200000B0B01985946C0F14002504600F0EDF941
:1002100006460D4650465946019A00F005FA10EB85
:1002200008006141002487EA115284EAE7731A4307
:1002300040D0009A62B3019A012A4FEA075215DCB6
:10024000001B61EB02014FF0004202EA0752CDE9C8
:100250000042001C41F5801132462B4600F005FAA1
:1002600003B0BDE8F08F40462146F9E7001B61EB83
:100270000201001C41F5801300185B412018A2F513
:10028000001747EB030140EAD570B6196D4111E044
:100290006D084FEA360645EAC0754FEA0752001B63
:1002A00061EB0201001C41F5801149084FEA300062
:1002B0000019514132462B4603B0BDE8F04F00F023
:1002C000C5B90098012240000023D0EB020263EB85
:1002D000E073009821464FEAE074B8EB000061EB50
:1002E0000401E9E783F000435BE781F0004158E750
:1002F0002DE9FE4F81EA030404F0004421F000419F
:1003000000944FF0000B23F0004350EA01045ED04C
:1003100052EA03045BD0C3F30A54C1F30A552C44D8
:10032000A4F2F3340194A0FB0254C1F3130141F48D
:100330008011C3F3130343F4801301FB024400FB59
:10034000034E840A970A44EA815447EA8357A4FB80
:10035000076802958D0A05FB07854FEA932C04FB7D
:100360000C542705029D4FEA065847EA1637B5EBAD
:1003700008056EEB070C870E920E47EA811742EADA
:100380008312A7FB0201B6EB0B0164EB00042B0DFB
:1003900043EA0C335E1844EB1C50DA465146E7FB47
:1003A0000201C5F313044FEA0B3343EA14534FEA37
:1003B0000432019C43EA0603A4F10C040294009C5D
:1003C000CDE900B400F051F903B0BDE8F08F002092
:1003D0000146F9E72DE9F04D81EA030404F0004BF2
:1003E00021F0004514464FF0000A23F0004150EA86
:1003F000050220D054EA01021DD0C5F30A57024677
:10040000C5F31303C1F31300C1F30A5640F480157A
:1004100043F48013A7EB0608101BD64608F2FD38FC
:1004200073EB050002D308F1010801E092185B416B
:10043000B8F1000F03DA00200146BDE8F08D00207E
:100440004FF48011064684460EE0171B73EB050738
:1004500005D3121B63EB050306434CEA010C490864
:100460004FEA300092185B4150EA0107EDD152EAA1
:10047000030012D082EA040083EA0501084305D094
:10048000101BAB4106D20122002306E000224FF0F0
:10049000004302E06FF0010253101AEB06004CEB30
:1004A000085110EB0A0041EB0B01BDE8F04D00F0E4
:1004B000CDB870B521F0004303430CD0C1F30A5509
:1004C0000024D5EB040564EB0403D617AD1AB34141
:1004D00002DB0020014670BD201841EB025170BDC7
:1004E0000EB540F2334102910021CDE900110A46D8
:1004F0000B4600F0BAF803B000BDC1F30A5210B5C4
:10050000C1F3130140F2FF3341F480119A4201DA42
:10051000002010BD40F233439A42A2F2334203DC82
:10052000524200F071F810BD904010BD30B5041E6D
:1005300071F1000404DB4FF00044404264EB010120
:10054000141E73F1000405DB1C464FF000435242B9
:1005500063EB0403994208BF904230BD30B50B46AF
:10056000014600202022012409E021FA02F59D42E3
:1005700005D303FA02F5491B04FA02F52844151EB7
:10058000A2F10102F1DC30BD2DE9F05F054600204B
:1005900092469B4688460646814640241BE02846F4
:1005A00041464746224600F02FF853465A46C01AA5
:1005B000914110D311461846224600F016F82D1A24
:1005C00067EB01084F4622460120002100F00DF89C
:1005D00017EB00094E41201EA4F10104DFDC484660
:1005E00031462A464346BDE8F09F202A04DB203AE4
:1005F00000FA02F1002070479140C2F1200320FA76
:1006000003F3194390407047202A04DB203A21FA73
:1006100002F00021704721FA02F3D040C2F120021B
:100620009140084319467047202A06DBCB17203A31
:1006300041FA02F043EAE07306E041FA02F3D040E7
:10064000C2F12002914008431946704710B5141EAC
:1006500073F1000408DA401C41F1000192185B417B
:100660001A4301D120F0010010BD2DE9F04D924652
:100670009B4611B1B1FA81F202E0B0FA80F2203269
:100680009046FFF7B2FF04460F4640EA0A0041EAEF
:100690000B0153465A46084313D0114653EA010052
:1006A00019D0C8F140025046FFF7AEFF05460E468E
:1006B000504659464246FFF798FF084305D00120AF
:1006C00004E020463946BDE8F08D0020054346EAA7
:1006D000E0762C4337430A986305E40AA0EB080050
:1006E0000022FD0A44EA47540A3002D500200146A0
:1006F000E9E7010510196941DDE90845001969417B
:10070000BDE8F04DA2E7C1F30A52C1F3130140F274
:10071000FF3341F480119A4202DA0020014670470B
:1007200040F233439A42A2F2334202DC5242FFF7D4
:100730006BBFFFF75ABF0000064C074D06E0E068AC
:1007400040F0010394E8070098471034AC42F6D318
:10075000FFF7F2FC143A0008343A0008704770477B
:1007600005480449016080228280816040218181A6
:1007700000F011BE000C0140E0010020FEE77047D0
:1007800070478188006800F09EBD8188006800F095
:1007900098BD00000848074901608A148280816082
:1007A000D200828101615210828281614914818369
:1007B00000F039B8000C014028010020401E411C07
:1007C000FCD1704770B505462846FFF7DEFF00BF35
:1007D00000BF00BF00BF00BF00BF284600F040F9C7
:1007E00050B14FF0FF3400BF00BF00BF00BF28462C
:1007F000FFF7C7FF204670BD0021284600F05EF9D4
:10080000284600F0DEF80406284600F0DAF804EB8B
:100810000044284600F0D5F804EB0024284600F0F8
:10082000D0F80444DFE770B5044604F18C05A188D4
:10083000206800F001FCA189A06800F0FDFBA18BFD
:10084000A06900F0F9FBA18A206900F0D1FB2046E5
:1008500000F004F80020286070BD00002DE9F04190
:100860000746002500243846FFF78FFF4CF2503230
:100870001046FFF7A3FF1046FFF7A0FF1046FFF753
:100880009DFF1046FFF79AFF1046FFF797FF1046AF
:10089000FFF794FFFF21384600F010F96D1CEDB210
:1008A0000F2DF7D33220FFF789FFFE21384600F0E5
:1008B00005F93220FFF782FF4FF00052032138463E
:1008C00000F020F94FF4FA784046FFF777FF002157
:1008D000384600F0F3F83220FFF770FF00220321C2
:1008E000384600F00FF93220FFF768FF0A20FFF7C3
:1008F00065FF2A4D4FF47A760B21384600F084F8D4
:100900002860C00004D52046641CA4B2B042F3D3D2
:10091000B44241D20B21384600F076F82860092114
:10092000384600F071F828600A21384600F06CF86B
:1009300040F0006028600B21384600F065F840F474
:10094000005028608521384600F0B6F886213846E8
:1009500000F0B2F82A680321384600F0D3F80B21E2
:10096000384600F051F820F000622A600321384632
:1009700000F0C8F86FF07F420221384600F0C2F85C
:10098000C021384600F098F84046FFF717FF384678
:10099000BDE8F041FFF7F5BEBDE8F081440000205E
:1009A00070B505464FF0FF342846FFF7EEFE2846A7
:1009B00000F056F818B92846FFF704FF040A20464D
:1009C00070BD70B506460024304600F045F800259D
:1009D00000BF00BF304600F033F800BF00BF00BFCB
:1009E00000BF6006040E304600F03AF808B1641CFF
:1009F000E4B2304600F028F800BF00BF6D1CEDB235
:100A0000082DE5D3204670BD38B50546002000907E
:100A1000284600F053F82846FFF7D3FF040628467F
:100A2000FFF7CFFF04EB00442846FFF7CAFF04EBB3
:100A300000242846FFF7C5FF20440090009838BDE9
:100A4000818B806900F03FBC818B806900F039BCEC
:100A50008189806800F037BC8189806800F031BCF2
:100A6000818A006900F026BC70B500260C48FFF7AB
:100A700097FF04460B4DA9688C4202D9601A286181
:100A800001E0081B2861E8686861601C04D0A208C6
:100A900005A1084801F0E2FEAC60EE6070BD000008
:100AA00028010020040000204348313A25302E3828
:100AB000580D0A0000380140AFF3008070B50646BB
:100AC0000D460024280603D53046FFF7C1FF02E09B
:100AD0003046FFF7C1FF00BF00BF00BF00BF304678
:100AE000FFF7AEFF00BF00BF00BF00BF3046FFF7FB
:100AF000ABFF00BF00BF6806050E641CE4B2082C03
:100B0000E0D370BD70B5054614462846FFF7D6FF02
:100B1000210E2846FFF7D2FFC4F307412846FFF70E
:100B2000CDFFC4F307212846FFF7C8FFE1B22846EE
:100B3000BDE87040FFF7C2BF00F06AB800F068B8C7
:100B400000F066B800F064B800F062B800F060B879
:100B500000F05EB800F05CB800F05AB800F058B889
:100B600000F056B8C10002D502490860704702493A
:100B7000486070470404024000000240002904D08D
:100B8000016841F0010101607047016821F0010135
:100B900001607047406880B2704700000246002044
:100BA000D10002D50449096801E0044909681142ED
:100BB00000D0012070470000000402400000024005
:100BC000002A03D002680A430260704702688A4321
:100BD0000260704730B5026847F6F0739A430C6ABA
:100BE0008B682343D1E904452C4323438C69234379
:100BF000CC6923434C6A23438C6A23431343036029
:100C0000CA6842600A6882604968C16030BD0000FD
:100C100010B502F071FA1020FFF7C0FF01281BD0B9
:100C20004FF480542046FFF7B9FF01281DD024035C
:100C30002046FFF7B3FF012821D0164C2046FFF7CE
:100C4000ADFF012825D12046FFF78CFFBDE81040FD
:100C500000211148FFF792BF1020FFF783FFBDE886
:100C6000104000210D48FFF789BF2046FFF77AFFAB
:100C70000A480021BDE810402830FFF77FBF20461A
:100C8000FFF770FF05480021BDE810406430FFF712
:100C900075BF10BD00000110580402401C00024046
:100CA000704700F0C1B800F0BFB800F0BDB800F068
:100CB000BBB800F0B9B800F0B7B800F0B5B80000A4
:100CC00001490860704700001404014010B501207C
:100CD00000F09AF84B4C20B1208840F001002080B1
:100CE00010BD022000F090F820B1208840F00200F2
:100CF000208010BD042000F087F820B1208840F04B
:100D00000400208010BD082000F07EF820B120886B
:100D100040F00800208010BD102000F075F820B1D0
:100D2000208840F01000208010BD202000F06CF8DA
:100D300020B1208840F02000208010BD402000F02D
:100D400063F820B1208840F04000208010BD802052
:100D500000F05AF820B1208840F08000208010BDBB
:100D60004FF4807000F050F820B1208840F480707B
:100D7000208010BD4FF4007000F046F820B12088AC
:100D800040F40070208010BD4FF4806000F03CF80B
:100D900020B1208840F48060208010BD4FF40060B6
:100DA00000F032F820B1208840F40060208010BDAF
:100DB0004FF4805000F028F820B1208840F4805093
:100DC000208010BD4FF4005000F01EF820B12088A4
:100DD00040F40050208010BD4FF4804000F014F823
:100DE00020B1208840F48040208010BD4FF40040A6
:100DF00000F00AF80028F8D0208840F40040208055
:100E000010BD00002400002001460020054A1268A1
:100E10000A40044B14331B680B4202D0002A00D056
:100E2000012070470004014008B500200090FFF742
:100E30004DFF02F061F91F48BDF80010018001204C
:100E4000FFF73EFF0220FFF73BFF0420FFF738FFCC
:100E50000820FFF735FF1020FFF732FF2020FFF7B3
:100E60002FFF4020FFF72CFF8020FFF729FF4FF4D2
:100E70008070FFF725FF4FF40070FFF721FF4FF45C
:100E80008060FFF71DFF4FF40060FFF719FF4FF47C
:100E90008050FFF715FF4FF40050FFF711FF4FF49C
:100EA0008040FFF70DFFBDE808404FF40040FFF71A
:100EB00007BF0000240000207047000004490A68B2
:100EC00022F010020A600A6802430A6070470000BC
:100ED0000020024004490A6802F038020A600A68E9
:100EE00002430A607047000000200240704710B5BE
:100EF0000121084600F0EEFD0021BDE81040012070
:100F000000F0E8BD70B50C46364A811A1315D614A8
:100F1000904253D017DC3449344D41184FF6FF72DC
:100F20001ED0994234D0B1425AD10121102000F094
:100F3000C3FD600401D4200452D5BDE870400121F6
:100F4000112000F0B9BD99423ED0B14242D0B1F576
:100F5000406F45D1BDE870400121080200F0ACBDF2
:100F6000A00405D4600403D4200401D4944209D120
:100F70000121052000F0A0FD2846BDE870400121B8
:100F800000F072B9BDE870400121042000F094BD6A
:100F9000200703D4E00601D4944209D1012109209D
:100FA00000F08AFD2846BDE87040012100F05CB9E0
:100FB000BDE870400121082000F07EBDBDE8704012
:100FC0000121202000F078BDBDE8704001214020C3
:100FD00000F072BDBDE870400121802000F06CBDC2
:100FE00070BD00000014014000F8FEBF0002300098
:100FF00038B50446ADF8001002228DF802204822D0
:101000008DF803202046FFF77DFF6946204600F05B
:10101000D9F838BD38B50446ADF8001002228DF875
:10102000022010228DF803202046FFF76BFF69464F
:10103000204600F0C7F838BD38B50446ADF80010BA
:1010400003228DF8022010228DF803202046FFF79E
:1010500059FF6946204600F0B5F838BD10B52E4A54
:10106000811A1315D414904237D010DC2B49401844
:101070001FD0984227D0A0424DD10121102000F06E
:1010800029FD0021BDE81040102000F023BD994249
:101090002DD0A14235D0B1F5406F3CD101210C02D9
:1010A000204600F017FD2046BDE81040002100F06A
:1010B00011BD0121042000F00DFD0021BDE810400C
:1010C000042000F007BD0121082000F003FD0021ED
:1010D000BDE81040082000F0FDBC0121202000F0F8
:1010E000F9FC0021BDE81040202000F0F3BC0121F4
:1010F000402000F0EFFC0021BDE81040402000F04F
:10110000E9BC0121802000F0E5FC0021BDE8104091
:10111000802000F0DFBC10BD0014014000F8FEBFCD
:101120002DE9F84F684600F0D0F81F4C694620467C
:1011300000F048F81D4D6946284600F043F81C4E63
:101140006946304600F03EF81A4F6946384600F0CE
:1011500039F8DFF864806946404600F033F8DFF87C
:101160005C906946484600F02DF8DFF854A06946C7
:10117000504600F027F82046FFF770FF2846FFF79B
:101180006DFF3046FFF76AFF3846FFF767FF4046BE
:10119000FFF764FF4846FFF761FF5046FFF75EFF29
:1011A000FFF7A5FEBDE8F88F00080140000C0140E4
:1011B000001001400014014000180140001C0140D3
:1011C000002001402DE9F0430022CC7804F00F0309
:1011D000E40601D58C7823430C784FF00F0714F008
:1011E000FF0F4FF0010C1BD005680CFA02F40E88BB
:1011F0002640A64210D1960007FA06F825EA08050F
:1012000003FA06F848EA0505CE78282E00D1446195
:10121000CE78482E00D10461521C082AE5D305601F
:101220000A88FF2A1ED94568002202F108060CFA36
:1012300006F40E882640A64210D1960007FA06F85A
:1012400025EA080903FA06F545EA0905CE78282EAD
:1012500000D14461CE78482E00D10461521C082A86
:10126000E3D34560BDE8F083F0B5114D6B68C0F382
:101270000342440D260184B2C0F30157B440032F4A
:1012800007D0C0020CD503209040834343F0706226
:1012900009E023F07062686820F07060686002E026
:1012A000A34343F0706201B122436A60F0BD0000C5
:1012B000000001400246002092680A4200D001204E
:1012C000704741617047016170474FF6FF710180BF
:1012D000022181700421C1707047401E411CFCD165
:1012E000704710B50446A1882068FFF7A5FEA189C4
:1012F000A068FFF7A1FEA18A2069BDE81040FFF7B2
:101300009BBE818A0069FFF7DEBF818A0069FFF713
:10131000D8BF81898068FFF7D6BF81898068FFF7D1
:10132000D0BF81880068FFF7CEBF81880068FFF7D3
:10133000C8BF2DE9F04107460D46002441F288362A
:101340003846FFF7E6FF3046FFF7C7FF280603D50C
:101350003846FFF7EAFF02E03846FFF7E2FF68068B
:10136000050E3046FFF7B9FF3846FFF7D6FF304687
:10137000FFF7B3FF641CE4B2082CE1D3BDE8F081B1
:10138000014A515CFFF7D5BF3A000020FEE77047E5
:1013900070477047704710B50446A1882068FFF772
:1013A0004BFEA189A068FFF747FEA189A068FFF75F
:1013B0008AFFA1882068BDE81040FFF784BF00F0D5
:1013C00001B8000002494AF6AA20086070470000F0
:1013D00000300040FEE7704738B500F08DFFFFF7A2
:1013E0009FFE02211548FFF715FE154C10212046DF
:1013F000FFF7FEFD20212046FFF7FAFD40212046A1
:10140000FFF7F6FD80212046FFF7F2FD00F09EFF7A
:1014100000F074FF4FF47A7001F03AF8FFF7BAF970
:1014200000F062F8FFF79CF94FF461700022009021
:10143000044B1146000700F09DF838BD0010014034
:10144000000801400000F03F70B5FFF7B8FF244EE0
:10145000F088401C84B2F480642C12D12148012110
:10146000017002214170032181700421C1700521A6
:10147000017106214171072181710821C171092182
:1014800001720025C82C05D1F57055220A21154896
:10149000FEF76EFE0A2C19D37078401CC0B2707033
:1014A000B178491CC9B2B170092800D975700929F1
:1014B00000D9B570F58000F033FFFFF7D5FA307929
:1014C000401CC0B23071FF2800D33571054811307F
:1014D00000F05AFE3070BDE8704000F027B8000000
:1014E000040000208300002010B50D480B49016066
:1014F0000C494160022101810923A0F1D4024FF47B
:10150000964100F051FD064A4023BDE81040B93A2B
:101510004FF4E131044801F0C1BA0000004400403A
:101520001C010020000801400038014010B50E4A9F
:1015300002F1090101F1CB0000F0FCFDC0B2052869
:1015400011D90A48084A123201781170511C826878
:101550000A60C06848600922491EBDE8104001F1D8
:10156000C20000F0FDBB10BD4800002004000020B8
:10157000704700002DE9FF5F90B0884614461D4675
:101580004FF0000A4FF0FF094FF0000B0027002634
:10159000FE4A1098D314811A4FF4806C904272D096
:1015A0000EDCB0F1804F42D0F94940186ED0604552
:1015B0006BD0984203D10121082000F061FACEE0FF
:1015C000B1F5806F73D0B1F58E3F03D0B1F5923F86
:1015D00017D1C0E00121C80200F06EFAB8F1000F87
:1015E00009D0B8F1010F0DD0B8F1020F11D0B8F148
:1015F000030F06D114E0DFF89CA34FF480794FF07D
:10160000040BACE0DFF88CA34FF400794FF0040B2F
:10161000A5E0DFF880A34FF480694FF0040B9EE053
:10162000DFF870A34FF400694FF0040B97E001213D
:10163000084600F025FAB8F1000F09D0B8F1010F03
:101640000DD0B8F1020F11D0B8F1030F06D113E09D
:10165000DFF840A34FF001094FF0040B7FE0DFF803
:1016600034A34FF002094FF0040B78E0DFF824A315
:101670004FF00409CB4672E0DFF818A34FF00809D9
:101680004FF0040B6BE05CE000E02DE00121022054
:1016900000F0F6F9B8F1000F0AD0B8F1010F0ED042
:1016A000B8F1020F12D0B8F1030F58D115E04DE098
:1016B000DFF8E0A24FF040094FF0040B4FE0DFF8F5
:1016C000D4A24FF080094FF0040B48E0DFF8C8A225
:1016D0004FF001094FF0080B41E0DFF8BCA24FF0DA
:1016E00002094FF0080B3AE00121042000F0C8F98C
:1016F000B8F1000F09D0B8F1010F0DD0B8F1020F09
:1017000011D0B8F1030F2AD114E0DFF88CA24FF00A
:1017100040094FF0080B22E0DFF87CA24FF080096F
:101720004FF0080B1BE0DFF870A24FF480794FF008
:10173000080B14E0DFF860A24FF400794FF0080BBB
:101740000DE00121102000F09BF908E0012120208C
:1017500000F096F903E00121480300F0ADF9012102
:10176000084600F0A9F90121584600F0A5F9ADF8A6
:10177000349003208DF8360018208DF837000DA91D
:101780005046FFF71FFD01A800F004FADFF80C92A5
:101790001098DFF80CB229EA00094EF6602A2246BA
:1017A0002B4600205946FEF715FECDE90E10B9F183
:1017B000000F28D0DDF80C90DDE90E100022794BE7
:1017C000FEF7B4FE22D20022774B20462946FEF7D0
:1017D0008FFD04460D464846FEF782FE22462B4604
:1017E000FEF7F8FD04460D46574600226F4B204693
:1017F0002946FEF7EFFD00226D4BFEF779FDFEF75F
:101800007CFE86B293E0DDF81090D5E7DDE90E109E
:101810005B460022FEF78AFE1FD20022614B204663
:101820002946FEF765FD04460D464846FEF758FE7C
:1018300022462B46FEF7CEFD04460D4657460022B3
:101840005A4B20462946FEF7C5FD0022594BFEF7AC
:101850004FFDFEF752FE86B269E000225B4620464D
:101860002946FEF763FE62D84846FEF739FE224657
:101870002B46FEF7AFFD04460D46012220462946C1
:10188000FEF717FE04460D4600224B4B2046294624
:10189000FEF74CFE0BD84FF4FA670022474B204668
:1018A0002946FEF797FDFEF728FE86B23FE00022AC
:1018B000434B20462946FEF739FE0AD8C8270022A6
:1018C0003B4B20462946FEF785FDFEF716FE86B205
:1018D0002DE000223B4B20462946FEF727FE0AD882
:1018E00014270022334B20462946FEF773FDFEF7EE
:1018F00004FE86B21BE00022334B20462946FEF749
:1019000015FE0AD8022700227B0720462946FEF74B
:1019100061FDFEF7F2FD86B209E0012700225B4679
:1019200020462946FEF756FDFEF7E7FD86B27F1EEC
:10193000ADF82870701EADF82C000024ADF82E40D4
:10194000ADF82A400AA9109800F040FF1E984643BF
:101950004FF47A70864204D9B6FBF0F080B21E9044
:1019600003E01E9808B101201E906020ADF8180019
:101970001E98ADF81E00ADF820400120ADF81A0009
:10198000B8F1000F2AD0B8F1010F1FE0001000409D
:1019900000FCFFBF00080140000C014000000140B6
:1019A0000000F03F0000244000005940004CED4092
:1019B0000000694000003440D012634100409F4065
:1019C00080842E41006AF84040FFEF400BD0B8F110
:1019D000020F0DD0B8F1030F13D10EE006A9109835
:1019E00000F0ECFD0DE006A9109800F01FFE08E0E5
:1019F00006A9109800F066FE03E006A9109800F012
:101A0000A7FE0121109800F0CAFDB8F1000F09D01F
:101A1000B8F1010F0BD0B8F1020F0DD0B8F1030FE0
:101A200013D10EE00821109800F0FAFD0DE0082116
:101A3000109800F03DFE08E00821109800F082FEAA
:101A400003E00821109800F0B5FE0121109800F085
:101A500089FD0121109800F095FD14B0BDE8F09FBC
:101A600070470000054A002903D0516901435161C4
:101A70007047516981435161704700000010024076
:101A8000054A002903D0D1690143D1617047D1696A
:101A90008143D1617047000000100240054A0029CF
:101AA00003D01169014311617047116981431161CC
:101AB0007047000000100240054A002903D09169D8
:101AC00001439161704791698143916170470000C2
:101AD00000100240054A002903D0D1680143D160BB
:101AE0007047D1688143D160704700000010024008
:101AF00010B500F031F84FF48034204600F0CAF8F9
:101B000000F014F9012822D11020FFF7D7F90220A4
:101B1000FFF7E0F9002000F0B3F8002000F0E2F851
:101B2000A01100F0D5F84FF4E011204600F0EAF8DB
:101B3000012000F0E1F8392000F082F80028FAD006
:101B4000022000F0E9F800F093F80828FBD1BDE886
:101B50001040FFF7E5BA00000B48016841F00101B1
:101B600001604168094A114041600168084A11401A
:101B70000160016821F480210160416821F4FE01C7
:101B80004160002181607047001002400000FFF8B2
:101B9000FFFFF6FE10B5264A516801F00C01254BF7
:101BA000002927D0042927D0082927D003605168AD
:101BB00001F0F0010909204B5C5C0168E1404160E3
:101BC000546804F4E064240A1C5D21FA04F484607F
:101BD000546804F46054E40A1B5DD940C160526843
:101BE00002F44042920B144B1B1F9A5CB1FBF2F1C2
:101BF000016110BD0360DAE70360D8E7516801F4C2
:101C00007011022303EB9141536803F4803333B125
:101C100053689B0307D5094B59430160C7E7074B3E
:101C200059430160C3E7034B59430160BFE700001C
:101C30000010024000127A00043A000800093D003A
:101C4000034600205909094A01290AD002290AD06D
:101C5000516A03F01F02012393400B4200D0012080
:101C600070471168F5E7116AF3E7000000100240C1
:101C70000248406800F00C0070470000001002406D
:101C8000034A516821F0F0010143516070470000A0
:101C9000001002400C490A6822F480320A600A6887
:101CA00022F480220A60B0F5803F07D0B0F5802F83
:101CB00003D1086840F4A02008607047086840F429
:101CC000803008607047000000100240704700003C
:101CD000034A516821F4E0610143516070470000FC
:101CE00000100240034A516821F4605141EAC000EB
:101CF00050607047001002400149086670470000BC
:101D000000004242034B5A6822F47C1208431043FD
:101D10005860704700100240034A516821F00301E7
:101D200001435160704700000010024030B50B4C79
:101D300040F2FF153120FFF783FF20706068401CE0
:101D40006060207810B96068A842F3D13120FFF7B5
:101D500077FF08B1012030BD002030BD1C000020FD
:101D60002DE9F04707460D4614463868DFF80C8227
:101D7000834E40453AD1706CDFF80892C00725D0F9
:101D80004846FEF707FF002872D18021404601F047
:101D900031F8012802D00020BDE8F087384600F075
:101DA000E5F900BF00BF00BF00BF00BF4FF4005007
:101DB000FEF7D8FE00214846FEF7E0FEB464356524
:101DC00001214846FEF7DAFE2046E5E7384600F0F6
:101DD000CDF900BF00BF00BF00BF00BFB4643565D0
:101DE00001214846FEF7CAFE2046D5E7DFF8988174
:101DF00040453ED1D6F88000DFF89091C00726D04C
:101E00004846FEF7C7FE08B10020C5E780214046DE
:101E100000F0F0FF012801D00020BDE7384600F0B7
:101E2000A5F900BF00BF00BF00BF00BF4FF00070AA
:101E3000FEF798FE00214846FEF7A0FE46F8844FC4
:101E4000B56001214846FEF799FE2046A4E73846D2
:101E500000F08CF900BF00BF00BF00BF00BF46F814
:101E6000844FB56001214846FEF788FE204693E77F
:101E700081E0DFF81C81404539D1F069DFF8149129
:101E8000C00724D04846FEF785FE08B1002083E74E
:101E90008021404600F0AEFF012801D000207BE702
:101EA000384600F063F900BF00BF00BF00BF00BFAD
:101EB0002020FEF757FE00214846FEF75FFE346201
:101EC000B56201214846FEF759FE204664E73846D0
:101ED00000F04CF900BF00BF00BF00BF00BF34627C
:101EE000B56201214846FEF749FE204654E7DFF877
:101EF000A88040453FD1294A1068DFF8A490C00768
:101F000002F1040626D092465046FEF743FE08B181
:101F1000002041E78021404600F06CFF012801D0FD
:101F2000002039E7384600F021F900BF00BF00BFAC
:101F300000BF00BF1B48FEF715FE00215046FEF70C
:101F40001DFE3460C9F8005001215046FEF716FE10
:101F5000204621E7384600F009F900BF00BF00BF66
:101F600000BF00BF3460C9F8005001211046FEF7E1
:101F700005FE204610E700200EE700000038014073
:101F80000000024044000240004400408000024043
:101F9000004800401C000240004C00405804024031
:101FA000640402400000021010B50446206800F0EE
:101FB00075FD21896068FFF73FF8616820894861F5
:101FC00010BD000070B504462068544D5449A84225
:101FD00025D1486CC00718D051484430FEF7DAFDCF
:101FE00008B1002070BD8021284600F003FF0128C1
:101FF00001D0002070BD00BF00BF00BF00BF00BF08
:10200000208961684861012070BD00BF00BF00BF2A
:1020100000BF00BF208961684861012070BD414D4B
:10202000A84226D1D1F88000C00718D03C488030A3
:10203000FEF7B0FD08B1002070BD8021284600F0F9
:10204000D9FE012801D0002070BD00BF00BF00BF35
:1020500000BF00BF208961684861012070BD00BFDA
:1020600000BF00BF00BF00BF208961684861012038
:1020700070BD2D4DA84225D1C869C00718D0284889
:102080001C30FEF787FD08B1002070BD8021284676
:1020900000F0B0FE012801D0002070BD00BF00BFDD
:1020A00000BF00BF00BF208961684861012070BD8A
:1020B00000BF00BF00BF00BF00BF2089616848614A
:1020C000012070BD194DA84225D119490868C007E3
:1020D00017D00846FEF75EFD08B1002070BD8021D4
:1020E000284600F087FE012801D0002070BD00BF07
:1020F00000BF00BF00BF00BF2089616848610120A8
:1021000070BD00BF00BF00BF00BF00BF2089616875
:102110004861012070BD002070BD00000038014002
:10212000000002400044004000480040004C0040D5
:10213000580402402DE9F04104460D46164600279A
:102140004021206800F056FE68B18021206800F030
:1021500051FE40B12046FFF735FF32462946206840
:1021600000F0CCFE07463846BDE8F08101894068A2
:1021700001617047704770477047704700F001B8C1
:10218000704700F0B9BF704770B5002200F18203BC
:1021900001784FF6FF748C40A4B2002907D0491E85
:1021A000C9B24568AD680689354200D0012241B107
:1021B000491EC9B2C568AD68068A354201D042F0F1
:1021C000020241B1491EC9B24569AD68068B35426C
:1021D00001D042F0040241B1491EC9B2C569AD68DF
:1021E000068C354201D042F0080241B1491EC9B205
:1021F000456AAD68068D354201D042F0100241B10A
:10220000491EC9B2C56AAD68068E354201D042F09A
:10221000200241B1491EC9B2456BAD68068F3542F7
:1022200001D042F0400249B1491EC9B2C56BAD6848
:10223000B0F84060354201D042F0800249B1491EF9
:10224000C9B2456CAD68B0F84860354201D042F47F
:10225000807249B1491EC9B2C56CAD68B0F8506012
:10226000354201D042F4007249B1491EC9B2456DF0
:10227000AD68B0F85860354201D042F4806249B18F
:10228000491EC9B2C56DAD68B0F86060354201D075
:1022900042F4006249B1491EC9B2456EAD68B0F85A
:1022A0006860354201D042F4805249B1491EC9B23A
:1022B000C56EAD68B0F87060354201D042F400528E
:1022C00049B1491EC9B2456FAD68B0F87860354272
:1022D00001D042F4804239B1C16F8968B0F88050B2
:1022E000294201D042F400422243D14389B219600D
:1022F000A0F88410084670BDFFF7FABB07480649EE
:102300000160202282808160102282810161082187
:102310008182FEF7E6BF0000000C0140B8010020FA
:1023200010B50848FEF7EDFF074C06486178FFF747
:1023300027F8A1780348FFF723F8BDE810400148CB
:10234000FEF7E3BFB80100200400002010B50C48E0
:10235000042101700B49416010220281C1602022DA
:102360000282416140220283C1618021018400F028
:102370000DF80348FFF708FF0349087010BD00007F
:1023800094000020000801400400002070B50546BC
:102390002C78002C05D029896868FEF729FE641E78
:1023A000E4B22CB1298AE868FEF722FE641EE4B28A
:1023B0002CB1298B6869FEF71BFE641EE4B22CB1B8
:1023C000298CE869FEF714FE641EE4B22CB1298D55
:1023D000686AFEF70DFE641EE4B22CB1298EE86A2D
:1023E000FEF706FE641EE4B22CB1298F686BFEF77F
:1023F000FFFD641EE4B234B1B5F84010E86BFEF79F
:10240000F7FD641EE4B234B1B5F84810686CFEF70D
:10241000EFFD641EE4B234B1B5F85010E86CFEF77D
:10242000E7FD641EE4B234B1B5F85810686DFEF7EC
:10243000DFFD641EE4B234B1B5F86010E86DFEF75C
:10244000D7FD641EE4B234B1B5F86810686EFEF7CB
:10245000CFFD641EE4B234B1B5F87010E86EFEF73B
:10246000C7FD641EE4B234B1B5F87810686FFEF7AA
:10247000BFFD641EE4B2002C06D0B5F88010E86FF2
:10248000BDE87040FEF7B4BD70BD00F039B8000083
:1024900010B50446002C2BD01648FFF77BFB4FF0FD
:1024A000E021086920F002000861086920F00100BD
:1024B0000861086920F0040008610E480E4A0068AF
:1024C000B0FBF2F060434861086940F00200086127
:1024D000086940F00100086100208861086940F047
:1024E000020008614A6905480260096989B24160D1
:1024F00010BD0000F001002000127A00280000202A
:1025000000F0FABD704770477047704710B500F093
:102510005BF9BDE810400121014800F030B800002F
:10252000002C014010B500F04FF90121BDE810402A
:10253000880700F024B8000010B500F045F9BDE8A8
:1025400010400121014800F01AB8000000040040CA
:1025500000F03AB97047704770477047704770474E
:1025600000F032B9002904D0018841F080010180D7
:102570007047018840F27F32114001807047C943A3
:1025800001827047002904D0018841F001010180D7
:102590007047018840F2FE321140018070470029E7
:1025A00005D030F8441F41F400410180704730F8F5
:1025B000441FC1F30E0101807047000030B5028C4A
:1025C00022F001020284058C8388028B22F07002C3
:1025D0000C88144325F002020D8915434A882A43CA
:1025E000CD8885860C4DA84202D00C4DA8420FD153
:1025F00022F008054A892A4322F004058A882A43E2
:1026000023F4014323F402438D891D43CB892B43DB
:1026100083800483028430BD002C014000340140DB
:10262000028B22F008020A430283704770B5028CC5
:1026300022F010020284028C8388048B24F4E0468A
:102640000D884FF6FF7404EA0525354322F0200279
:102650000E8904EA061616434A8804EA0212324337
:10266000CE880687104EB04202D0104EB04217D12D
:1026700022F080024E8904EA0616164326F0400630
:102680008A8804EA0212324323F4044323F4084301
:102690008E8904EA86061E43C98904EA810333430E
:1026A00083800583028470BD002C0140003401400A
:1026B000028B22F400624FF6FF7303EA01211143FB
:1026C0000183704770B5028C22F480720284028C00
:1026D0008388848B24F070040D88254322F40072D3
:1026E0000E894FF6FF7404EA062616434A8804EA68
:1026F00002223243CE888687104EB04202D0104E5E
:10270000B04217D122F400664A8904EA0222324319
:1027100022F480668A8804EA0222324323F41043BA
:1027200023F420438E8904EA06161E43C98904EA6D
:102730000113334383808583028470BD002C0140E4
:1027400000340140828B22F008020A4382837047E2
:1027500070B5028C22F480520284058C8288838BAF
:1027600023F4E0460C884FF6FF7303EA0424344355
:1027700025F400560D8903EA053535434E8803EAF2
:1027800006362E43CD88A0F84050084DA84202D00E
:10279000074DA84205D1C2F30D05898903EA8112CC
:1027A0002A4382808483068470BD0000002C01408F
:1027B00000340140828B22F400624FF6FF7303EA7B
:1027C000012111438183704700F096BC028802F01A
:1027D0008F020280CA884B881A4303881A430280FA
:1027E0008A8882850A88028501228282044A904270
:1027F00002D0044A904201D1097A01867047000054
:10280000002C01400034014000F076BC00F074BCA4
:1028100000F072BC00F070BC00F06EBCC9430180D7
:1028200070470A0A01219140C9430180704700297D
:1028300004D0818941F4005181817047818921F45C
:10284000005181817047002A03D0828A0A43828224
:102850007047828A8A438282704700000FB438B57D
:1028600004460598FDF796FC06AA1948059900F05C
:1028700047FC00210091174B9C4205D182B21449BC
:10288000184600F031F81EE0134B9C4205D182B28D
:102890000F49184600F028F815E0104B9C4205D16E
:1028A00082B20B49184600F01FF80CE00C4B9C421A
:1028B00005D182B20649184600F016F803E009492E
:1028C0008C4200D1002038BC80B25DF814FB0000BF
:1028D000040200200038014000440040004800404D
:1028E000004C0040005000402DE9F0470D461446D2
:1028F0005F4F604EB8422BD1706CDFF87C81C0070F
:102900001ED04046FEF746F910B10020BDE8F08722
:102910008021384600F06EFA012801D00020F5E74A
:102920004FF40050FEF71EF900214046FEF726F94D
:10293000B464356501214046FEF720F92046E5E7FD
:10294000B464356501214046FEF718F92046DDE7FD
:102950004A4FB8422DD1D6F88000DFF82481C00755
:102960001ED04046FEF716F908B10020CEE78021C0
:10297000384600F03FFA012801D00020C6E74FF0AA
:102980000070FEF7EFF800214046FEF7F7F846F832
:10299000844FB56001214046FEF7F0F82046B5E7C8
:1029A00046F8844FB56001214046FEF7E7F820461F
:1029B000ACE7344FB84229D1F069DFF8CC80C007CA
:1029C0001CD04046FEF7E6F808B100209EE78021C3
:1029D000384600F00FFA012801D0002096E72020A9
:1029E000FEF7C0F800214046FEF7C8F83462B56231
:1029F00001214046FEF7C2F8204687E73462B562FF
:102A000001214046FEF7BAF820467FE71F4FB84243
:102A10007FF47BAF1E480168DFF87880C90700F1BA
:102A200004061DD08146FEF7B5F808B100206DE719
:102A30008021384600F0DEF9012801D0002065E74A
:102A40001548FEF78FF800214846FEF797F83460E6
:102A5000C8F8005001214846FEF790F8204655E797
:102A60003460C8F800500121FEF788F820464DE791
:102A70000038014000000240440002400044004091
:102A800080000240004800401C000240004C004012
:102A90005804024064040240000002102DE9FF4F78
:102AA00091B004464FF0000B002000908146824612
:102AB0000025002680460027994A149899499A4B88
:102AC00080B294420DD10880551516159846474698
:102AD00001210520FEF7F0FF01218803FEF7ECFF3E
:102AE00054E0924A94420DD1488004250826984625
:102AF000474601210420FEF7DFFF01214804FEF7CD
:102B0000BFFF43E08A4A944216D1888001210846DB
:102B1000FEF7D2FF01218748FEF7A6FB2515E61434
:102B2000DFF81482474601210820FEF7C5FF012186
:102B30008804FEF7A5FF29E0804B814A9C420DD115
:102B4000C8801515D6149046474601211120FEF77E
:102B5000B3FF0121C804FEF793FF17E0794B9C42B5
:102B600014D108819D1404269046774F012110202E
:102B7000FEF7A2FF01212020FEF79EFF012108465B
:102B8000FEF79AFF01210805FEF77AFFADF8045021
:102B900018208DF8070003208DF8060001A9404693
:102BA000FEF710FBADF8046048208DF8070001A97E
:102BB0003846FEF707FB204600F0CEF81298029048
:102BC0000025ADF80C50ADF80E50ADF810500C20AB
:102BD000ADF81200ADF8145002A9204600F048F9F3
:102BE0004F4884420DD1DFF864B15848143000904A
:102BF0004FF480594FF4803A01210846FEF732FF26
:102C000035E04A4884420FD1DFF840B10BF13C0B6C
:102C10004E48283000904FF080794FF4801A0121FF
:102C20000846FEF71FFF22E0414884420FD1DFF83B
:102C30001CB1ABF1280B4548143800904FF0100937
:102C40004FF4807A01210846FEF70CFF0FE03B4865
:102C500084420CD1DFF8F8B03D4828380090DFF806
:102C6000F4904FEA395A01210220FEF7FBFE201DA5
:102C70000646069013980790102008901498099023
:102C80000A9580270B970C950D950E954FF40058DB
:102C9000CDF83C80109506A95846FDF79BFF069697
:102CA000139807900895149809900A950B970C951E
:102CB0000D950E95CDF83C80109506A90098FDF76E
:102CC00089FF00215846FDF759FF01210098FDF7C3
:102CD00055FF012240212046FFF7B5FD012280214A
:102CE0002046FFF7B0FD002202215846FDF768FF9D
:102CF0004846FDF737FF5046FDF734FF40F22445C4
:102D000000222946204600F09AF829462046FFF77F
:102D100088FD01212046FFF78AFD15B0BDE8F08F40
:102D2000003801403000002000080140004400400D
:102D30000048004000023000000C0140004C004000
:102D400000100140005000400014014044000240C7
:102D5000580402400000011010B5244A811A1315CE
:102D600090422BD00FDC224940181CD098423BD116
:102D7000040201212046FEF791FE2046BDE81040E6
:102D80000021FEF78BBE994223D0B1F56C4F2BD1B9
:102D900001218C032046FEF79DFE2046BDE8104031
:102DA0000021FEF797BE01214C042046FEF776FE77
:102DB0002046BDE810400021FEF770BE0121CC0482
:102DC0002046FEF76BFE2046BDE810400021FEF7CE
:102DD00065BE01210C052046FEF760FE2046BDE8D9
:102DE00010400021FEF75ABE10BD0000004C00400C
:102DF00000BCFFBF0246002012880A4200D001201A
:102E0000704770B50024C1F3421301F01F0501267D
:102E100006FA05F2012B0CD0022B0DD0838A134049
:102E2000090A8E40008830400BB100B101242046D1
:102E300070BD83891340F3E7038A1340F0E710B5B0
:102E4000C1F3421301F01F040121A140012B07D05F
:102E5000022B07D014303AB102680A43026010BD59
:102E60000C30F8E71030F6E702688A43026010BDC4
:102E700030B585B004460D46208A4CF6FF710840F7
:102E8000E98801432182A1894EF6F3100140A88808
:102E90002A8910436A890A431043A081A08A4FF609
:102EA000FF410840A9890143A1826846FEF772FEEE
:102EB0001148844201D1039800E0029800EBC00160
:102EC00001EB001029688900B0FBF1F06423B0FB2E
:102ED000F3F109010A096FF018056A4300EB82005B
:102EE000322202EB0010B0FBF3F000F00F000843B9
:102EF000208105B030BD0000003801402DE9F047C9
:102F000088461446DFF8C491714D724F40F2244652
:102F1000484532D131464846FFF773FF28B91021A2
:102F20004846FFF767FF00287ED031464846FFF746
:102F300078FC10214846FFF771FCDFF898910021DA
:102F400009F158094846FDF719FE6048001D008840
:102F50004846FDF71FFE2988081A86B232462146E8
:102F60004046FDF7F3F87C662888F865012148465D
:102F7000FDF704FE3046BDE8F087DFF85C91484578
:102F800031D131464846FFF73CFF28B91021484669
:102F9000FFF730FF002847D031464846FFF741FC95
:102FA00010214846FFF73AFCDFF82891002109F18B
:102FB0006C094846FDF7E2FD4748001D0088484679
:102FC000FDF7E8FD6988081A86B232462146404678
:102FD000FDF7BCF8BC676888386701214846FDF7F3
:102FE000CDFD3046C7E7DFF8F490484533D1314690
:102FF0004846FFF706FF28B910214846FFF7FAFEBA
:10300000002861D031464846FFF70BFC10214846A6
:10301000FFF704FCDFF8BC90002109F130094846B5
:10302000FDF7ACFD2D4800E04EE0001D008848464D
:10303000FDF7B0FDA988081A86B2324621464046FF
:10304000FDF784F8FC63A888786301214846FDF702
:1030500095FD30468FE7224FB84230D13146384691
:10306000FFF7CFFE20B910213846FFF7C3FE58B353
:1030700031463846FFF7D5FB10213846FFF7CEFB27
:10308000184F00213846FDF779FD1548001D0088CE
:103090003846FDF77FFDE988081A86B23246214698
:1030A0004046FDF753F80F480C300460E888391D9E
:1030B000086001213846FDF761FD30465BE70A49AB
:1030C000884201D1002056E7002054E70038014033
:1030D0003000002000000240004400400048004052
:1030E000004C0040300402400050004070477047E0
:1030F0007047FEE7FEF770B9FEF7A6B9704700000B
:1031000037B514460846064B6A46214600F0CCF80F
:1031100004466946002000F05EFC20463EBD0000EB
:10312000D739000802E008C8121F08C1002AFAD1E6
:1031300070477047002001E001C1121F002AFBD137
:10314000704700002DE9FF5FDDE90220010DDDF889
:1031500038B0024318D044F61050A1F2FF31414379
:103160000D140F98012820D0A5EB0B00401C5FEA3E
:10317000000A4FF00004474EDFF81C91A04650466D
:1031800016D5CAF1000728E00F98012443A20128B0
:1031900008D0002100980F9BC0E90021C0E902433C
:1031A000BDE8FF9F6FEA0B01F4E7CBF10000DEE71B
:1031B000074612E0F80707D0224633464046494604
:1031C000FDF796F880468946224633461046194652
:1031D000FDF78EF804460E467F10002FEAD1DDE998
:1031E0000201BAF1000F42464B4602DAFDF780F8C1
:1031F00001E0FDF7EFF804460E460022284BFDF7EC
:1032000095F903D84FF0FF30014607E00022254B27
:1032100020463146FCF7C5FFFDF775FA102409E09A
:10322000002C0ADB0A220023FDF7AEF9019B3032A5
:103230001A55641E50EA0102F2D1641C019AC4F1CD
:10324000110314440F9A012A03D0012208430DD11F
:103250000AE0084304D000204FF0110B0F9080E7E4
:10326000A3EB0B056D1E0DE05B4504DD4FF0000286
:1032700005F1010504E003DA4FF00002A5F10105B4
:10328000002AECD000980F99C0E90231C0E900454E
:1032900086E70000000024400000F03F30000000FE
:1032A0000000F0430000E03F2DE9FF4F95B09B4642
:1032B0008946064600250FE2252877D100242746B7
:1032C000F84A0121059400E0044316F8013F203B31
:1032D00001FA03F01042F7D130782A2811D06FF0AC
:1032E0002F033078A0F13002092A16D8059A44F04D
:1032F000020402EB820203EB42021044761C0590AA
:10330000EFE759F8042B0592002A03DA504244F4FF
:103310000054059044F00204761C30782E2816D113
:1033200016F8010F44F004042A280DD06FF02F0284
:103330003078A0F13003092B09D807EB870302EBA3
:103340004303C718761CF3E759F8047B761C3078E2
:103350006C280FD006DC4C2817D068280DD06A28BE
:1033600014D104E0742810D07A280FD10DE044F471
:1033700000140AE044F4801401E044F4401472782C
:10338000824202D104F58014761C761C30786628BF
:103390000BD013DC582877D009DC002875D04528DD
:1033A000F6D04628F4D047281AD19DE118E06328CA
:1033B00035D0642879D0652812D195E1702873D072
:1033C00008DC6728F1D069286FD06E280DD06F28EF
:1033D00006D1B5E073282CD0752875D0782874D024
:1033E0005A46179990476D1C75E1C4F302500228A4
:1033F00009D003280DD0D9F8001004280DD00D6095
:1034000009F1040967E1D9F80010EA17C1E900528F
:10341000F6E7D9F800100D80F2E70D70F0E719F823
:10342000041B8DF8001000208DF80100EA460120F1
:1034300003E059F804AB4FF0FF3061074FF0000193
:1034400002D40DE008F101018846B9420FDA804547
:10345000F8DB1AF808100029F4D108E008F101019E
:1034600088468142FADB1AF808100029F6D105983F
:103470005B46A0EB080721463846179A00F094FAFD
:10348000284400EB080507E04DE029E10DE01AF8BB
:10349000010B5A4617999047B8F10108F7D25B46DD
:1034A00021463846179A13E142E00A220092C4F3FB
:1034B00002524FF0000A022A08D059F804CB032A1E
:1034C0004FEAEC710AD00DE029E02AE009F107018A
:1034D00021F00702F2E802C1914609E00FFA8CFCE4
:1034E0004FEAEC71042A03D14FFA8CFC4FEAEC71DD
:1034F000002907DA0A460021DCF1000C61EB020129
:103500002D2202E0220504D52B228DF80420012271
:1035100003E0E20701D02022F7E7904659E00A21B4
:1035200002E010220DE010214FF0000A00910BE0A4
:1035300010224FF0000A44F004040827009203E030
:1035400008224FF0000A0092C4F30252022A05D06A
:1035500059F804CB0021032A08D009E009F107013A
:1035600021F00702F2E802C1914605E01FFA8CFC47
:10357000042A01D10CF0FF0C4FF00008220728D5D7
:10358000702806D0009B83F0100353EA0A0305D08D
:103590000EE040228DF80420012208E05CEA0102DE
:1035A00006D030228DF804208DF8050002229046C6
:1035B000009B83F0080353EA0A030AD15CEA010284
:1035C00001D1620705D530228DF804204FF00108A3
:1035D0007F1E582804D034A003900EA802900DE05E
:1035E00036A0F9E753466046009AFCF7CDFF8446C3
:1035F0000398825C0298401E029002705CEA01000F
:10360000F0D1029806A9081A00F1200A600702D535
:1036100024F4803400E00127574502DDA7EB0A00BF
:1036200000E0002000EB0A01009005984144401A98
:103630000590E00306D45B462146179A059800F0F2
:10364000B3F90544002706E001A85A46C05D179962
:1036500090476D1C7F1C4745F6DBE0030CD55B46AD
:103660002146179A059800F09FF9054404E03020A0
:103670005A46179990476D1C0099481E00900029E2
:10368000F5DC08E0029802995A460078491C02913C
:10369000179990476D1CBAF10001AAF1010AF1DCFB
:1036A00065E1000009280100303132333435363706
:1036B000383961626364656600000000303132337E
:1036C000343536373839414243444546000000001E
:1036D00000F058F90544761C307800287FF4ECADF2
:1036E00019B02846BDE8F08F620700D4062709F11B
:1036F000070222F0070CFCE80223E14603F0004831
:103700005FEA080C02D00FF2702C0DE05FEA045C57
:1037100002D50FF2682C07E05FEAC47C02D00FF2FA
:10372000602C01E0AFF2700C4FF0FF3823F0004343
:10373000CDF850C065280CD006DC452809D04628B5
:103740001DD047283DD13DE0662818D067287ED19E
:1037500038E00021112F01DB112000E0781CCDE9B9
:10376000000106A90EA8FFF7EDFCDDE90F010E9A96
:1037700003910021009207F1010A04914DE04FF0FE
:1037800000400097CDE9011006A90EA8FFF7DAFC6A
:10379000DDE90F0203920E9B11990022DDF80CA0C7
:1037A0000093049211B9791C00EB010AB7EB0A00EF
:1037B00004D4C0F1FF3007F1010A0490AAEB07001E
:1037C000019044E0012F00DA01270021112F01DDD3
:1037D000112000E03846CDE9000106A90EA8FFF748
:1037E000B1FCDDE90F010E9A0391002104910092D2
:1037F000BA4621070CD40399514500DA8A46BAF13A
:10380000010F05DD009AAAF10101515C302908D0B1
:10381000B84202DA10F1040F06DA0121CDE90110F5
:1038200015E0AAF10101E9E7002805DC049901444B
:103830000491AAEB000102E0411C514500DD8A46DB
:103840000499401A401C01904FF00040029020075C
:1038500004D40198504501DBCDF8048000208DF898
:103860004F0002980DF14F07B0F1004F25D02B20EB
:103870000E9002984FF0020800280CDA40420290A5
:103880002D200E9007E00A210298FCF767FE3031E8
:10389000029007F8011DB8F10001A8F10108F2DC5F
:1038A00002980028EFD1791E0E980870307800F049
:1038B000200040F0450007F8020D12A8C01B00F1DF
:1038C00007081498007800B1012000EB0A01019864
:1038D00001EBE07105984144401A401E0590E00359
:1038E00006D45B462146179A059800F05DF805441A
:1038F0001498007818B15A46179990476D1CE00348
:1039000024D55B462146179A059800F04DF80544EA
:103910001CE00498002807DBDDE90301884203DD91
:103920000098405C179901E0179930205A4690475B
:10393000049805F10105401C04900198401E019077
:1039400004D12E205A46179990476D1CBAF10001F8
:10395000AAF1010ADDDC05E017F8010B5A461799B8
:1039600090476D1CB8F10001A8F10108F4DC5B463A
:103970002146179A0598ABE62D0000002B000000A9
:10398000200000002DE9F041044600251E461746A0
:10399000880404D405E039462020B0476D1C641E1D
:1039A000F9D52846BDE8F0812DE9F041044600250F
:1039B0001E469046C80301D5302700E02027880422
:1039C00004D505E041463846B0476D1C641EF9D564
:1039D0002846BDE8F0810A68531C0B6010707047E0
:1039E000FFF788FB05494FF0807300220868401CF0
:1039F00008609842FAD30A60F8E70000000000204F
:103A0000020406080000000001020304010203048E
:103A100006070809343A00080000002048000000AA
:103A2000243100087C3A000848000020400A0000C9
:103A30003431000800000000000102000000000016
:103A40000000000000000000000000000000000076
:103A50000000000000000000000000000000000066
:103A60000000000000000000000000000000C0F99D
:0C3A7000A4B0999282F880900000000041
:0400000508000131BD
:00000001FF
