:020000040800F2
:100000005013002045010008F7130008AD13000845
:10001000F51300084D0700089F29000800000000A4
:100020000000000000000000000000003F1C00086D
:10003000610D00080000000049190008471F000872
:10004000A9290008551500089D200008351C000846
:10005000790F0008851B0008630D00086B0D000870
:100060006F0D0008730D0008770D00080D0C0008D7
:10007000110C0008150C0008190C00081D0C0008D4
:10008000210C0008250C00082D0700089B290008FA
:100090009D2900084F070008510700087B0D000844
:1000A0009F200008A5200008A3200008A120000828
:1000B000BD200008D1200008E9200008B113000885
:1000C000AF130008B5130008B3130008391C00086B
:1000D0003B1C00088D23000891230008952300088D
:1000E000670D0008331C000899290008F320000858
:1000F000F9200008F7200008F52000082F07000865
:10010000AD0F0008371C0008ED2000083D1C00085A
:100110008523000889230008EF200008F12000084B
:10012000290C00082D0C0008310C0008350C0008C3
:10013000DFF80CD000F0E8FA004800478D320008E4
:1001400050130020004800473101000840EA010335
:100150009B0703D009E008C9121F08C0042AFAD27D
:1001600003E011F8013B00F8013B521EF9D2704741
:100170002DE9FE4F804681EA0300C00F0C46009037
:1001800021F0004123F00045B8EB0200A94105D25F
:100190004046214690461C460B46024623F000404E
:1001A000104347D0270DC7F30A00C3F30A5102904A
:1001B000401A019040286BDAC3F3130040F4801B0F
:1001C0000098924620B10023D2EB030A63EB0B0B9D
:1001D00001985946C0F14002504600F0EEF906463B
:1001E0000D4650465946019A00F006FA10EB0800F9
:1001F0006141002487EA115284EAE7731A4340D030
:10020000009A62B3019A012A4FEA075215DC001BDB
:1002100061EB02014FF0004202EA0752CDE90042D1
:10022000001C41F5801132462B4600F006FA03B05F
:10023000BDE8F08F40462146F9E7001B61EB020163
:10024000001C41F5801300185B412018A2F500172F
:1002500047EB030140EAD570B6196D4111E06D0816
:100260004FEA360645EAC0754FEA0752001B61EBBC
:100270000201001C41F5801149084FEA30000019C5
:10028000514132462B4603B0BDE8F04F00F0C6B9ED
:100290000098012240000023D0EB020263EBE073E0
:1002A000009821464FEAE074B8EB000061EB0401CE
:1002B000E9E783F000435BE781F0004158E72DE96F
:1002C000FE4F81EA030404F0004421F00041009451
:1002D0004FF0000B23F0004350EA01045ED052EAD5
:1002E00003045BD0C3F30A54C1F30A552C44A4F2AF
:1002F000F3340194A0FB0254C1F3130141F48011C3
:10030000C3F3130343F4801301FB024400FB034EC9
:10031000840A970A44EA815447EA8357A4FB076892
:1003200002958D0A05FB07854FEA932C04FB0C54BC
:100330002705029D4FEA065847EA1637B5EB080530
:100340006EEB070C870E920E47EA811742EA831282
:10035000A7FB0201B6EB0B0164EB00042B0D43EA93
:100360000C335E1844EB1C50DA465146E7FB0201A1
:10037000C5F313044FEA0B3343EA14534FEA043234
:10038000019C43EA0603A4F10C040294009CCDE90D
:1003900000B400F052F903B0BDE8F08F0020014630
:1003A000F9E72DE9F04D81EA030404F0004B21F058
:1003B000004514464FF0000A23F0004150EA0502C0
:1003C00020D054EA01021DD0C5F30A570246C5F3F6
:1003D0001303C1F31300C1F30A5640F4801543F42C
:1003E0008013A7EB0608101BD64608F2FD3873EB06
:1003F000050002D308F1010801E092185B41B8F151
:10040000000F03DA00200146BDE8F08D00204FF414
:100410008011064684460EE0171B73EB050705D3D3
:10042000121B63EB050306434CEA010C49084FEA33
:10043000300092185B4150EA0107EDD152EA030007
:1004400012D082EA040083EA0501084305D0101B9C
:10045000AB4106D20122002306E000224FF0004308
:1004600002E06FF0010253101AEB06004CEB08514A
:1004700010EB0A0041EB0B01BDE8F04D00F0CEB8E7
:1004800070B521F0004303430CD0C1F30A5500249A
:10049000D5EB040564EB0403D617AD1AB34102DBB8
:1004A0000020014670BD201841EB025170BD0EB511
:1004B00040F2334102910021CDE900110A460B467A
:1004C00000F0BBF803B000BDC1F30A5210B5C1F390
:1004D000130140F2FF3341F480119A4201DA002007
:1004E00010BD40F233439A42A2F2334203DC52423F
:1004F00000F072F810BD904010BD000030B5041E31
:1005000071F1000404DB4FF00044404264EB010150
:10051000141E73F1000405DB1C464FF000435242E9
:1005200063EB0403994208BF904230BD30B50B46DF
:10053000014600202022012409E021FA02F59D4213
:1005400005D303FA02F5491B04FA02F52844151EE7
:10055000A2F10102F1DC30BD2DE9F05F054600207B
:1005600092469B4688460646814640241BE0284624
:1005700041464746224600F02FF853465A46C01AD5
:10058000914110D311461846224600F016F82D1A54
:1005900067EB01084F4622460120002100F00DF8CC
:1005A00017EB00094E41201EA4F10104DFDC484690
:1005B00031462A464346BDE8F09F202A04DB203A14
:1005C00000FA02F1002070479140C2F1200320FAA6
:1005D00003F3194390407047202A04DB203A21FAA4
:1005E00002F00021704721FA02F3D040C2F120024C
:1005F0009140084319467047202A06DBCB17203A62
:1006000041FA02F043EAE07306E041FA02F3D04017
:10061000C2F12002914008431946704710B5141EDC
:1006200073F1000408DA401C41F1000192185B41AB
:100630001A4301D120F0010010BD2DE9F04D924682
:100640009B4611B1B1FA81F202E0B0FA80F2203299
:100650009046FFF7B2FF04460F4640EA0A0041EA1F
:100660000B0153465A46084313D0114653EA010082
:1006700019D0C8F140025046FFF7AEFF05460E46BE
:10068000504659464246FFF798FF084305D00120DF
:1006900004E020463946BDE8F08D0020054346EAD7
:1006A000E0762C4337430A986305E40AA0EB080080
:1006B0000022FD0A44EA47540A3002D500200146D0
:1006C000E9E7010510196941DDE9084500196941AB
:1006D000BDE8F04DA2E7C1F30A52C1F3130140F2A5
:1006E000FF3341F480119A4202DA0020014670473C
:1006F00040F233439A42A2F2334202DC5242FFF705
:100700006BBFFFF75ABF0000064C074D06E0E068DC
:1007100040F0010394E8070098471034AC42F6D348
:10072000FFF70AFDC0320008E0320008704770474A
:1007300004480549016080228280816040218181D6
:1007400000F039BEEC010020000C0140FEE77047CC
:1007500070478188006800F0E4BD8188006800F07F
:10076000DEBD00002DE9F0410F48104C0460A114DB
:1007700081808460CD00858104618E0086828461E1
:100780004F00878300F0E6F80748A8300849016069
:100790008915818084608581046186828461878374
:1007A000BDE8F04100F0D6B898000020000C0140F0
:1007B0000008014070B5044600BF00BF00BF00BF85
:1007C00000BF00BF00F0D1F930B14FF0FF3000BFE3
:1007D00000BF00BF00BF70BD204600F0C2F9204638
:1007E00000F076F9204600F073F90506204600F087
:1007F0006FF905EB0045204600F06AF905EB00258E
:10080000204600F065F92844E1E710B5B0F86440EF
:10081000210712D5016B4A1C0FD0826A6AB1438C42
:100820005BB1914209D9891AB1FBF3F124F00804B4
:10083000A0F864404163084610BD4FF0FF3010BD82
:10084000B0F8642051070AD5016B4B1C07D031B1B9
:1008500022F00402A0F864208162084670474FF03D
:10086000FF30704770B5B0F86440E1061CD5026BEC
:10087000511C19D0836ABBB1458C416BA5B10525CC
:10088000B1FBF5F616449E420ED369B124F0100474
:10089000A0F86440B1FBF5F4D21A2244B2FBF1F1A6
:1008A00089B24184084670BD4FF0FF3070BD2DE91C
:1008B000F0470446006E4FF0FF39411C21660528C1
:1008C0002FD3A58C4FF0000804F1300704F138064F
:1008D0002046C4F8608000F0E8F8E062411C20D0B7
:1008E00046F825008DB106EB850151F8041C8842BD
:1008F00001D9401A00E0081A642806D9C7F8009008
:10090000A4F824800020BDE8F087A08C401CA084BF
:10091000092D06D3204600F006F83860A4F824809C
:10092000F1E74846EFE770B5858C00F138042946B9
:10093000204600F000FD06462946204600F009FD4D
:10094000B0FBF5F0B0F5FA7F01D2304670BD4FF044
:10095000FF3070BD70B5044600F164058188006801
:1009600000F0B0FBA189A06800F0ACFBA18BA069EE
:1009700000F0A8FBA18A206900F080FB204600F06F
:1009800003F80020286070BD70B5002506462C468F
:10099000FFF7E3FEC82001F011FBFF21304600F015
:1009A000F7F8052001F00AFB6D1CEDB20F2DF4D312
:1009B000322001F003FBFE21304600F0E9F832203E
:1009C00001F0FCFA4FF000520321304600F005F927
:1009D000322001F0F3FA0021304600F0D9F832203D
:1009E00001F0ECFA00220321304600F0F6F8322044
:1009F00001F0E4FA244D0B21304600F08BF828601A
:100A0000322001F0DBFA2868C00004D52046641CBF
:100A1000A4B26428EFD9642C35D24FF08072022141
:100A200030462A6000F0D9F80B21304600F072F809
:100A300028600921304600F06DF828600A21304610
:100A400000F068F84FF40052032130462A6000F0AD
:100A5000C4F88521304600F099F88621304600F030
:100A600095F80A21304600F055F82860C02130463C
:100A700000F08CF84FF4FA71491EFDD23046BDE803
:100A80007040FFF766BE70BD4000002010B5044600
:100A9000FFF70DFF2046FFF7D3FE2046FFF7B5FE18
:100AA0002046BDE81040FFF7DDBE70B505464FF0AB
:100AB000FF34FFF752FE284600F057F818B92846D1
:100AC000FFF778FE040A2846FFF743FE204670BD74
:100AD00070B50646002400F044F8002500BF00BFB2
:100AE000304600F032F800BF00BF00BF00BF600614
:100AF000040E304600F039F808B1641CE4B2304608
:100B000000F027F800BF00BF6D1CEDB2082DE5D343
:100B1000204670BD38B5044600200090204600F005
:100B200037F82046FFF7D4FF05062046FFF7D0FF31
:100B300005EB00452046FFF7CBFF05EB00252046DF
:100B4000FFF7C6FF2844009038BD818B806900F014
:100B5000E8BB818B806900F0E2BB8189806800F08E
:100B6000E0BB8189806800F0DABB818A006900F00F
:100B7000CFBB000010B50448FFF788FF0248BDE86E
:100B80001040A830FFF782BF98000020AFF300802C
:100B90002DE9F04101260D46074600242806384677
:100BA00002D5FFF7DAFF01E0FFF7DBFF304601F087
:100BB0003DFA3846FFF7C9FF304601F037FA3846AC
:100BC000FFF7C7FF304601F031FA6806641C050ED6
:100BD000E4B2082CE2D3BDE8F08170B514460546B6
:100BE000FFF7D6FF210E2846FFF7D2FFC4F30741D7
:100BF0002846FFF7CDFFC4F307212846FFF7C8FFBB
:100C0000E1B22846BDE87040FFF7C2BF00F060B80F
:100C100000F05EB800F05CB800F05AB800F058B8C8
:100C200000F056B800F054B800F052B800F050B8D8
:100C300000F04EB800F04CB8C10002D5024908607F
:100C400070470249486070470404024000000240B7
:100C50000029016802D041F0010101E021F0010109
:100C60000160704702460020D10001D5034900E031
:100C700003490968114200D0012070470004024076
:100C800000000240002A026801D00A4300E08A43C3
:100C90000260704730B5026847F6F0739A430C6AF9
:100CA0008B682343D1E904452C4323438C692343B8
:100CB000CC6923434C6A23438C6A23431343036068
:100CC000CA6842600A6882604968C16030BD00003D
:100CD00010B501F067FE1020FFF7C4FF01281BD0FC
:100CE0004FF480542046FFF7BDFF01281DD0240398
:100CF0002046FFF7B7FF012821D0164C2046FFF70A
:100D0000B1FF012825D12046FFF796FFBDE810402E
:100D100000211148FFF79CBF1020FFF78DFFBDE8B1
:100D2000104000210D48FFF793BF2046FFF784FFD6
:100D30000A480021BDE810402830FFF789BF20464F
:100D4000FFF77AFF05480021BDE810406430FFF747
:100D50007FBF10BD00000110580402401C0002407B
:100D6000704700F0C1B800F0BFB800F0BDB800F0A7
:100D7000BBB800F0B9B800F0B7B800F0B5B80000E3
:100D800001490860704700001404014010B50120BB
:100D900000F09AF84B4C20B1208840F001002080F0
:100DA00010BD022000F090F820B1208840F0020031
:100DB000208010BD042000F087F820B1208840F08A
:100DC0000400208010BD082000F07EF820B12088AB
:100DD00040F00800208010BD102000F075F820B110
:100DE000208840F01000208010BD202000F06CF81A
:100DF00020B1208840F02000208010BD402000F06D
:100E000063F820B1208840F04000208010BD802091
:100E100000F05AF820B1208840F08000208010BDFA
:100E20004FF4807000F050F820B1208840F48070BA
:100E3000208010BD4FF4007000F046F820B12088EB
:100E400040F40070208010BD4FF4806000F03CF84A
:100E500020B1208840F48060208010BD4FF40060F5
:100E600000F032F820B1208840F40060208010BDEE
:100E70004FF4805000F028F820B1208840F48050D2
:100E8000208010BD4FF4005000F01EF820B12088E3
:100E900040F40050208010BD4FF4804000F014F862
:100EA00020B1208840F48040208010BD4FF40040E5
:100EB00000F00AF80028F8D0208840F40040208094
:100EC00010BD000018000020064A014600201268EC
:100ED000044B0A4014331B680B4202D0002A00D096
:100EE000012070470004014008B500200090FFF782
:100EF0004DFF01F057FD1F48BDF800100180012093
:100F0000FFF73EFF0220FFF73BFF0420FFF738FF0B
:100F10000820FFF735FF1020FFF732FF2020FFF7F2
:100F20002FFF4020FFF72CFF8020FFF729FF4FF411
:100F30008070FFF725FF4FF40070FFF721FF4FF49B
:100F40008060FFF71DFF4FF40060FFF719FF4FF4BB
:100F50008050FFF715FF4FF40050FFF711FF4FF4DB
:100F60008040FFF70DFFBDE808404FF40040FFF759
:100F700007BF0000180000207047000004490A68FD
:100F800022F010020A600A6802430A6070470000FB
:100F90000020024004490A6802F038020A600A6828
:100FA00002430A607047000000200240704710B5FD
:100FB0000121084600F0FAFC0021BDE810400120A4
:100FC00000F0F4BC70B52A4A0C46811A1315D614E9
:100FD000904243D014DC2749274D41184FF6FF7249
:100FE0001BD0994227D0B14241D10121102000F0FD
:100FF000D1FC600401D4200439D50121112008E07E
:1010000099422ED0B1422FD0B1F5406F2FD101219E
:101010000802BDE8704000F0BDBCA00405D4600427
:1010200003D4200401D4944202D1012105200AE016
:1010300001210420EDE7200703D4E00601D4944207
:1010400009D10121092000F0A5FC2846BDE8704027
:10105000012100F039B901210820DAE7012120201F
:10106000D7E701214020D4E701218020D1E770BDDE
:101070000014014000F8FEBF0002300038B50446FD
:10108000ADF8001002228DF8022048208DF80300F0
:101090002046FFF797FF6946204600F0C7F838BDA5
:1010A00038B50446ADF8001002228DF80220102059
:1010B0008DF803002046FFF785FF6946204600F0C3
:1010C000B5F838BD38B50446ADF8001003228DF8E8
:1010D000022010208DF803002046FFF773FF6946B9
:1010E000204600F0A3F838BD254A10B5811A131523
:1010F000D41490422ED00DDC224940181CD09842C6
:1011000021D0A0423BD10121102000F04FFC002152
:1011100010200DE0994224D0A14229D0B1F5406FB2
:101120002DD101210C02204600F040FC0021204678
:10113000BDE8104000F03ABC0121042000F036FC6C
:1011400000210420F4E70121082000F02FFC0021F9
:101150000820EDE70121202000F028FC00212020BC
:10116000E6E70121402000F021FC00214020DFE7DC
:101170000121802000F01AFC00218020D8E710BD5A
:101180000014014000F8FEBF2DE9F84F684600F05A
:10119000CAF81F4C6946204600F048F81D4D6946C4
:1011A000284600F043F81C4E6946304600F03EF8F1
:1011B0001A4F6946384600F039F8DFF8648069460E
:1011C000404600F033F8DFF85C906946484600F08E
:1011D0002DF8DFF854A06946504600F027F8204665
:1011E000FFF782FF2846FFF77FFF3046FFF77CFFBF
:1011F0003846FFF779FF4046FFF776FF4846FFF78E
:1012000073FF5046FFF770FFFFF7D1FEBDE8F88F80
:1012100000080140000C0140001001400014014092
:1012200000180140001C014000200140F0B5CC78BE
:10123000002204F00F03E40601D58C7823430C78D8
:101240004FF00F0C14F0FF0F4FF0010E1AD005688D
:101250000E880EFA02F42640A6420FD196000CFA30
:1012600006F725EA070703FA06F5CE783D43282E50
:1012700000D14461CE78482E00D10461521C082A66
:10128000E6D305600A88FF2A1CD94468002202F1CF
:1012900008060EFA06F50E882E40AE420ED19600D4
:1012A0000CFA06F7BC4303FA06F7CE783C43282E27
:1012B00000D14561CE78482E00D10561521C082A24
:1012C000E5D34460F0BD0000F0B5104D6B68440DEF
:1012D000260184B2C0F30157B440C0F30342032F88
:1012E00005D0C0020AD503209040834307E0686818
:1012F00023F0706220F07060686002E0A34343F066
:10130000706201B122436A60F0BD0000000001403C
:101310000246002092680A4200D0012070474161D5
:101320007047016170474FF6FF71018002218170A3
:101330000421C170704710B503460068012205E022
:1013400053F8224020444008521C92B28A42F7D3FC
:1013500010BDF0B500250E4607462C46FFF7EBFF03
:101360000DE057F82510814203D3091A01FB01440F
:1013700003E00A1A411A02FB01446D1CADB2B542EA
:10138000EFD3002C00DA64422046F0BD10B50446CD
:1013900081880068FFF796FEA189A068FFF792FE9A
:1013A000A18A2069BDE81040FFF78CBEFEE77047B8
:1013B00070477047704710B5044681880068FFF792
:1013C00081FEA189A068FFF77DFEA189A068FFF7D3
:1013D000A8FFA1882068BDE81040FFF7A2BF00F079
:1013E00001B8000002494AF6AA20086070470000D0
:1013F00000300040FEE7704738B500F0E1FCFFF731
:10140000C3FE02211348FFF74BFE00F0EDFC00F095
:10141000D9FC4FF47A7000F099FD4FF42F700E4C08
:1014200000224FF08045009023461146284600F0E8
:1014300093F8FFF797F900F023F8FFF779F94FF4E5
:1014400061710022009123461146284600F084F87D
:1014500038BD0000001001400000F03F10B5FFF75C
:10146000BEFFFFF787FB00F029F8034800F0E8FB18
:101470000249087010BD000008020020040000208E
:1014800010B50A480A4901600A49416002210181F8
:1014900040224FF4964100F0BFFBBDE810404022CF
:1014A0004FF4E131044801F07DB80000FC01002058
:1014B00000440040000801400038014070B5164863
:1014C000016CD0F8E840144A144E481C126C4FEAE4
:1014D000920208D0601C06D0A3083046BDE87040D8
:1014E0000FA100F071BF144D481C07D068688842F6
:1014F00004D0696011A1304600F066FF601C0AD07C
:10150000A868A04207D0AC60A2083046BDE8704091
:101510000DA100F059BF70BD8400002000380140CB
:101520004348313A25302E38580D0A4348323A257F
:10153000302E38580D0A0000040000204348313A8C
:1015400025302E38580D0A004348323A25302E38BF
:10155000580D0A00704700002DE9FF5F90B09346D8
:101560000025E94A10988946FF24811ADFF89CA3D8
:10157000D3142E46A8462F464FF4806C90427CD060
:101580000CDCB0F1804F32D0E14940184AD06045C0
:1015900064D098425BD1012108207FE0B1F5806FD3
:1015A0007FD0B1F58E3F03D0B1F5923F4FD17BE0B4
:1015B0000121C80200F0EEF95FEA090007D0012816
:1015C00009D002280BD0B9F1030F71D10BE05546B9
:1015D0004FF480743AE055464FF4007436E05546B7
:1015E0004FF4806432E055464FF400642EE0012150
:1015F000084600F0B7F95FEA090007D0012808D0D3
:10160000022809D0B9F1030F52D108E05546012450
:101610001CE05546022419E05546042416E05546C0
:10162000082413E00121022000F09CF95FEA090080
:1016300007D0012808D002280AD0B9F1030F37D10A
:1016400009E05546402401E05546802404262FE059
:10165000B04D01241EE0AF4D02241BE00121042007
:1016600000F080F95FEA090009D001280AD00228B9
:101670000BD0B9F1030F1BD10AE00DE011E0A54D2D
:10168000402407E0A34D802404E0A24DAC1501E006
:10169000A04D6C1508260BE00121102000F062F926
:1016A00006E001212020F9E70121480300F072F94A
:1016B0000121084600F06EF90121304600F06AF978
:1016C000ADF8304003208DF8320018208DF833003B
:1016D0000CA92846FFF7AAFD07A800F0C5F98E4C13
:1016E00010988E4D84434EF660265A4600202946B7
:1016F000139BFEF756FE8A4BCDE90D01FCB109980C
:101700002C46824600221D460D98FEF7F7FE18D2A1
:101710000022844B58461399FEF7D1FD04460D462E
:101720005046FEF7C4FE22462B46FEF73AFEB04670
:1017300000227D4BFEF735FE00227C4B1FE00A980D
:10174000DEE7DDE90D0123460022FEF7D7FE4FF06C
:10175000000217D22B4658461399FEF7B0FD0446F7
:101760000D465046FEF7A3FE22462B46FEF719FE15
:10177000B04600226C4BFEF714FE00226C4BFEF7C5
:101780009EFD49E02646234658461399FEF7B6FECD
:1017900045D85046FEF78BFE5A46139BFEF701FED6
:1017A0000122FEF76DFE04460D460022614BFEF756
:1017B000A5FE04D84FF4FA6800225F4B28E000220F
:1017C0005E4B20462946FEF799FE04D84FF0C80824
:1017D0000022564B1CE00022594B20462946FEF7BA
:1017E0008DFE04D84FF014080022514B10E0002267
:1017F000544B20462946FEF781FE05D84FF00208DB
:1018000000224FF0804303E04FF0010800223346EE
:1018100020462946FEF7C5FDFEF756FE87B2A8F121
:101820000100ADF81000781EADF814000024ADF8EA
:101830001640ADF8124004A9109800F085FD1E98DE
:1018400047434FF47A70874203D9B7FBF0F080B278
:1018500002E01E9808B101201E906020ADF8000043
:101860001E98ADF806000120ADF80200ADF8084062
:101870005FEA090007D001280AD002280DD0B9F18B
:10188000030F13D10EE06946109800F05BFC0DE0E9
:101890006946109800F08CFC08E06946109800F04A
:1018A000D1FC03E06946109800F010FD012110986A
:1018B00000F03DFC5FEA090007D001280AD00228A9
:1018C0000DD0B9F1030F13D10EE00821109800F0EC
:1018D00069FC0DE00821109800F0AAFC08E008213E
:1018E000109800F0EDFC03E00821109800F020FDB6
:1018F0000121109800F002FC0121109800F00CFC6E
:1019000014B0BDE8F09F0000001000400008014046
:1019100000FCFFBF000C0140000001400000F03F50
:101920000000244000005940004CED400000694098
:1019300000003440D012634100409F4080842E411B
:10194000006AF84040FFEF4070470000044A002959
:10195000516901D0014300E08143516170470000AB
:1019600000100240044A0029D16901D0014300E07F
:101970008143D1617047000000100240044A0029F1
:10198000116901D0014300E08143116170470000FB
:1019900000100240044A0029916901D0014300E08F
:1019A000814391617047000000100240044A002901
:1019B000D16801D0014300E08143D160704700004D
:1019C0000010024010B500F031F84FF4803420468A
:1019D00000F0BEF800F006F9012822D11020FFF730
:1019E000CDFA0220FFF7D6FA002000F0A7F8002079
:1019F00000F0D4F8A01100F0C7F84FF4E011204631
:101A000000F0DCF8012000F0D3F8392000F076F87F
:101A10000028FAD0022000F0DBF800F087F8082850
:101A2000FBD1BDE81040FFF7AFBB00000B480168D9
:101A300041F0010101604168094A114041600168BB
:101A4000084A11400160016821F480210160416869
:101A500021F4FE01416000218160704700100240C6
:101A60000000FFF8FFFFF6FE30B5204A5168204B1A
:101A700011F00C0103D0042901D0082901D0036022
:101A800011E05168022301F4701103EB9141536896
:101A900013F4803F02D053689B0301D5154B00E03F
:101AA000134B5943016051680F2303EA1111124B84
:101AB0005C5C0168E14041605468072505EA142434
:101AC0001C5D21FA04F48460546805EAD4241B5D8B
:101AD000D940C1605268032303EA9232064B1B1FB0
:101AE0009A5CB1FBF2F1016130BD000000100240D0
:101AF00000127A0000093D00B032000803460020C1
:101B00005909094A01290AD002290AD0516A03F069
:101B10001F02012393400B4200D00120704711683F
:101B2000F5E7116AF3E70000001002400248406840
:101B300000F00C007047000000100240034A51689A
:101B400021F0F00101435160704700000010024095
:101B50000B490A6822F480320A600A6822F4802263
:101B60000A60B0F5803F07D0B0F5802F03D1086838
:101B700040F4A02008607047086840F48030F9E71E
:101B80000010024070470000034A516821F4E061F0
:101B9000014351607047000000100240034A516841
:101BA00021F4605141EAC0005060704700100240CB
:101BB000014908667047000000004242034B5A6822
:101BC000084322F47C121043586070470010024012
:101BD000034A516821F0030101435160704700003E
:101BE0000010024030B50B4C40F2FF153120FFF7DA
:101BF00085FF20706068401C6060207810B96068C4
:101C0000A842F3D13120FFF779FF002800D001204E
:101C100030BD00001000002010B50446006800F040
:101C2000C1FC21896068FFF74DFA6168208948612D
:101C300010BD7047704770477047704770477047D6
:101C400070B502784FF6FF749440002100F18203D2
:101C5000A4B2002A7ED04568521ED2B2AD68068971
:101C6000354200D00121002A74D0C568521ED2B27C
:101C7000AD68068A354201D041F00201002A69D0E0
:101C80004569521ED2B2AD68068B354201D041F093
:101C90000401002A5ED0C569521ED2B2AD68068C1E
:101CA000354201D041F00801002A53D0456A521E46
:101CB000D2B2AD68068D354201D041F01001002A44
:101CC00076D0C56A521ED2B2AD68068E354201D0BA
:101CD00041F02001002A6BD0456B521ED2B2AD6894
:101CE000068F354201D041F040019AB3C56B521EB8
:101CF000D2B2AD68B0F84060354201D041F0800109
:101D000042B3456C521ED2B2AD68B0F8486035425D
:101D100001D041F48071EAB1C56C521ED2B2AD68F7
:101D2000B0F85060354201D041F4007192B1456D78
:101D3000521ED2B2AD68B0F85860354201D041F4BD
:101D400080613AB1C56D521ED2B2AD68B0F8606024
:101D5000354200E02CE001D041F4006142B3456E11
:101D6000521ED2B2AD68B0F86860354201D041F47D
:101D70008051EAB1C56E521ED2B2AD68B0F8706043
:101D8000354201D041F4005192B1456F521ED2B29A
:101D9000AD68B0F87860354201D041F480413AB185
:101DA000C26F9268B0F880502A4201D041F40041DD
:101DB0002143C94389B21960A0F88410084670BD58
:101DC000FFF700BE0748064901602022828081603B
:101DD00010228281016108218182FFF7D7BA0000B9
:101DE000000C01409002002010B50C4C0420207023
:101DF0000B48606010212181E06020212182606118
:101E000040212183E06180202084204600F00CF8EE
:101E10002046FFF715FF0349087010BD0802002097
:101E2000000801400400002070B505780446002D2C
:101E30007DD021896068FFF721F96D1E15F0FF053F
:101E400075D0218AE068FFF719F96D1E15F0FF05BE
:101E500078D0218B6069FFF711F96D1E15F0FF0531
:101E600070D0218CE069FFF709F96D1E15F0FF05B0
:101E700068D0218D606AFFF701F96D1E15F0FF052E
:101E800060D0218EE06AFFF7F9F86D1E15F0FF05AE
:101E900058D0218F606BFFF7F1F86D1E15F0FF052C
:101EA00050D0B4F84010E06BFFF7E8F86D1E15F065
:101EB000FF0547D0B4F84810606CFFF7DFF86D1EDF
:101EC00015F0FF053ED0B4F85010E06CFFF7D6F8DF
:101ED0006D1E15F0FF0535D0B4F85810606DFFF792
:101EE000CDF86D1E15F0FF052CD0B4F86010E06D34
:101EF000FFF7C4F86D1E15F0FF0523D0B4F8681085
:101F0000606EFFF7BBF86D1E15F0FF051AD0B4F830
:101F10007010E06EFFF7B2F86D1E15F0FF0511D0DE
:101F2000B4F87810606FFFF7A9F86D1E00E009E0C3
:101F300015F0FF0F06D0B4F88010E06FBDE87040D8
:101F4000FFF79CB870BD00F0A7B8000010B50446BC
:101F5000002C2BD01648FFF787FD4FF0E0210869D1
:101F600020F002000861086920F00100086108699A
:101F700020F0040008610E480E4A0068B0FBF2F041
:101F800060434861086940F002000861086940F058
:101F90000100086100208861086940F002000861C2
:101FA0004A6905480260096989B2416010BD0000B4
:101FB000B802002000127A001C00002010B5044670
:101FC000002C2DD01748FFF74FFD4FF0E02001699E
:101FD00021F002010161016921F001010161016942
:101FE00021F0040101610F494FF4FA520968B1FB75
:101FF000F2F14161016941F0010101610022826158
:1020000006E081690029FCD081690029FCD1641EA9
:10201000002CF6D104490B68436182614968016173
:1020200010BD0000B80200201C00002038B5054695
:1020300000240094002D28D01448FFF715FD4FF020
:10204000E021086920F002000861086920F0010021
:102050000861086920F0040008610C480C4A006817
:10206000B0FBF2F068434861086940F00100086184
:102070008C6188690028FCD088690028FCD105485B
:1020800002684A618C614068086138BDB80200206E
:1020900000127A001C00002000F084BC70477047DA
:1020A0007047704710B500F04DF9BDE810400121B0
:1020B000014800F02EB80000002C014010B500F0DF
:1020C00041F90121BDE81040880700F022B8000066
:1020D00010B500F037F9BDE810400121014800F0CB
:1020E00018B800000004004000F02CB97047704799
:1020F000704770477047704700F024B90029018885
:1021000002D041F0800102E040F27F3211400180B4
:102110007047C943018270470029018802D041F00D
:10212000010102E040F2FE321140018070470029B7
:1021300030F8441F02D041F4004101E0C1F30E0128
:102140000180704730B5028C22F001020284028CBB
:102150008388048B22F0020224F070050C882C4343
:102160000D8915434A882A43CD8885860B4DA842A0
:1021700002D00B4DA8420DD122F008054A8923F464
:1021800003432A4322F004058A882A438D891D438C
:10219000CB892B4383800483028430BD002C014013
:1021A00000340140028B22F008020A430283704788
:1021B00070B5028C22F010020284028C8388048B9A
:1021C0000D8824F4E0464FF6FF7404EA05253543F4
:1021D0000E8922F0200204EA061616434A8804EA11
:1021E00002123243CE8806870F4EB04202D00F4E05
:1021F000B04215D122F080064A8923F40C4304EA48
:102200000212324322F040068A8804EA0212324364
:102210008E89C98904EA86061E4304EA8103334392
:1022200083800583028470BD002C0140003401408E
:10223000028B4FF6FF7322F4006203EA012111437F
:102240000183704770B5028C22F480720284028C84
:102250008388848B0D8824F0700425430E894FF603
:10226000FF7422F4007204EA062616434A8804EA40
:1022700002223243CE8886870F4EB04202D00F4EE4
:10228000B04215D122F400664A8923F4304304EAAF
:102290000222324322F480668A8804EA0222324310
:1022A0008E89C98904EA06161E4304EA01133343E2
:1022B00083808583028470BD002C0140003401407E
:1022C000828B22F008020A438283704770B5028C29
:1022D00022F480520284058C8288838B0C8823F43C
:1022E000E0464FF6FF7303EA042434430E8925F4D5
:1022F000005503EA06362E434D8803EA053535437B
:10230000CE88A0F84060084EB04202D0074EB042DE
:1023100005D18989C2F30D0603EA81123243828016
:102320008483058470BD0000002C0140003401400E
:10233000828B4FF6FF7322F4006203EA01211143FE
:102340008183704700F02EBB028802F08F0202806A
:10235000CA884B881A4303881A4302808A88828578
:102360000A88028501228282044A904202D0044AED
:10237000904201D1097A018670470000002C01408B
:102380000034014000F00EBB00F00CBB00F00ABBB3
:1023900000F008BB00F006BB0A0A01219140C943C6
:1023A000018070470029818902D041F4005101E089
:1023B00021F4005181817047002A828A01D00A43AA
:1023C00000E08A43828270470FB410B5044604AA25
:1023D0000E48039900F0EAFA0D4B9C4208D00D4BD1
:1023E0009C4205D00C4B9C4202D00C4B9C4205D128
:1023F00082B20649184600F015F803E008498C42FD
:1024000000D1002010BC80B25DF814FBCC0A002083
:10241000003801400044004000480040004C0040AB
:10242000005000402DE9F04114464FF480720E46F2
:10243000944200D91446504B504DC11A4FF4806C51
:102440004FF4E13798426DD011DC4D49411833D03B
:10245000614575D18089800403D43946494800F02C
:10246000A1F8286AE8B3E869C00748D068E0614588
:1024700066D0B1F56C4F63D18089800403D43946AE
:10248000414800F08FF8A86C10B1686CC00757D1B4
:10249000224631463D48FDF759FE686C20F00100A8
:1024A00068644FF480506860AC6438482865686C94
:1024B00040F0010068645CE08089800404D4304806
:1024C0003946404200F06EF8D5F8840018B1D5F8CE
:1024D0008000C00734D1224631462D48FDF736FE34
:1024E00000E00CE055F8800F20F0010028604FF06C
:1024F000807045F87C0C6C602548E86035E0224629
:1025000031462448FDF722FEE86920F00100E86129
:10251000102068602C621F48A862E86940F0010042
:10252000E86126E08089800403D43946184600F02B
:1025300039F8194F38683D1F28B12868C00702D004
:102540000020BDE8F081224631461448FDF7FEFD2B
:10255000286820F0010028600F49114858390860A8
:102560003C600D490D4808310860286840F00100C2
:1025700028602046E5E70000004C004000000240D3
:1025800000BCFFBF0048004000380140CC060020DE
:10259000CC070020CC0800205C040240CC090020BD
:1025A000000001102DE9F74F002096B01446169A4E
:1025B000A14B0F9010901290DFF888C2D11A94446A
:1025C000834607460646054682468146CDE913C145
:1025D0009A48DFF86C824FF4006E9A4267D01FDC95
:1025E0005FEA0C0172D01A15944530D1002C7FD0CF
:1025F0008480DFF858A20121934DD14617467646D4
:102600000846FFF7C7F901219148FEF75DFE012159
:102610000820FFF7BFF901218804FFF7A3F916E0AE
:102620004FF48062914277D0B1F56C4F0FD1ECB38B
:102630000480C246874DD1464FF4007716460121EB
:102640000520FFF7A7F901218803FFF7A3F9ADF8EB
:10265000447018208DF8470003208DF8460011A91A
:102660005046FEF7E3FDADF8446048208DF8470082
:1026700011A94846FEF7DAFD169800F0F9F8002691
:1026800017980B90ADF83060ADF834600C20ADF8C1
:102690003260ADF83600ADF838600BA9169800F03E
:1026A00035F9654A16991498914201E008E023E053
:1026B0007DD037DC139880B3B0F5806F50D1A4E0A3
:1026C0004FF480710180B4E700E011E064B1448010
:1026D000C2460427604DD146082601213846FFF73F
:1026E00059F90121480498E74FF480714180EFE7E0
:1026F0004FF4807181807CE784B1C480DFF860A1F1
:10270000564DD1464FF48067764601211120FFF7E0
:1027100041F90121C80480E774E012E04FF48071B0
:10272000C180EBE7B0F5806F6CD0B0F56C4F17D17E
:102730004C480F904B4814301090801412900001B8
:1027400009E048483C300F904648283010904FF040
:10275000807012900011834601210846FFF7F6F8B9
:1027600002A9169F10204FF0800881E851010696BB
:102770003F1D0A964FF40059CDE90075CDE908696F
:10278000079669460F98FEF785FACDE90468CDE90A
:10279000026406960A96CDE90075CDE908690796A8
:1027A00069461098FEF776FA00210F9800E036E0AF
:1027B000FEF74EFA01211098FEF74AFA0122402155
:1027C0001698FFF7F9FD012280211698FFF7F4FD16
:1027D000002202210F98FEF755FA1298FEF72CFA04
:1027E0005846FEF729FA40F2244400222146169862
:1027F00000F074F821461698FFF7CEFD01211698D7
:10280000FFF7D0FD19B0BDE8F08F164828380F90BB
:102810001448143810901020129000019BE71248C1
:102820000F901148012128381090104812904FEA5B
:10283000305B022092E70000004C004024000020A2
:102840000008014000BCFFBFCC040020000C014088
:1028500000023000CC020020CC030020CC05002078
:1028600000100140440002405804024000000110E2
:10287000184A10B5811A131590421BD007DC16496F
:10288000401814D0984223D10121040217E0994244
:1028900013D0B1F56C4F1BD101218C032046FFF7FB
:1028A00085F82046BDE810400021FFF77FB80121E0
:1028B0004C0404E00121CC0401E001210C05204678
:1028C000FFF75CF82046BDE810400021FFF756B83E
:1028D00010BD0000004C004000BCFFBF10B5C1F3AC
:1028E000421301F01F040121A140012B07D0022B4C
:1028F00007D01430002A026805D00A4304E00C30E7
:10290000F8E71030F6E78A43026010BD30B50446A0
:10291000008A85B00D464CF6FF710840E9880143F6
:102920002182A0894EF6F3110840A9882A89114313
:102930006A8902431143A181A08A4FF6FF410840F2
:10294000A9890143A1826846FFF78EF811488442A5
:1029500001D1039800E00298642200EBC00101EB72
:10296000001029686FF018058900B0FBF1F0B0FB8A
:10297000F2F109010B096B4300EB8300322303EBF7
:102980000010B0FBF2F000F00F000843208105B00A
:1029900030BD000000380140704770477047FEE7C7
:1029A000FEF72ABDFEF75ABD7047000037B5144642
:1029B0000846064B6A46214600F0CCF804466946B4
:1029C000002000F05EFC20463EBD0000833200087F
:1029D00002E008C8121F08C1002AFAD170477047E8
:1029E000002001E001C1121F002AFBD17047000046
:1029F0002DE9FF5FDDE90220010DDDF838B002436B
:102A000018D044F61050A1F2FF3141430D140F9835
:102A1000012820D0A5EB0B00401C5FEA000A4FF014
:102A20000004474EDFF81C91A046504616D5CAF167
:102A3000000728E00F98012443A2012808D00021B4
:102A400000980F9BC0E90021C0E90243BDE8FF9F49
:102A50006FEA0B01F4E7CBF10000DEE7074612E076
:102A6000F80707D02246334640464946FDF727FC83
:102A7000804689462246334610461946FDF71FFC1C
:102A800004460E467F10002FEAD1DDE90201BAF1BB
:102A9000000F42464B4602DAFDF711FC01E0FDF75C
:102AA00080FC04460E460022284BFDF727FD03D884
:102AB0004FF0FF30014607E00022254B204631460B
:102AC000FDF756FBFDF707FE102409E0002C0ADB9A
:102AD0000A220023FDF740FD019B30321A55641E87
:102AE00050EA0102F2D1641C019AC4F111031444AA
:102AF0000F9A012A03D0012208430DD10AE00843AE
:102B000004D000204FF0110B0F9080E7A3EB0B05D2
:102B10006D1E0DE05B4504DD4FF0000205F101057F
:102B200004E003DA4FF00002A5F10105002AECD021
:102B300000980F99C0E90231C0E9004586E700001E
:102B4000000024400000F03F300000000000F0438F
:102B50000000E03F2DE9FF4F95B09B4689460646B1
:102B600000250FE2252877D100242746F84A0121C5
:102B7000059400E0044316F8013F203B01FA03F0FE
:102B80001042F7D130782A2811D06FF02F03307817
:102B9000A0F13002092A16D8059A44F0020402EB8B
:102BA000820203EB42021044761C0590EFE759F8CD
:102BB000042B0592002A03DA504244F40054059095
:102BC00044F00204761C30782E2816D116F8010F36
:102BD00044F004042A280DD06FF02F023078A0F1C1
:102BE0003003092B09D807EB870302EB4303C7180F
:102BF000761CF3E759F8047B761C30786C280FD0EC
:102C000006DC4C2817D068280DD06A2814D104E0BF
:102C1000742810D07A280FD10DE044F400140AE093
:102C200044F4801401E044F440147278824202D1EA
:102C300004F58014761C761C307866280BD013DCE3
:102C4000582877D009DC002875D04528F6D04628CA
:102C5000F4D047281AD19DE118E0632835D06428C4
:102C600079D0652812D195E1702873D008DC6728E7
:102C7000F1D069286FD06E280DD06F2806D1B5E04D
:102C800073282CD0752875D0782874D05A46179997
:102C900090476D1C75E1C4F30250022809D0032847
:102CA0000DD0D9F8001004280DD00D6009F10409E9
:102CB00067E1D9F80010EA17C1E90052F6E7D9F840
:102CC00000100D80F2E70D70F0E719F8041B8DF885
:102CD000001000208DF80100EA46012003E059F8B9
:102CE00004AB4FF0FF3061074FF0000102D40DE05C
:102CF00008F101018846B9420FDA8045F8DB1AF87D
:102D000008100029F4D108E008F101018846814249
:102D1000FADB1AF808100029F6D105985B46A0EBFB
:102D2000080721463846179A00F094FA284400EB29
:102D3000080507E04DE029E10DE01AF8010B5A46BD
:102D400017999047B8F10108F7D25B4621463846FB
:102D5000179A13E142E00A220092C4F302524FF0A4
:102D6000000A022A08D059F804CB032A4FEAEC7172
:102D70000AD00DE029E02AE009F1070121F007025D
:102D8000F2E802C1914609E00FFA8CFC4FEAEC71BF
:102D9000042A03D14FFA8CFC4FEAEC71002907DAC0
:102DA0000A460021DCF1000C61EB02012D2202E059
:102DB000220504D52B228DF80420012203E0E2072E
:102DC00001D02022F7E7904659E00A2102E01022C4
:102DD0000DE010214FF0000A00910BE010224FF09F
:102DE000000A44F004040827009203E008224FF090
:102DF000000A0092C4F30252022A05D059F804CB0B
:102E00000021032A08D009E009F1070121F0070297
:102E1000F2E802C1914605E01FFA8CFC042A01D1B8
:102E20000CF0FF0C4FF00008220728D5702806D0C0
:102E3000009B83F0100353EA0A0305D00EE0402202
:102E40008DF80420012208E05CEA010206D030225D
:102E50008DF804208DF8050002229046009B83F037
:102E6000080353EA0A030AD15CEA010201D16207AE
:102E700005D530228DF804204FF001087F1E582818
:102E800004D034A003900EA802900DE036A0F9E71C
:102E900053466046009AFDF75FFB84460398825CC8
:102EA0000298401E029002705CEA0100F0D1029884
:102EB00006A9081A00F1200A600702D524F480341C
:102EC00000E00127574502DDA7EB0A0000E00020E3
:102ED00000EB0A01009005984144401A0590E00378
:102EE00006D45B462146179A059800F0B3F90544CD
:102EF000002706E001A85A46C05D179990476D1C4F
:102F00007F1C4745F6DBE0030CD55B462146179A4C
:102F1000059800F09FF9054404E030205A461799BF
:102F200090476D1C0099481E00900029F5DC08E0D0
:102F3000029802995A460078491C029117999047C5
:102F40006D1CBAF10001AAF1010AF1DC65E1000093
:102F5000092801003031323334353637383961626F
:102F60006364656600000000303132333435363733
:102F700038394142434445460000000000F058F90A
:102F80000544761C307800287FF4ECAD19B0284653
:102F9000BDE8F08F620700D4062709F1070222F08E
:102FA000070CFCE80223E14603F000485FEA080C46
:102FB00002D00FF2702C0DE05FEA045C02D50FF234
:102FC000682C07E05FEAC47C02D00FF2602C01E0BD
:102FD000AFF2700C4FF0FF3823F00043CDF850C033
:102FE00065280CD006DC452809D046281DD0472886
:102FF0003DD13DE0662818D067287ED138E0002119
:10300000112F01DB112000E0781CCDE9000106A999
:103010000EA8FFF7EDFCDDE90F010E9A03910021E8
:10302000009207F1010A04914DE04FF00040009733
:10303000CDE9011006A90EA8FFF7DAFCDDE90F02C1
:1030400003920E9B11990022DDF80CA000930492CC
:1030500011B9791C00EB010AB7EB0A0004D4C0F1E6
:10306000FF3007F1010A0490AAEB0700019044E049
:10307000012F00DA01270021112F01DD112000E0CE
:103080003846CDE9000106A90EA8FFF7B1FCDDE93D
:103090000F010E9A0391002104910092BA46210774
:1030A0000CD40399514500DA8A46BAF1010F05DDC7
:1030B000009AAAF10101515C302908D0B84202DA25
:1030C00010F1040F06DA0121CDE9011015E0AAF193
:1030D0000101E9E7002805DC049901440491AAEB09
:1030E000000102E0411C514500DD8A460499401A66
:1030F000401C01904FF000400290200704D401983A
:10310000504501DBCDF8048000208DF84F00029877
:103110000DF14F07B0F1004F25D02B200E900298F3
:103120004FF0020800280CDA404202902D200E9049
:1031300007E00A210298FDF7F9F93031029007F80B
:10314000011DB8F10001A8F10108F2DC0298002885
:10315000EFD1791E0E980870307800F0200040F012
:10316000450007F8020D12A8C01B00F107081498CB
:10317000007800B1012000EB0A01019801EBE07139
:1031800005984144401A401E0590E00306D45B4672
:103190002146179A059800F05DF8054414980078C8
:1031A00018B15A46179990476D1CE00324D55B4629
:1031B0002146179A059800F04DF805441CE0049844
:1031C000002807DBDDE90301884203DD0098405C4D
:1031D000179901E0179930205A469047049805F155
:1031E0000105401C04900198401E019004D12E203E
:1031F0005A46179990476D1CBAF10001AAF1010ACD
:10320000DDDC05E017F8010B5A46179990476D1C55
:10321000B8F10001A8F10108F4DC5B462146179AD9
:103220000598ABE62D0000002B00000020000000F8
:103230002DE9F041044600251E461746880404D4B3
:1032400005E039462020B0476D1C641EF9D528469C
:10325000BDE8F0812DE9F041044600251E46904668
:10326000C80301D5302700E02027880404D505E0F5
:1032700041463846B0476D1C641EF9D52846BDE866
:10328000F0810A68531C0B6010707047FFF788FBD1
:1032900005494FF0807300220868401C086098427E
:1032A000FAD30A60F8E700000000002002040608D4
:1032B00000000000010203040102030406070809DC
:1032C000E03200080000002044000000D02900087F
:1032D00024330008440000200C130000E0290008FB
:1032E00000000000000102000000000000000000DB
:1032F00000000000000000000000000000000000CE
:1033000000000000000000000000000000000000BD
:1033100000000000000000000000000000000000AD
:0433200000000000A9
:0400000508000131BD
:00000001FF
