:020000040800F2
:10000000E80C002045010008A71900088914000821
:10001000A51900083D070008B737000800000000D8
:10002000000000000000000000000000252D000876
:100030009D08000800000000E51E00082B2D0008A8
:10004000C1370008F7190008092E00081B2B00080B
:10005000950A0008ED2500089F080008A708000879
:10006000AB080008AF080008B30800084307000801
:10007000470700084B0700084F0700085307000810
:10008000570700085B07000839070008B337000866
:10009000B53700083F07000841070008B708000807
:1000A0000B2E0008112E00080F2E00080D2E000840
:1000B000292E00083D2E0008552E00088D1400083A
:1000C0008B140008911400088F1400081F2B0008DF
:1000D000212B000815310008193100081D310008D6
:1000E000A3080008192B0008B13700085F2E00088C
:1000F000652E0008632E0008612E00083B070008EB
:10010000C90A00081D2B0008592E0008232B0008DF
:100110000D310008113100085B2E00085D2E00082B
:100120005F07000863070008670700086B070008FF
:10013000DFF80CD000F0EEFA00480047B1400008AC
:10014000E80C0020004800473101000840EA0103A4
:100150009B0703D009E008C9121F08C0042AFAD27D
:1001600003E011F8013B00F8013B521EF9D2704741
:10017000421C10F8011B0029FBD1801A70472DE9A1
:10018000FE4F804681EA0300C00F0C46009021F02C
:10019000004123F00045B8EB0200A94105D24046DA
:1001A000214690461C460B46024623F00040104371
:1001B00047D0270DC7F30A00C3F30A510290401A33
:1001C000019040286BDAC3F3130040F4801B0098C1
:1001D000924620B10023D2EB030A63EB0B0B01988C
:1001E0005946C0F14002504600F0EDF906460D4672
:1001F00050465946019A00F005FA10EB080061419B
:10020000002487EA115284EAE7731A4340D0009A27
:1002100062B3019A012A4FEA075215DC001B61EB19
:1002200002014FF0004202EA0752CDE90042001CF1
:1002300041F5801132462B4600F005FA03B0BDE8C7
:10024000F08F40462146F9E7001B61EB0201001CDC
:1002500041F5801300185B412018A2F5001747EB09
:10026000030140EAD570B6196D4111E06D084FEAFF
:10027000360645EAC0754FEA0752001B61EB0201E2
:10028000001C41F5801149084FEA30000019514126
:1002900032462B4603B0BDE8F04F00F0C5B90098D8
:1002A000012240000023D0EB020263EBE0730098D0
:1002B00021464FEAE074B8EB000061EB0401E9E786
:1002C00083F000435BE781F0004158E72DE9FE4FE2
:1002D00081EA030404F0004421F0004100944FF04F
:1002E000000B23F0004350EA01045ED052EA0304FD
:1002F0005BD0C3F30A54C1F30A552C44A4F2F3347F
:100300000194A0FB0254C1F3130141F48011C3F323
:10031000130343F4801301FB024400FB034E840AE1
:10032000970A44EA815447EA8357A4FB0768029579
:100330008D0A05FB07854FEA932C04FB0C54270517
:10034000029D4FEA065847EA1637B5EB08056EEBF3
:10035000070C870E920E47EA811742EA8312A7FB29
:100360000201B6EB0B0164EB00042B0D43EA0C33E6
:100370005E1844EB1C50DA465146E7FB0201C5F318
:1003800013044FEA0B3343EA14534FEA0432019C3F
:1003900043EA0603A4F10C040294009CCDE900B4E6
:1003A00000F051F903B0BDE8F08F00200146F9E7F5
:1003B0002DE9F04D81EA030404F0004B21F00045E3
:1003C00014464FF0000A23F0004150EA050220D005
:1003D00054EA01021DD0C5F30A570246C5F31303C0
:1003E000C1F31300C1F30A5640F4801543F480139F
:1003F000A7EB0608101BD64608F2FD3873EB050084
:1004000002D308F1010801E092185B41B8F1000F36
:1004100003DA00200146BDE8F08D00204FF4801182
:10042000064684460EE0171B73EB050705D3121B27
:1004300063EB050306434CEA010C49084FEA300020
:1004400092185B4150EA0107EDD152EA030012D045
:1004500082EA040083EA0501084305D0101BAB4182
:1004600006D20122002306E000224FF0004302E002
:100470006FF0010253101AEB06004CEB085110EB21
:100480000A0041EB0B01BDE8F04D00F0CDB870B5AE
:1004900021F0004303430CD0C1F30A550024D5EBEF
:1004A000040564EB0403D617AD1AB34102DB002048
:1004B000014670BD201841EB025170BD0EB540F2EF
:1004C000334102910021CDE900110A460B4600F0AC
:1004D000BAF803B000BDC1F30A5210B5C1F313015D
:1004E00040F2FF3341F480119A4201DA002010BD3E
:1004F00040F233439A42A2F2334203DC524200F00C
:1005000071F810BD904010BD30B5041E71F10004AB
:1005100004DB4FF00044404264EB0101141E73F110
:10052000000405DB1C464FF00043524263EB04031A
:10053000994208BF904230BD30B50B4601460020BD
:100540002022012409E021FA02F59D4205D303FA95
:1005500002F5491B04FA02F52844151EA2F1010216
:10056000F1DC30BD2DE9F05F0546002092469B4648
:1005700088460646814640241BE0284641464746B9
:10058000224600F02FF853465A46C01A914110D324
:1005900011461846224600F016F82D1A67EB01089E
:1005A0004F4622460120002100F00DF817EB00090C
:1005B0004E41201EA4F10104DFDC484631462A46A4
:1005C0004346BDE8F09F202A04DB203A00FA02F1FE
:1005D000002070479140C2F1200320FA03F3194331
:1005E00090407047202A04DB203A21FA02F00021D3
:1005F000704721FA02F3D040C2F120029140084333
:1006000019467047202A06DBCB17203A41FA02F040
:1006100043EAE07306E041FA02F3D040C2F120025F
:10062000914008431946704710B5141E73F1000439
:1006300008DA401C41F1000192185B411A4301D1D4
:1006400020F0010010BD2DE9F04D92469B4611B1FE
:10065000B1FA81F202E0B0FA80F220329046FFF760
:10066000B2FF04460F4640EA0A0041EA0B01534636
:100670005A46084313D0114653EA010019D0C8F175
:1006800040025046FFF7AEFF05460E46504659461B
:100690004246FFF798FF084305D0012004E02046BA
:1006A0003946BDE8F08D0020054346EAE0762C434C
:1006B00037430A986305E40AA0EB08000022FD0A0C
:1006C00044EA47540A3002D500200146E9E7010513
:1006D00010196941DDE9084500196941BDE8F04D8F
:1006E000A2E7C1F30A52C1F3130140F2FF3341F410
:1006F00080119A4202DA00200146704740F23343EB
:100700009A42A2F2334202DC5242FFF76BBFFFF77C
:100710005ABF0000064C074D06E0E06840F00103B8
:1007200094E8070098471034AC42F6D3FFF704FD75
:10073000E44000080441000870477047FEE7704736
:10074000704700F06BB800F069B800F067B800F0CF
:1007500065B800F063B800F061B800F05FB800F071
:100760005DB800F05BB800F059B800F057B8000071
:10077000C10002D5024908607047024948607047CD
:100780000404024000000240002904D0016841F046
:10079000010101607047016821F0010101607047AB
:1007A000406880B27047000002460020D10002D5A8
:1007B0000449096801E004490968114200D0012098
:1007C000704700000004024000000240002A03D0ED
:1007D00002680A430260704702688A4302607047F9
:1007E00030B5026847F6F0739A430C6A8B6823436E
:1007F000D1E904452C4323438C692343CC6923432B
:100800004C6A23438C6A234313430360CA684260E3
:100810000A6882604968C16030BD000010B502F00E
:10082000CDFF1020FFF7C0FF01281BD04FF48054EC
:100830002046FFF7B9FF01281AD024032046FFF70E
:10084000B3FF01281BD0124C2046FFF7ADFF012853
:100850001CD12046FFF78CFF0E480021BDE8104058
:10086000FFF792BF1020FFF783FF00210A48F5E74A
:100870002046FFF77DFF084800212830EEE720469C
:10088000FFF776FF044800216430E7E710BD000061
:1008900000000110580402401C000240704700F0A4
:1008A000B1B800F0AFB800F0ADB800F0ABB800F0F0
:1008B000A9B800F0A7B800F0A5B800000149086089
:1008C000704700001404014010B5012000F08AF8C0
:1008D000434C18B1208840F0010006E0022000F0EF
:1008E00081F820B1208840F00200208010BD042053
:1008F00000F078F818B1208840F00400F5E70820EF
:1009000000F070F818B1208840F00800EDE71020E2
:1009100000F068F818B1208840F01000E5E72020CA
:1009200000F060F818B1208840F02000DDE740209A
:1009300000F058F818B1208840F04000D5E780203A
:1009400000F050F818B1208840F08000CDE74FF457
:10095000807000F047F818B1208840F48070C4E738
:100960004FF4007000F03EF818B1208840F4007099
:10097000BBE74FF4806000F035F818B1208840F4F0
:100980008060B2E74FF4006000F02CF818B12088C6
:1009900040F40060A9E74FF4805000F023F818B14C
:1009A000208840F48050A0E74FF4005000F01AF87F
:1009B00018B1208840F4005097E74FF4804000F0D1
:1009C00011F818B1208840F480408EE74FF40040C1
:1009D00000F008F8002889D0208840F4004084E71F
:1009E0001800002001460020054A12680A40044B06
:1009F00014331B680B4202D0002A00D0012070473C
:100A00000004014008B50020ADF80000FFF75CFFCE
:100A100002F0D4FE1E48BDF8001001800120FFF74F
:100A20004DFF0220FFF74AFF0420FFF747FF082091
:100A3000FFF744FF1020FFF741FF2020FFF73EFFA4
:100A40004020FFF73BFF8020FFF738FF4FF4807016
:100A5000FFF734FF4FF40070FFF730FF4FF4806072
:100A6000FFF72CFF4FF40060FFF728FF4FF4805092
:100A7000FFF724FF4FF40050FFF720FF4FF48040B2
:100A8000FFF71CFFBDE808404FF40040FFF716BF1A
:100A9000180000207047000004490A6822F0100284
:100AA0000A600A6802430A607047000000200240A2
:100AB00004490A6802F038020A600A6802430A60C0
:100AC0007047000000200240704710B50121084621
:100AD00001F090FC0021BDE81040012001F08ABC2B
:100AE00070B50C46364A811A1315D614904253D06D
:100AF00017DC3449344D41184FF6FF721ED099422D
:100B000034D0B1425AD10121102001F065FC6004BB
:100B100001D4200452D5BDE870400121112001F01C
:100B20005BBC99423ED0B14242D0B1F5406F45D155
:100B3000BDE870400121080201F04EBCA00405D4BC
:100B4000600403D4200401D4944209D1012105207A
:100B500001F042FC2846BDE87040012100F04EB98A
:100B6000BDE870400121042001F036BC200703D409
:100B7000E00601D4944209D10121092001F02CFCA6
:100B80002846BDE87040012100F038B9BDE870404A
:100B90000121082001F020BCBDE870400121202087
:100BA00001F01ABCBDE870400121402001F014BCE6
:100BB000BDE870400121802001F00EBC70BD000036
:100BC0000014014000F8FEBF0002300038B50446B2
:100BD000ADF8001003228DF8022010228DF80320BA
:100BE0002046FFF77DFF6946204600F0B5F838BD86
:100BF00010B52E4A811A1315D414904237D010DC48
:100C00002B4940181FD0984227D0A0424DD1012136
:100C1000102001F0EFFB0021BDE81040102001F092
:100C2000E9BB99422DD0A14235D0B1F5406F3CD1FE
:100C300001210C02204601F0DDFB2046BDE81040FA
:100C4000002101F0D7BB0121042001F0D3FB0021DA
:100C5000BDE81040042001F0CDBB0121082001F0C7
:100C6000C9FB0021BDE81040082001F0C3BB0121F1
:100C7000202001F0BFFB0021BDE81040202001F042
:100C8000B9BB0121402001F0B5FB0021BDE81040B7
:100C9000402001F0AFBB0121802001F0ABFB00211F
:100CA000BDE81040802001F0A5BB10BD001401403C
:100CB00000F8FEBF2DE9F84F684600F0C5F81F4C5C
:100CC0006946204600F048F81D4D6946284600F068
:100CD00043F81C4E6946304600F03EF81A4F69460C
:100CE000384600F039F8DFF864806946404600F085
:100CF00033F8DFF85C906946484600F02DF8DFF8DD
:100D000054A06946504600F027F82046FFF770FFD0
:100D10002846FFF76DFF3046FFF76AFF3846FFF7BA
:100D200067FF4046FFF764FF4846FFF761FF504604
:100D3000FFF75EFFFFF7C9FEBDE8F88F000801402E
:100D4000000C014000100140001401400018014057
:100D5000001C0140002001402DE9F0430022CC7826
:100D600004F00F03E40601D58C7823430C784FF090
:100D70000F0714F0FF0F4FF0010C1BD005680CFAA1
:100D800002F40E882640A64210D1960007FA06F813
:100D900025EA080503FA06F848EA0505CE78282E64
:100DA00000D14461CE78482E00D10461521C082A3B
:100DB000E5D305600A88FF2A1ED94568002202F1A2
:100DC00008060CFA06F40E882640A64210D19600BA
:100DD00007FA06F825EA080903FA06F545EA0905BF
:100DE000CE78282E00D14461CE78482E00D10461FF
:100DF000521C082AE3D34560BDE8F083F0B5114DDD
:100E00006B68C0F30342440D260184B2C0F301575E
:100E1000B440032F07D0C0020CD503209040834379
:100E200043F0706209E023F07062686820F070603F
:100E3000686002E0A34343F0706201B122436A603C
:100E4000F0BD0000000001404FF6FF71018002215B
:100E500081700421C17070472DE9F0031E460D46D4
:100E6000069B0446114600200022802D1FD90C2C21
:100E70000BD0102C0FD0182C13D0202C41D132467F
:100E80002846BDE8F00300F027BA32462846BDE800
:100E9000F00300F0CBB832462846BDE8F00300F07E
:100EA00025B932462846BDE8F00300F099B9A5F10E
:100EB00021015D2925D8491CDFF80891002601EBA6
:100EC000810CA4EB090306EBC10601EB01170CEB47
:100ED000411C01EB81184C454BD01FDC0D4605EB46
:100EE000850202EBC502232C4CD00DDC0C2C50D01B
:100EF000102C5ED0182C60D0202C02D1324800EB90
:100F00004800BDE8F0037047792C4ED0B4F5801F3F
:100F10002DD02E49CC42F4D13046F2E7B3F57E5FB6
:100F200034D016DCA5F1200101EB4104B3F5407F7C
:100F300021D0203D002101EB0511B3F5F06F1DD04C
:100F4000B3F5786F1CD0B3F5AC5FDAD102EB0410C7
:100F5000D7E7A3F5C243403B1FD0B3F54C6F20D079
:100F6000B3F5225FCDD102EB4800801CC9E73046C3
:100F7000C7E73046C5E702EB8400C2E70846C0E792
:100F80000846BEE7124800EB8110BAE702EB811079
:100F9000B7E7104800EB4200B3E702EB4700801CC4
:100FA000AFE702EB4C00801CABE70B4800EB4200C4
:100FB000A7E70A4800EB4700A3E7094800EB4C000D
:100FC0009FE700000006100042F3100000FDEFFF55
:100FD000802D1000825D100082C0100052CA1000E7
:100FE00042D710000246002080290FD90C2A07D0D2
:100FF000102A07D0182A07D0202A00D18020704755
:101000001820704720207047482070470C2A07D0CE
:10101000102A07D0182A07D0202AF6D1802070473E
:1010200018207047202070474820704710B50022D4
:101030002D4C7F290DD0A0F1A103082B0BD8A1299D
:1010400009D3C3EB031202EB431201EB4202A13AB4
:1010500011E0204610BDA0F1A803012B0BD8A12957
:1010600009D27F2901D9491EC9B203EB430201EB22
:10107000421202F24E22A0F1B003472B0AD8A12956
:1010800008D3C3EB031000EB431001EB400202F264
:101090006D3223E0A0F18103202B0FD240290DD324
:1010A0007F2901D9491EC9B2C3EB431000EB83105D
:1010B00001EB400041F67E5142180FE0AA280DD303
:1010C000A1290BD27F2901D9491EC9B2AA3800EB48
:1010D000400001EB401043F23E51421802EB420047
:1010E00004EBC00010BD00000E3D110070B50024DF
:1010F0003A4E7F290DD0A0F1A105082D0BD8A129CA
:1011000009D3C5EB051404EB451401EB4404A13CE1
:1011100011E0304670BDA0F1A805012D0BD8A12922
:1011200009D27F2901D9491EC9B205EB450401EB5B
:10113000441404F20E34A0F1B005472D0AD8A129B9
:1011400008D3C5EB051000EB451001EB400404F299
:101150006D3440E0A0F18105202D0FD240290DD340
:101160007F2901D9491EC9B2C5EB451000EB851096
:1011700001EB400041F63E6144182CE0AA280ED352
:10118000A1290CD27F2901D9491EC9B2AA3800EB86
:10119000400001EB401043F23E5144181BE081280F
:1011A0000AD1392908D3EE3A02EB820003EB400062
:1011B00045F2E55144180EE082280CD1303940F256
:1011C000EC404143813A02EB820001EB40001844BD
:1011D00045F28F61441806EB441070BDDE4F1900D4
:1011E00070B500243B4E7F290DD0A0F1A105082D3C
:1011F0000BD8A12909D3C5EB051404EB451401EB69
:101200004404A13C11E0304670BDA0F1A805012DB9
:101210000BD8A12909D27F2901D9491EC9B205EBF2
:10122000450401EB441404F20E34A0F1B005472D3F
:101230000AD8A12908D3C5EB051000EB451001EB36
:10124000400404F26D3440E0A0F18105202D0FD25E
:1012500040290DD37F2901D9491EC9B2C5EB4510DC
:1012600000EB851001EB400041F63E6144182CE094
:10127000AA280ED3A1290CD27F2901D9491EC9B2AF
:10128000AA3800EB400001EB401043F2FE51441835
:101290001BE081280AD1392908D3EE3A02EB8200FB
:1012A00003EB400045F2E55144180EE082280CD1D2
:1012B000303940F2EC404143813A02EB820001EBCD
:1012C0004000184445F28F61441804EBC40006EB5B
:1012D000C00070BDDE43270070B500243A4E7F2960
:1012E0000DD0A0F1A105082D0BD8A12909D3C5EB7C
:1012F000051404EB451401EB4404A13C11E0304615
:1013000070BDA0F1A805012D0BD8A12909D27F2914
:1013100001D9491EC9B205EB450401EB441404F29E
:101320004E24A0F1B005472D0AD8A12908D3C5EB5A
:10133000051000EB451001EB400404F2AD2440E041
:10134000A0F18105202D0FD240290DD37F2901D98D
:10135000491EC9B2C5EB451000EB851001EB4000FA
:1013600041F63E6144182CE0AA280ED3A1290CD2E4
:101370007F2901D9491EC9B2AA3800EB400001EB10
:10138000401043F2FE5144181BE081280AD139294C
:1013900008D3EE3A02EB820003EB400045F2E55140
:1013A00044180EE082280CD1303940F2EC40414321
:1013B000813A02EB820001EB4000184445F28F6154
:1013C000441806EBC41070BD10AE47002DE9F84F6D
:1013D00007468A461546002480204FF00009B0EBEE
:1013E000152F14D84FEA1528EAB20023414650467B
:1013F000CDF80090FFF730FD0646EAB200234146E3
:101400005046CDF80090FFF7EDFD054611E00023B2
:10141000E9B21A465046CDF80090FFF71DFD06468A
:101420000023E9B21A465046CDF80090FFF7DAFDE6
:101430000546384601F07AFB46F04076310E3846D4
:1014400001F03EFCC6F30741384601F039FCC6F313
:101450000721384601F034FCF1B2384601F030FC87
:1014600007E0FF21384601F02BFC391981F84000D4
:10147000641CAC42F5D3384601F054FBFE6387F898
:101480000851A8B2BDE8F88FFEE770477047704773
:10149000704700F001B8000002494AF6AA2008602F
:1014A00070470000003000402DE9F04180461E48A2
:1014B00004684034217D2788668820886388401E20
:1014C000403C5B1E00290ED0012911D0022914D006
:1014D00000259AB2002183B2A46D2846A04700F0EF
:1014E0003DFA002519E0002582B200219BB2F3E706
:1014F00000259AB2002183B2EEE7002582B20021D6
:101500009BB2E9E7002404E0404600F00DFA641CB9
:10151000A4B2B442F8D36D1CADB2BD42F2D3BDE863
:10152000F04100F00FBA000034000020F0B4194878
:10153000194A8023826283854024826184839515C1
:10154000026285842025826085815615026186822B
:101550000826026086800263102282860F4E866310
:101560004FF6FF76014686870E46012086F8540026
:101570000B4841F8680F0B4848600A81C8600D822B
:1015800048610C83C8610B84002048843046F0BC5D
:1015900000F0AABCCC020020000C01400018014061
:1015A0000030014000080140401E411CFCD1704742
:1015B00070B504460D4D2C60B4F85010B4F85200CC
:1015C000814203D180F0FF00A4F85000204600F0D3
:1015D0000FF82868C06D8047B4F85200FFF764FF29
:1015E00004F16800BDE8704001F0D7BA3400002073
:1015F00010B50446A1882068FFF7E8FAA189A06821
:10160000FFF7E4FAA18A2069FFF7E0FAA18BA0694D
:10161000FFF7DCFAA18C206AFFF7D8FAA18DA06A47
:10162000FFF7D4FAA18E206BFFF7D0FAA18FA06B41
:10163000BDE81040FFF7CABA0FB42DE9F04FC3B0B0
:1016400004460D46164600274F98FEF791FD50AB15
:10165000802103A84F9A02F0B5F882461FFA8AF952
:10166000002002900DF10C0BDFF854819EE01BF876
:101670000720802A5BD912020BEB07004078024357
:10168000102E09D1D8F80000B0F842001038A0425E
:1016900002DA00241035ADB2202E09D1D8F80000AE
:1016A000B0F842002038A04202DA00242035ADB262
:1016B000102E08D1D8F80000B0F842001038A84227
:1016C00001DA00242546202E08D1D8F80000B0F811
:1016D00042002038A84201DA00242546D8F800004C
:1016E00031466830FFF772FED8F80000324600F14C
:1016F000A801009190F870312946204600F06EF85C
:101700000C2E06D0102E07D0182E08D0202E09D06F
:101710000AE00C34A4B207E01034A4B204E0183498
:10172000A4B201E02034A4B27F1CBFB23CE0D8F8E0
:101730000030B3F8400001461038A04202DA00241D
:101740002035ADB2102E03D1A84201DA002425467F
:10175000202E04D12039A94201DA00242546314641
:1017600003F16800FFF732FED8F80000324600F1BE
:10177000A801009190F870312946204600F02EF81B
:101780000C2E06D0102E07D0182E08D0202E09D0EF
:101790000AE0A41DA4B207E00834A4B204E00C34AB
:1017A000A4B201E01034A4B27F1CBFB24F45FFF4D5
:1017B0005EAF43B05046BDE8F00F5DF814FB00008B
:1017C0003400002004480021427802B14170827840
:1017D000002A00D081707047040000202DE9F047F6
:1017E0009446DDF820801E46002500220023DFF805
:1017F0000C91D9F80040B4F85070BCF10C0F0FD127
:10180000B4F842200C3A824275DBB4F840200C3A1E
:101810008A4270DB00F10B0292B201F10B039BB222
:1018200000F10F0ABCF1100F0ED1B4F84220103AAB
:10183000824260DBB4F84020103A8A425BDB1FFA38
:101840008AF201F10F039BB2BCF1180F03D0BCF177
:10185000200F11D021E0B4F84220183A82424ADB2E
:10186000B4F84020183A8A4245DB00F1170292B2E0
:1018700001F117039BB210E0B4F84220203A8242F3
:1018800039DBB4F84020203A8A4234DB01F11F03EF
:10189000802E05D01FFA8AF29BB2A46DA04728E0E3
:1018A00000F11F0292B29BB2F7E718F805A00024DE
:1018B0005FEA0A6004D5D9F80000B0F8503003E0C0
:1018C000D9F80000B0F8523000F048F8184600F09F
:1018D0002BF800F037F84FEA4A604FEA106A641CB0
:1018E000E4B2082CE4D3D9F80000A0F850706D1CC5
:1018F000EDB2B542D9D3BDE8F08700003400002036
:1019000010B503460C4600F03FF8184600F00CF8FE
:1019100000F032F800F022F8204600F005F8BDE8AB
:10192000104000F00FB80000054909680B6A8A8C66
:101930005A618A6BD060888C096A08617047000020
:1019400034000020044800688269818B5161818DD8
:10195000806A01617047000034000020054800687B
:10196000826A818D51618269818B11618189806870
:10197000016170473400002002480068818D806A50
:10198000016170473400002005480068826A818D3B
:1019900051618269818B51618189806801617047E1
:1019A00034000020FEE7704708B501F0BCF9FFF7EE
:1019B00081F900F065FE4FF4FA7001F0EFF9FFF7DE
:1019C000B5FD40F2DE3001F0B3F94FF46170002252
:1019D0000090034B1146000700F00EF808BD000010
:1019E0000000F03F10B5FFF754FD01F063F8BDE8CB
:1019F0001040FFF7E7BE70472DE9FF5F90B08846C3
:101A000014461D464FF0000A4FF0FF094FF0000B3F
:101A100000270026FE4A1098D314811A4FF4806CD8
:101A2000904272D00EDCB0F1804F42D0F94940189C
:101A30006ED060456BD0984203D10121082000F0A0
:101A4000AFFCCEE0B1F5806F73D0B1F58E3F03D01F
:101A5000B1F5923F17D1C0E00121C80200F0BCFCF3
:101A6000B8F1000F09D0B8F1010F0DD0B8F1020F95
:101A700011D0B8F1030F06D114E0DFF89CA34FF4A6
:101A800080794FF0040BACE0DFF88CA34FF40079C1
:101A90004FF0040BA5E0DFF880A34FF480694FF00E
:101AA000040B9EE0DFF870A34FF400694FF0040BC5
:101AB00097E00121084600F073FCB8F1000F09D04F
:101AC000B8F1010F0DD0B8F1020F11D0B8F1030F2A
:101AD00006D113E0DFF840A34FF001094FF0040BEB
:101AE0007FE0DFF834A34FF002094FF0040B78E0F9
:101AF000DFF824A34FF00409CB4672E0DFF818A307
:101B00004FF008094FF0040B6BE05CE000E02DE0C3
:101B10000121022000F044FCB8F1000F0AD0B8F116
:101B2000010F0ED0B8F1020F12D0B8F1030F58D147
:101B300015E04DE0DFF8E0A24FF040094FF0040B54
:101B40004FE0DFF8D4A24FF080094FF0040B48E0DB
:101B5000DFF8C8A24FF001094FF0080B41E0DFF8B1
:101B6000BCA24FF002094FF0080B3AE0012104201B
:101B700000F016FCB8F1000F09D0B8F1010F0DD03C
:101B8000B8F1020F11D0B8F1030F2AD114E0DFF839
:101B90008CA24FF040094FF0080B22E0DFF87CA246
:101BA0004FF080094FF0080B1BE0DFF870A24FF4F4
:101BB00080794FF0080B14E0DFF860A24FF4007951
:101BC0004FF0080B0DE00121102000F0E9FB08E0C8
:101BD0000121202000F0E4FB03E00121480300F094
:101BE000FBFB0121084600F0F7FB0121584600F0FD
:101BF000F3FBADF8349003208DF8360018208DF8F3
:101C000037000DA95046FFF7A7F801A800F052FCD5
:101C1000DFF80C921098DFF80CB229EA00094EF6B2
:101C2000602A22462B4600205946FEF7C1FBCDE92B
:101C30000E10B9F1000F28D0DDF80C90DDE90E1080
:101C40000022794BFEF760FC22D20022774B20461F
:101C50002946FEF73BFB04460D464846FEF72EFCA0
:101C600022462B46FEF7A4FB04460D4657460022AB
:101C70006F4B20462946FEF79BFB00226D4BFEF77B
:101C800025FBFEF728FC86B293E0DDF81090D5E73F
:101C9000DDE90E105B460022FEF736FC1FD2002263
:101CA000614B20462946FEF711FB04460D46484687
:101CB000FEF704FC22462B46FEF77AFB04460D464F
:101CC000574600225A4B20462946FEF771FB002258
:101CD000594BFEF7FBFAFEF7FEFB86B269E00022E5
:101CE0005B4620462946FEF70FFC62D84846FEF7C1
:101CF000E5FB22462B46FEF75BFB04460D46012220
:101D000020462946FEF7C3FB04460D4600224B4BF6
:101D100020462946FEF7F8FB0BD84FF4FA6700225D
:101D2000474B20462946FEF743FBFEF7D4FB86B21D
:101D30003FE00022434B20462946FEF7E5FB0AD848
:101D4000C82700223B4B20462946FEF731FBFEF711
:101D5000C2FB86B22DE000223B4B20462946FEF70F
:101D6000D3FB0AD814270022334B20462946FEF71E
:101D70001FFBFEF7B0FB86B21BE00022334B204670
:101D80002946FEF7C1FB0AD8022700227B0720461E
:101D90002946FEF70DFBFEF79EFB86B209E0012700
:101DA00000225B4620462946FEF702FBFEF793FB26
:101DB00086B27F1EADF82870701EADF82C0000248E
:101DC000ADF82E40ADF82A400AA9109801F080F92C
:101DD0001E9846434FF47A70864204D9B6FBF0F061
:101DE00080B21E9003E01E9808B101201E90602072
:101DF000ADF818001E98ADF81E00ADF82040012087
:101E0000ADF81A00B8F1000F2AD0B8F1010F1FE0A9
:101E10000010004000FCFFBF00080140000C014022
:101E2000000001400000F03F000024400000594045
:101E3000004CED400000694000003440D012634186
:101E400000409F4080842E41006AF84040FFEF40F0
:101E50000BD0B8F1020F0DD0B8F1030F13D10EE083
:101E600006A9109801F02CF80DE006A9109801F0D1
:101E70005FF808E006A9109801F0A6F803E006A9AB
:101E8000109801F0E7F80121109801F00AF8B8F174
:101E9000000F09D0B8F1010F0BD0B8F1020F0DD02F
:101EA000B8F1030F13D10EE00821109801F03AF8B1
:101EB0000DE00821109801F07DF808E00821109845
:101EC00001F0C2F803E00821109801F0F5F80121B3
:101ED000109800F0C9FF0121109800F0D5FF14B050
:101EE000BDE8F09F704700000C490860F021A0F8A1
:101EF00040104FF4C871A0F842104FF47841A0F898
:101F000052104FF6E071A0F850100549816505495F
:101F1000C16505494166FFF74BBB0000300000205A
:101F200051220008491F00082D1F000810B500218C
:101F30000920FFF7E5FC03480068818800684161DB
:101F400010BD0000340000202DE9F041BF4C4FF4DB
:101F5000FA652068826A818D5161026A818C116103
:101F6000826881891161818A006901612846FFF7D1
:101F70001BFB2068818A006941612846FFF714FB3A
:101F80002068818A006901612846FFF70DFB284619
:101F9000FFF70AFB2846FFF707FB00214FF4FA780A
:101FA0000846FFF7ADFC4046FFF7FEFA0021084661
:101FB000FFF7A6FC4046FFF7F7FA00210846FFF7B7
:101FC0009FFC4046FFF7F0FA00210846FFF798FC17
:101FD0004046FFF7E9FA4FF4407529460120FFF724
:101FE0008FFC4046FFF7E0FA4FF48076314602203E
:101FF000FFF786FC4046FFF7D7FA45F23001032091
:10200000FFF77EFC4046FFF7CFFA31460720FFF787
:1020100077FC4046FFF7C8FA40F608010820FFF7B2
:102020006FFC4046FFF7C0FA01210920FFF768FC6A
:102030004046FFF7B9FA01210B20FFF761FC40464B
:10204000FFF7B2FA00210C20FFF75AFC4046FFF7D9
:10205000ABFA00210F20FFF753FC4046FFF7A4FA2C
:1020600019211020FFF74CFC4046FFF79DFA771C22
:1020700039461120FFF744FC4046FFF795FA00214E
:102080001220FFF73DFC4046FFF78EFA0121132096
:10209000FFF736FC4046FFF787FA55211420FFF77B
:1020A0002FFC4046FFF780FA10212020FFF728FC84
:1020B0004046FFF779FA39462120FFF721FC4046D8
:1020C000FFF772FA00212220FFF71AFC4046FFF7C3
:1020D0006BFA01212320FFF713FC4046FFF764FA57
:1020E000F1019020FFF70CFC4046FFF75DFA4FF43A
:1020F0004C713046FFF704FC4046FFF755FA40F2BA
:1021000027213846FFF7FCFB4046FFF74DFA4CF21B
:10211000B011B01CFFF7F4FB4046FFF745FA4FF44F
:102120005061F01CFFF7ECFB4046FFF73DFA002141
:102130007000FFF7E5FB4046FFF736FA002140F25A
:102140000120FFF7DDFB4046FFF72EFA4FF4304148
:102150004FF42070FFF7D4FB4046FFF725FAA900A3
:102160002846FFF7CDFB4046FFF71EFA45F60B2148
:10217000681CFFF7C5FB4046FFF716FA40F606114C
:10218000A81CFFF7BDFB4046FFF70EFA41F217010E
:10219000E81CFFF7B5FB4046FFF706FA4FF40C5179
:1021A000281DFFF7ADFB4046FFF7FEF94FF4B8518D
:1021B000681DFFF7A5FB4046FFF7F6F946F2093127
:1021C000A81DFFF79DFB4046FFF7EEF940F60941D9
:1021D000E81DFFF795FB4046FFF7E6F941F20C01D9
:1021E0004FF44270FFF78CFB4046FFF7DDF942F2F7
:1021F000322140F20930FFF783FB4046FFF7D4F964
:102200004FF4C841B000FFF77BFB4046FFF7CCF925
:10221000042140F20140FFF773FB4046FFF7C4F989
:102220000021B800FFF76CFB4046FFF7BDF95F21C6
:1022300040F20250FFF764FB4046FFF7B5F9206813
:10224000818800680161BDE8F08100003400002051
:102250002DE9F0414A4E8C4645F23005346894F839
:1022600054E0B4F84070B4F84210BEF1000F4FD003
:10227000BEF1010F59D0BEF1020F69D0F91A491E03
:10228000A4F84410A7EB0C01491EA4F84610A4F8CA
:102290004800A4F84A20A4F84C10A4F84E0045F2D7
:1022A0002805B4F844104FF40470FFF729FB306898
:1022B000B0F8461040F21120FFF722FB3068B0F86A
:1022C000481040F21220FFF71BFB3068B0F84A10AC
:1022D00040F21320FFF714FB3068B0F84C104FF4B5
:1022E0000070FFF70DFB3068B0F84E1040F201208F
:1022F000FFF706FB29460320FFF702FBFFF744FB2D
:1023000040F20220FFF710FBBDE8F041FFF734BBBD
:10231000A4F84400A4F84620A4F848C0A4F84A3021
:10232000A4F84C00A4F84EC0BBE78A1AA4F844C035
:10233000521EA4F84630081AA4F84820401EA4F8FB
:102340004A00A4F84CC0A4F84E0045F21805A8E7CE
:10235000BA1A521EA4F84420381ACA1A401E521E35
:10236000A4F84600A1EB0C01A4F84820491EA4F8EB
:102370004A10A4F84C00A4F84E104FF4A04590E782
:1023800030000020054A002903D051690143516102
:10239000704751698143516170470000001002404D
:1023A000054A002903D0D1690143D1617047D16941
:1023B0008143D1617047000000100240054A0029A6
:1023C00003D01169014311617047116981431161A3
:1023D0007047000000100240054A002903D09169AF
:1023E0000143916170479169814391617047000099
:1023F00000100240054A002903D0D1680143D16092
:102400007047D1688143D1607047000000100240DE
:1024100010B500F031F84FF48034204600F0CAF8CF
:1024200000F014F9012822D11020FEF735FB02201C
:10243000FEF73EFB002000F0B3F8002000F0E2F8C9
:10244000A01100F0D5F84FF4E011204600F0EAF8B2
:10245000012000F0E1F8392000F082F80028FAD0DD
:10246000022000F0E9F800F093F80828FBD1BDE85D
:102470001040FEF71FBC00000B48016841F001014D
:1024800001604168094A114041600168084A1140F1
:102490000160016821F480210160416821F4FE019E
:1024A0004160002181607047001002400000FFF889
:1024B000FFFFF6FE10B5264A516801F00C01254BCE
:1024C000002927D0042927D0082927D00360516884
:1024D00001F0F0010909204B5C5C0168E1404160BA
:1024E000546804F4E064240A1C5D21FA04F4846056
:1024F000546804F46054E40A1B5DD940C16052681A
:1025000002F44042920B144B1B1F9A5CB1FBF2F198
:10251000016110BD0360DAE70360D8E7516801F498
:102520007011022303EB9141536803F4803333B1FC
:1025300053689B0307D5094B59430160C7E7074B15
:1025400059430160C3E7034B59430160BFE70000F3
:102550000010024000127A00D440000800093D003B
:10256000034600205909094A01290AD002290AD044
:10257000516A03F01F02012393400B4200D0012057
:1025800070471168F5E7116AF3E700000010024098
:102590000248406800F00C00704700000010024044
:1025A000034A516821F0F001014351607047000077
:1025B000001002400C490A6822F480320A600A685E
:1025C00022F480220A60B0F5803F07D0B0F5802F5A
:1025D00003D1086840F4A02008607047086840F400
:1025E0008030086070470000001002407047000013
:1025F000034A516821F4E0610143516070470000D3
:1026000000100240034A516821F4605141EAC000C1
:102610005060704700100240014908667047000092
:1026200000004242034B5A6822F47C1208431043D4
:102630005860704700100240034A516821F00301BE
:1026400001435160704700000010024030B50B4C50
:1026500040F2FF153120FFF783FF20706068401CB7
:102660006060207810B96068A842F3D13120FFF78C
:1026700077FF08B1012030BD002030BD10000020E0
:1026800007480649A0F50072016006494160022131
:102690000181CB014FF4165100F02AB900440040EB
:1026A00038020020000801402DE9F04707460D469A
:1026B00014463868DFF80C82834E40453AD1706C7E
:1026C000DFF80892C00725D04846FEF769F80028D1
:1026D00072D18021404600F0EFFE012802D0002098
:1026E000BDE8F087384600F013FA00BF00BF00BF16
:1026F00000BF00BF4FF40050FEF73AF800214846F3
:10270000FEF742F8B464356501214846FEF73CF80F
:102710002046E5E7384600F0FBF900BF00BF00BFE8
:1027200000BF00BFB464356501214846FEF72CF8B0
:102730002046D5E7DFF8988140453ED1D6F88000A5
:10274000DFF89091C00726D04846FEF729F808B177
:102750000020C5E78021404600F0AEFE012801D0F0
:102760000020BDE7384600F0D3F900BF00BF00BF2E
:1027700000BF00BF4FF00070FDF7FAFF0021484690
:10278000FEF702F846F8844FB56001214846FDF790
:10279000FBFF2046A4E7384600F0BAF900BF00BFAF
:1027A00000BF00BF00BF46F8844FB5600121484616
:1027B000FDF7EAFF204693E781E0DFF81C81404502
:1027C00039D1F069DFF81491C00724D04846FDF7ED
:1027D000E7FF08B1002083E78021404600F06CFE4F
:1027E000012801D000207BE7384600F091F900BFB6
:1027F00000BF00BF00BF00BF2020FDF7B9FF0021D0
:102800004846FDF7C1FF3462B56201214846FDF735
:10281000BBFF204664E7384600F07AF900BF00BFEE
:1028200000BF00BF00BF3462B56201214846FDF71A
:10283000ABFF204654E7DFF8A88040453FD1294A46
:102840001068DFF8A490C00702F1040626D0924673
:102850005046FDF7A5FF08B1002041E78021404622
:1028600000F02AFE012801D0002039E7384600F0A8
:102870004FF900BF00BF00BF00BF00BF1B48FDF7FE
:1028800077FF00215046FDF77FFF3460C9F8005004
:1028900001215046FDF778FF204621E7384600F039
:1028A00037F900BF00BF00BF00BF00BF3460C9F8E8
:1028B000005001211046FDF767FF204610E7002079
:1028C0000EE70000003801400000024044000240D2
:1028D0000044004080000240004800401C000240CC
:1028E000004C004058040240640402400000021002
:1028F00010B50446206800F033FC21896068FEF7BB
:1029000065F961682089486110BD000070B5044612
:102910002068544D5449A84225D1486CC00718D0AE
:1029200051484430FDF73CFF08B1002070BD8021C4
:10293000284600F0C1FD012801D0002070BD00BF75
:1029400000BF00BF00BF00BF20896168486101204F
:1029500070BD00BF00BF00BF00BF00BF208961681D
:102960004861012070BD414DA84226D1D1F88000B8
:10297000C00718D03C488030FDF712FF08B1002096
:1029800070BD8021284600F097FD012801D000206D
:1029900070BD00BF00BF00BF00BF00BF20896168DD
:1029A0004861012070BD00BF00BF00BF00BF00BF75
:1029B000208961684861012070BD2D4DA84225D154
:1029C000C869C00718D028481C30FDF7E9FE08B1D7
:1029D000002070BD8021284600F06EFD012801D046
:1029E000002070BD00BF00BF00BF00BF00BF208936
:1029F00061684861012070BD00BF00BF00BF00BF1B
:102A000000BF208961684861012070BD194DA8424E
:102A100025D119490868C00717D00846FDF7C0FE40
:102A200008B1002070BD8021284600F045FD012836
:102A300001D0002070BD00BF00BF00BF00BF00BFBD
:102A4000208961684861012070BD00BF00BF00BFE0
:102A500000BF00BF208961684861012070BD00206F
:102A600070BD0000003801400000024000440040FA
:102A700000480040004C0040580402402DE9F0415D
:102A800004460D46164600274021206800F014FD3C
:102A900068B18021206800F00FFD40B12046FFF7AB
:102AA00035FF32462946206800F08AFD0746384641
:102AB000BDE8F08138B50F4A02F5807101F58070EC
:102AC000FFF7DCFF0C4C0028A08012D00B480078E8
:102AD000E0700A2000F062F90122E11C0848FFF7CB
:102AE000E3FDE0780021009006A320220846FEF7CF
:102AF000A3FD38BD3800002004000020380100206C
:102B000038020020CAD5B5BDCAFDBEDD256400006F
:102B1000018940680161704770477047704770478E
:102B200070477047018940680161704701894068BA
:102B300041617047002904D0018841F040010180C3
:102B40007047018821F04001018070470246002053
:102B500012890A4200D00120704780897047818124
:102B6000704730B5028802F441530A884C88CD88FA
:102B700022438C882C4322430C8922434C892243D4
:102B80008C892243CC8922431A430280828B22F40F
:102B900000628283098A018230BD10B50446204656
:102BA00000F006F821896068BDE81040FEF70EB815
:102BB0002DE9F04387B0044620683E49DFF8F880ED
:102BC00040184FF018054FF003061AD03B4FB0F5F0
:102BD000806F2BD0B0F5784F47D101210803FFF764
:102BE000FBFB01210520FFF7F7FBF020ADF8040007
:102BF0008DF807508DF8066001A93846FEF7ACF84D
:102C000033E001218803FFF7CBFB01210920FFF707
:102C1000E3FB4FF47040ADF804008DF806608DF8CA
:102C2000075001A94046FEF797F81EE04FF400490F
:102C300001214846FFF7B4FB01210D20FFF7CCFB33
:102C40003820ADF804008DF806608DF8075001A912
:102C50004046FEF781F8ADF804908DF806608DF8D7
:102C6000075001A93846FEF777F80020ADF80800B4
:102C70004FF48271ADF80A10ADF80C000221ADF8E6
:102C80000E100121ADF81010ADF816000720ADF8B8
:102C900018004802ADF81200608CADF8140002A9CB
:102CA0002068FFF75EFF01212068FFF743FF07B0B0
:102CB000BDE8F08300C8FFBF000C014000080140E0
:102CC0002DE9F04104460F46002541F2883606E022
:102CD0006D1CADB2B54202D90020BDE8F0810221E1
:102CE0002068FFF733FF0028F2D039462068FFF74D
:102CF00036FF002505E06D1CADB2B54201D90020BC
:102D0000EBE701212068FFF721FF0028F3D08021A5
:102D10002068FFF71BFF0128F9D02068FFF71DFF8F
:102D2000C0B2DAE77047FFF773BB00F06BB8000082
:102D300010B504002BD01648FFF7BCFB4FF0E02184
:102D4000086920F002000861086920F001000861AC
:102D5000086920F0040008610D480E4A0068B0FBC5
:102D6000F2F060434861086940F0020008610869B8
:102D700040F00100086100208861086940F002000D
:102D800008614A6904480260096989B2416010BD5E
:102D9000D404002000127A001C00002010B50400AA
:102DA0002BD01648FFF786FB4FF0E020016921F099
:102DB00002010161016921F001010161016921F054
:102DC000040101610D494FF4FA520968B1FBF2F1B7
:102DD0004161016941F00101016100228261816963
:102DE0000029FCD081690029FCD1641EF7D1044977
:102DF0000B68436182614968016110BDD404002001
:102E00001C00002000F0DABC704770477047704724
:102E100010B500F05BF9BDE810400121014800F059
:102E200030B80000002C014010B500F04FF901212E
:102E3000BDE81040880700F024B8000010B500F08D
:102E400045F9BDE810400121014800F01AB8000022
:102E50000004004000F03AB970477047704770476F
:102E60007047704700F032B9002904D0018841F062
:102E7000800101807047018840F27F32114001805B
:102E80007047C94301827047002904D0018841F08E
:102E9000010101807047018840F2FE32114001803B
:102EA0007047002905D030F8441F41F400410180EB
:102EB000704730F8441FC1F30E01018070470000D5
:102EC00030B5028C22F001020284058C8388028BCB
:102ED00022F070020C88144325F002020D8915437C
:102EE0004A882A43CD8885860C4DA84202D00C4DD5
:102EF000A8420FD122F008054A892A4322F004058E
:102F00008A882A4323F4014323F402438D891D4315
:102F1000CB892B4383800483028430BD002C014085
:102F200000340140028B22F008020A4302837047FA
:102F300070B5028C22F010020284028C8388048B0C
:102F400024F4E0460D884FF6FF7404EA0525354366
:102F500022F020020E8904EA061616434A8804EA83
:102F600002123243CE880687104EB04202D0104E75
:102F7000B04217D122F080024E8904EA06161643A9
:102F800026F040068A8804EA0212324323F40443FE
:102F900023F408438E8904EA86061E43C98904EA9D
:102FA0008103334383800583028470BD002C01407C
:102FB00000340140028B22F400624FF6FF7303EAF3
:102FC000012111430183704770B5028C22F4807295
:102FD0000284028C8388848B24F070040D8825433E
:102FE00022F400720E894FF6FF7404EA0626164397
:102FF0004A8804EA02223243CE888687104EB042C5
:1030000002D0104EB04217D122F400664A8904EA79
:103010000222324322F480668A8804EA0222324382
:1030200023F4104323F420438E8904EA06161E433A
:10303000C98904EA0113334383808583028470BD08
:10304000002C014000340140828B22F008020A4328
:103050008283704770B5028C22F480520284058C02
:103060008288838B23F4E0460C884FF6FF7303EAD3
:103070000424344325F400560D8903EA053535430D
:103080004E8803EA06362E43CD88A0F84050084DFE
:10309000A84202D0074DA84205D1C2F30D05898987
:1030A00003EA81122A4382808483068470BD000073
:1030B000002C014000340140828B22F400624FF664
:1030C000FF7303EA012111438183704700F076BB4F
:1030D000028802F08F020280CA884B881A43038854
:1030E0001A4302808A8882850A88028501228282A8
:1030F000044A904202D0044A904201D1097A0186E2
:1031000070470000002C01400034014000F056BB25
:1031100000F054BB00F052BB00F050BB00F04EBBBF
:10312000C943018070470A0A01219140C9430180C7
:103130007047002904D0818941F400518181704792
:10314000818921F4005181817047002A03D0828A4D
:103150000A4382827047828A8A43828270470000D3
:103160002DE9FF4F91B004464FF0000B0020009076
:10317000814682460025002680460027994A1498F9
:1031800099499A4B80B294420DD108805515161575
:103190009846474601210520FFF71EF901218803C3
:1031A000FFF71AF954E0924A94420DD14880042561
:1031B00008269846474601210420FFF70DF9012112
:1031C0004804FFF7EDF843E08A4A944216D188801C
:1031D00001210846FFF700F901218748FDF70EFE9F
:1031E0002515E614DFF81482474601210820FFF771
:1031F000F3F801218804FFF7D3F829E0804B814AD6
:103200009C420DD1C8801515D61490464746012121
:103210001120FFF7E1F80121C804FFF7C1F817E01A
:10322000794B9C4214D108819D1404269046774F17
:1032300001211020FFF7D0F801212020FFF7CCF862
:1032400001210846FFF7C8F801210805FFF7A8F893
:10325000ADF8045018208DF8070003208DF8060003
:1032600001A94046FDF778FDADF8046048208DF8CF
:10327000070001A93846FDF76FFD204600F0CEF8A3
:10328000129802900025ADF80C50ADF80E50ADF834
:1032900010500C20ADF81200ADF8145002A92046D1
:1032A00000F048F94F4884420DD1DFF864B1584826
:1032B000143000904FF480594FF4803A01210846B1
:1032C000FFF760F835E04A4884420FD1DFF840B19B
:1032D0000BF13C0B4E48283000904FF080794FF4B2
:1032E000801A01210846FFF74DF822E04148844248
:1032F0000FD1DFF81CB1ABF1280B45481438009012
:103300004FF010094FF4807A01210846FFF73AF890
:103310000FE03B4884420CD1DFF8F8B03D48283834
:103320000090DFF8F4904FEA395A01210220FFF7AC
:1033300029F8201D06460690139807901020089043
:10334000149809900A9580270B970C950D950E956A
:103350004FF40058CDF83C80109506A95846FDF76B
:103360003FFA0696139807900895149809900A95C5
:103370000B970C950D950E95CDF83C80109506A9F0
:103380000098FDF72DFA00215846FDF7FDF90121BF
:103390000098FDF7F9F9012240212046FFF7D5FEFC
:1033A000012280212046FFF7D0FE0022022158464C
:1033B000FDF70CFA4846FDF7DBF95046FDF7D8F962
:1033C00040F2244500222946204600F09AF829467A
:1033D0002046FFF7A8FE01212046FFF7AAFE15B000
:1033E000BDE8F08F003801402400002000080140B3
:1033F000004400400048004000023000000C014042
:10340000004C0040001001400050004000140140FA
:1034100044000240580402400000011010B5244A44
:10342000811A131590422BD00FDC224940181CD072
:1034300098423BD1040201212046FEF7BFFF2046FF
:10344000BDE810400021FEF7B9BF994223D0B1F585
:103450006C4F2BD101218C032046FEF7CBFF204679
:10346000BDE810400021FEF7C5BF01214C042046F5
:10347000FEF7A4FF2046BDE810400021FEF79EBFE6
:103480000121CC042046FEF799FF2046BDE81040FC
:103490000021FEF793BF01210C052046FEF78EFFA9
:1034A0002046BDE810400021FEF788BF10BD000097
:1034B000004C004000BCFFBF0246002012880A42B8
:1034C00000D00120704770B50024C1F3421301F011
:1034D0001F05012606FA05F2012B0CD0022B0DD098
:1034E000838A1340090A8E40008830400BB100B136
:1034F0000124204670BD83891340F3E7038A1340FB
:10350000F0E710B5C1F3421301F01F040121A140FF
:10351000012B07D0022B07D014303AB102680A43BE
:10352000026010BD0C30F8E71030F6E702688A43FD
:10353000026010BD30B585B004460D46208A4CF6B9
:10354000FF710840E98801432182A1894EF6F310FA
:103550000140A8882A8910436A890A431043A08140
:10356000A08A4FF6FF410840A9890143A18268461D
:10357000FEF7A0FF1148844201D1039800E00298B1
:1035800000EBC00101EB001029688900B0FBF1F0ED
:103590006423B0FBF3F109010A096FF018056A43CF
:1035A00000EB8200322202EB0010B0FBF3F000F0DF
:1035B0000F000843208105B030BD000000380140F5
:1035C0002DE9F04788461446DFF8C491714D724FDB
:1035D00040F22446484532D131464846FFF773FF52
:1035E00028B910214846FFF767FF00287ED03146F2
:1035F0004846FFF798FD10214846FFF791FDDFF898
:103600009891002109F158094846FDF7BDF8604836
:10361000001D00884846FDF7C3F82988081A86B2BD
:10362000324621464046FCF791FD7C662888F865C5
:1036300001214846FDF7A8F83046BDE8F087DFF8DD
:103640005C91484531D131464846FFF73CFF28B9E7
:1036500010214846FFF730FF002847D03146484642
:10366000FFF761FD10214846FFF75AFDDFF828916A
:10367000002109F16C094846FDF786F84748001D0E
:1036800000884846FDF78CF86988081A86B23246E9
:1036900021464046FCF75AFDBC676888386701211F
:1036A0004846FDF771F83046C7E7DFF8F490484523
:1036B00033D131464846FFF706FF28B91021484666
:1036C000FFF7FAFE002861D031464846FFF72BFD90
:1036D00010214846FFF724FDDFF8BC90002109F1D6
:1036E00030094846FDF750F82D4800E04EE0001D37
:1036F00000884846FDF754F8A988081A86B2324671
:1037000021464046FCF722FDFC63A888786301212E
:103710004846FDF739F830468FE7224FB84230D19E
:1037200031463846FFF7CFFE20B910213846FFF763
:10373000C3FE58B331463846FFF7F5FC1021384632
:10374000FFF7EEFC184F00213846FDF71DF815482D
:10375000001D00883846FDF723F8E988081A86B26C
:10376000324621464046FCF7F1FC0F480C3004601D
:10377000E888391D086001213846FDF705F8304614
:103780005BE70A49884201D1002056E7002054E750
:1037900000380140240000200000024000440040A6
:1037A00000480040004C00403004024000500040FF
:1037B000704770477047FEE7FEF7F6B8FEF712B99C
:1037C000704700007CB5491E1C461546CDE9000136
:1037D000044B6A462146284600F0C8F8009A0021AA
:1037E00011707CBD9B40000802E008C8121F08C190
:1037F000002AFAD170477047002001E001C1121F72
:10380000002AFBD1704700002DE9FF5FDDE90220AF
:10381000010DDDF838B0024318D044F61050A1F283
:10382000FF3141430D140F98012820D0A5EB0B0068
:10383000401C5FEA000A4FF00004474EDFF81C917D
:10384000A046504616D5CAF1000728E00F9801247B
:1038500043A2012808D0002100980F9BC0E9002155
:10386000C0E90243BDE8FF9F6FEA0B01F4E7CBF12B
:103870000000DEE7074612E0F80707D0224633468D
:1038800040464946FCF722FD80468946224633469B
:1038900010461946FCF71AFD04460E467F10002F0D
:1038A000EAD1DDE90201BAF1000F42464B4602DAE5
:1038B000FCF70CFD01E0FCF77BFD04460E46002200
:1038C000284BFCF721FE03D84FF0FF30014607E0FC
:1038D0000022254B20463146FCF751FCFCF701FF46
:1038E000102409E0002C0ADB0A220023FCF73AFE30
:1038F000019B30321A55641E50EA0102F2D1641C59
:10390000019AC4F1110314440F9A012A03D0012231
:1039100008430DD10AE0084304D000204FF0110BFA
:103920000F9080E7A3EB0B056D1E0DE05B4504DDFA
:103930004FF0000205F1010504E003DA4FF0000248
:10394000A5F10105002AECD000980F99C0E90231D9
:10395000C0E9004586E70000000024400000F03F79
:10396000300000000000F0430000E03F2DE9FF4F71
:1039700095B09B468946064600250FE2252877D15B
:1039800000242746F84A0121059400E0044316F874
:10399000013F203B01FA03F01042F7D130782A288A
:1039A00011D06FF02F033078A0F13002092A16D819
:1039B000059A44F0020402EB820203EB4202104437
:1039C000761C0590EFE759F8042B0592002A03DADC
:1039D000504244F40054059044F00204761C3078C0
:1039E0002E2816D116F8010F44F004042A280DD011
:1039F0006FF02F023078A0F13003092B09D807EBC4
:103A0000870302EB4303C718761CF3E759F8047BDE
:103A1000761C30786C280FD006DC4C2817D068282C
:103A20000DD06A2814D104E0742810D07A280FD160
:103A30000DE044F400140AE044F4801401E044F47E
:103A400040147278824202D104F58014761C761CF0
:103A5000307866280BD013DC582877D009DC002892
:103A600075D04528F6D04628F4D047281AD19DE1D4
:103A700018E0632835D0642879D0652812D195E103
:103A8000702873D008DC6728F1D069286FD06E28C1
:103A90000DD06F2806D1B5E073282CD0752875D0CD
:103AA000782874D05A46179990476D1C75E1C4F375
:103AB0000250022809D003280DD0D9F8001004289C
:103AC0000DD00D6009F1040967E1D9F80010EA177B
:103AD000C1E90052F6E7D9F800100D80F2E70D7049
:103AE000F0E719F8041B8DF8001000208DF8010094
:103AF000EA46012003E059F804AB4FF0FF306107BC
:103B00004FF0000102D40DE008F101018846B942EE
:103B10000FDA8045F8DB1AF808100029F4D108E024
:103B200008F1010188468142FADB1AF808100029E1
:103B3000F6D105985B46A0EB080721463846179A50
:103B400000F094FA284400EB080507E04DE029E175
:103B50000DE01AF8010B5A4617999047B8F1010881
:103B6000F7D25B4621463846179A13E142E00A2213
:103B70000092C4F302524FF0000A022A08D059F80A
:103B800004CB032A4FEAEC710AD00DE029E02AE0C9
:103B900009F1070121F00702F2E802C1914609E0AC
:103BA0000FFA8CFC4FEAEC71042A03D14FFA8CFC1B
:103BB0004FEAEC71002907DA0A460021DCF1000C1B
:103BC00061EB02012D2202E0220504D52B228DF8A3
:103BD0000420012203E0E20701D02022F7E790460B
:103BE00059E00A2102E010220DE010214FF0000AF6
:103BF00000910BE010224FF0000A44F00404082763
:103C0000009203E008224FF0000A0092C4F302522F
:103C1000022A05D059F804CB0021032A08D009E074
:103C200009F1070121F00702F2E802C1914605E01F
:103C30001FFA8CFC042A01D10CF0FF0C4FF0000895
:103C4000220728D5702806D0009B83F0100353EA82
:103C50000A0305D00EE040228DF80420012208E07E
:103C60005CEA010206D030228DF804208DF80500B0
:103C700002229046009B83F0080353EA0A030AD10C
:103C80005CEA010201D1620705D530228DF80420DB
:103C90004FF001087F1E582804D034A003900EA8CE
:103CA00002900DE036A0F9E753466046009AFCF713
:103CB00059FC84460398825C0298401E0290027070
:103CC0005CEA0100F0D1029806A9081A00F1200A66
:103CD000600702D524F4803400E00127574502DD57
:103CE000A7EB0A0000E0002000EB0A010090059815
:103CF0004144401A0590E00306D45B462146179ADA
:103D0000059800F0B3F90544002706E001A85A46DB
:103D1000C05D179990476D1C7F1C4745F6DBE0039B
:103D20000CD55B462146179A059800F09FF905448B
:103D300004E030205A46179990476D1C0099481EA0
:103D400000900029F5DC08E0029802995A460078B4
:103D5000491C0291179990476D1CBAF10001AAF114
:103D6000010AF1DC65E1000009280100303132333D
:103D700034353637383961626364656600000000A7
:103D80003031323334353637383941424344454691
:103D90000000000000F058F90544761C3078002837
:103DA0007FF4ECAD19B02846BDE8F08F620700D46F
:103DB000062709F1070222F0070CFCE80223E1467E
:103DC00003F000485FEA080C02D00FF2702C0DE0FF
:103DD0005FEA045C02D50FF2682C07E05FEAC47C5E
:103DE00002D00FF2602C01E0AFF2700C4FF0FF3800
:103DF00023F00043CDF850C065280CD006DC4528E0
:103E000009D046281DD047283DD13DE0662818D06E
:103E100067287ED138E00021112F01DB112000E05E
:103E2000781CCDE9000106A90EA8FFF7EDFCDDE93D
:103E30000F010E9A03910021009207F1010A0491EB
:103E40004DE04FF000400097CDE9011006A90EA803
:103E5000FFF7DAFCDDE90F0203920E9B11990022B5
:103E6000DDF80CA00093049211B9791C00EB010A53
:103E7000B7EB0A0004D4C0F1FF3007F1010A049047
:103E8000AAEB0700019044E0012F00DA012700218E
:103E9000112F01DD112000E03846CDE9000106A90F
:103EA0000EA8FFF7B1FCDDE90F010E9A0391002186
:103EB00004910092BA4621070CD40399514500DAC7
:103EC0008A46BAF1010F05DD009AAAF10101515CA1
:103ED000302908D0B84202DA10F1040F06DA0121C5
:103EE000CDE9011015E0AAF10101E9E7002805DCA0
:103EF000049901440491AAEB000102E0411C5145E0
:103F000000DD8A460499401A401C01904FF00040A1
:103F10000290200704D40198504501DBCDF80480BD
:103F200000208DF84F0002980DF14F07B0F1004FBF
:103F300025D02B200E9002984FF0020800280CDAB2
:103F4000404202902D200E9007E00A210298FCF7D3
:103F5000F3FA3031029007F8011DB8F10001A8F121
:103F60000108F2DC02980028EFD1791E0E98087043
:103F7000307800F0200040F0450007F8020D12A84C
:103F8000C01B00F107081498007800B1012000EB75
:103F90000A01019801EBE07105984144401A401E66
:103FA0000590E00306D45B462146179A059800F079
:103FB0005DF805441498007818B15A46179990474F
:103FC0006D1CE00324D55B462146179A059800F046
:103FD0004DF805441CE00498002807DBDDE90301E7
:103FE000884203DD0098405C179901E01799302062
:103FF0005A469047049805F10105401C0490019829
:10400000401E019004D12E205A46179990476D1CEE
:10401000BAF10001AAF1010ADDDC05E017F8010B95
:104020005A46179990476D1CB8F10001A8F1010894
:10403000F4DC5B462146179A0598ABE62D0000009C
:104040002B000000200000002DE9F041044600256F
:104050001E461746880404D405E039462020B047A0
:104060006D1C641EF9D52846BDE8F0812DE9F041AC
:10407000044600251E469046C80301D5302700E0BF
:104080002027880404D505E041463846B0476D1C1A
:10409000641EF9D52846BDE8F0814A68002A06D09A
:1040A0000A68531C0B6010704868401E48607047D7
:1040B000FFF782FB05494FF0807300220868401C1F
:1040C00008609842FAD30A60F8E700000000002078
:1040D00002040608000000000102030401020304B8
:1040E000060708090441000800000020380000000D
:1040F000E83700083C41000838000020B00C000000
:10410000F837000800000000000000000000000078
:10411000FFFFFFFF000000000000000000000000A3
:10412000000000000000000000000000000000008F
:0C41300000000000000000000000000083
:0400000508000131BD
:00000001FF
