:020000040800F2
:100000008015002045010008FF1E0008351A000871
:10001000FD1E0008B10900080B3A000800000000AE
:10002000000000000000000000000000A92E0008F1
:10003000E50E000800000000ED2400089B310008D8
:10004000153A0008F9200008E5320008B52C000830
:10005000DD100008E12B0008E70E0008EF0E000895
:10006000F30E0008F70E0008FB0E00084B0C00080A
:100070004F0C0008530C0008570C00085B0C0008DC
:100080005F0C0008630C000815070008073A000819
:10009000093A0008B3090008B5090008FF0E000876
:1000A000E7320008ED320008EB320008E9320008C0
:1000B000053300081933000831330008391A0008E5
:1000C000371A00083D1A00083B1A0008B92C00082E
:1000D000BB2C0008D5350008D9350008DD350008EF
:1000E000EB0E0008B32C0008053A00083B3300086B
:1000F000413300083F3300083D330008F50700088E
:1001000011110008B72C000835330008BD2C000879
:10011000CD350008D13500083733000839330008E1
:10012000670C00086B0C00086F0C0008730C0008CB
:10013000DFF80CD000F0DCFA004800470543000867
:10014000801500200048004731010008421C10F8CB
:10015000011B0029FBD1801A70472DE9FE4F804614
:1001600081EA0300C00F0C46009021F0004123F00B
:100170000045B8EB0200A94105D240462146904611
:100180001C460B46024623F00040104347D0270D83
:10019000C7F30A00C3F30A510290401A01904028A5
:1001A0006BDAC3F3130040F4801B0098924620B131
:1001B0000023D2EB030A63EB0B0B01985946C0F105
:1001C0004002504600F0EDF906460D4650465946AD
:1001D000019A00F005FA10EB08006141002487EA5B
:1001E000115284EAE7731A4340D0009A62B3019A2D
:1001F000012A4FEA075215DC001B61EB02014FF0A8
:10020000004202EA0752CDE90042001C41F580118C
:1002100032462B4600F005FA03B0BDE8F08F4046A9
:100220002146F9E7001B61EB0201001C41F5801338
:1002300000185B412018A2F5001747EB030140EAC4
:10024000D570B6196D4111E06D084FEA360645EAE2
:10025000C0754FEA0752001B61EB0201001C41F51B
:10026000801149084FEA30000019514132462B46AF
:1002700003B0BDE8F04F00F0C5B90098012240007E
:100280000023D0EB020263EBE073009821464FEAB3
:10029000E074B8EB000061EB0401E9E783F0004390
:1002A0005BE781F0004158E72DE9FE4F81EA030446
:1002B00004F0004421F0004100944FF0000B23F0C3
:1002C000004350EA01045ED052EA03045BD0C3F35A
:1002D0000A54C1F30A552C44A4F2F3340194A0FB50
:1002E0000254C1F3130141F48011C3F3130343F427
:1002F000801301FB024400FB034E840A970A44EA80
:10030000815447EA8357A4FB076802958D0A05FBD1
:1003100007854FEA932C04FB0C542705029D4FEAF6
:10032000065847EA1637B5EB08056EEB070C870E43
:10033000920E47EA811742EA8312A7FB0201B6EB4D
:100340000B0164EB00042B0D43EA0C335E1844EB05
:100350001C50DA465146E7FB0201C5F313044FEA8D
:100360000B3343EA14534FEA0432019C43EA060379
:10037000A4F10C040294009CCDE900B400F051F902
:1003800003B0BDE8F08F00200146F9E72DE9F04DFC
:1003900081EA030404F0004B21F0004514464FF0BD
:1003A000000A23F0004150EA050220D054EA01027D
:1003B0001DD0C5F30A570246C5F31303C1F313005A
:1003C000C1F30A5640F4801543F48013A7EB0608E6
:1003D000101BD64608F2FD3873EB050002D308F176
:1003E000010801E092185B41B8F1000F03DA002028
:1003F0000146BDE8F08D00204FF48011064684468A
:100400000EE0171B73EB050705D3121B63EB050307
:1004100006434CEA010C49084FEA300092185B4150
:1004200050EA0107EDD152EA030012D082EA04003B
:1004300083EA0501084305D0101BAB4106D2012217
:10044000002306E000224FF0004302E06FF00102BB
:1004500053101AEB06004CEB085110EB0A0041EB6D
:100460000B01BDE8F04D00F0CDB870B521F00043B0
:1004700003430CD0C1F30A550024D5EB040564EB0B
:100480000403D617AD1AB34102DB0020014670BD4C
:10049000201841EB025170BD0EB540F2334102917C
:1004A0000021CDE900110A460B4600F0BAF803B06E
:1004B00000BDC1F30A5210B5C1F3130140F2FF337E
:1004C00041F480119A4201DA002010BD40F233431A
:1004D0009A42A2F2334203DC524200F071F810BD9E
:1004E000904010BD30B5041E71F1000404DB4FF0E4
:1004F0000044404264EB0101141E73F1000405DB6B
:100500001C464FF00043524263EB0403994208BF7C
:10051000904230BD30B50B46014600202022012418
:1005200009E021FA02F59D4205D303FA02F5491BC1
:1005300004FA02F52844151EA2F10102F1DC30BDD7
:100540002DE9F05F0546002092469B468846064608
:10055000814640241BE0284641464746224600F09B
:100560002FF853465A46C01A914110D311461846E7
:10057000224600F016F82D1A67EB01084F46224676
:100580000120002100F00DF817EB00094E41201E5C
:10059000A4F10104DFDC484631462A464346BDE863
:1005A000F09F202A04DB203A00FA02F10020704775
:1005B0009140C2F1200320FA03F3194390407047A1
:1005C000202A04DB203A21FA02F00021704721FAA8
:1005D00002F3D040C2F1200291400843194670470F
:1005E000202A06DBCB17203A41FA02F043EAE073F7
:1005F00006E041FA02F3D040C2F1200291400843E4
:100600001946704710B5141E73F1000408DA401C37
:1006100041F1000192185B411A4301D120F0010021
:1006200010BD2DE9F04D92469B4611B1B1FA81F211
:1006300002E0B0FA80F220329046FFF7B2FF0446A3
:100640000F4640EA0A0041EA0B0153465A46084366
:1006500013D0114653EA010019D0C8F140025046A8
:10066000FFF7AEFF05460E46504659464246FFF795
:1006700098FF084305D0012004E020463946BDE834
:10068000F08D0020054346EAE0762C4337430A9874
:100690006305E40AA0EB08000022FD0A44EA47547F
:1006A0000A3002D500200146E9E701051019694129
:1006B000DDE9084500196941BDE8F04DA2E7C1F345
:1006C0000A52C1F3130140F2FF3341F480119A4200
:1006D00002DA00200146704740F233439A42A2F208
:1006E000334202DC5242FFF76BBFFFF75ABF0000F4
:1006F000064C074D06E0E06840F0010394E807006F
:1007000098471034AC42F6D3FFF716FD3843000883
:10071000584300087047000010B5154CE8B101219E
:10072000204600F072F80121204600F064F82046CF
:1007300000F0E2F8204600F079F80028FAD12046CF
:1007400000F0E9F8204600F06AF80028FAD12046C7
:10075000BDE81040012100F0D4B80021204600F08F
:1007600054F82046BDE81040002100F044B80000D5
:100770000024014030B5114D04468BB0284600F0EE
:1007800091FA0F48CDE9000400200121CDE90201D2
:1007900009020490CDE90501890007912021089103
:1007A0000902CDE909106946284600F0FFFA012147
:1007B000284600F06DFA0BB030BD00000800024082
:1007C0004C24014000B585B001218DF804100022B1
:1007D0008DF805104FF46021CDE902128DF810005C
:1007E00000926946024800F029F805B000BD0000FB
:1007F0000024014070470029816802D041F00101C6
:1008000001E021F00101816070470029816802D078
:1008100041F4807101E021F48071816070470146EC
:1008200000208968490700D5012070470146002053
:100830008968090700D501207047000010B542689B
:100840000E4B0C791A400B6842EA042213434360B2
:1008500082680B4B1A40D1E9024323434C7942EAA8
:10086000440213438360C26A097C22F47002491E69
:10087000C9B242EA0151C16210BD0000FFFEF0FFA3
:10088000FDF7F1FF70B5072609290AD9C568A1F15E
:100890000A0404EB4404A640B543A3401D43C560CD
:1008A00007E0056901EB4104A640B543A3401D43A1
:1008B00005611F23072A09D2446B521E02EB8202F4
:1008C00093409C4391400C43446370BD0D2A09D270
:1008D000046BD21F02EB820293409C4391400C4375
:1008E000046370BDC46A0D3A02EB820293409C43DC
:1008F00091400C43C46270BD816841F00801816081
:1009000070470029816802D041F4A00101E021F480
:10091000A00181607047816841F0040181607047E7
:1009200070B505460121480202F062F84FF400401C
:1009300002F030F80120FFF745FF154C0723012294
:1009400010212046FFF79EFF01212846FFF712FFE6
:1009500001212046FFF759FF012000F01BF801207C
:10096000FFF7DAFE2046FFF7C7FF2046FFF75EFFDE
:100970000028FAD12046FFF7CEFF2046FFF74FFFB1
:100980000028FAD12046BDE870400121FFF7B9BF29
:100990000024014005490028086802D040F4000006
:1009A00001E020F4000008607047000008240140C6
:1009B000FEE7704770478188006800F052BD81886B
:1009C000006800F04CBD000008480749082201609B
:1009D000828004228160828102220161828281619F
:1009E0000121818300F004B8001001408004002040
:1009F00070B5044600F164058188006800F002FCCF
:100A0000A189A06800F0FEFBA18BA06900F0FAFBB1
:100A1000A18A206900F0E4FB204600F003F80020E2
:100A2000286070BD70B5002506462C46FFF7C7FF4D
:100A3000C82002F0EBFBFF21304600F0C8F805208B
:100A400002F0E4FB6D1CEDB20F2DF4D3322002F066
:100A5000DDFBFE21304600F0BAF8322002F0D6FB72
:100A60004FF000520321304600F0D6F8322002F059
:100A7000CDFB0021304600F0AAF8322002F0C6FB80
:100A800000220321304600F0C7F8322002F0BEFBFE
:100A9000244D0B21304600F069F82860322002F026
:100AA000B5FB2868C00004D52046641CA4B26428A5
:100AB000EFD9642C35D24FF08072022130462A6083
:100AC00000F0AAF80B21304600F050F82860092108
:100AD000304600F04BF828600A21304600F046F816
:100AE0004FF40052032130462A6000F095F885212A
:100AF000304600F06AF88621304600F066F80A2198
:100B0000304600F033F82860C021304600F05DF830
:100B10004FF4FA71491EFDD23046BDE87040FFF730
:100B20004ABF70BD6800002070B50646002400F082
:100B300044F8002500BF00BF304600F032F800BF87
:100B400000BF00BF00BF6006040E304600F039F859
:100B500008B1641CE4B2304600F027F800BF00BFC3
:100B60006D1CEDB2082DE5D3204670BD38B50446A6
:100B700000200090204600F02AF82046FFF7D4FF1E
:100B800005062046FFF7D0FF05EB00452046FFF79E
:100B9000CBFF05EB00252046FFF7C6FF2844009059
:100BA00038BD818B806900F05CBC818B806900F06E
:100BB00056BC8189806800F054BC8189806800F04F
:100BC0004EBC818A006900F043BCAFF300802DE980
:100BD000F04101260D46074600242806384602D576
:100BE000FFF7E7FF01E0FFF7E8FF304602F042FBC6
:100BF0003846FFF7D6FF304602F03CFB3846FFF799
:100C0000D4FF304602F036FB6806641C050EE4B2E1
:100C1000082CE2D3BDE8F08170B514460546FFF715
:100C2000D6FF210E2846FFF7D2FFC4F3074128461E
:100C3000FFF7CDFFC4F307212846FFF7C8FFE1B255
:100C40002846BDE87040FFF7C2BF00F0CDB800F005
:100C5000CBB800F0C9B800F0C7B800F0C5B800F0D4
:100C6000C3B800F0C1B800F0BFB800F0BDB800F0E4
:100C7000BBB800F0B9B80000C10002D50249086055
:100C80007047024948607047040402400000024077
:100C90000029016802D041F0010101E021F00101C9
:100CA00001607047016821F00101016000210160CD
:100CB00041608160C1602D4B2C4AC11A803A984234
:100CC00043D018DC2A4BA0EB0301984235D00ADC54
:100CD0002849401829D014282BD0282824D150681E
:100CE00040F4706034E014292BD028291CD15068BE
:100CF00040F470002CE02048B1F56C7F2ED009DC68
:100D0000B1F5627F26D0B1F5677F0DD1016841F062
:100D1000F00108E0B1F5717F24D0B1F5767F03D101
:100D2000016841F4702101607047506840F00F0085
:100D30000EE0506840F0F0000AE0506840F4704067
:100D400006E0506840F4702002E0506840F07060A7
:100D500050607047016841F00F01E4E7016841F419
:100D60007061E0E7016841F47041DCE78000024017
:100D700044000240F8FFFDBF040402400246002088
:100D8000D10001D5034900E003490968114200D0B0
:100D9000012070470004024000000240002A02685F
:100DA00001D00A4300E08A430260704730B5026810
:100DB00047F6F0739A430C6A8B682343D1E90445E4
:100DC0002C4323438C692343CC6923434C6A23433C
:100DD0008C6A234313430360CA6842600A688260D6
:100DE0004968C16030BD000010B502F011FE10204E
:100DF000FFF7C4FF01281BD04FF480542046FFF7B3
:100E0000BDFF01281AD024032046FFF7B7FF0128B1
:100E10001BD0124C2046FFF7B1FF01281CD1204601
:100E2000FFF72AFF0E480021BDE81040FFF730BF52
:100E30001020FFF721FF00210A48F5E72046FFF7C1
:100E40001BFF084800212830EEE72046FFF714FF7B
:100E5000044800216430E7E710BD000000000110E5
:100E6000580402401C00024001F04AB870B5064622
:100E700001F09DF8CC21304601F0E2F844213046E3
:100E800001F0DEF84FF4FA75284602F0BFF930465B
:100E900001F08DF8CC21304601F0D2F8BE21304669
:100EA00001F0CEF8304601F055F80446304601F026
:100EB00051F844EA0024284602F0A8F9204670BD03
:100EC000074810B505490160C9148180FFF7CCFFC0
:100ED000BDE810400248FFF7C9BF00000010014004
:100EE00030000020704700F0B1B800F0AFB800F05B
:100EF000ADB800F0ABB800F0A9B800F0A7B800F0AA
:100F0000A5B80000014908607047000014040140C2
:100F100010B5012000F08AF8434C18B1208840F049
:100F2000010006E0022000F081F820B1208840F0A6
:100F30000200208010BD042000F078F818B120884D
:100F400040F00400F5E7082000F070F818B12088A0
:100F500040F00800EDE7102000F068F818B1208894
:100F600040F01000E5E7202000F060F818B120887C
:100F700040F02000DDE7402000F058F818B120884C
:100F800040F04000D5E7802000F050F818B12088EC
:100F900040F08000CDE74FF4807000F047F818B1C2
:100FA000208840F48070C4E74FF4007000F03EF8F1
:100FB00018B1208840F40070BBE74FF4806000F067
:100FC00035F818B1208840F48060B2E74FF4006033
:100FD00000F02CF818B1208840F40060A9E74FF425
:100FE000805000F023F818B1208840F48050A0E72A
:100FF0004FF4005000F01AF818B1208840F4005067
:1010000097E74FF4804000F011F818B1208840F4C1
:1010100080408EE74FF4004000F008F8002889D0A7
:10102000208840F4004084E740000020064A014642
:1010300000201268044B0A4014331B680B4202D094
:10104000002A00D0012070470004014008B50020AC
:10105000ADF80000FFF75CFF02F0DAFC1E48BDF8B7
:10106000001001800120FFF74DFF0220FFF74AFF2B
:101070000420FFF747FF0820FFF744FF1020FFF789
:1010800041FF2020FFF73EFF4020FFF73BFF80207D
:10109000FFF738FF4FF48070FFF734FF4FF4007014
:1010A000FFF730FF4FF48060FFF72CFF4FF4006034
:1010B000FFF728FF4FF48050FFF724FF4FF4005054
:1010C000FFF720FF4FF48040FFF71CFFBDE808400A
:1010D0004FF40040FFF716BF4000002070470000AB
:1010E00004490A6822F010020A600A6802430A6092
:1010F000704700000020024004490A6802F03802EC
:101100000A600A6802430A6070470000002002403B
:10111000704710B50121084601F076FC0021BDE8BA
:101120001040012001F070BC70B52A4A0C46811AAB
:101130001315D614904243D014DC2749274D41188B
:101140004FF6FF721BD0994227D0B14241D1012105
:10115000102001F04DFC600401D4200439D5012198
:10116000112008E099422ED0B1422FD0B1F5406F46
:101170002FD101210802BDE8704001F039BCA00464
:1011800005D4600403D4200401D4944202D1012187
:1011900004200AE001210420EDE7200703D4E00643
:1011A00001D4944209D10121092001F021FC2846F3
:1011B000BDE87040012100F027B901210820DAE7DD
:1011C00001212020D7E701214020D4E70121802000
:1011D000D1E770BD0014014000F8FEBF00023000EE
:1011E00038B50446ADF8001002228DF802204820E0
:1011F0008DF803002046FFF797FF6946204600F070
:10120000B5F838BD38B50446ADF8001003228DF8A6
:10121000022010208DF803002046FFF785FF694665
:10122000204600F0A3F838BD254A10B5811A1315E1
:10123000D41490422ED00DDC224940181CD0984284
:1012400021D0A0423BD10121102001F0DDFB002183
:1012500010200DE0994224D0A14229D0B1F5406F71
:101260002DD101210C02204601F0CEFB00212046A9
:10127000BDE8104001F0C8BB0121042001F0C4FB0F
:1012800000210420F4E70121082001F0BDFB00212A
:101290000820EDE70121202001F0B6FB00212020ED
:1012A000E6E70121402001F0AFFB00214020DFE70D
:1012B0000121802001F0A8FB00218020D8E710BD8B
:1012C0000014014000F8FEBF2DE9F84F684600F019
:1012D000CAF81F4C6946204600F048F81D4D694683
:1012E000284600F043F81C4E6946304600F03EF8B0
:1012F0001A4F6946384600F039F8DFF864806946CD
:10130000404600F033F8DFF85C906946484600F04C
:101310002DF8DFF854A06946504600F027F8204623
:10132000FFF782FF2846FFF77FFF3046FFF77CFF7D
:101330003846FFF779FF4046FFF776FF4846FFF74C
:1013400073FF5046FFF770FFFFF7E3FEBDE8F88F2D
:1013500000080140000C0140001001400014014051
:1013600000180140001C014000200140F0B5CC787D
:10137000002204F00F03E40601D58C7823430C7897
:101380004FF00F0C14F0FF0F4FF0010E1AD005684C
:101390000E880EFA02F42640A6420FD196000CFAEF
:1013A00006F725EA070703FA06F5CE783D43282E0F
:1013B00000D14461CE78482E00D10461521C082A25
:1013C000E6D305600A88FF2A1CD94468002202F18E
:1013D00008060EFA06F50E882E40AE420ED1960093
:1013E0000CFA06F7BC4303FA06F7CE783C43282EE6
:1013F00000D14561CE78482E00D10561521C082AE3
:10140000E5D34460F0BD0000F0B5104D6B68440DAD
:10141000260184B2C0F30157B440C0F30342032F46
:1014200005D0C0020AD503209040834307E06868D6
:1014300023F0706220F07060686002E0A34343F024
:10144000706201B122436A60F0BD000000000140FB
:101450000246002092680A4200D001207047416194
:101460007047016170474FF6FF7101800221817062
:101470000421C17070470000F0B40C4601461E46BE
:101480000020049B17460546802C1FD90C290BD041
:1014900010290FD0182913D020293FD132463946C0
:1014A0002046F0BC00F0F8B9324639462046F0BC80
:1014B00000F0AAB8324639462046F0BC00F002B926
:1014C000324639462046F0BC00F070B9A4F1210242
:1014D0005D2A23D83B4EE3008A1BA3F58073B142FB
:1014E0001BD01DDC04EB840202EBC402232944D090
:1014F0000BDC0C2949D0102958D018295AD02029A2
:101500000CD104EB8410304959E079294AD0B1F567
:10151000801F02D02D4AD14200D11846F0BC70473E
:10152000A4F12001B2F57E5F2BD013DC01EB410367
:10153000B2F5407F1CD02101A1F50071B2F5F06F2A
:1015400019D0B2F5786F16D0B2F5AC5FE6D105EBE5
:101550000310E3E702F5F652B2F5004217D0B2F5F8
:101560004C6F17D0B2F5225FD8D101EB811015E096
:1015700005EB8300D2E70846D0E7154800EB84105E
:10158000CCE7A001A0F50060C8E712480BE001EB32
:10159000011003E001EB810000EB411005EB40007E
:1015A000801CBBE70C4800EB4200B7E704EB0410DB
:1015B0000A4904E004EB8400094900EB441001EB04
:1015C0004000ABE70006100002E3100000FDEFFF53
:1015D00080251000425A100042BD100012C61000B3
:1015E00002CE1000024600200C2A07D0102A07D095
:1015F000182A07D0202A00D1802070471820704771
:10160000202070474820704710B500222C4C7F29BD
:101610000DD0A0F1A103082B0BD8A12909D3C3EB4E
:10162000031202EB431201EB4202A13A11E0204601
:1016300010BDA0F1A803012B0BD8A12909D27F2945
:1016400001D9491EC9B203EB430201EB421202F277
:101650004E22A0F1B003472B0AD8A12908D3C3EB2F
:10166000031000EB431001EB400202F26D3222E066
:10167000A0F18103202B0ED240290CD37F2901D960
:10168000491EC9B2C3EB431000EB831001EB4000CD
:1016900041F67E510EE0AA280DD3A1290BD27F2955
:1016A00001D9491EC9B2AA3800EB400001EB401035
:1016B00043F23E51421802EB420004EBC00010BD61
:1016C0000E3D110070B50024374E7F290DD0A0F1DA
:1016D000A105082D0BD8A12909D3C5EB051404EBEE
:1016E000451401EB4404A13C11E0304670BDA0F16B
:1016F000A805012D0BD8A12909D27F2901D9491E9E
:10170000C9B205EB450401EB441404F20E34A0F118
:10171000B005472D0AD8A12908D3C5EB051000EB69
:10172000451001EB400404F26D343AE0A0F181056C
:10173000202D0ED240290CD37F2901D9491EC9B2D0
:10174000C5EB451000EB851001EB400041F63E6112
:101750001CE0AA280DD3A1290BD27F2901D9491E4B
:10176000C9B2AA3800EB400001EB401043F23E51F1
:101770000CE002EB8202812802D0822808D010E01F
:1017800039290ED303EB420044F69941441808E08E
:1017900040F2EC40414301EB4200C418A4F51A4466
:1017A000BB3C06EB441070BDDE4F190070B5002441
:1017B000384E7F290DD0A0F1A105082D0BD8A12905
:1017C00009D3C5EB051404EB451401EB4404A13C1B
:1017D00011E0304670BDA0F1A805012D0BD8A1295C
:1017E00009D27F2901D9491EC9B205EB450401EB95
:1017F000441404F20E34A0F1B005472D0AD8A129F3
:1018000008D3C5EB051000EB451001EB400404F2D2
:101810006D343AE0A0F18105202D0ED240290CD381
:101820007F2901D9491EC9B2C5EB451000EB8510CF
:1018300001EB400041F63E611CE0AA280DD3A1292E
:101840000BD27F2901D9491EC9B2AA3800EB40004A
:1018500001EB401043F2FE510CE002EB82028128C2
:1018600002D0822808D010E039290ED303EB4200C1
:1018700044F69941441808E040F2EC40414301EB42
:101880004200C418A4F51A44BB3C04EBC40006EBA8
:10189000C00070BDDE43270070B50024374E7F299D
:1018A0000DD0A0F1A105082D0BD8A12909D3C5EBB6
:1018B000051404EB451401EB4404A13C11E030464F
:1018C00070BDA0F1A805012D0BD8A12909D27F294F
:1018D00001D9491EC9B205EB450401EB441404F2D9
:1018E0004E24A0F1B005472D0AD8A12908D3C5EB95
:1018F000051000EB451001EB400404F2AD243AE082
:10190000A0F18105202D0ED240290CD37F2901D9C9
:10191000491EC9B2C5EB451000EB851001EB400034
:1019200041F63E611CE0AA280DD3A1290BD27F29E4
:1019300001D9491EC9B2AA3800EB400001EB4010A2
:1019400043F2FE510CE002EB8202812802D0822891
:1019500008D010E039290ED303EB420044F6994138
:10196000441808E040F2EC40414301EB4200C41847
:10197000A4F51A44BB3C06EBC41070BD10AE470082
:101980002DE9F84F0746002415468A468020214657
:10199000B0EB152F10D8280A89460091064601465B
:1019A000EAB200235046FFF767FD8046EAB2002303
:1019B0003146CDF800900CE00E4600910023E9B2CC
:1019C0001A465046FFF758FD00238046E9B21A46F2
:1019D00000965046FFF706FE0546384601F073F9BB
:1019E000032040EA186148F04076384601F02CFAAE
:1019F000C6F30741384601F027FAC6F307213846F7
:101A000001F022FAF1B2384601F01EFA07E0FF2198
:101A1000384601F019FA3919641C81F84000AC42CB
:101A2000F5D3384601F04BF9FE6387F80851A8B2A8
:101A3000BDE8F88FFEE7704770477047704700F0C9
:101A400001B8000002494AF6AA2008607047000069
:101A5000003000402DE9F041804618480468B4F891
:101A60004260B4F84070B3B294F85400BDB25B1E4B
:101A70006D1E68B1012801D0022809D000209AB259
:101A80000146ABB2A46DA04700F014FA00250FE0A8
:101A90000020AAB201469BB2F4E7002404E04046CD
:101AA00000F0EEF9641CA4B2B442F8D36D1CADB2E0
:101AB000BD42F2D3BDE8F04100F0F0B97000002063
:101AC00030B41A481A4A1B4C9314826283859315CA
:101AD00082618383DB0102628384202384608381AB
:101AE000154D056104258582082502608580046303
:101AF00010248486114D85634FF6FF750146858756
:101B00000D46012085F854000D48E1E91A024020F5
:101B10000C81CA600B824A6108838020CA610884F4
:101B200000204884284630BC00F0E2BC08030020B6
:101B3000000801400010014000140140000C014069
:101B400000300140401EFDD27047000070B50E4DC0
:101B500004462860B0F85010B0F85200814203D11A
:101B600080F0FF00A4F85000204600F00FF828682D
:101B7000C06D8047B4F85200FFF76CFF04F16800B5
:101B8000BDE8704001F0D4B87000002010B50446E4
:101B900081880068FFF736FBA189A068FFF732FB58
:101BA000A18A2069FFF72EFBA18BA069FFF72AFB12
:101BB000A18C206AFFF726FBA18DA06AFFF722FB0C
:101BC000A18E206BFFF71EFBA18FA06BBDE810401C
:101BD000FFF718BB0FB42DE9F04FC3B0044616460B
:101BE0000D4600274F98FEF7B1FA50AB802101A8AF
:101BF0004F9A01F011FFDFF850A11FFA80FB4190CE
:101C0000DAF8000090F85410012909D0022901D017
:101C1000032905D0B0F84290B0F84000804689E032
:101C200030F8409F4088F9E701A8C25D802A49D971
:101C30003844102E407840EA022206D0202E0ED0E2
:101C4000102E09D0202E11D016E0A8F110008442E9
:101C500002DD00241035ADB2A9F1100008E0A8F1B2
:101C60002000844202DD00242035ADB2A9F120001D
:101C7000854201DD00242546DAF80000314668304F
:101C8000FFF77EFEDAF80000324600F1A80100916D
:101C900090F870312946204600F058F80C2E06D0F6
:101CA000102E06D0182E06D0202E06D007E00C34B9
:101CB00004E0103402E0183400E02034A4B27F1CA9
:101CC000BFB235E0A8F11000844202DD00242035C7
:101CD000ADB2102E02D0202E1FD003E0854201DDD0
:101CE00000242546DAF8000031466830FFF748FE48
:101CF000DAF80000324600F1A801009190F8703146
:101D00002946204600F022F80C2E09D0102E09D0CA
:101D1000182E09D0202E09D00AE0A8F12000DDE716
:101D2000A41D04E0083402E00C3400E01034A4B236
:101D30007F1CBFB25F45FFF477AF419843B0BDE869
:101D4000F00F5DF814FB0000700000202DE9F05F3B
:101D5000DFF8008100251646D8F800409946DDF8E6
:101D600028B0B4F850A02A462B460C2E08D000F11B
:101D70000F07102E14D0182E23D0202E31D01DE0A6
:101D8000B4F842200C3A824261DBB4F840200C3AAD
:101D90008A425CDB00F10B0292B201F10B030CE012
:101DA000B4F84220103A824251DBB4F84020103A95
:101DB0008A424CDBBAB201F10F039BB2A46DA0477B
:101DC00043E0B4F84220183A824240DBB4F84020A5
:101DD000183A8A423BDB00F1170292B201F1170375
:101DE000EBE7B4F84220203A824230DBB4F84020DE
:101DF000203A8A422BDB01F11F03B9F1800F01D099
:101E0000BAB2DAE700F11F0292B2D6E71BF805601A
:101E100000243006D8F8000002D5B0F8503001E0B8
:101E2000B0F8523000F046F8184600F029F800F0FB
:101E300035F87006641C060EE4B2082CE9D3D8F815
:101E400000106D1CEDB2A1F850A04D45DED3BDE8E9
:101E5000F09F00007000002010B50C46034600F013
:101E60003FF8184600F00CF800F032F800F022F8C5
:101E7000204600F005F8BDE8104000F00FB8000063
:101E8000054909680B6A8A8C5A618A6BD060888C14
:101E9000096A08617047000070000020044800686B
:101EA0008269818B5161818D806A01617047000078
:101EB0007000002005480068826A818D5161826946
:101EC000818B1161818980680161704770000020F9
:101ED00002480068818D806A0161704770000020AF
:101EE00005480068826A818D51618269818B5161E8
:101EF000818980680161704770000020FEE77047AB
:101F000081880068FFF77EB981880068FFF7A0BA72
:101F10000168896800790140C8B2704710B504466D
:101F200000F03EF8204600F034F8052001F0A2F958
:101F3000204600F027F80C2001F09CF92046FFF71E
:101F4000E3FF08B1012400E00024322001F092F9FF
:101F5000204610BD70B500240646012564083046B1
:101F6000FFF7DCFF08B144F080046D1CEDB2082DD2
:101F7000F4D9204670BD10B581880068FFF771FA6A
:101F8000002010BD10B581880068FFF729F90020F6
:101F900010BD10B581880068FFF761FA002010BD00
:101FA00010B581880068FFF72DF9002010BD70B5CD
:101FB0000546818800240068FFF724F9A98828686D
:101FC000FFF74DFA40F2EE2001F054F9A988286895
:101FD000FFF706F90F2001F04DF94FF4FA7604E00F
:101FE000641CA4B2012001F045F92846FFF790FFD8
:101FF00010B1B442F4D301E0B44201D3012070BD6A
:102000004FF4F07001F036F9002070BD70B50C4649
:102010000546FFF7BEFF022001F02CF9E10704D0CE
:102020002846FFF7A8FF3C2006E03C2001F022F9FB
:102030002846FFF7A0FF022001F01CF9002070BD28
:1020400070B50D460646FFF7ABFF012405F0010110
:102050006D083046FFF7DAFF641CE4B2082CF5D9AE
:10206000002070BD10B500F0E0FFFFF72DF900F083
:10207000DFFFFEF7A9FC00F0FDFDFEF721FF4FF4A6
:10208000FA7001F0C3F8FFF71BFD0448FEF748FCA7
:10209000BDE810404FF47A7001F082B820000020B3
:1020A0001CB5FFF7CCFC0F48FEF7E0FEFEF7F4F995
:1020B0006FF00302FEF7D9F90A4C283CC4E9080185
:1020C0006279F02A01D300226271CDE9000106A3F2
:1020D00010226179C820FFF77DFD607910306071B2
:1020E0001CBD000030000020CEC2B6C83A25342EF8
:1020F0003466A1E600000000704700002DE9FF5F94
:1021000090B093460025E94A10988946FF24811A29
:10211000DFF89CA3D3142E46A8462F464FF4806CBC
:1021200090427CD00CDCB0F1804F32D0E1494018B5
:102130004AD0604564D098425BD1012108207FE0FD
:10214000B1F5806F7FD0B1F58E3F03D0B1F5923FEE
:102150004FD17BE00121C80200F04AFC5FEA090090
:1021600007D0012809D002280BD0B9F1030F71D193
:102170000BE055464FF480743AE055464FF4007436
:1021800036E055464FF4806432E055464FF4006423
:102190002EE00121084600F013FC5FEA090007D099
:1021A000012808D0022809D0B9F1030F52D108E064
:1021B000554601241CE05546022419E055460424E6
:1021C00016E05546082413E00121022000F0F8FB38
:1021D0005FEA090007D0012808D002280AD0B9F127
:1021E000030F37D109E05546402401E055468024CD
:1021F00004262FE0B04D01241EE0AF4D02241BE069
:102200000121042000F0DCFB5FEA090009D001286D
:102210000AD002280BD0B9F1030F1BD10AE00DE060
:1022200011E0A54D402407E0A34D802404E0A24D19
:10223000AC1501E0A04D6C1508260BE00121102023
:1022400000F0BEFB06E001212020F9E70121480350
:1022500000F0CEFB0121084600F0CAFB0121304608
:1022600000F0C6FBADF8304003208DF83200182096
:102270008DF833000CA92846FFF778F807A800F07E
:1022800021FC8E4C10988E4D84434EF660265A46A3
:1022900000202946139BFEF779F88A4BCDE90D0102
:1022A000FCB109982C46824600221D460D98FEF787
:1022B00019F918D20022844B58461399FDF7F4FF00
:1022C00004460D465046FEF7E7F822462B46FEF739
:1022D0005DF8B04600227D4BFEF758F800227C4B9B
:1022E0001FE00A98DEE7DDE90D0123460022FEF734
:1022F000F9F84FF0000217D22B4658461399FDF714
:10230000D3FF04460D465046FEF7C6F822462B463C
:10231000FEF73CF8B04600226C4BFEF737F800227F
:102320006C4BFDF7C1FF49E02646234658461399FA
:10233000FEF7D8F845D85046FEF7AEF85A46139B3C
:10234000FEF724F80122FEF790F804460D4600221D
:10235000614BFEF7C7F804D84FF4FA6800225F4BD0
:1023600028E000225E4B20462946FEF7BBF804D841
:102370004FF0C8080022564B1CE00022594B204663
:102380002946FEF7AFF804D84FF014080022514B4D
:1023900010E00022544B20462946FEF7A3F805D84A
:1023A0004FF0020800224FF0804303E04FF0010895
:1023B0000022334620462946FDF7E8FFFEF779F86C
:1023C00087B2A8F10100ADF81000781EADF8140036
:1023D0000024ADF81640ADF8124004A9109801F0A1
:1023E000D7F81E9847434FF47A70874203D9B7FB5A
:1023F000F0F080B202E01E9808B101201E9060202B
:10240000ADF800001E98ADF806000120ADF80200FE
:10241000ADF808405FEA090007D001280AD0022879
:102420000DD0B9F1030F13D10EE06946109800F0FA
:10243000ADFF0DE06946109800F0DEFF08E0694648
:10244000109801F023F803E06946109801F062F853
:102450000121109800F08FFF5FEA090007D00128E2
:102460000AD002280DD0B9F1030F13D10EE00821D4
:10247000109800F0BBFF0DE00821109800F0FCFF61
:1024800008E00821109801F03FF803E008211098B7
:1024900001F072F80121109800F054FF012110980A
:1024A00000F05EFF14B0BDE8F09F00000010004097
:1024B0000008014000FCFFBF000C0140000001408B
:1024C0000000F03F0000244000005940004CED4067
:1024D0000000694000003440D012634100409F403A
:1024E00080842E41006AF84040FFEF4070470000B2
:1024F0000C490860F021A0F840104FF4C871A0F812
:1025000042104FF47841A0F852104FF6E071A0F855
:102510005010054981650549C16505494166FFF7C8
:1025200015BB00006C00002061280008552500083C
:102530003525000808B500210920FFF78DFC002093
:10254000034B0246009003211803FFF7D7FD08BD97
:1025500000001440F8B5C04C4FF4FA652068826A58
:10256000818D5161026A818C11618268818911615A
:10257000818A006901612846FFF7E4FA2068818AB0
:10258000006941612846FFF7DDFA2068818A006909
:1025900001612846FFF7D6FA2846FFF7D3FA284606
:1025A000FFF7D0FA0021AC100846FFF755FC204693
:1025B000FFF7C8FA00210846FFF74EFC2046FFF758
:1025C000C1FA00210846FFF747FC2046FFF7BAFA98
:1025D00000210846FFF740FC2046FFF7B3FA4FF40E
:1025E000407529460120FFF737FC2046FFF7AAFA7D
:1025F0004FF4807631460220FFF72EFC2046FFF78D
:10260000A1FA45F230010320FFF726FC2046FFF730
:1026100099FA31460720FFF71FFC2046FFF792FA90
:1026200040F608010820FFF717FC2046FFF78AFA5A
:1026300001210920FFF710FC2046FFF783FA012152
:102640000B20FFF709FC2046FFF77CFA00210C2045
:10265000FFF702FC2046FFF775FA00210F20FFF775
:10266000FBFB2046FFF76EFA19211020FFF7F4FB61
:102670002046FFF767FA771C39461120FFF7ECFB7D
:102680002046FFF75FFA00211220FFF7E5FB204606
:10269000FFF758FA01211320FFF7DEFB2046FFF772
:1026A00051FA55211420FFF7D7FB2046FFF74AFACD
:1026B00010212020FFF7D0FB2046FFF743FA3946D0
:1026C0002120FFF7C9FB2046FFF73CFA002122201A
:1026D000FFF7C2FB2046FFF735FA01212320FFF761
:1026E000BBFB2046FFF72EFAF1019020FFF7B4FB69
:1026F0002046FFF727FA4FF44C713046FFF7ACFB4A
:102700002046FFF71FFA40F227213846FFF7A4FBC7
:102710002046FFF717FA4CF2B011B01CFFF79CFBF4
:102720002046FFF70FFA4FF45061F01CFFF794FBBF
:102730002046FFF707FA00217000FFF78DFB2046C7
:10274000FFF700FA002140F20120FFF785FB204649
:10275000FFF7F8F94FF430414FF42070FFF77CFB9E
:102760002046FFF7EFF9A9002846FFF775FB204642
:10277000FFF7E8F945F60B21681CFFF76DFB2046D3
:10278000FFF7E0F940F60611A81CFFF765FB2046AD
:10279000FFF7D8F941F21701E81CFFF75DFB20466F
:1027A000FFF7D0F94FF40C51281DFFF755FB2046D9
:1027B000FFF7C8F94FF4B851681DFFF74DFB2046ED
:1027C000FFF7C0F946F20931A81DFFF745FB204687
:1027D000FFF7B8F940F60941E81DFFF73DFB204639
:1027E000FFF7B0F941F20C014FF44270FFF734FBF0
:1027F0002046FFF7A7F942F2322140F20930FFF7F5
:102800002BFB2046FFF79EF94FF4C841B000FFF7BD
:1028100023FB2046FFF796F9042140F20140FFF721
:102820001BFB2046FFF78EF90021B800FFF714FBD1
:102830002046FFF787F95F2140F20250FFF70CFBBB
:102840002046FFF77FF9054B00220321180400946E
:10285000FFF754FCF8BD00007000002000408F40DE
:102860002DE9F0414A4E8C4645F23005346894F823
:1028700054E0B4F84070B4F84210BEF1000F4FD0ED
:10288000BEF1010F59D0BEF1020F69D0F91A491EED
:10289000A4F84410A7EB0C01491EA4F84610A4F8B4
:1028A0004800A4F84A20A4F84C10A4F84E0045F2C1
:1028B0002805B4F844104FF40470FFF7CDFA3068DF
:1028C000B0F8461040F21120FFF7C6FA3068B0F8B1
:1028D000481040F21220FFF7BFFA3068B0F84A10F3
:1028E00040F21320FFF7B8FA3068B0F84C104FF4FC
:1028F0000070FFF7B1FA3068B0F84E1040F20120D6
:10290000FFF7AAFA29460320FFF7A6FAFFF7E8FA2D
:1029100040F20220FFF7B4FABDE8F041FFF7D8BA61
:10292000A4F84400A4F84620A4F848C0A4F84A300B
:10293000A4F84C00A4F84EC0BBE78A1AA4F844C01F
:10294000521EA4F84630081AA4F84820401EA4F8E5
:102950004A00A4F84CC0A4F84E0045F21805A8E7B8
:10296000BA1A521EA4F84420381ACA1A401E521E1F
:10297000A4F84600A1EB0C01A4F84820491EA4F8D5
:102980004A10A4F84C00A4F84E104FF4A04590E76C
:102990006C000020034A516821F44041014351601A
:1029A0007047000000100240044A0029516901D01C
:1029B000014300E081435161704700000010024074
:1029C000044A0029D16901D0014300E08143D1616B
:1029D0007047000000100240044A0029116901D02C
:1029E000014300E081431161704700000010024084
:1029F000044A0029916901D0014300E081439161BB
:102A00007047000000100240044A0029D16801D03C
:102A1000014300E08143D160704700000010024094
:102A200010B500F031F84FF48034204600F0BEF8C5
:102A300000F006F9012822D11020FEF751FB0220F8
:102A4000FEF75AFB002000F0A7F8002000F0D4F8B1
:102A5000A01100F0C7F84FF4E011204600F0DCF8B8
:102A6000012000F0D3F8392000F076F80028FAD0E1
:102A7000022000F0DBF800F087F80828FBD1BDE861
:102A80001040FEF721BC00000B48016841F0010135
:102A900001604168094A114041600168084A1140DB
:102AA0000160016821F480210160416821F4FE0188
:102AB0004160002181607047001002400000FFF873
:102AC000FFFFF6FE30B5204A5168204B11F00C0193
:102AD00003D0042901D0082901D0036011E0516816
:102AE000022301F4701103EB9141536813F4803F0A
:102AF00002D053689B0301D5154B00E0134B59439B
:102B0000016051680F2303EA1111124B5C5C0168EC
:102B1000E14041605468072505EA14241C5D21FA50
:102B200004F48460546805EAD4241B5DD940C16074
:102B30005268032303EA9232064B1B1F9A5CB1FBD7
:102B4000F2F1016130BD00000010024000127A0075
:102B500000093D0028430008034600205909094A9E
:102B600001290AD002290AD0516A03F01F02012369
:102B700093400B4200D0012070471168F5E7116ABD
:102B8000F3E70000001002400248406800F00C002B
:102B90007047000000100240034A516821F0F00124
:102BA0000143516070470000001002400B490A6861
:102BB00022F480320A600A6822F480220A60B0F5AA
:102BC000803F07D0B0F5802F03D1086840F4A020E3
:102BD00008607047086840F48030F9E70010024050
:102BE00070470000034A516821F4E06101435160DD
:102BF0007047000000100240034A516821F4605100
:102C000041EAC00050607047001002400149086668
:102C10007047000000004242034B5A68084322F408
:102C20007C1210435860704700100240034A5168FC
:102C300021F0030101435160704700000010024081
:102C400030B50B4C40F2FF153120FFF785FF2070A7
:102C50006068401C6060207810B96068A842F3D1B9
:102C60003120FFF779FF002800D0012030BD00009F
:102C70003800002006480549016006494160C91432
:102C80000181CA104FF4E13100F006B8003801406C
:102C9000740200200008014010B50446006800F0EE
:102CA000B7FC21896068FEF7ADFA61682089486148
:102CB00010BD704770477047704770477047018973
:102CC000406801617047018940684161704700298F
:102CD000018802D041F0400101E021F04001018073
:102CE00070470246002012890A4200D00120704736
:102CF000808970478181704730B502884C8802F422
:102D000041530A88CD8822438C882C4322430C8966
:102D100022434C8922438C892243CC8922431A4383
:102D20000280828B22F400628283098A018230BD94
:102D300010B5044600F006F821896068BDE810402F
:102D4000FEF760BA2DE9F043044600683B49DFF81E
:102D5000F08087B040184FF018054FF0030617D0E9
:102D6000DFF8E090B0F5806F4BD0B0F5784F23D10D
:102D700001210803FFF73CFE01210520FFF738FE83
:102D8000F020ADF800008DF803508DF8026052E09D
:102D900001218803FFF714FE01210920FFF728FE17
:102DA0004FF47040ADF800008DF802608DF80350CC
:102DB00069464046FEF7DAFA0020ADF804004FF409
:102DC0008271ADF80800ADF806100221ADF80A10C6
:102DD000ADF8120001210720ADF81400ADF80C1079
:102DE0004802ADF80E00608CADF8100001A9206813
:102DF000FFF782FF01212068FFF769FF07B0BDE8F8
:102E0000F0830121CF033846FFF7DAFD01210D20C1
:102E1000FFF7EEFD3820ADF800008DF802608DF868
:102E2000035069464046FEF7A1FAADF800708DF8F0
:102E300002608DF8035069464846BBE700C8FFBFF3
:102E4000000C0140000801402DE9F0410F46044606
:102E5000002541F2883603E06D1CADB2B5420FD8B3
:102E600002212068FFF73DFF0028F5D03946206891
:102E7000FFF740FF002506E06D1CADB2B54202D958
:102E80000020BDE8F08101212068FFF72AFF00281B
:102E9000F2D080212068FFF724FF0128F9D02068B4
:102EA000FFF726FFC0B2ECE7704770B502784FF627
:102EB000FF749440002100F18203A4B2002A7ED066
:102EC0004568521ED2B2AD680689354200D0012154
:102ED000002A74D0C568521ED2B2AD68068A354247
:102EE00001D041F00201002A69D04569521ED2B2D8
:102EF000AD68068B354201D041F00401002A5ED056
:102F0000C569521ED2B2AD68068C354201D041F07F
:102F10000801002A53D0456A521ED2B2AD68068D10
:102F2000354201D041F01001002A76D0C56A521E08
:102F3000D2B2AD68068E354201D041F02001002AA0
:102F40006BD0456B521ED2B2AD68068F354201D0B0
:102F500041F040019AB3C56B521ED2B2AD68B0F8D1
:102F60004060354201D041F0800142B3456C521EB1
:102F7000D2B2AD68B0F84860354201D041F48071FA
:102F8000EAB1C56C521ED2B2AD68B0F8506035429D
:102F900001D041F4007192B1456D521ED2B2AD68BC
:102FA000B0F85860354201D041F480613AB1C56D46
:102FB000521ED2B2AD68B0F86060354200E02CE03D
:102FC00001D041F4006142B3456E521ED2B2AD68E9
:102FD000B0F86860354201D041F48051EAB1C56E65
:102FE000521ED2B2AD68B0F87060354201D041F4E3
:102FF000005192B1456F521ED2B2AD68B0F8786000
:10300000354201D041F480413AB1C26F9268B0F8C4
:1030100080502A4201D041F400412143C94389B282
:103020001960A0F88410084670BDFFF7F9BC0000D5
:103030000F4810B5062101700E49402241600281FF
:103040008022C16002828A15416102834A15C161F2
:1030500002848A1441620285C1624914018600F02B
:103060000DF80348FFF721FF0349887010BD0000E9
:1030700080020020001001400800002070B5057893
:103080000446002D7DD021896068FEF7A9F86D1EE9
:1030900015F0FF0575D0218AE068FEF7A1F86D1ED6
:1030A00015F0FF0578D0218B6069FEF799F86D1E49
:1030B00015F0FF0570D0218CE069FEF791F86D1EC8
:1030C00015F0FF0568D0218D606AFEF789F86D1E46
:1030D00015F0FF0560D0218EE06AFEF781F86D1EC5
:1030E00015F0FF0558D0218F606BFEF779F86D1E43
:1030F00015F0FF0550D0B4F84010E06BFEF770F803
:103100006D1E15F0FF0547D0B4F84810606CFEF74F
:1031100067F86D1E15F0FF053ED0B4F85010E06C56
:10312000FEF75EF86D1E15F0FF0535D0B4F85810A7
:10313000606DFEF755F86D1E15F0FF052CD0B4F844
:103140006010E06DFEF74CF86D1E15F0FF0523D002
:10315000B4F86810606EFEF743F86D1E15F0FF05B9
:103160001AD0B4F87010E06EFEF73AF86D1E15F044
:10317000FF0511D0B4F87810606FFEF731F86D1EBE
:1031800000E009E015F0FF0F06D0B4F88010E06F02
:10319000BDE87040FEF724B870BD00F0A1B8000093
:1031A00010B504002BD01648FFF78CFC4FF0E0213F
:1031B000086920F002000861086920F00100086138
:1031C000086920F0040008610D480E4A0068B0FB51
:1031D000F2F060434861086940F002000861086944
:1031E00040F00100086100208861086940F0020099
:1031F00008614A6904480260096989B2416010BDEA
:10320000E804002000127A004400002010B50400F9
:103210002BD01648FFF756FC4FF0E020016921F053
:1032200002010161016921F001010161016921F0DF
:10323000040101610D494FF4FA520968B1FBF2F142
:103240004161016941F001010161002282618169EE
:103250000029FCD081690029FCD1641EF7D1044902
:103260000B68436182614968016110BDE804002078
:103270004400002038B54FF000040500009428D029
:103280001448FFF71FFC4FF0E021086920F002000E
:103290000861086920F001000861086920F0040055
:1032A00008610C480C4A0068B0FBF2F068434861C2
:1032B000086940F0010008618C6188690028FCD031
:1032C00088690028FCD1054802684A618C61406821
:1032D000086138BDE804002000127A004400002094
:1032E00000F096BB704770477047704710B500F00C
:1032F0004DF9BDE810400121014800F02EB8000052
:10330000002C014010B500F041F90121BDE810404A
:10331000880700F022B8000010B500F037F9BDE8CA
:1033200010400121014800F018B8000000040040DE
:1033300000F02CB97047704770477047704770476E
:1033400000F024B90029018802D041F0800102E098
:1033500040F27F32114001807047C94301827047BB
:103360000029018802D041F0010102E040F2FE3262
:10337000114001807047002930F8441F02D041F409
:10338000004101E0C1F30E010180704730B5028CAD
:1033900022F001020284028C8388048B22F0020254
:1033A00024F070050C882C430D8915434A882A4364
:1033B000CD8885860B4DA84202D00B4DA8420DD179
:1033C00022F008054A8923F403432A4322F0040526
:1033D0008A882A438D891D43CB892B4383800483AC
:1033E000028430BD002C014000340140028B22F0E9
:1033F00008020A430283704770B5028C22F0100263
:103400000284028C8388048B0D8824F4E0464FF6F6
:10341000FF7404EA052535430E8922F0200204EAF0
:10342000061616434A8804EA02123243CE880687FB
:103430000F4EB04202D00F4EB04215D122F080069E
:103440004A8923F40C4304EA0212324322F0400674
:103450008A8804EA021232438E89C98904EA860600
:103460001E4304EA8103334383800583028470BDD5
:10347000002C014000340140028B4FF6FF7322F410
:10348000006203EA012111430183704770B5028C89
:1034900022F480720284028C8388848B0D8824F04D
:1034A000700425430E894FF6FF7422F4007204EA7B
:1034B000062616434A8804EA02223243CE888687CB
:1034C0000F4EB04202D00F4EB04215D122F400662A
:1034D0004A8923F4304304EA0222324322F480660C
:1034E0008A8804EA022232438E89C98904EA0616D0
:1034F0001E4304EA0113334383808583028470BD35
:10350000002C014000340140828B22F008020A4363
:103510008283704770B5028C22F480520284058C3D
:103520008288838B0C8823F4E0464FF6FF7303EA0E
:10353000042434430E8925F4005503EA06362E434D
:103540004D8803EA05353543CE88A0F84060084E23
:10355000B04202D0074EB04205D18989C2F30D06B0
:1035600003EA8112324382808483058470BD0000A7
:10357000002C014000340140828B4FF6FF7322F48F
:10358000006203EA012111438183704700F040BAD1
:10359000028802F08F020280CA884B881A4303888F
:1035A0001A4302808A8882850A88028501228282E3
:1035B000044A904202D0044A904201D1097A01861D
:1035C00070470000002C01400034014000F020BA98
:1035D00000F01EBA00F01CBA00F01ABA00F018BAD7
:1035E0000A0A01219140C94301807047002981895D
:1035F00002D041F4005101E021F400518181704773
:10360000002A828A01D00A4300E08A4382827047FE
:103610002DE9F74F002096B01446169AA14B0F9053
:1036200010901290DFF888C2D11A9444834607465E
:103630000646054682468146CDE913C19A48DFF821
:103640006C824FF4006E9A4267D01FDC5FEA0C0177
:1036500072D01A15944530D1002C7FD08480DFF8C9
:1036600058A20121934DD146174676460846FFF7EA
:10367000BFF901219148FDF7C7FE01210820FFF79E
:10368000B7F901218804FFF79BF916E04FF4806237
:10369000914277D0B1F56C4F0FD1ECB30480C246A4
:1036A000874DD1464FF40077164601210520FFF7DC
:1036B0009FF901218803FFF79BF9ADF844701820AA
:1036C0008DF8470003208DF8460011A95046FDF7FC
:1036D0004DFEADF8446048208DF8470011A94846DA
:1036E000FDF744FE169800F0F9F8002617980B90A5
:1036F000ADF83060ADF834600C20ADF83260ADF854
:103700003600ADF838600BA9169800F035F9654A17
:1037100016991498914201E008E023E07DD037DC4F
:10372000139880B3B0F5806F50D1A4E04FF480714E
:103730000180B4E700E011E064B14480C246042790
:10374000604DD146082601213846FFF751F9012185
:10375000480498E74FF480714180EFE74FF480719F
:1037600081807CE784B1C480DFF860A1564DD146EA
:103770004FF48067764601211120FFF739F90121C6
:10378000C80480E774E012E04FF48071C180EBE779
:10379000B0F5806F6CD0B0F56C4F17D14C480F90DE
:1037A0004B481430109080141290000109E04848F2
:1037B0003C300F904648283010904FF080701290A7
:1037C0000011834601210846FFF7EEF802A9169F73
:1037D00010204FF0800881E8510106963F1D0A969F
:1037E0004FF40059CDE90075CDE90869079669469F
:1037F0000F98FDF7DBFACDE90468CDE9026406967F
:103800000A96CDE90075CDE90869079669461098D2
:10381000FDF7CCFA00210F9800E036E0FDF738FA0A
:1038200001211098FDF734FA012240211698FFF784
:10383000E7FE012280211698FFF7E2FE0022022116
:103840000F98FDF7ABFA1298FDF716FA5846FDF7F8
:1038500013FA40F2244400222146169800F074F82E
:1038600021461698FFF7BCFE01211698FFF7BEFE11
:1038700019B0BDE8F08F164828380F901448143856
:1038800010901020129000019BE712480F901148F1
:10389000012128381090104812904FEA305B022026
:1038A00092E70000004C00404C000020000801405E
:1038B00000BCFFBFFC060020000C014000023000ED
:1038C000FC040020FC050020FC0700200010014043
:1038D000440002405804024000000110184A10B58C
:1038E000811A131590421BD007DC1649401814D0DA
:1038F000984223D10121040217E0994213D0B1F577
:103900006C4F1BD101218C032046FFF77DF8204628
:10391000BDE810400021FFF777B801214C0404E016
:103920000121CC0401E001210C052046FFF754F8E9
:103930002046BDE810400021FFF74EB810BD000042
:10394000004C004000BCFFBF10B5C1F3421301F0B2
:103950001F040121A140012B07D0022B07D01430F6
:10396000002A026805D00A4304E00C30F8E7103062
:10397000F6E78A43026010BD30B50446008A85B080
:103980000D464CF6FF710840E98801432182A08969
:103990004EF6F3110840A9882A8911436A89024327
:1039A0001143A181A08A4FF6FF410840A989014334
:1039B000A1826846FFF786F81148844201D1039836
:1039C00000E00298642200EBC00101EB00102968BE
:1039D0006FF018058900B0FBF1F0B0FBF2F10901BE
:1039E0000B096B4300EB8300322303EB0010B0FBA9
:1039F000F2F000F00F000843208105B030BD000058
:103A000000380140704770477047FEE7FEF72ABB59
:103A1000FEF746BB704700007CB5491E1C461546A4
:103A2000CDE90001044B6A462146284600F0C8F85B
:103A3000009A002111707CBDEF42000802E008C826
:103A4000121F08C1002AFAD170477047002001E018
:103A500001C1121F002AFBD1704700002DE9FF5F52
:103A6000DDE90220010DDDF838B0024318D044F63C
:103A70001050A1F2FF3141430D140F98012820D0BE
:103A8000A5EB0B00401C5FEA000A4FF00004474E14
:103A9000DFF81C91A046504616D5CAF1000728E071
:103AA0000F98012443A2012808D0002100980F9B01
:103AB000C0E90021C0E90243BDE8FF9F6FEA0B01A6
:103AC000F4E7CBF10000DEE7074612E0F80707D085
:103AD0002246334640464946FCF7E6FB8046894687
:103AE0002246334610461946FCF7DEFB04460E46D6
:103AF0007F10002FEAD1DDE90201BAF1000F424642
:103B00004B4602DAFCF7D0FB01E0FCF73FFC044631
:103B10000E460022284BFCF7E5FC03D84FF0FF309F
:103B2000014607E00022254B20463146FCF715FBF5
:103B3000FCF7C5FD102409E0002C0ADB0A22002353
:103B4000FCF7FEFC019B30321A55641E50EA01025C
:103B5000F2D1641C019AC4F1110314440F9A012A92
:103B600003D0012208430DD10AE0084304D000200D
:103B70004FF0110B0F9080E7A3EB0B056D1E0DE0CE
:103B80005B4504DD4FF0000205F1010504E003DAB6
:103B90004FF00002A5F10105002AECD000980F9922
:103BA000C0E90231C0E9004586E70000000024407A
:103BB0000000F03F300000000000F0430000E03F54
:103BC0002DE9FF4F95B09B468946064600250FE23A
:103BD000252877D100242746F84A0121059400E0E2
:103BE000044316F8013F203B01FA03F01042F7D1DD
:103BF00030782A2811D06FF02F033078A0F13002EE
:103C0000092A16D8059A44F0020402EB820203EB5B
:103C100042021044761C0590EFE759F8042B0592F8
:103C2000002A03DA504244F40054059044F00204A0
:103C3000761C30782E2816D116F8010F44F00404B3
:103C40002A280DD06FF02F023078A0F13003092B15
:103C500009D807EB870302EB4303C718761CF3E789
:103C600059F8047B761C30786C280FD006DC4C2881
:103C700017D068280DD06A2814D104E0742810D019
:103C80007A280FD10DE044F400140AE044F48014C3
:103C900001E044F440147278824202D104F58014A9
:103CA000761C761C307866280BD013DC582877D029
:103CB00009DC002875D04528F6D04628F4D04728DE
:103CC0001AD19DE118E0632835D0642879D06528A1
:103CD00012D195E1702873D008DC6728F1D06928EB
:103CE0006FD06E280DD06F2806D1B5E073282CD088
:103CF000752875D0782874D05A46179990476D1C4E
:103D000075E1C4F30250022809D003280DD0D9F878
:103D1000001004280DD00D6009F1040967E1D9F8FD
:103D20000010EA17C1E90052F6E7D9F800100D803B
:103D3000F2E70D70F0E719F8041B8DF80010002071
:103D40008DF80100EA46012003E059F804AB4FF07A
:103D5000FF3061074FF0000102D40DE008F10101CE
:103D60008846B9420FDA8045F8DB1AF808100029B6
:103D7000F4D108E008F1010188468142FADB1AF823
:103D800008100029F6D105985B46A0EB08072146EC
:103D90003846179A00F094FA284400EB080507E02B
:103DA0004DE029E10DE01AF8010B5A4617999047AA
:103DB000B8F10108F7D25B4621463846179A13E15D
:103DC00042E00A220092C4F302524FF0000A022A93
:103DD00008D059F804CB032A4FEAEC710AD00DE061
:103DE00029E02AE009F1070121F00702F2E802C107
:103DF000914609E00FFA8CFC4FEAEC71042A03D1DA
:103E00004FFA8CFC4FEAEC71002907DA0A460021D0
:103E1000DCF1000C61EB02012D2202E0220504D549
:103E20002B228DF80420012203E0E20701D020229A
:103E3000F7E7904659E00A2102E010220DE0102138
:103E40004FF0000A00910BE010224FF0000A44F0FE
:103E500004040827009203E008224FF0000A0092B1
:103E6000C4F30252022A05D059F804CB0021032AD8
:103E700008D009E009F1070121F00702F2E802C1C8
:103E8000914605E01FFA8CFC042A01D10CF0FF0CCE
:103E90004FF00008220728D5702806D0009B83F039
:103EA000100353EA0A0305D00EE040228DF80420E7
:103EB000012208E05CEA010206D030228DF80420DD
:103EC0008DF8050002229046009B83F0080353EA18
:103ED0000A030AD15CEA010201D1620705D530224A
:103EE0008DF804204FF001087F1E582804D034A01C
:103EF00003900EA802900DE036A0F9E75346604605
:103F0000009AFCF71DFB84460398825C0298401ED1
:103F1000029002705CEA0100F0D1029806A9081A2A
:103F200000F1200A600702D524F4803400E0012764
:103F3000574502DDA7EB0A0000E0002000EB0A0174
:103F4000009005984144401A0590E00306D45B4672
:103F50002146179A059800F0B3F90544002706E0BA
:103F600001A85A46C05D179990476D1C7F1C4745B4
:103F7000F6DBE0030CD55B462146179A059800F066
:103F80009FF9054404E030205A46179990476D1C6C
:103F90000099481E00900029F5DC08E0029802997B
:103FA0005A460078491C0291179990476D1CBAF146
:103FB0000001AAF1010AF1DC65E100000928010015
:103FC000303132333435363738396162636465668F
:103FD0000000000030313233343536373839414251
:103FE000434445460000000000F058F90544761CA3
:103FF000307800287FF4ECAD19B02846BDE8F08F8A
:10400000620700D4062709F1070222F0070CFCE83A
:104010000223E14603F000485FEA080C02D00FF2E9
:10402000702C0DE05FEA045C02D50FF2682C07E00B
:104030005FEAC47C02D00FF2602C01E0AFF2700C9A
:104040004FF0FF3823F00043CDF850C065280CD066
:1040500006DC452809D046281DD047283DD13DE043
:10406000662818D067287ED138E00021112F01DBA7
:10407000112000E0781CCDE9000106A90EA8FFF789
:10408000EDFCDDE90F010E9A03910021009207F18A
:10409000010A04914DE04FF000400097CDE9011076
:1040A00006A90EA8FFF7DAFCDDE90F0203920E9BCA
:1040B00011990022DDF80CA00093049211B9791C2B
:1040C00000EB010AB7EB0A0004D4C0F1FF3007F19E
:1040D000010A0490AAEB0700019044E0012F00DAE6
:1040E00001270021112F01DD112000E03846CDE924
:1040F000000106A90EA8FFF7B1FCDDE90F010E9A39
:104100000391002104910092BA4621070CD403992F
:10411000514500DA8A46BAF1010F05DD009AAAF18D
:104120000101515C302908D0B84202DA10F1040FC5
:1041300006DA0121CDE9011015E0AAF10101E9E754
:10414000002805DC049901440491AAEB000102E077
:10415000411C514500DD8A460499401A401C0190DB
:104160004FF000400290200704D40198504501DB35
:10417000CDF8048000208DF84F0002980DF14F0714
:10418000B0F1004F25D02B200E9002984FF002087E
:1041900000280CDA404202902D200E9007E00A2100
:1041A0000298FCF7B7F93031029007F8011DB8F119
:1041B0000001A8F10108F2DC02980028EFD1791E75
:1041C0000E980870307800F0200040F0450007F8A5
:1041D000020D12A8C01B00F107081498007800B166
:1041E000012000EB0A01019801EBE07105984144C0
:1041F000401A401E0590E00306D45B462146179AFC
:10420000059800F05DF805441498007818B15A46F6
:10421000179990476D1CE00324D55B462146179AF9
:10422000059800F04DF805441CE00498002807DBD1
:10423000DDE90301884203DD0098405C179901E045
:10424000179930205A469047049805F10105401C03
:1042500004900198401E019004D12E205A461799CF
:1042600090476D1CBAF10001AAF1010ADDDC05E0FE
:1042700017F8010B5A46179990476D1CB8F10001C9
:10428000A8F10108F4DC5B462146179A0598ABE6D5
:104290002D0000002B000000200000002DE9F0415F
:1042A000044600251E461746880404D405E0394616
:1042B0002020B0476D1C641EF9D52846BDE8F0816A
:1042C0002DE9F041044600251E469046C80301D55D
:1042D000302700E02027880404D505E04146384611
:1042E000B0476D1C641EF9D52846BDE8F0814A68C8
:1042F000002A06D00A68531C0B6010704868401EE4
:1043000048607047FFF782FB05494FF08073002239
:104310000868401C08609842FAD30A60F8E7000079
:10432000000000200204060800000000010203044F
:104330000102030406070809584300080000002092
:10434000740000003C3A0008CC43000874000020D0
:104350000C1500004C3A00080000000000000000AE
:10436000000000000000000000000000000000004D
:1043700000000000FFFFFFFF000000000000000041
:10438000000000000000000000000000000000002D
:10439000000000000000000000000000000000001D
:1043A000000000000000000000000000000000000D
:1043B00000000000000000000000000000000000FD
:0C43C000000000000000000000000000F1
:0400000508000131BD
:00000001FF
