:020000040800F2
:10000000380E0020450100081F1900084918000893
:100010001D1900083D070008C33600080000000055
:100020000000000000000000000000000D2A000891
:100030009108000800000000D11E0008372D0008BC
:10004000CD360008DF1A0008AD2D0008872900080A
:10005000890A000849270008930800089B0800083F
:100060009F080008A3080008A70800084307000825
:10007000470700084B0700084F0700085307000810
:10008000570700085B07000839070008BF3600085B
:10009000C13600083F07000841070008AB08000808
:1000A000AF2D0008B52D0008B32D0008B12D0008B4
:1000B000CD2D0008E12D0008F92D00084D1800088D
:1000C0004B180008511800084F1800088B29000829
:1000D0008D2900089D300008A1300008A5300008D7
:1000E0009708000885290008BD360008032E00087F
:1000F000092E0008072E0008052E00083B070008FF
:10010000BD0A000889290008FD2D00089129000872
:100110009530000899300008FF2D0008012E0008D6
:100120005F07000863070008670700086B070008FF
:10013000DFF80CD000F0EEFA00480047BD3F0008A1
:10014000380E0020004800473101000840EA010352
:100150009B0703D009E008C9121F08C0042AFAD27D
:1001600003E011F8013B00F8013B521EF9D2704741
:10017000421C10F8011B0029FBD1801A70472DE9A1
:10018000FE4F804681EA0300C00F0C46009021F02C
:10019000004123F00045B8EB0200A94105D24046DA
:1001A000214690461C460B46024623F00040104371
:1001B00047D0270DC7F30A00C3F30A510290401A33
:1001C000019040286BDAC3F3130040F4801B0098C1
:1001D000924620B10023D2EB030A63EB0B0B01988C
:1001E0005946C0F14002504600F0EDF906460D4672
:1001F00050465946019A00F005FA10EB080061419B
:10020000002487EA115284EAE7731A4340D0009A27
:1002100062B3019A012A4FEA075215DC001B61EB19
:1002200002014FF0004202EA0752CDE90042001CF1
:1002300041F5801132462B4600F005FA03B0BDE8C7
:10024000F08F40462146F9E7001B61EB0201001CDC
:1002500041F5801300185B412018A2F5001747EB09
:10026000030140EAD570B6196D4111E06D084FEAFF
:10027000360645EAC0754FEA0752001B61EB0201E2
:10028000001C41F5801149084FEA30000019514126
:1002900032462B4603B0BDE8F04F00F0C5B90098D8
:1002A000012240000023D0EB020263EBE0730098D0
:1002B00021464FEAE074B8EB000061EB0401E9E786
:1002C00083F000435BE781F0004158E72DE9FE4FE2
:1002D00081EA030404F0004421F0004100944FF04F
:1002E000000B23F0004350EA01045ED052EA0304FD
:1002F0005BD0C3F30A54C1F30A552C44A4F2F3347F
:100300000194A0FB0254C1F3130141F48011C3F323
:10031000130343F4801301FB024400FB034E840AE1
:10032000970A44EA815447EA8357A4FB0768029579
:100330008D0A05FB07854FEA932C04FB0C54270517
:10034000029D4FEA065847EA1637B5EB08056EEBF3
:10035000070C870E920E47EA811742EA8312A7FB29
:100360000201B6EB0B0164EB00042B0D43EA0C33E6
:100370005E1844EB1C50DA465146E7FB0201C5F318
:1003800013044FEA0B3343EA14534FEA0432019C3F
:1003900043EA0603A4F10C040294009CCDE900B4E6
:1003A00000F051F903B0BDE8F08F00200146F9E7F5
:1003B0002DE9F04D81EA030404F0004B21F00045E3
:1003C00014464FF0000A23F0004150EA050220D005
:1003D00054EA01021DD0C5F30A570246C5F31303C0
:1003E000C1F31300C1F30A5640F4801543F480139F
:1003F000A7EB0608101BD64608F2FD3873EB050084
:1004000002D308F1010801E092185B41B8F1000F36
:1004100003DA00200146BDE8F08D00204FF4801182
:10042000064684460EE0171B73EB050705D3121B27
:1004300063EB050306434CEA010C49084FEA300020
:1004400092185B4150EA0107EDD152EA030012D045
:1004500082EA040083EA0501084305D0101BAB4182
:1004600006D20122002306E000224FF0004302E002
:100470006FF0010253101AEB06004CEB085110EB21
:100480000A0041EB0B01BDE8F04D00F0CDB870B5AE
:1004900021F0004303430CD0C1F30A550024D5EBEF
:1004A000040564EB0403D617AD1AB34102DB002048
:1004B000014670BD201841EB025170BD0EB540F2EF
:1004C000334102910021CDE900110A460B4600F0AC
:1004D000BAF803B000BDC1F30A5210B5C1F313015D
:1004E00040F2FF3341F480119A4201DA002010BD3E
:1004F00040F233439A42A2F2334203DC524200F00C
:1005000071F810BD904010BD30B5041E71F10004AB
:1005100004DB4FF00044404264EB0101141E73F110
:10052000000405DB1C464FF00043524263EB04031A
:10053000994208BF904230BD30B50B4601460020BD
:100540002022012409E021FA02F59D4205D303FA95
:1005500002F5491B04FA02F52844151EA2F1010216
:10056000F1DC30BD2DE9F05F0546002092469B4648
:1005700088460646814640241BE0284641464746B9
:10058000224600F02FF853465A46C01A914110D324
:1005900011461846224600F016F82D1A67EB01089E
:1005A0004F4622460120002100F00DF817EB00090C
:1005B0004E41201EA4F10104DFDC484631462A46A4
:1005C0004346BDE8F09F202A04DB203A00FA02F1FE
:1005D000002070479140C2F1200320FA03F3194331
:1005E00090407047202A04DB203A21FA02F00021D3
:1005F000704721FA02F3D040C2F120029140084333
:1006000019467047202A06DBCB17203A41FA02F040
:1006100043EAE07306E041FA02F3D040C2F120025F
:10062000914008431946704710B5141E73F1000439
:1006300008DA401C41F1000192185B411A4301D1D4
:1006400020F0010010BD2DE9F04D92469B4611B1FE
:10065000B1FA81F202E0B0FA80F220329046FFF760
:10066000B2FF04460F4640EA0A0041EA0B01534636
:100670005A46084313D0114653EA010019D0C8F175
:1006800040025046FFF7AEFF05460E46504659461B
:100690004246FFF798FF084305D0012004E02046BA
:1006A0003946BDE8F08D0020054346EAE0762C434C
:1006B00037430A986305E40AA0EB08000022FD0A0C
:1006C00044EA47540A3002D500200146E9E7010513
:1006D00010196941DDE9084500196941BDE8F04D8F
:1006E000A2E7C1F30A52C1F3130140F2FF3341F410
:1006F00080119A4202DA00200146704740F23343EB
:100700009A42A2F2334202DC5242FFF76BBFFFF77C
:100710005ABF0000064C074D06E0E06840F00103B8
:1007200094E8070098471034AC42F6D3FFF704FD75
:10073000F03F00081040000870477047FEE7704720
:10074000704700F065B800F063B800F061B800F0E1
:100750005FB800F05DB800F05BB800F059B800F089
:1007600057B800F055B800F053B800F051B8000089
:10077000C10002D5024908607047024948607047CD
:1007800004040240000002400029016802D041F048
:10079000010101E021F0010101607047406880B271
:1007A0007047000002460020D10001D5034900E057
:1007B00003490968114200D001207047000402403B
:1007C00000000240002A026801D00A4300E08A4388
:1007D0000260704730B5026847F6F0739A430C6ABE
:1007E0008B682343D1E904452C4323438C6923437D
:1007F000CC6923434C6A23438C6A2343134303602D
:10080000CA6842600A6882604968C16030BD000001
:1008100010B502F059FF1020FFF7C4FF01281BD0CC
:100820004FF480542046FFF7BDFF01281AD024035F
:100830002046FFF7B7FF01281BD0124C2046FFF7D8
:10084000B1FF01281CD12046FFF792FF0E4800217E
:10085000BDE81040FFF798BF1020FFF789FF002187
:100860000A48F5E72046FFF783FF084800212830B3
:10087000EEE72046FFF77CFF044800216430E7E7FD
:1008800010BD000000000110580402401C0002408E
:10089000704700F0B1B800F0AFB800F0ADB800F0AC
:1008A000ABB800F0A9B800F0A7B800F0A5B80000F8
:1008B00001490860704700001404014010B5012090
:1008C00000F08AF8434C18B1208840F0010006E09F
:1008D000022000F081F820B1208840F00200208042
:1008E00010BD042000F078F818B1208840F0040012
:1008F000F5E7082000F070F818B1208840F00800F3
:10090000EDE7102000F068F818B1208840F01000E2
:10091000E5E7202000F060F818B1208840F02000C2
:10092000DDE7402000F058F818B1208840F0400082
:10093000D5E7802000F050F818B1208840F0800002
:10094000CDE74FF4807000F047F818B1208840F4EC
:100950008070C4E74FF4007000F03EF818B12088B2
:1009600040F40070BBE74FF4806000F035F818B138
:10097000208840F48060B2E74FF4006000F02CF86B
:1009800018B1208840F40060A9E74FF4805000F0CF
:1009900023F818B1208840F48050A0E74FF40050AD
:1009A00000F01AF818B1208840F4005097E74FF48F
:1009B000804000F011F818B1208840F480408EE7A4
:1009C0004FF4004000F008F8002889D0208840F457
:1009D000004084E71C000020064A014600201268FF
:1009E000044B0A4014331B680B4202D0002A00D08B
:1009F000012070470004014008B50020ADF8000058
:100A0000FFF75CFF02F060FE1E48BDF80010018099
:100A10000120FFF74DFF0220FFF74AFF0420FFF7F8
:100A200047FF0820FFF744FF1020FFF741FF202079
:100A3000FFF73EFF4020FFF73BFF8020FFF738FF26
:100A40004FF48070FFF734FF4FF40070FFF730FF72
:100A50004FF48060FFF72CFF4FF40060FFF728FF92
:100A60004FF48050FFF724FF4FF40050FFF720FFB2
:100A70004FF48040FFF71CFFBDE808404FF40040F2
:100A8000FFF716BF1C0000207047000004490A68E9
:100A900022F010020A600A6802430A6070470000F0
:100AA0000020024004490A6802F038020A600A681D
:100AB00002430A607047000000200240704710B5F2
:100AC0000121084601F054FD0021BDE8104001203D
:100AD00001F04EBD70B52A4A0C46811A1315D61482
:100AE000904243D014DC2749274D41184FF6FF723E
:100AF0001BD0994227D0B14241D10121102001F0F1
:100B00002BFD600401D4200439D50121112008E017
:100B100099422ED0B1422FD0B1F5406F2FD1012193
:100B20000802BDE8704001F017BDA00405D46004C0
:100B300003D4200401D4944202D1012105200AE00B
:100B400001210420EDE7200703D4E00601D49442FC
:100B500009D10121092001F0FFFC2846BDE87040C1
:100B6000012100F027B901210820DAE70121202026
:100B7000D7E701214020D4E701218020D1E770BDD3
:100B80000014014000F8FEBF0002300038B50446F2
:100B9000ADF8001002228DF8022048208DF80300E5
:100BA0002046FFF797FF6946204600F0B5F838BDAC
:100BB00038B50446ADF8001003228DF8022010204D
:100BC0008DF803002046FFF785FF6946204600F0B8
:100BD000A3F838BD254A10B5811A1315D4149042D4
:100BE0002ED00DDC224940181CD0984221D0A042C2
:100BF0003BD10121102001F0BBFC002110200DE0B1
:100C0000994224D0A14229D0B1F5406F2DD10121C4
:100C10000C02204601F0ACFC00212046BDE810404B
:100C200001F0A6BC0121042001F0A2FC0021042057
:100C3000F4E70121082001F09BFC00210820EDE7EA
:100C40000121202001F094FC00212020E6E7012171
:100C5000402001F08DFC00214020DFE701218020B1
:100C600001F086FC00218020D8E710BD001401406F
:100C700000F8FEBF2DE9F84F684600F0C3F81F4C9E
:100C80006946204600F048F81D4D6946284600F0A8
:100C900043F81C4E6946304600F03EF81A4F69464C
:100CA000384600F039F8DFF864806946404600F0C5
:100CB00033F8DFF85C906946484600F02DF8DFF81D
:100CC00054A06946504600F027F82046FFF782FFFF
:100CD0002846FFF77FFF3046FFF77CFF3846FFF7D7
:100CE00079FF4046FFF776FF4846FFF773FF50460F
:100CF000FFF770FFFFF7E3FEBDE8F88F0008014043
:100D0000000C014000100140001401400018014097
:100D1000001C014000200140F0B5CC78002204F016
:100D20000F03E40601D58C7823430C784FF00F0CA9
:100D300014F0FF0F4FF0010E1AD005680E880EFA5E
:100D400002F42640A6420FD196000CFA06F725EAD7
:100D5000070703FA06F5CE783D43282E00D14461FB
:100D6000CE78482E00D10461521C082AE6D30560D3
:100D70000A88FF2A1CD94468002202F108060EFAEC
:100D800006F50E882E40AE420ED196000CFA06F7FC
:100D9000BC4303FA06F7CE783C43282E00D14561C8
:100DA000CE78482E00D10561521C082AE5D3446054
:100DB000F0BD0000F0B5104D6B68440D260184B203
:100DC000C0F30157B440C0F30342032F05D0C00263
:100DD0000AD503209040834307E0686823F07062DF
:100DE00020F07060686002E0A34343F0706201B1DC
:100DF00022436A60F0BD000000000140416170477D
:100E0000016170474FF6FF7101800221817004215A
:100E1000C170704701894068FFF7F2BF01894068DF
:100E2000FFF7ECBF10B50A490A4C0848C1E90004B5
:100E30001020088120204884084600F00DF8204644
:100E4000BDE810401021FFF7B3BE000000300140A4
:100E5000C4020020000801402DE9F04F044600685C
:100E6000DF4918260325DFF87CA3DFF87CB3DFF821
:100E70007C9387B04FF480484FF40047884268D194
:100E80000121801401F068FB0121052001F064FBC1
:100E9000D74A6068904202D1218910290DD0D449E7
:100EA000884214D12089B0F5005F03D0404501D0BD
:100EB000B84244D10121052015E0F020ADF8000032
:100EC0008DF803608DF802506946104604E14845EC
:100ED00010D12089082804D0102802D00121082030
:100EE0002BE00121092001F037FB0121C148FFF768
:100EF00061FF24E050450AD12089404501D0B84225
:100F000002D10121112018E00121102015E0BA4979
:100F1000884202D1012120200FE0B849884202D145
:100F20000121402009E0584502D10121802004E040
:100F3000B349884203D10121801501F00DFBE02067
:100F4000ADF800008DF803608DF802506946A8489E
:100F500077E0AC4988427DD10121001401F0E4FA28
:100F60000121092001F0F8FA6068C846404503D124
:100F70002189B1F5805F0FD0DFF8749248451DD10B
:100F80002089B0F5005F04D0B0F5804F01D0B842A1
:100F900011D1012105201DE00121206801F02AFD69
:100FA0004FF47040ADF800008DF802508DF80360EA
:100FB0006946404690E00121042036E0404510D1CA
:100FC0002089082804D0102802D0012108202CE014
:100FD0000121092001F0C0FA01218648FFF7EAFE4D
:100FE00025E050450BD12089B0F5804F01D0B842A3
:100FF00002D10121112018E00121102015E07E49C5
:10100000884202D1012120200FE07C49884202D190
:101010000121402009E0584502D10121802004E04F
:101020007749884203D10121801501F095FA4FF4E8
:101030006040ADF800008DF803608DF802506946FD
:101040004846FFF769FE2089ADF8000010208DF8B2
:10105000030000E004E08DF80250694660683BE060
:10106000694988423AD10121C01301F05DFA01219A
:101070000D2001F071FA5E4F6068B84203D12189FA
:10108000B1F5004F10D0614A0021B84291705FD194
:101090002089B0F5005F58D0404556D0B0F5004FDC
:1010A00053D0012104208AE058490120887038205B
:1010B000ADF800008DF802508DF80360694648468F
:1010C000FFF72AFE4FF40040ADF800008DF8025003
:1010D0008DF8036069463846FFF71EFE0020ADF824
:1010E00004004FF48271ADF80610ADF8080002213B
:1010F000ADF80A100121ADF80C1044490A78012A14
:101100006AD04A78012A67D08978012964D04FF4DF
:101110000071ADF80E102021ADF81010ADF81200DE
:101120000720ADF8140001A9206801F047FC012157
:10113000206801F02EFC20680188890502D4012175
:1011400001F058FC07B0BDE8F08F012105200BE04D
:10115000484510D12089082804D0102802D0012148
:1011600008202CE00121092001F0F6F90121214895
:10117000FFF720FE25E050450BD12089404505D0E2
:10118000B0F5004F02D00121102018E001211120FC
:1011900015E01949884202D1012120200FE01749AA
:1011A000884202D10121402009E0584502D10121A5
:1011B000802004E01249884203D10121801501F00A
:1011C000CBF94FF46040ADF800008DF803608DF866
:1011D00002506946384634E7ADF80E009BE7000040
:1011E0000030014000100140001C0140000C014093
:1011F00000080140000230000014014000180140C6
:101200000020014000380040003C00403200002037
:10121000F0B40C4601461E460020049B17460546C6
:10122000802C1FD90C290BD010290FD0182913D0CE
:1012300020293FD1324639462046F0BC00F0F8B9AB
:10124000324639462046F0BC00F0AAB8324639464C
:101250002046F0BC00F002B9324639462046F0BCC8
:1012600000F070B9A4F121025D2A23D83B4EE300BF
:101270008A1BA3F58073B1421BD01DDC04EB8402F2
:1012800002EBC402232944D00BDC0C2949D01029DD
:1012900058D018295AD020290CD104EB8410304999
:1012A00059E079294AD0B1F5801F02D02D4AD142A8
:1012B00000D11846F0BC7047A4F12001B2F57E5F62
:1012C0002BD013DC01EB4103B2F5407F1CD0210190
:1012D000A1F50071B2F5F06F19D0B2F5786F16D0A4
:1012E000B2F5AC5FE6D105EB0310E3E702F5F65289
:1012F000B2F5004217D0B2F54C6F17D0B2F5225FAD
:10130000D8D101EB811015E005EB8300D2E7084648
:10131000D0E7154800EB8410CCE7A001A0F50060F1
:10132000C8E712480BE001EB011003E001EB81007C
:1013300000EB411005EB4000801CBBE70C4800EBC4
:101340004200B7E704EB04100A4904E004EB840010
:10135000094900EB441001EB4000ABE70006100028
:1013600002E3100000FDEFFF80251000425A10003C
:1013700042BD100012C6100002CE1000024600202E
:101380000C2A07D0102A07D0182A07D0202A00D10B
:1013900080207047182070472020704748207047F1
:1013A00010B500222C4C7F290DD0A0F1A103082BF1
:1013B0000BD8A12909D3C3EB031202EB431201EBB3
:1013C0004202A13A11E0204610BDA0F1A803012B72
:1013D0000BD8A12909D27F2901D9491EC9B203EB33
:1013E000430201EB421202F24E22A0F1B003472B5E
:1013F0000AD8A12908D3C3EB031000EB431001EB7B
:10140000400202F26D3222E0A0F18103202B0ED2C5
:1014100040290CD37F2901D9491EC9B2C3EB43101F
:1014200000EB831001EB400041F67E510EE0AA284C
:101430000DD3A1290BD27F2901D9491EC9B2AA38DF
:1014400000EB400001EB401043F23E51421802EB2A
:10145000420004EBC00010BD0E3D110070B5002429
:10146000374E7F290DD0A0F1A105082D0BD8A12959
:1014700009D3C5EB051404EB451401EB4404A13C6E
:1014800011E0304670BDA0F1A805012D0BD8A129AF
:1014900009D27F2901D9491EC9B205EB450401EBE8
:1014A000441404F20E34A0F1B005472D0AD8A12946
:1014B00008D3C5EB051000EB451001EB400404F226
:1014C0006D343AE0A0F18105202D0ED240290CD3D5
:1014D0007F2901D9491EC9B2C5EB451000EB851023
:1014E00001EB400041F63E611CE0AA280DD3A12982
:1014F0000BD27F2901D9491EC9B2AA3800EB40009E
:1015000001EB401043F23E510CE002EB82028128D5
:1015100002D0822808D010E039290ED303EB420014
:1015200044F69941441808E040F2EC40414301EB95
:101530004200C418A4F51A44BB3C06EB441070BD2D
:10154000DE4F190070B50024384E7F290DD0A0F170
:10155000A105082D0BD8A12909D3C5EB051404EB6F
:10156000451401EB4404A13C11E0304670BDA0F1EC
:10157000A805012D0BD8A12909D27F2901D9491E1F
:10158000C9B205EB450401EB441404F20E34A0F19A
:10159000B005472D0AD8A12908D3C5EB051000EBEB
:1015A000451001EB400404F26D343AE0A0F18105EE
:1015B000202D0ED240290CD37F2901D9491EC9B252
:1015C000C5EB451000EB851001EB400041F63E6194
:1015D0001CE0AA280DD3A1290BD27F2901D9491ECD
:1015E000C9B2AA3800EB400001EB401043F2FE51B3
:1015F0000CE002EB8202812802D0822808D010E0A1
:1016000039290ED303EB420044F69941441808E00F
:1016100040F2EC40414301EB4200C418A4F51A44E7
:10162000BB3C04EBC40006EBC00070BDDE432700EA
:1016300070B50024374E7F290DD0A0F1A105082DEB
:101640000BD8A12909D3C5EB051404EB451401EB14
:101650004404A13C11E0304670BDA0F1A805012D65
:101660000BD8A12909D27F2901D9491EC9B205EB9E
:10167000450401EB441404F24E24A0F1B005472DBB
:101680000AD8A12908D3C5EB051000EB451001EBE2
:10169000400404F2AD243AE0A0F18105202D0ED2E1
:1016A00040290CD37F2901D9491EC9B2C5EB451089
:1016B00000EB851001EB400041F63E611CE0AA28DA
:1016C0000DD3A1290BD27F2901D9491EC9B2AA384D
:1016D00000EB400001EB401043F2FE510CE002EB46
:1016E0008202812802D0822808D010E039290ED346
:1016F00003EB420044F69941441808E040F2EC4004
:10170000414301EB4200C418A4F51A44BB3C06EB6C
:10171000C41070BD10AE47002DE9F84F8246144644
:10172000802000261D468946B0EB142F0FD8B04606
:101730000096260AE2B2002331464846FFF768FDCC
:101740000746E2B200233146CDF800800BE00023CB
:10175000E1B21A4648460096FFF75AFD00230746B5
:10176000E1B21A4600964846FFF708FE0646504684
:10177000FFF754FB032047F0407440EA176000F085
:1017800025F8C4F3074000F021F8C4F3072000F067
:101790001DF8E0B200F01AF84FF03060A04302D11B
:1017A000FF2000F013F84FF6FF71491EFDD2002410
:1017B00004E0FF2000F00AF82855641CB442F8D376
:1017C0005046FFF727FBB0B2BDE8F88F70B51D4E4D
:1017D00005464FF6FF748021304601F0E4F80128F9
:1017E000F9D00221304601F0DEF80028F9D0641C5F
:1017F000A0B2B0F5FA6F12D829463546304601F04E
:10180000DBF88021284601F0CEF80128F9D0002429
:101810004FF4FA5605E0641CA4B2B44201D900208A
:1018200070BD0121284601F0BEF80028F3D08021C8
:10183000284601F0B8F80128F9D0284601F0BAF896
:10184000C0B270BD00300140FEE77047704770477E
:101850007047000070B500EB80010325C90047F612
:10186000F872B2EB910F03D900EB800080031AE00D
:101870004FF6F072B2EB910F04D9042500EB800013
:10188000400310E0114AB2EB910F04D9052500EB9B
:101890008000000307E00E4AB2EB910F05D9062540
:1018A00000EB8000C002040C00D1012445F2555029
:1018B00000F02EF8284600F01FF8204600F022F82D
:1018C00000F012F8BDE8704000F004B8E0FF01003D
:1018D000C0FF030002494CF6CC400860704700008E
:1018E00000300040AFF3008002494AF6AA200860A9
:1018F0007047000000300040014948607047000018
:10190000003000400149886070470000003000400E
:10191000014908607047000000300040FEE7704752
:101920000FB42DE9F84F044616460D4600270D98D2
:10193000FEF71EFC0EAB802145480D9A01F0C8FE53
:10194000DFF80C8183461FFA80F94FF4C07AA8F1C2
:10195000CC0876E03E48C25D802A40D93844102E3B
:10196000407840EA022206D0202E0ED0102E07D05A
:10197000202E10D011E0544502D900241035ADB20C
:10198000E02D0AD90024254607E0B4F5B87F02D936
:1019900000242035ADB2D02DF4D82D484346314631
:1019A000FC38FFF7B9FEC3B2324629462046CDF8CF
:1019B000008000F005FD0C2E06D0102E06D0182E4B
:1019C00006D0202E06D007E00C3404E0103402E0EC
:1019D000183400E02034A4B27F1CBFB22FE054457D
:1019E00002D900242035ADB2102E02D0202E05D011
:1019F00006E0E02D04D90024254601E0D02DFAD8D8
:101A0000134843463146FC38FFF786FEC3B23246E0
:101A100029462046CDF8008000F0D2FC0C2E06D0DE
:101A2000102E06D0182E06D0202E06D007E0A41DBA
:101A300004E0083402E00C3400E01034A4B27F1C4F
:101A4000BFB24F4586D35846BDE8F80F5DF814FB8A
:101A5000C003002038B501F09AF8FFF70BF901F048
:101A600099F8FFF7DFF900F0B9FE00F05DFA4FF4E6
:101A70007A7001F063F94FF4FA60FFF7EBFEC820CB
:101A8000009000220B4B0321C00600F029F80A4CFD
:101A900000210AA32078009020220846FFF740FF8B
:101AA00020780021009005A320220846FFF738FF88
:101AB00038BD000000407F4004000020B5D8D6B7F4
:101AC000A3BA25302E32640010B5FFF70BFF00F0EB
:101AD0000FFF00F029FCBDE8104001F081B870470D
:101AE0002DE9FF5F90B093460025E94A109889469A
:101AF000FF24811ADFF89CA3D3142E46A8462F4654
:101B00004FF4806C90427CD00CDCB0F1804F32D02E
:101B1000E14940184AD0604564D098425BD1012128
:101B200008207FE0B1F5806F7FD0B1F58E3F03D004
:101B3000B1F5923F4FD17BE00121C80200F00CFDCE
:101B40005FEA090007D0012809D002280BD0B9F1BB
:101B5000030F71D10BE055464FF480743AE05546BF
:101B60004FF4007436E055464FF4806432E0554639
:101B70004FF400642EE00121084600F0D5FC5FEA36
:101B8000090007D0012808D0022809D0B9F1030FB5
:101B900052D108E0554601241CE05546022419E0C4
:101BA0005546042416E05546082413E0012102207E
:101BB00000F0BAFC5FEA090007D0012808D002282B
:101BC0000AD0B9F1030F37D109E05546402401E0AE
:101BD0005546802404262FE0B04D01241EE0AF4D71
:101BE00002241BE00121042000F09EFC5FEA0900B2
:101BF00009D001280AD002280BD0B9F1030F1BD15C
:101C00000AE00DE011E0A54D402407E0A34D80243B
:101C100004E0A24DAC1501E0A04D6C1508260BE0C8
:101C20000121102000F080FC06E001212020F9E7CE
:101C30000121480300F090FC0121084600F08CFCD3
:101C40000121304600F088FCADF8304003208DF8CB
:101C5000320018208DF833000CA92846FFF75CF8F5
:101C600007A800F0E3FC8E4C10988E4D84434EF68E
:101C700060265A4600202946139BFEF799FB8A4BA3
:101C8000CDE90D01FCB109982C46824600221D4683
:101C90000D98FEF739FC18D20022844B5846139950
:101CA000FEF714FB04460D465046FEF707FC22469D
:101CB0002B46FEF77DFBB04600227D4BFEF778FBFE
:101CC00000227C4B1FE00A98DEE7DDE90D01234688
:101CD0000022FEF719FC4FF0000217D22B4658469F
:101CE0001399FEF7F3FA04460D465046FEF7E6FB5D
:101CF00022462B46FEF75CFBB04600226C4BFEF7FB
:101D000057FB00226C4BFEF7E1FA49E026462346DA
:101D100058461399FEF7F8FB45D85046FEF7CEFB20
:101D20005A46139BFEF744FB0122FEF7B0FB044624
:101D30000D460022614BFEF7E7FB04D84FF4FA682A
:101D400000225F4B28E000225E4B20462946FEF72A
:101D5000DBFB04D84FF0C8080022564B1CE00022E1
:101D6000594B20462946FEF7CFFB04D84FF0140804
:101D70000022514B10E00022544B20462946FEF72A
:101D8000C3FB05D84FF0020800224FF0804303E068
:101D90004FF001080022334620462946FEF708FB93
:101DA000FEF799FB87B2A8F10100ADF81000781E8C
:101DB000ADF814000024ADF81640ADF8124004A9A7
:101DC000109801F049F91E9847434FF47A70874202
:101DD00003D9B7FBF0F080B202E01E9808B10120F1
:101DE0001E906020ADF800001E98ADF8060001209E
:101DF000ADF80200ADF808405FEA090007D00128FD
:101E00000AD002280DD0B9F1030F13D10EE06946B4
:101E1000109801F01FF80DE06946109801F050F895
:101E200008E06946109801F095F803E069461098BB
:101E300001F0D4F80121109801F001F85FEA0900DF
:101E400007D001280AD002280DD0B9F1030F13D111
:101E50000EE00821109801F02DF80DE008211098EF
:101E600001F06EF808E00821109801F0B1F803E0E5
:101E70000821109801F0E4F80121109800F0C6FF45
:101E80000121109800F0D0FF14B0BDE8F09F0000D1
:101E9000001000400008014000FCFFBF000C0140A2
:101EA000000001400000F03F0000244000005940C5
:101EB000004CED400000694000003440D012634106
:101EC00000409F4080842E41006AF84040FFEF4070
:101ED0007047000070B504460021EF2340F28F12D6
:101EE000084600F03BFA0F4881688A6A888D506185
:101EF0008A69888B106101234FF4C87001220E6A31
:101F00008D8C75618D6BEC600E6A8D8C3561521C09
:101F1000D2B2F02AF3D95B1C8342EFD9888D896A4B
:101F2000086170BDB800002010B51A49184A1A4B54
:101F300090148A62888500118A618883C0010A62D0
:101F4000888420208B60888114480861042088825E
:101F500008200A60888010200B63888610486FF084
:101F60007F44886320128887084600F0A3F94FF465
:101F70007840FFF7AFFF204600F014F84FF6074017
:101F8000FFF7A8FF2046BDE8104000F00BB80000A6
:101F900000080140540500200010014000140140D9
:101FA000000C0140401EFDD27047000030B5C04813
:101FB0004FF4FA710C468068036A828C1A61836858
:101FC00082891A61836A828D5A610369828A1A61E1
:101FD000491EFDD20269818A51612146491EFDD206
:101FE000818A006901610021084600F045FA204617
:101FF000401EFDD20021084600F03EFA2046401E59
:10200000FDD20021084600F037FA2046401EFDD2DE
:102010000021084600F030FA2046401EFDD24FF461
:1020200080752946012000F027FA2046401EFDD287
:102030002946022000F020FA2046401EFDD245F23B
:102040003001032000F018FA2046401EFDD2294638
:10205000072000F011FA2046401EFDD240F608018C
:10206000082000F009FA2046401EFDD20121092077
:1020700000F002FA2046401EFDD24FF4C8414FF452
:10208000806000F0F9F92046401EFDD24FF4406117
:10209000881000F0F1F92046401EFDD245F60B21D4
:1020A00040F2013000F0E8F92046401EFDD240F633
:1020B000061140F2023000F0DFF92046401EFDD24A
:1020C00041F2170140F2033000F0D6F92046401EDD
:1020D000FDD24FF40C514FF4417000F0CDF9204681
:1020E000401EFDD24FF4B85140F2053000F0C4F963
:1020F0002046401EFDD246F2093140F2063000F083
:10210000BBF92046401EFDD240F6094140F207309F
:1021100000F0B2F92046401EFDD241F20C014FF40E
:10212000427000F0A9F92046401EFDD242F2322151
:1021300040F2093000F0A0F92046401EFDD21F21D8
:10214000102000F099F92046401EFDD24FF44C714A
:10215000284600F091F92046401EFDD240F20115BC
:1021600040F24721284600F087F92246521EFDD250
:102170004CF2B0114FF4817000F07EF92246521EED
:10218000FDD201210B2000F077F92046401EFDD240
:1021900000210C2000F070F92046401EFDD20021E5
:1021A0000F2000F069F92046401EFDD2294611207B
:1021B00000F062F92046401EFDD20021122000F0FE
:1021C0005BF92046401EFDD20121132000F054F996
:1021D0002046401EFDD25521142000F04DF9204626
:1021E000401EFDD21921202000F046F92046401E55
:1021F000FDD22946212000F03FF92046401EFDD2A5
:102200000021222000F038F92046401EFDD2012195
:10221000232000F031F92046401EFDD24FF400414A
:10222000902000F029F92046401EFDD24FF4506165
:1022300040F2031000F020F92046401EFDD2042198
:1022400040F2014000F018F92046401EFDD24FF444
:1022500030414FF4207000F00FF92046401EFDD2AF
:102260005F2140F2025000F007F92046401EFDD2E7
:10227000002140F2044000F0FFF82046401EFDD24D
:1022800000214FF4007000F0F7F82046401EFDD208
:10229000002140F2012000F0EFF82046401EFDD260
:1022A00040F2022000F014F9641EFDD230BD00009F
:1022B000B800002038B51A4CA06081880068FEF78D
:1022C00077FCA06881898068FEF772FCA068818A2B
:1022D0000069FEF76DFCA068818B8069FEF768FCE1
:1022E000A068818C006AFEF763FCA068818D806A1B
:1022F000FEF75EFCA068818E006BFEF759FCA068BB
:10230000818F806BFEF754FCC82000900022054BA3
:102310000321C006FFF7E4FBBDE83840FFF746BEE7
:10232000B800002000408F40094808B542780021DD
:1023300002B141708278002A08D08170C068009094
:1023400004A3202260210020FFF7EAFA08BD000064
:102350000400002025302E3864000000F0B505464A
:102360001F4614460E464FF4047000F085F83946B7
:1023700040F2112000F080F8A4F28F1461420C4664
:1023800040F2122000F078F8A5F28F15694240F271
:10239000132000F071F831464FF4007000F06CF833
:1023A000214640F2012000F067F845F218010320B1
:1023B00000F062F8BDE8F04040F2022000F088B87A
:1023C0002DE9F0472B4D0024DDF820A0B5F804904E
:1023D00098460C2A08D000F10F06102A0ED0182AB1
:1023E00014D0202A1CD040E0B0F5C27F3FD8E429A9
:1023F0003DD801F10C0300F10B021CE0B0F5C07FE9
:1024000035D8E02933D801F1100313E0B0F5BC7FD3
:102410002DD8D8292BD801F1180300F117020AE0B2
:10242000B0F5B87F23D8D02921D801F12003B8F125
:10243000800F03D03246FFF791FF16E000F11F0234
:10244000F9E71AF804700026380601D5A88800E0DC
:10245000688800F01DF87806761C070EF6B2082E84
:10246000F2D3641CA5F80490E4B24445E9D3BDE876
:10247000F0870000B800002010B50C4600F028F8E6
:102480000A22521EFDD22046BDE81040AFF3008064
:102490000E4989688B6A8A8D5A618B698A8B1A61A9
:1024A0000B6A8A8C5A611422521EFDD28A6BD0604C
:1024B0001420401EFDD20A6A888C1061888D896ABA
:1024C00008611420401EFDD270470000B8000020B3
:1024D0000E4989688B6A8A8D5A618B698A8B5A6129
:1024E0000B6A8A8C5A611422521EFDD28A6BD0600C
:1024F0001420401EFDD20A6A888C1061888D896A7A
:1025000008611420401EFDD270470000B800002072
:10251000044A0029516901D0014300E0814351611F
:102520007047000000100240044A0029D16901D020
:10253000014300E08143D161704700000010024078
:10254000044A0029116901D0014300E0814311616F
:102550007047000000100240044A0029916901D030
:10256000014300E081439161704700000010024088
:10257000044A0029D16801D0014300E08143D160C1
:10258000704700000010024010B500F031F84FF421
:102590008034204600F0BEF800F006F9012822D170
:1025A0001020FEF773FA0220FEF77CFA002000F0FC
:1025B000A7F8002000F0D4F8A01100F0C7F84FF4FD
:1025C000E011204600F0DCF8012000F0D3F83920BB
:1025D00000F076F80028FAD0022000F0DBF800F0D6
:1025E00087F80828FBD1BDE81040FEF743BB000088
:1025F0000B48016841F0010101604168094A11403E
:1026000041600168084A11400160016821F480219D
:102610000160416821F4FE01416000218160704742
:10262000001002400000FFF8FFFFF6FE30B5204A20
:102630005168204B11F00C0103D0042901D0082966
:1026400001D0036011E05168022301F4701103EB23
:102650009141536813F4803F02D053689B0301D526
:10266000154B00E0134B5943016051680F2303EAF7
:102670001111124B5C5C0168E14041605468072510
:1026800005EA14241C5D21FA04F48460546805EA08
:10269000D4241B5DD940C1605268032303EA9232FF
:1026A000064B1B1F9A5CB1FBF2F1016130BD0000CB
:1026B0000010024000127A0000093D00E03F0008CF
:1026C000034600205909094A01290AD002290AD0E3
:1026D000516A03F01F02012393400B4200D00120F6
:1026E00070471168F5E7116AF3E700000010024037
:1026F0000248406800F00C007047000000100240E3
:10270000034A516821F0F001014351607047000015
:10271000001002400B490A6822F480320A600A68FD
:1027200022F480220A60B0F5803F07D0B0F5802FF8
:1027300003D1086840F4A02008607047086840F49E
:102740008030F9E70010024070470000034A5168EA
:1027500021F4E06101435160704700000010024025
:10276000034A516821F4605141EAC000506070474B
:102770000010024001490866704700000000424214
:10278000034B5A68084322F47C1210435860704788
:1027900000100240034A516821F0030101435160D7
:1027A000704700000010024030B50B4C40F2FF159E
:1027B0003120FFF785FF20706068401C6060207842
:1027C00010B96068A842F3D13120FFF779FF0028E3
:1027D00000D0012030BD0000140000200748064949
:1027E000A0F57F72016006494160C9140181CB10D8
:1027F0004FF4E13100F006B800380140C004002079
:102800000008014010B50446006800F069FC218909
:102810006068FEF7CDF961682089486110BD00004D
:1028200070B5044600681E4D1E49A8420CD1486C84
:10283000C00729D01B4844300FE08021284600F013
:10284000D1FD012820D029E0174DA8420AD1D1F8A6
:102850008000C00718D013488030FDF79FFF002884
:10286000EBD01BE0114DA84205D1C869C0070BD0C1
:102870000C481C30F1E70E4DA8420FD10D490868F5
:10288000C00701D00846E8E700BF00BF00BF00BF97
:1028900000BF208961684861012070BD002070BDC3
:1028A0000038014000000240004400400048004061
:1028B000004C0040580402402DE9F0410F46044608
:1028C000164600250068402100F08CFD68B180218B
:1028D000206800F087FD40B12046FFF7A1FF324697
:1028E0003946206800F002FE05462846BDE8F08122
:1028F000154A10B502F5807101F53F70FFF7DCFF56
:102900001249002888801ED011480178FB291AD16D
:102910004178F62917D1807868B101280BD00228B8
:102920000DD003280FD120220AA34021BDE810407A
:102930000020FEF7F5BF20220AA30021F6E720229F
:102940000CA31146F2E710BDC400002004000020D3
:10295000C4010020CAD5B5BDC7FDB6AFB0E5D3A64A
:10296000B4F00000D6F7BBFAB7A2B3F6C3FCC1EED1
:1029700000000000CAD5B5BDB5A5D4AAB0E5D3A660
:10298000B4F00000704770477047704700F03CB8E3
:1029900070470029018802D041F0400101E021F098
:1029A0004001018070470246002012890A4200D08F
:1029B00001207047808970478181704730B5028857
:1029C0004C8802F441530A88CD8822438C882C43DA
:1029D00022430C8922434C8922438C892243CC898F
:1029E00022431A430280828B22F400628283098A86
:1029F000018230BD0029818802D041F0040101E04C
:102A000021F004018180704700F05EBE704770B510
:102A100002784FF6FF749440002100F18203A4B2C3
:102A2000002A7ED04568521ED2B2AD680689354272
:102A300000D00121002A74D0C568521ED2B2AD6800
:102A4000068A354201D041F00201002A69D0456969
:102A5000521ED2B2AD68068B354201D041F004015E
:102A6000002A5ED0C569521ED2B2AD68068C3542CE
:102A700001D041F00801002A53D0456A521ED2B25B
:102A8000AD68068D354201D041F01001002A76D0A4
:102A9000C56A521ED2B2AD68068E354201D041F0F1
:102AA0002001002A6BD0456B521ED2B2AD68068F52
:102AB000354201D041F040019AB3C56B521ED2B2EB
:102AC000AD68B0F84060354201D041F0800142B3BA
:102AD000456C521ED2B2AD68B0F84860354201D0A4
:102AE00041F48071EAB1C56C521ED2B2AD68B0F843
:102AF0005060354201D041F4007192B1456D521ED3
:102B0000D2B2AD68B0F85860354201D041F480616E
:102B10003AB1C56D521ED2B2AD68B0F860603542B0
:102B200000E02CE001D041F4006142B3456E521E3A
:102B3000D2B2AD68B0F86860354201D041F480513E
:102B4000EAB1C56E521ED2B2AD68B0F870603542BF
:102B500001D041F4005192B1456F521ED2B2AD681E
:102B6000B0F87860354201D041F480413AB1C26F8B
:102B70009268B0F880502A4201D041F400412143CC
:102B8000C94389B21960A0F88410084670BDFFF7E8
:102B9000FBBC00000F4810B5062101700E49402211
:102BA000416002818022C16002828A1541610283F4
:102BB0004A15C16102848A1441620285C1624914C6
:102BC000018600F029F80348FFF721FF0349087048
:102BD00010BD0000CC0400200010014004000020C3
:102BE00008B50848FFF713FF0749C0B20A788242C8
:102BF00007D008700021009004A320220846FEF7A9
:102C00008FFE08BDCC04002004000020B5D8D6B744
:102C1000A3BA25302E32640070B505780446002D25
:102C20007DD021896068FDF7B1FF6D1E15F0FF05AD
:102C300075D0218AE068FDF7A9FF6D1E15F0FF052C
:102C400078D0218B6069FDF7A1FF6D1E15F0FF059F
:102C500070D0218CE069FDF799FF6D1E15F0FF051E
:102C600068D0218D606AFDF791FF6D1E15F0FF059C
:102C700060D0218EE06AFDF789FF6D1E15F0FF051B
:102C800058D0218F606BFDF781FF6D1E15F0FF0599
:102C900050D0B4F84010E06BFDF778FF6D1E15F0D2
:102CA000FF0547D0B4F84810606CFDF76FFF6D1E4C
:102CB00015F0FF053ED0B4F85010E06CFDF766FF4C
:102CC0006D1E15F0FF0535D0B4F85810606DFDF796
:102CD0005DFF6D1E15F0FF052CD0B4F86010E06D9F
:102CE000FDF754FF6D1E15F0FF0523D0B4F86810F2
:102CF000606EFDF74BFF6D1E15F0FF051AD0B4F89E
:102D00007010E06EFDF742FF6D1E15F0FF0511D04B
:102D1000B4F87810606FFDF739FF6D1E00E009E030
:102D200015F0FF0F06D0B4F88010E06FBDE87040DA
:102D3000FDF72CBF70BD00F037B8000010B50400DF
:102D40002BD01648FFF772FC4FF0E021086920F005
:102D500002000861086920F001000861086920F09C
:102D6000040008610D480E4A0068B0FBF2F06043B1
:102D70004861086940F002000861086940F00100FC
:102D8000086100208861086940F0020008614A6912
:102D900004480260096989B2416010BD2406002020
:102DA00000127A002000002000F08EBC70477047AF
:102DB0007047704710B500F04DF9BDE81040012193
:102DC000014800F02EB80000002C014010B500F0C2
:102DD00041F90121BDE81040880700F022B8000049
:102DE00010B500F037F9BDE810400121014800F0AE
:102DF00018B800000004004000F02CB9704770477C
:102E0000704770477047704700F024B90029018867
:102E100002D041F0800102E040F27F321140018097
:102E20007047C943018270470029018802D041F0F0
:102E3000010102E040F2FE3211400180704700299A
:102E400030F8441F02D041F4004101E0C1F30E010B
:102E50000180704730B5028C22F001020284028C9E
:102E60008388048B22F0020224F070050C882C4326
:102E70000D8915434A882A43CD8885860B4DA84283
:102E800002D00B4DA8420DD122F008054A8923F447
:102E900003432A4322F004058A882A438D891D436F
:102EA000CB892B4383800483028430BD002C0140F6
:102EB00000340140028B22F008020A43028370476B
:102EC00070B5028C22F010020284028C8388048B7D
:102ED0000D8824F4E0464FF6FF7404EA05253543D7
:102EE0000E8922F0200204EA061616434A8804EAF4
:102EF00002123243CE8806870F4EB04202D00F4EE8
:102F0000B04215D122F080064A8923F40C4304EA2A
:102F10000212324322F040068A8804EA0212324347
:102F20008E89C98904EA86061E4304EA8103334375
:102F300083800583028470BD002C01400034014071
:102F4000028B4FF6FF7322F4006203EA0121114362
:102F50000183704770B5028C22F480720284028C67
:102F60008388848B0D8824F0700425430E894FF6E6
:102F7000FF7422F4007204EA062616434A8804EA23
:102F800002223243CE8886870F4EB04202D00F4EC7
:102F9000B04215D122F400664A8923F4304304EA92
:102FA0000222324322F480668A8804EA02223243F3
:102FB0008E89C98904EA06161E4304EA01133343C5
:102FC00083808583028470BD002C01400034014061
:102FD000828B22F008020A438283704770B5028C0C
:102FE00022F480520284058C8288838B0C8823F41F
:102FF000E0464FF6FF7303EA042434430E8925F4B8
:10300000005503EA06362E434D8803EA053535435D
:10301000CE88A0F84060084EB04202D0074EB042C1
:1030200005D18989C2F30D0603EA811232438280F9
:103030008483058470BD0000002C014000340140F1
:10304000828B4FF6FF7322F4006203EA01211143E1
:103050008183704700F038BB028802F08F02028043
:10306000CA884B881A4303881A4302808A8882855B
:103070000A88028501228282044A904202D0044AD0
:10308000904201D1097A018670470000002C01406E
:103090000034014000F018BB00F016BB00F014BB78
:1030A00000F012BB00F010BBC943018070470A0A50
:1030B00001219140C943018070470029818902D0D4
:1030C00041F4005101E021F4005181817047002A50
:1030D000828A01D00A4300E08A438282704700005E
:1030E0002DE9FF4F0446002091B083468146824679
:1030F00006460546804607460F90914A1498914926
:10310000914B80B294420DD10880561515151F467B
:10311000984601210520FFF71FFA01218803FFF7D8
:103120001BFA4DE0894A94420BD1488004260825B9
:103130001F46984601213046FFF70EFA0121480448
:103140003CE0834A944213D1888001210846FFF76E
:1031500003FA01217F48FDF72DFE7F4F2615E51468
:10316000B84601210820FFF7F7F90121880425E07E
:103170007A4B7B4A9C420BD1C8801615D514174652
:10318000904601211120FFF7E7F90121C80415E05D
:10319000744B9C4214D108819E1404259046724FB2
:1031A00001211020FFF7D8F901212020FFF7D4F9E1
:1031B00001210846FFF7D0F901210805FFF7B4F90E
:1031C000ADF8406018208DF8430003208DF84200D0
:1031D00010A94046FDF7A0FDADF8405048208DF8FD
:1031E000430010A93846FDF797FD204600F0C4F8CB
:1031F000002512980B90ADF834500C20ADF83050EB
:10320000ADF83600ADF83250ADF838500BA9204675
:1032100000F026F94A4884420AD15448DFF84CB1FC
:103220000F900BF1140B4FF480594FF480300DE0E8
:10323000464884420ED14D48DFF830B13C300F9003
:103240000BF1280B4FF080794FF48010824601215A
:1032500008461CE03E4884420AD14448DFF80CB1DD
:1032600028380F90ABF1140B4FF010098015EDE7E3
:103270003A4884420DD13E48DFF8F4B0DFF8F490CC
:103280000F90ABF1280B4FEA395A01210220FFF7CA
:103290003FF913980190261D10200096029003A973
:1032A00014984FF0800881E821014FF40057CDE9D0
:1032B00008570A950695079569460F98FDF78AFA0B
:1032C00000961398CDE9010503A9149881E821011E
:1032D000CDE9085706950795694658460A95FDF7C2
:1032E00079FA00210F98FDF74FFA01215846FDF7B2
:1032F0004BFA012240212046FFF7E9FE01228021FE
:103300002046FFF7E4FE002202210F98FDF75AFA4B
:103310004846FDF72DFA5046FDF72AFA40F22445BB
:1033200000222946204600F083F829462046FFF770
:10333000BEFE01212046FFF7C0FE15B0BDE8F08FAC
:1033400000380140280000200008014000440040EF
:103350000048004000023000000C0140004C0040DA
:1033600000100140005000400014014044000240A1
:103370005804024000000110184A10B5811A1315B4
:1033800090421BD007DC1649401814D0984223D134
:103390000121040217E0994213D0B1F56C4F1BD103
:1033A00001218C032046FFF7E3F82046BDE81040DA
:1033B0000021FFF7DDB801214C0404E00121CC0419
:1033C00001E001210C052046FFF7BAF82046BDE8D0
:1033D00010400021FFF7B4B810BD0000004C0040C1
:1033E00000BCFFBF0246002012880A4200D0012024
:1033F000704770B501F01F0501260024C1F3421388
:1034000006FA05F2012B0FD0022B0FD0838A4FEA68
:1034100011210088134206FA01F600EA060001D0E5
:1034200000B10124204670BD8389F0E7038AEEE7EE
:1034300010B5C1F3421301F01F040121A140012B7B
:1034400007D0022B07D01430002A026805D00A43A7
:1034500004E00C30F8E71030F6E78A43026010BD54
:1034600030B50446008A85B00D464CF6FF71084021
:10347000E98801432182A0894EF6F3110840A9880A
:103480002A8911436A8902431143A181A08A4FF618
:10349000FF410840A9890143A1826846FFF7C6F8A9
:1034A0001148844201D1039800E00298642200EBA5
:1034B000C00101EB001029686FF018058900B0FB0E
:1034C000F1F0B0FBF2F109010B096B4300EB830053
:1034D000322303EB0010B0FBF2F000F00F000843C2
:1034E000208105B030BD0000003801402DE9F047D3
:1034F000DFF8A8816A4D6B4F1446894640F2244696
:1035000040452CD131464046FFF773FF28B91021C2
:103510004046FFF767FF00287ED031464046FFF760
:10352000C6FD10214046FFF7BFFDDFF8788100217E
:1035300008F158084046FDF727F95848001D008853
:103540004046FDF72BF92988081A86B232462146F3
:103550004846FCF7FBFD7C662888F8652FE0DFF81D
:10356000488140452ED131464046FFF742FF28B9F9
:1035700010214046FFF736FF00284DD03146404627
:10358000FFF795FD10214046FFF78EFDDFF814810F
:10359000002108F16C084046FDF7F6F84248001D8E
:1035A00000884046FDF7FAF86988081A86B2324664
:1035B00021464846FCF7CAFDBC6768883867012188
:1035C000404662E0DFF8E48040452ED13146404677
:1035D000FFF70FFF28B910214046FFF703FF00282F
:1035E00059D031464046FFF762FD10214046FFF7B3
:1035F0005BFDDFF8B080002108F130084046FDF7A0
:10360000C3F82A48001D00884046FDF7C7F8A9887E
:10361000081A86B2324600E03DE021464846FCF7F3
:1036200095FDFC63A8887863C9E7214FB84231D182
:1036300031463846FFF7DDFE20B910213846FFF746
:10364000D1FE40B331463846FFF731FD10213846F0
:10365000FFF72AFD174F00213846FDF795F814486B
:10366000001D00883846FDF799F8E988081A86B2E7
:10367000324621464846FCF769FD0E480C3004608E
:10368000E888391D086001213846FDF77DF830468D
:10369000BDE8F08708490020FAE700000038014043
:1036A0002800002000000240004400400048004084
:1036B000004C00403004024000500040704770470A
:1036C0007047FEE7FEF7C6B9FEF7FEB97047000087
:1036D0007CB5491E1C461546CDE90001044B6A46DF
:1036E0002146284600F0C8F8009A002111707CBDE0
:1036F000A73F000802E008C8121F08C1002AFAD13B
:1037000070477047002001E001C1121F002AFBD161
:10371000704700002DE9FF5FDDE90220010DDDF8B3
:1037200038B0024318D044F61050A1F2FF314143A3
:103730000D140F98012820D0A5EB0B00401C5FEA68
:10374000000A4FF00004474EDFF81C91A046504697
:1037500016D5CAF1000728E00F98012443A20128DA
:1037600008D0002100980F9BC0E90021C0E9024366
:10377000BDE8FF9F6FEA0B01F4E7CBF10000DEE745
:10378000074612E0F80707D022463346404649462E
:10379000FCF79CFD80468946224633461046194672
:1037A000FCF794FD04460E467F10002FEAD1DDE9B8
:1037B0000201BAF1000F42464B4602DAFCF786FDE1
:1037C00001E0FCF7F5FD04460E460022284BFCF70D
:1037D0009BFE03D84FF0FF30014607E00022254B47
:1037E00020463146FCF7CBFCFCF77BFF102409E0B8
:1037F000002C0ADB0A220023FCF7B4FE019B3032C6
:103800001A55641E50EA0102F2D1641C019AC4F1F7
:10381000110314440F9A012A03D0012208430DD149
:103820000AE0084304D000204FF0110B0F9080E70E
:10383000A3EB0B056D1E0DE05B4504DD4FF00002B0
:1038400005F1010504E003DA4FF00002A5F10105DE
:10385000002AECD000980F99C0E90231C0E9004578
:1038600086E70000000024400000F03F3000000028
:103870000000F0430000E03F2DE9FF4F95B09B466C
:103880008946064600250FE2252877D100242746E1
:10389000F84A0121059400E0044316F8013F203B5B
:1038A00001FA03F01042F7D130782A2811D06FF0D6
:1038B0002F033078A0F13002092A16D8059A44F077
:1038C000020402EB820203EB42021044761C0590D4
:1038D000EFE759F8042B0592002A03DA504244F42A
:1038E0000054059044F00204761C30782E2816D13E
:1038F00016F8010F44F004042A280DD06FF02F02AF
:103900003078A0F13003092B09D807EB870302EBCD
:103910004303C718761CF3E759F8047B761C30780C
:103920006C280FD006DC4C2817D068280DD06A28E8
:1039300014D104E0742810D07A280FD10DE044F49B
:1039400000140AE044F4801401E044F44014727856
:10395000824202D104F58014761C761C30786628E9
:103960000BD013DC582877D009DC002875D0452807
:10397000F6D04628F4D047281AD19DE118E06328F4
:1039800035D0642879D0652812D195E1702873D09C
:1039900008DC6728F1D069286FD06E280DD06F2819
:1039A00006D1B5E073282CD0752875D0782874D04E
:1039B0005A46179990476D1C75E1C4F302500228CE
:1039C00009D003280DD0D9F8001004280DD00D60BF
:1039D00009F1040967E1D9F80010EA17C1E90052BA
:1039E000F6E7D9F800100D80F2E70D70F0E719F84E
:1039F000041B8DF8001000208DF80100EA4601201C
:103A000003E059F804AB4FF0FF3061074FF00001BD
:103A100002D40DE008F101018846B9420FDA804571
:103A2000F8DB1AF808100029F4D108E008F10101C8
:103A300088468142FADB1AF808100029F6D1059869
:103A40005B46A0EB080721463846179A00F094FA27
:103A5000284400EB080507E04DE029E10DE01AF8E5
:103A6000010B5A4617999047B8F10108F7D25B4607
:103A700021463846179A13E142E00A220092C4F325
:103A800002524FF0000A022A08D059F804CB032A48
:103A90004FEAEC710AD00DE029E02AE009F10701B4
:103AA00021F00702F2E802C1914609E00FFA8CFC0E
:103AB0004FEAEC71042A03D14FFA8CFC4FEAEC7107
:103AC000002907DA0A460021DCF1000C61EB020153
:103AD0002D2202E0220504D52B228DF8042001229C
:103AE00003E0E20701D02022F7E7904659E00A21DF
:103AF00002E010220DE010214FF0000A00910BE0CF
:103B000010224FF0000A44F004040827009203E05A
:103B100008224FF0000A0092C4F30252022A05D094
:103B200059F804CB0021032A08D009E009F1070164
:103B300021F00702F2E802C1914605E01FFA8CFC71
:103B4000042A01D10CF0FF0C4FF00008220728D501
:103B5000702806D0009B83F0100353EA0A0305D0B7
:103B60000EE040228DF80420012208E05CEA010208
:103B700006D030228DF804208DF8050002229046F0
:103B8000009B83F0080353EA0A030AD15CEA0102AE
:103B900001D1620705D530228DF804204FF00108CD
:103BA0007F1E582804D034A003900EA802900DE088
:103BB00036A0F9E753466046009AFCF7D3FC8446EA
:103BC0000398825C0298401E029002705CEA010039
:103BD000F0D1029806A9081A00F1200A600702D560
:103BE00024F4803400E00127574502DDA7EB0A00EA
:103BF00000E0002000EB0A01009005984144401AC3
:103C00000590E00306D45B462146179A059800F01C
:103C1000B3F90544002706E001A85A46C05D17998C
:103C200090476D1C7F1C4745F6DBE0030CD55B46D7
:103C30002146179A059800F09FF9054404E03020CA
:103C40005A46179990476D1C0099481E009000290C
:103C5000F5DC08E0029802995A460078491C029166
:103C6000179990476D1CBAF10001AAF1010AF1DC25
:103C700065E1000009280100303132333435363730
:103C800038396162636465660000000030313233A8
:103C90003435363738394142434445460000000048
:103CA00000F058F90544761C307800287FF4ECAD1C
:103CB00019B02846BDE8F08F620700D4062709F145
:103CC000070222F0070CFCE80223E14603F000485B
:103CD0005FEA080C02D00FF2702C0DE05FEA045C82
:103CE00002D50FF2682C07E05FEAC47C02D00FF225
:103CF000602C01E0AFF2700C4FF0FF3823F000436E
:103D0000CDF850C065280CD006DC452809D04628DF
:103D10001DD047283DD13DE0662818D067287ED1C8
:103D200038E00021112F01DB112000E0781CCDE9E3
:103D3000000106A90EA8FFF7EDFCDDE90F010E9AC0
:103D400003910021009207F1010A04914DE04FF028
:103D500000400097CDE9011006A90EA8FFF7DAFC94
:103D6000DDE90F0203920E9B11990022DDF80CA0F1
:103D70000093049211B9791C00EB010AB7EB0A0019
:103D800004D4C0F1FF3007F1010A0490AAEB070048
:103D9000019044E0012F00DA01270021112F01DDFD
:103DA000112000E03846CDE9000106A90EA8FFF772
:103DB000B1FCDDE90F010E9A0391002104910092FC
:103DC000BA4621070CD40399514500DA8A46BAF164
:103DD000010F05DD009AAAF10101515C302908D0DC
:103DE000B84202DA10F1040F06DA0121CDE9011020
:103DF00015E0AAF10101E9E7002805DC0499014476
:103E00000491AAEB000102E0411C514500DD8A4605
:103E10000499401A401C01904FF000400290200786
:103E200004D40198504501DBCDF8048000208DF8C2
:103E30004F0002980DF14F07B0F1004F25D02B2015
:103E40000E9002984FF0020800280CDA40420290CF
:103E50002D200E9007E00A210298FCF76DFB30310F
:103E6000029007F8011DB8F10001A8F10108F2DC89
:103E700002980028EFD1791E0E980870307800F073
:103E8000200040F0450007F8020D12A8C01B00F109
:103E900007081498007800B1012000EB0A0101988E
:103EA00001EBE07105984144401A401E0590E00383
:103EB00006D45B462146179A059800F05DF8054444
:103EC0001498007818B15A46179990476D1CE00372
:103ED00024D55B462146179A059800F04DF8054415
:103EE0001CE00498002807DBDDE90301884203DDBC
:103EF0000098405C179901E0179930205A46904786
:103F0000049805F10105401C04900198401E0190A1
:103F100004D12E205A46179990476D1CBAF1000122
:103F2000AAF1010ADDDC05E017F8010B5A461799E2
:103F300090476D1CB8F10001A8F10108F4DC5B4664
:103F40002146179A0598ABE62D0000002B000000D3
:103F5000200000002DE9F041044600251E461746CA
:103F6000880404D405E039462020B0476D1C641E47
:103F7000F9D52846BDE8F0812DE9F0410446002539
:103F80001E469046C80301D5302700E0202788044C
:103F900004D505E041463846B0476D1C641EF9D58E
:103FA0002846BDE8F0814A68002A06D00A68531CFA
:103FB0000B6010704868401E48607047FFF782FB36
:103FC00005494FF0807300220868401C0860984241
:103FD000FAD30A60F8E70000000000200204060897
:103FE000000000000102030401020304060708099F
:103FF0001040000800000020C4000000F436000853
:10400000D4400008C4000020740D000004370008EC
:10401000000000000000000000000000FFFFFFFFA4
:104020000000000000000000000000000000000090
:104030000000000000000000000000000000000080
:104040000000000000FF0000000000000000000071
:104050000000000000000000000000000000000060
:104060000000000000000000000000000000000050
:104070000000000000000000000000000000000040
:104080000000000000FF0000000000000000000031
:104090000000000000000000000000000000000020
:1040A0000000000000000000000000000000000010
:1040B0000000000000000000000000000000000000
:1040C00000000000000000000300FFFF00000000EF
:0440D00000000000EC
:0400000508000131BD
:00000001FF
