:020000040800F2
:10000000B0080020450100085B0E00087D0D0008C7
:10001000590E0008D9040008E32100080000000080
:10002000000000000000000000000000E9190008C6
:1000300099070008000000006D140008EF1900087F
:10004000ED2100087D0F0008691A0008D919000881
:10005000B1090008D91600089B070008A30700088B
:10006000A7070008AB070008AF0700082F06000825
:1000700033060008370600083B0600083F06000864
:100080004306000847060008D5040008DF210008E1
:10009000E1210008DB040008DD040008B3070008C4
:1000A0006B1A0008711A00086F1A00086D1A000810
:1000B000891A00089D1A0008B51A0008810D000869
:1000C0007F0D0008850D0008830D0008DD1900086C
:1000D000DF190008751D0008791D00087D1D000846
:1000E0009F070008D7190008DD210008BF1A000883
:1000F000C51A0008C31A0008C11A0008D70400086E
:10010000E5090008DB190008B91A0008E31900081E
:100110006D1D0008711D0008BB1A0008BD1A0008FB
:100120004B0600084F060008530600085706000853
:10013000DFF80CD000F0BCF9004800470D220008A1
:10014000B008002000480047310100082DE9FE4FAB
:1001500081EA030404F0004421F0004100944FF0D0
:10016000000B23F0004350EA01045ED052EA03047E
:100170005BD0C3F30A54C1F30A552C44A4F2F33400
:100180000194A0FB0254C1F3130141F48011C3F3A5
:10019000130343F4801301FB024400FB034E840A63
:1001A000970A44EA815447EA8357A4FB07680295FB
:1001B0008D0A05FB07854FEA932C04FB0C54270599
:1001C000029D4FEA065847EA1637B5EB08056EEB75
:1001D000070C870E920E47EA811742EA8312A7FBAB
:1001E0000201B6EB0B0164EB00042B0D43EA0C3368
:1001F0005E1844EB1C50DA465146E7FB0201C5F39A
:1002000013044FEA0B3343EA14534FEA0432019CC0
:1002100043EA0603A4F10C040294009CCDE900B467
:1002200000F0F8F803B0BDE8F08F00200146F9E7D0
:100230002DE9F04D81EA030404F0004B21F0004564
:1002400014464FF0000A23F0004150EA050220D086
:1002500054EA01021DD0C5F30A570246C5F3130341
:10026000C1F31300C1F30A5640F4801543F4801320
:10027000A7EB0608101BD64608F2FD3873EB050005
:1002800002D308F1010801E092185B41B8F1000FB8
:1002900003DA00200146BDE8F08D00204FF4801104
:1002A000064684460EE0171B73EB050705D3121BA9
:1002B00063EB050306434CEA010C49084FEA3000A2
:1002C00092185B4150EA0107EDD152EA030012D0C7
:1002D00082EA040083EA0501084305D0101BAB4104
:1002E00006D20122002306E000224FF0004302E084
:1002F0006FF0010253101AEB06004CEB085110EBA3
:100300000A0041EB0B01BDE8F04D00F074B870B588
:1003100021F0004303430CD0C1F30A550024D5EB70
:10032000040564EB0403D617AD1AB34102DB0020C9
:10033000014670BD201841EB025170BD0EB540F270
:10034000334102910021CDE900110A460B4600F02D
:1003500061F803B000BDC1F30A5210B5C1F3130137
:1003600040F2FF3341F480119A4201DA002010BDBF
:1003700040F233439A42A2F2334203DC524200F08D
:100380002AF810BD904010BD30B5041E71F1000474
:1003900004DB4FF00044404264EB0101141E73F192
:1003A000000405DB1C464FF00043524263EB04039C
:1003B000994208BF904230BD202A04DB203A00FA5F
:1003C00002F1002070479140C2F1200320FA03F3AC
:1003D000194390407047202A04DB203A21FA02F0AA
:1003E0000021704721FA02F3D040C2F1200291406F
:1003F00008431946704710B5141E73F1000408DA5B
:10040000401C41F1000192185B411A4301D120F0D8
:10041000010010BD2DE9F04D92469B4611B1B1FA95
:1004200081F202E0B0FA80F220329046FFF7C4FF7A
:1004300004460F4640EA0A0041EA0B0153465A4679
:10044000084313D0114653EA010019D0C8F1400205
:100450005046FFF7C0FF05460E46504659464246F5
:10046000FFF7AAFF084305D0012004E020463946E3
:10047000BDE8F08D0020054346EAE0762C43374383
:100480000A986305E40AA0EB08000022FD0A44EA8A
:1004900047540A3002D500200146E9E7010510194A
:1004A0006941DDE9084500196941BDE8F04DA2E761
:1004B000064C074D06E0E06840F0010394E80700B1
:1004C00098471034AC42F6D3FFF736FE40220008BE
:1004D0006022000870477047FEE77047704710B50C
:1004E0000446A188206800F0FFFAA189A06800F006
:1004F000FBFAA18A206900F0F7FAA18BA06900F04D
:10050000F3FAA18C206A00F0EFFAA18DA06A00F046
:10051000EBFAA18E206BBDE8104000F0E5BA38B5CB
:100520000446608F0090E06B81B20322B1FBF2F3CE
:1005300002FB1315411CE16342F21071884201D3A2
:100540000020E063A18C206A00F00CFCA18DA06A61
:1005500000F008FCA18E206B00F004FC0A202DB1F5
:100560006421012D0AD0022D17D111E0BDF8001031
:10057000B1FBF0F200FB121000900EE0BDF800207D
:10058000B2FBF1F301FB1321B1FBF0F0009004E0AA
:10059000BDF80000B0FBF1F000909DF80000C0072E
:1005A00004D0A188206800F0DFFB03E0A188206868
:1005B00000F0D8FB9DF80000800704D5A189A06851
:1005C00000F0D2FB03E0A189A06800F0CBFB9DF80E
:1005D0000000400704D5A18A206900F0C5FB03E0B4
:1005E000A18A206900F0BEFB9DF80000000704D539
:1005F000A18BA06900F0B8FB03E0A18BA06900F01B
:10060000B1FB45B1012D0BD0022D03D1A18E206B82
:1006100000F0AAFB38BDA18C206A00F0A5FB38BD14
:10062000A18DA06A00F0A0FB38BD4187704700F0A3
:100630006BB800F069B800F067B800F065B800F07A
:1006400063B800F061B800F05FB800F05DB800F08A
:100650005BB800F059B800F057B80000C10002D5EF
:10066000024908607047024948607047040402402C
:1006700000000240002904D0016841F0010101603E
:100680007047016821F0010101607047406880B245
:100690007047000002460020D10002D504490968D5
:1006A00001E004490968114200D0012070470000B0
:1006B0000004024000000240002A03D002680A43FE
:1006C0000260704702688A430260704730B5026872
:1006D00047F6F0739A430C6A8B682343D1E90445CB
:1006E0002C4323438C692343CC6923434C6A234323
:1006F0008C6A234313430360CA6842600A688260BD
:100700004968C16030BD000010B501F06DFD1020DA
:10071000FFF7C0FF01281BD04FF480542046FFF79D
:10072000B9FF01281DD024032046FFF7B3FF01289D
:1007300021D0164C2046FFF7ADFF012825D12046D9
:10074000FFF78CFFBDE8104000211148FFF792BF72
:100750001020FFF783FFBDE8104000210D48FFF790
:1007600089BF2046FFF77AFF0A480021BDE8104004
:100770002830FFF77FBF2046FFF770FF05480021B4
:10078000BDE810406430FFF775BF10BD00000110D8
:10079000580402401C000240704700F0C1B800F04D
:1007A000BFB800F0BDB800F0BBB800F0B9B800F0B9
:1007B000B7B800F0B5B80000014908607047000004
:1007C0001404014010B5012000F09AF84B4C20B100
:1007D000208840F00100208010BD022000F090F839
:1007E00020B1208840F00200208010BD042000F0DD
:1007F00087F820B1208840F00400208010BD082038
:1008000000F07EF820B1208840F00800208010BD64
:10081000102000F075F820B1208840F010002080F2
:1008200010BD202000F06CF820B1208840F020009E
:10083000208010BD402000F063F820B1208840F0F7
:100840004000208010BD802000F05AF820B12088A0
:1008500040F08000208010BD4FF4807000F050F810
:1008600020B1208840F48070208010BD4FF40070CB
:1008700000F046F820B1208840F40070208010BDC0
:100880004FF4806000F03CF820B1208840F4806094
:10089000208010BD4FF4006000F032F820B12088B5
:1008A00040F40060208010BD4FF4805000F028F824
:1008B00020B1208840F48050208010BD4FF40050BB
:1008C00000F01EF820B1208840F40050208010BDB8
:1008D0004FF4804000F014F820B1208840F48040AC
:1008E000208010BD4FF4004000F00AF80028F8D036
:1008F000208840F40040208010BD0000200000202F
:1009000001460020054A12680A40044B14331B6854
:100910000B4202D0002A00D00120704700040140A1
:1009200008B500200090FFF74DFF01F05DFC1F4867
:10093000BDF8001001800120FFF73EFF0220FFF705
:100940003BFF0420FFF738FF0820FFF735FF10209A
:10095000FFF732FF2020FFF72FFF4020FFF72CFF8B
:100960008020FFF729FF4FF48070FFF725FF4FF439
:100970000070FFF721FF4FF48060FFF71DFF4FF479
:100980000060FFF719FF4FF48050FFF715FF4FF499
:100990000050FFF711FF4FF48040FFF70DFFBDE857
:1009A00008404FF40040FFF707BF00002000002080
:1009B0007047000004490A6822F010020A600A68C1
:1009C00002430A60704700000020024004490A68A0
:1009D00002F038020A600A6802430A6070470000A9
:1009E00000200240704710B50121084600F078FD54
:1009F0000021BDE81040012000F072BD70B50C462A
:100A0000364A811A1315D614904253D017DC344954
:100A1000344D41184FF6FF721ED0994234D0B14286
:100A20005AD10121102000F04DFD600401D42004B2
:100A300052D5BDE870400121112000F043BD99421C
:100A40003ED0B14242D0B1F5406F45D1BDE87040D3
:100A50000121080200F036BDA00405D4600403D4CF
:100A6000200401D4944209D10121052000F02AFD7F
:100A70002846BDE87040012100F04EB9BDE8704045
:100A80000121042000F01EBD200703D4E00601D49C
:100A9000944209D10121092000F014FD2846BDE847
:100AA0007040012100F038B9BDE8704001210820F4
:100AB00000F008BDBDE870400121202000F002BD1B
:100AC000BDE870400121402000F0FCBCBDE8704052
:100AD0000121802000F0F6BC70BD00000014014030
:100AE00000F8FEBF0002300038B50446ADF8001033
:100AF00003228DF8022010228DF803202046FFF7F4
:100B00007DFF6946204600F0B5F838BD10B52E4A85
:100B1000811A1315D414904237D010DC2B49401899
:100B20001FD0984227D0A0424DD10121102000F0C3
:100B3000D7FC0021BDE81040102000F0D1BC994244
:100B40002DD0A14235D0B1F5406F3CD101210C022E
:100B5000204600F0C5FC2046BDE81040002100F012
:100B6000BFBC0121042000F0BBFC0021BDE8104007
:100B7000042000F0B5BC0121082000F0B1FC0021E8
:100B8000BDE81040082000F0ABBC0121202000F09F
:100B9000A7FC0021BDE81040202000F0A1BC0121ED
:100BA000402000F09DFC0021BDE81040402000F0F6
:100BB00097BC0121802000F093FC0021BDE810408B
:100BC000802000F08DBC10BD0014014000F8FEBF75
:100BD0002DE9F84F684600F0C9F81F4C69462046D9
:100BE00000F048F81D4D6946284600F043F81C4EB9
:100BF0006946304600F03EF81A4F6946384600F024
:100C000039F8DFF864806946404600F033F8DFF8D1
:100C10005C906946484600F02DF8DFF854A069461C
:100C2000504600F027F82046FFF770FF2846FFF7F0
:100C30006DFF3046FFF76AFF3846FFF767FF404613
:100C4000FFF764FF4846FFF761FF5046FFF75EFF7E
:100C5000FFF7C9FEBDE8F88F00080140000C014015
:100C6000001001400014014000180140001C014028
:100C7000002001402DE9F0430022CC7804F00F035E
:100C8000E40601D58C7823430C784FF00F0714F05D
:100C9000FF0F4FF0010C1BD005680CFA02F40E8810
:100CA0002640A64210D1960007FA06F825EA080564
:100CB00003FA06F848EA0505CE78282E00D14461EB
:100CC000CE78482E00D10461521C082AE5D3056075
:100CD0000A88FF2A1ED94568002202F108060CFA8C
:100CE00006F40E882640A64210D1960007FA06F8B0
:100CF00025EA080903FA06F545EA0905CE78282E03
:100D000000D14461CE78482E00D10461521C082ADB
:100D1000E3D34560BDE8F083F0B5114D6B68C0F3D7
:100D20000342440D260184B2C0F30157B440032F9F
:100D300007D0C0020CD503209040834343F070627B
:100D400009E023F07062686820F07060686002E07B
:100D5000A34343F0706201B122436A60F0BD00001A
:100D60000000014041617047016170474FF6FF711B
:100D70000180022181700421C1707047FEE7704735
:100D8000704770477047000070B50325002400EBE2
:100D90008001C90047F6F872B2EB910F04D900EB5D
:100DA0008000C0F38F041DE04FF6F072B2EB910F9C
:100DB00005D9042500EB8000C0F3CF0412E0124AED
:100DC000B2EB910F05D9052500EB8000C0F30F149D
:100DD00008E00E4AB2EB910F04D9062500EB800023
:100DE000C0F34F1404B9012445F2555000F02EF819
:100DF000284600F01FF8204600F022F800F012F814
:100E0000BDE8704000F004B8E0FF0100C0FF03003F
:100E100002494CF6CC4008607047000000300040AA
:100E2000AFF3008002494AF6AA200860704700002C
:100E30000030004001494860704700000030004029
:100E40000149886070470000003000400149086097
:100E50007047000000300040FEE7704738B500F0F2
:100E6000C4FDFFF7B5FE00F029F84FF47A74204670
:100E700000F0C0FD2046FFF787FF4FF461710022AC
:100E80000091084B1146E00600F07AF80523064A67
:100E90004FF49641054800F08DFD2046BDE83840EE
:100EA00000F0A8BD0000F03F0C0000208C000020E6
:100EB0000148FFF7BABB00004C00002010B51148F4
:100EC0000F490160012282808160022484810161D6
:100ED0000422828281610822828301621203828459
:100EE000816252108285016320218186FFF7F7FA23
:100EF000044805494030016004494160048110BD47
:100F0000000C01404C00002000440040000801405B
:100F100010B5FFF785FF174C6088401C80B26080D9
:100F2000002104F10D02B0F5FA7F06D36180A0889C
:100F3000401CA0801078401C1070A088B0F57A7F0B
:100F400000D3A18060880321B0FBF1F301FB130003
:100F50001178FFF7ADFF608828B9064905220D31E9
:100F6000054800F003FC0448BDE810404038FFF796
:100F7000D6BA0000040000208C000020704700005A
:100F80002DE9FF5F90B0884614461D464FF0000AD9
:100F90004FF0FF094FF0000B00270026FE4A109883
:100FA000D314811A4FF4806C904272D00EDCB0F1F1
:100FB000804F42D0F94940186ED060456BD09842BE
:100FC00003D10121082000F061FACEE0B1F5806F75
:100FD00073D0B1F58E3F03D0B1F5923F17D1C0E089
:100FE0000121C80200F06EFAB8F1000F09D0B8F183
:100FF000010F0DD0B8F1020F11D0B8F1030F06D1D7
:1010000014E0DFF89CA34FF480794FF0040BACE0C0
:10101000DFF88CA34FF400794FF0040BA5E0DFF864
:1010200080A34FF480694FF0040B9EE0DFF870A3BB
:101030004FF400694FF0040B97E00121084600F0DF
:1010400025FAB8F1000F09D0B8F1010F0DD0B8F1B1
:10105000020F11D0B8F1030F06D113E0DFF840A35F
:101060004FF001094FF0040B7FE0DFF834A34FF09D
:1010700002094FF0040B78E0DFF824A34FF00409D5
:10108000CB4672E0DFF818A34FF008094FF0040BCD
:101090006BE05CE000E02DE00121022000F0F6F9B9
:1010A000B8F1000F0AD0B8F1010F0ED0B8F1020F5D
:1010B00012D0B8F1030F58D115E04DE0DFF8E0A2EF
:1010C0004FF040094FF0040B4FE0DFF8D4A24FF08F
:1010D00080094FF0040B48E0DFF8C8A24FF0010987
:1010E0004FF0080B41E0DFF8BCA24FF002094FF0CF
:1010F000080B3AE00121042000F0C8F9B8F1000F14
:1011000009D0B8F1010F0DD0B8F1020F11D0B8F12C
:10111000030F2AD114E0DFF88CA24FF040094FF002
:10112000080B22E0DFF87CA24FF080094FF0080B9B
:101130001BE0DFF870A24FF480794FF0080B14E049
:10114000DFF860A24FF400794FF0080B0DE00121A9
:10115000102000F09BF908E00121202000F096F912
:1011600003E00121480300F0ADF90121084600F039
:10117000A9F90121584600F0A5F9ADF834900320F3
:101180008DF8360018208DF837000DA95046FFF76E
:1011900071FD01A800F004FADFF80C921098DFF856
:1011A0000CB229EA00094EF6602A22462B4600209E
:1011B0005946FFF73DF8CDE90E10B9F1000F28D0E0
:1011C000DDF80C90DDE90E100022794BFFF7DCF81A
:1011D00022D20022774B20462946FEF7B7FF04466D
:1011E0000D464846FFF7AAF822462B46FFF720F89F
:1011F00004460D46574600226F4B20462946FFF70E
:1012000017F800226D4BFEF7A1FFFFF7A4F886B296
:1012100093E0DDF81090D5E7DDE90E105B46002283
:10122000FFF7B2F81FD20022614B20462946FEF795
:101230008DFF04460D464846FFF780F822462B46B0
:10124000FEF7F6FF04460D46574600225A4B20464D
:101250002946FEF7EDFF0022594BFEF777FFFFF717
:101260007AF886B269E000225B4620462946FFF7FD
:101270008BF862D84846FFF761F822462B46FEF706
:10128000D7FF04460D46012220462946FFF73FF8C6
:1012900004460D4600224B4B20462946FFF774F8C2
:1012A0000BD84FF4FA670022474B20462946FEF739
:1012B000BFFFFFF750F886B23FE00022434B2046C5
:1012C0002946FFF761F80AD8C82700223B4B204681
:1012D0002946FEF7ADFFFFF73EF886B22DE000226B
:1012E0003B4B20462946FFF74FF80AD81427002227
:1012F000334B20462946FEF79BFFFFF72CF886B2BA
:101300001BE00022334B20462946FFF73DF80AD860
:10131000022700227B0720462946FEF789FFFFF7B8
:101320001AF886B209E0012700225B4620462946CA
:10133000FEF77EFFFFF70FF886B27F1EADF828702C
:10134000701EADF82C000024ADF82E40ADF82A40F8
:101350000AA9109800F0ECFC1E9846434FF47A70EE
:10136000864204D9B6FBF0F080B21E9003E01E98CE
:1013700008B101201E906020ADF818001E98ADF84D
:101380001E00ADF820400120ADF81A00B8F1000FA2
:101390002AD0B8F1010F1FE00010004000FCFFBF91
:1013A00000080140000C0140000001400000F03F37
:1013B0000000244000005940004CED40000069400E
:1013C00000003440D012634100409F4080842E4191
:1013D000006AF84040FFEF400BD0B8F1020F0DD08B
:1013E000B8F1030F13D10EE006A9109800F098FB96
:1013F0000DE006A9109800F0CBFB08E006A91098B4
:1014000000F012FC03E006A9109800F053FC012143
:10141000109800F076FBB8F1000F09D0B8F1010F79
:101420000BD0B8F1020F0DD0B8F1030F13D10EE0BD
:101430000821109800F0A6FB0DE00821109800F09C
:10144000E9FB08E00821109800F02EFC03E00821D9
:10145000109800F061FC0121109800F035FB01218B
:10146000109800F041FB14B0BDE8F09F70470000F9
:10147000054A002903D05169014351617047516900
:10148000814351617047000000100240054A002965
:1014900003D0D1690143D1617047D1698143D161E2
:1014A0007047000000100240054A002903D011696E
:1014B0000143116170471169814311617047000058
:1014C00000100240054A002903D09169014391614F
:1014D000704791698143916170470000001002409C
:1014E000054A002903D0D1680143D1607047D16813
:1014F0008143D160704700000010024010B500F039
:1015000031F84FF48034204600F0CAF800F014F9A6
:10151000012822D11020FFF74DFA0220FFF756FADA
:10152000002000F0B3F8002000F0E2F8A01100F075
:10153000D5F84FF4E011204600F0EAF8012000F061
:10154000E1F8392000F082F80028FAD0022000F0FB
:10155000E9F800F093F80828FBD1BDE81040FFF748
:1015600037BB00000B48016841F001010160416890
:10157000094A114041600168084A11400160016850
:1015800021F480210160416821F4FE0141600021C5
:1015900081607047001002400000FFF8FFFFF6FE78
:1015A00010B5264A516801F00C01254B002927D0BF
:1015B000042927D0082927D00360516801F0F001E1
:1015C0000909204B5C5C0168E1404160546804F407
:1015D000E064240A1C5D21FA04F48460546804F475
:1015E0006054E40A1B5DD940C160526802F4404275
:1015F000920B144B1B1F9A5CB1FBF2F1016110BD01
:101600000360DAE70360D8E7516801F47011022340
:1016100003EB9141536803F4803333B153689B0368
:1016200007D5094B59430160C7E7074B5943016090
:10163000C3E7034B59430160BFE7000000100240BD
:1016400000127A003022000800093D000346002005
:101650005909094A01290AD002290AD0516A03F01E
:101660001F02012393400B4200D0012070471168F4
:10167000F5E7116AF3E700000010024002484068F5
:1016800000F00C007047000000100240034A51684F
:1016900021F0F0010143516070470000001002404A
:1016A0000C490A6822F480320A600A6822F4802217
:1016B0000A60B0F5803F07D0B0F5802F03D10868ED
:1016C00040F4A02008607047086840F4803008604B
:1016D000704700000010024070470000034A516844
:1016E00021F4E061014351607047000000100240A6
:1016F000034A516821F4605141EAC00050607047CC
:101700000010024001490866704700000000424294
:10171000034B5A6822F47C12084310435860704708
:1017200000100240034A516821F003010143516057
:10173000704700000010024030B50B4C40F2FF151E
:101740003120FFF783FF20706068401C60602078C4
:1017500010B96068A842F3D13120FFF777FF08B1D4
:10176000012030BD002030BD180000202DE9F047D9
:1017700007460D4614463868DFF80C82834E404514
:101780003AD1706CDFF80892C00725D04846FEF7C2
:101790007DFF002872D18021404600F0B9FC01286D
:1017A00002D00020BDE8F087384600F010F900BFF5
:1017B00000BF00BF00BF00BF4FF40050FEF74EFF58
:1017C00000214846FEF756FFB464356501214846BE
:1017D000FEF750FF2046E5E7384600F0F8F800BF76
:1017E00000BF00BF00BF00BFB4643565012148469B
:1017F000FEF740FF2046D5E7DFF8988140453ED10F
:10180000D6F88000DFF89091C00726D04846FEF752
:101810003DFF08B10020C5E78021404600F078FC7C
:10182000012801D00020BDE7384600F0D0F800BF05
:1018300000BF00BF00BF00BF4FF00070FEF70EFFFB
:1018400000214846FEF716FF46F8844FB560012197
:101850004846FEF70FFF2046A4E7384600F0B7F8E9
:1018600000BF00BF00BF00BF00BF46F8844FB56097
:1018700001214846FEF7FEFE204693E781E0DFF8AF
:101880001C81404539D1F069DFF81491C00724D09C
:101890004846FEF7FBFE08B1002083E78021404662
:1018A00000F036FC012801D000207BE7384600F02C
:1018B0008EF800BF00BF00BF00BF00BF2020FEF7B2
:1018C000CDFE00214846FEF7D5FE3462B562012107
:1018D0004846FEF7CFFE204664E7384600F077F82A
:1018E00000BF00BF00BF00BF00BF3462B56201216E
:1018F0004846FEF7BFFE204654E7DFF8A880404583
:101900003FD1294A1068DFF8A490C00702F104060D
:1019100026D092465046FEF7B9FE08B1002041E7B6
:101920008021404600F0F4FB012801D0002039E777
:10193000384600F04CF800BF00BF00BF00BF00BF3A
:101940001B48FEF78BFE00215046FEF793FE3460E5
:10195000C9F8005001215046FEF78CFE204621E7D1
:10196000384600F034F800BF00BF00BF00BF00BF22
:101970003460C9F8005001211046FEF77BFE204676
:1019800010E700200EE70000003801400000024090
:1019900044000240004400408000024000480040F3
:1019A0001C000240004C0040580402406404024005
:1019B0000000021010B50446206800F0FDF92189EE
:1019C0006068FFF791F861682089486110BD01895E
:1019D000406801617047704770477047704700F07A
:1019E00001B8704700F000BC7047FFF787BD00F0FA
:1019F00039B8000010B50446002C2BD01648FFF76C
:101A0000CFFD4FF0E021086920F00200086108696D
:101A100020F001000861086920F0040008610E4808
:101A20000E4A0068B0FBF2F060434861086940F07C
:101A300002000861086940F0010008610020886127
:101A4000086940F0020008614A69054802600969B6
:101A500089B2416010BD00009800002000127A0099
:101A60002400002000F0C0BB7047704770477047EB
:101A700010B500F05BF9BDE810400121014800F00D
:101A800030B80000002C014010B500F04FF90121E2
:101A9000BDE81040880700F024B8000010B500F041
:101AA00045F9BDE810400121014800F01AB80000D6
:101AB0000004004000F03AB9704770477047704723
:101AC0007047704700F032B9002904D0018841F016
:101AD000800101807047018840F27F32114001800F
:101AE0007047C94301827047002904D0018841F042
:101AF000010101807047018840F2FE3211400180EF
:101B00007047002905D030F8441F41F4004101809E
:101B1000704730F8441FC1F30E0101807047000088
:101B200030B5028C22F001020284058C8388028B7E
:101B300022F070020C88144325F002020D8915432F
:101B40004A882A43CD8885860C4DA84202D00C4D88
:101B5000A8420FD122F008054A892A4322F0040541
:101B60008A882A4323F4014323F402438D891D43C9
:101B7000CB892B4383800483028430BD002C014039
:101B800000340140028B22F008020A4302837047AE
:101B900070B5028C22F010020284028C8388048BC0
:101BA00024F4E0460D884FF6FF7404EA052535431A
:101BB00022F020020E8904EA061616434A8804EA37
:101BC00002123243CE880687104EB04202D0104E29
:101BD000B04217D122F080024E8904EA061616435D
:101BE00026F040068A8804EA0212324323F40443B2
:101BF00023F408438E8904EA86061E43C98904EA51
:101C00008103334383800583028470BD002C01402F
:101C100000340140028B22F400624FF6FF7303EAA6
:101C2000012111430183704770B5028C22F4807248
:101C30000284028C8388848B24F070040D882543F1
:101C400022F400720E894FF6FF7404EA062616434A
:101C50004A8804EA02223243CE888687104EB04278
:101C600002D0104EB04217D122F400664A8904EA2D
:101C70000222324322F480668A8804EA0222324336
:101C800023F4104323F420438E8904EA06161E43EE
:101C9000C98904EA0113334383808583028470BDBC
:101CA000002C014000340140828B22F008020A43DC
:101CB0008283704770B5028C22F480520284058CB6
:101CC0008288838B23F4E0460C884FF6FF7303EA87
:101CD0000424344325F400560D8903EA05353543C1
:101CE0004E8803EA06362E43CD88A0F84050084DB2
:101CF000A84202D0074DA84205D1C2F30D0589893B
:101D000003EA81122A4382808483068470BD000026
:101D1000002C014000340140828B22F400624FF617
:101D2000FF7303EA012111438183704700F05CBA1D
:101D3000028802F08F020280CA884B881A43038807
:101D40001A4302808A8882850A880285012282825B
:101D5000044A904202D0044A904201D1097A018695
:101D600070470000002C01400034014000F03CBAF4
:101D700000F03ABA00F038BA00F036BA00F034BADF
:101D80000A0A01219140C94301807047002904D00B
:101D9000818941F4005181817047818921F400518A
:101DA00081817047002A03D0828A0A438282704769
:101DB000828A8A43828270472DE9FF4F91B00446A0
:101DC0004FF0000B0020009081468246002500263F
:101DD00080460027994A149899499A4B80B29442B8
:101DE0000DD1088055151615984647460121052046
:101DF000FFF768FB01218803FFF764FB54E0924A78
:101E000094420DD148800425082698464746012172
:101E10000420FFF757FB01214804FFF737FB43E09D
:101E20008A4A944216D1888001210846FFF74AFB6E
:101E300001218748FEF770FF2515E614DFF81482AC
:101E4000474601210820FFF73DFB01218804FFF7E9
:101E50001DFB29E0804B814A9C420DD1C88015159D
:101E6000D6149046474601211120FFF72BFB012194
:101E7000C804FFF70BFB17E0794B9C4214D1088193
:101E80009D1404269046774F01211020FFF71AFB7E
:101E900001212020FFF716FB01210846FFF712FB66
:101EA00001210805FFF7F2FAADF8045018208DF86B
:101EB000070003208DF8060001A94046FEF7DAFE70
:101EC000ADF8046048208DF8070001A93846FEF7F8
:101ED000D1FE204600F0CEF8129802900025ADF811
:101EE0000C50ADF80E50ADF810500C20ADF81200AB
:101EF000ADF8145002A9204600F02AF94F48844258
:101F00000DD1DFF864B15848143000904FF4805977
:101F10004FF4803A01210846FFF7AAFA35E04A4813
:101F200084420FD1DFF840B10BF13C0B4E48283012
:101F300000904FF080794FF4801A01210846FFF796
:101F400097FA22E0414884420FD1DFF81CB1ABF18F
:101F5000280B4548143800904FF010094FF4807A50
:101F600001210846FFF784FA0FE03B4884420CD178
:101F7000DFF8F8B03D4828380090DFF8F4904FEAD9
:101F8000395A01210220FFF773FA201D06460690F8
:101F90001398079010200890149809900A958027AC
:101FA0000B970C950D950E954FF40058CDF83C808D
:101FB000109506A95846FEF789FB069613980790D8
:101FC0000895149809900A950B970C950D950E9508
:101FD000CDF83C80109506A90098FEF777FB00210C
:101FE0005846FEF747FB01210098FEF743FB01220C
:101FF00040212046FFF7D6FE012280212046FFF730
:10200000D1FE002202215846FEF756FB4846FEF755
:1020100025FB5046FEF722FB40F2244500222946CC
:10202000204600F07CF829462046FFF7A9FE012152
:102030002046FFF7ABFE15B0BDE8F08F0038014039
:102040002C000020000801400044004000480040EF
:1020500000023000000C0140004C00400010014024
:102060000050004000140140440002405804024067
:102070000000011010B5244A811A131590422BD08C
:102080000FDC224940181CD098423BD104020121A8
:102090002046FFF709FA2046BDE810400021FFF76F
:1020A00003BA994223D0B1F56C4F2BD101218C0397
:1020B0002046FFF715FA2046BDE810400021FFF743
:1020C0000FBA01214C042046FFF7EEF92046BDE887
:1020D00010400021FFF7E8B90121CC042046FFF7AA
:1020E000E3F92046BDE810400021FFF7DDB90121EA
:1020F0000C052046FFF7D8F92046BDE81040002126
:10210000FFF7D2B910BD0000004C004000BCFFBF7B
:102110000246002012880A4200D00120704710B504
:10212000C1F3421301F01F040121A140012B07D08C
:10213000022B07D014303AB102680A43026010BD86
:102140000C30F8E71030F6E702688A43026010BDF1
:1021500030B585B004460D46208A4CF6FF71084024
:10216000E98801432182A1894EF6F3100140A88835
:102170002A8910436A890A431043A081A08A4FF636
:10218000FF410840A9890143A1826846FFF708FA88
:102190001148844201D1039800E0029800EBC0018D
:1021A00001EB001029688900B0FBF1F06423B0FB5B
:1021B000F3F109010A096FF018056A4300EB820088
:1021C000322202EB0010B0FBF3F000F00F000843E6
:1021D000208105B030BD00000038014070477047D5
:1021E0007047FEE7FEF73ABEFEF792BE704702E088
:1021F00008C8121F08C1002AFAD170477047002092
:1022000001E001C1121F002AFBD17047FFF7EAFF6E
:1022100005494FF0807300220868401C086098420E
:10222000FAD30A60F8E70000000000200204060864
:10223000000000000102030401020304060708096C
:10224000602200080000002038000000EE21000895
:10225000982200083800002078080000FE210008BD
:10226000000000000000000000000000000000006E
:10227000000000000000000000000000000000005E
:10228000000000000000000000000000000000004E
:08229000000000000000000046
:0400000508000131BD
:00000001FF
